{
  "_format": "hh-sol-artifact-1",
  "contractName": "Withdrawal",
  "sourceName": "contracts/Withdrawal.sol",
  "abi": [
    {
      "inputs": [
        {
          "internalType": "address",
          "name": "_dao",
          "type": "address"
        }
      ],
      "stateMutability": "nonpayable",
      "type": "constructor"
    },
    {
      "inputs": [],
      "name": "DevTimeOver",
      "type": "error"
    },
    {
      "inputs": [
        {
          "internalType": "uint256",
          "name": "",
          "type": "uint256"
        }
      ],
      "name": "InvalidAmount",
      "type": "error"
    },
    {
      "inputs": [],
      "name": "InvalidPayment",
      "type": "error"
    },
    {
      "inputs": [],
      "name": "OnlyDao",
      "type": "error"
    },
    {
      "inputs": [
        {
          "internalType": "address",
          "name": "owner",
          "type": "address"
        }
      ],
      "name": "OwnableInvalidOwner",
      "type": "error"
    },
    {
      "inputs": [
        {
          "internalType": "address",
          "name": "account",
          "type": "address"
        }
      ],
      "name": "OwnableUnauthorizedAccount",
      "type": "error"
    },
    {
      "inputs": [],
      "name": "PaymentError",
      "type": "error"
    },
    {
      "inputs": [],
      "name": "TransferError",
      "type": "error"
    },
    {
      "inputs": [],
      "name": "Wait45Days",
      "type": "error"
    },
    {
      "anonymous": false,
      "inputs": [
        {
          "indexed": true,
          "internalType": "address",
          "name": "previousOwner",
          "type": "address"
        },
        {
          "indexed": true,
          "internalType": "address",
          "name": "newOwner",
          "type": "address"
        }
      ],
      "name": "OwnershipTransferred",
      "type": "event"
    },
    {
      "inputs": [],
      "name": "Token1",
      "outputs": [
        {
          "internalType": "contract IERC20",
          "name": "",
          "type": "address"
        }
      ],
      "stateMutability": "view",
      "type": "function"
    },
    {
      "inputs": [],
      "name": "Token2",
      "outputs": [
        {
          "internalType": "contract IERC20",
          "name": "",
          "type": "address"
        }
      ],
      "stateMutability": "view",
      "type": "function"
    },
    {
      "inputs": [
        {
          "internalType": "address",
          "name": "wallet_address",
          "type": "address"
        }
      ],
      "name": "changeFeeWallet",
      "outputs": [],
      "stateMutability": "nonpayable",
      "type": "function"
    },
    {
      "inputs": [],
      "name": "dao",
      "outputs": [
        {
          "internalType": "address",
          "name": "",
          "type": "address"
        }
      ],
      "stateMutability": "view",
      "type": "function"
    },
    {
      "inputs": [],
      "name": "feeWallet",
      "outputs": [
        {
          "internalType": "address",
          "name": "",
          "type": "address"
        }
      ],
      "stateMutability": "view",
      "type": "function"
    },
    {
      "inputs": [],
      "name": "isDev",
      "outputs": [
        {
          "internalType": "bool",
          "name": "",
          "type": "bool"
        }
      ],
      "stateMutability": "view",
      "type": "function"
    },
    {
      "inputs": [],
      "name": "last_withdrawal_time",
      "outputs": [
        {
          "internalType": "uint256",
          "name": "",
          "type": "uint256"
        }
      ],
      "stateMutability": "view",
      "type": "function"
    },
    {
      "inputs": [],
      "name": "owner",
      "outputs": [
        {
          "internalType": "address",
          "name": "",
          "type": "address"
        }
      ],
      "stateMutability": "view",
      "type": "function"
    },
    {
      "inputs": [],
      "name": "renounceOwnership",
      "outputs": [],
      "stateMutability": "nonpayable",
      "type": "function"
    },
    {
      "inputs": [],
      "name": "switchToProduction",
      "outputs": [],
      "stateMutability": "nonpayable",
      "type": "function"
    },
    {
      "inputs": [
        {
          "internalType": "address",
          "name": "newOwner",
          "type": "address"
        }
      ],
      "name": "transferOwnership",
      "outputs": [],
      "stateMutability": "nonpayable",
      "type": "function"
    },
    {
      "inputs": [],
      "name": "withdrawToken1Balance",
      "outputs": [],
      "stateMutability": "nonpayable",
      "type": "function"
    },
    {
      "inputs": [],
      "name": "withdrawToken2Balance",
      "outputs": [],
      "stateMutability": "nonpayable",
      "type": "function"
    },
    {
      "inputs": [
        {
          "internalType": "uint256",
          "name": "withdraw_amount",
          "type": "uint256"
        },
        {
          "internalType": "address",
          "name": "withdrawal_address",
          "type": "address"
        }
      ],
      "name": "withdrawWithDao",
      "outputs": [],
      "stateMutability": "nonpayable",
      "type": "function"
    }
  ],
  "bytecode": "0x60806040526000805460ff60a01b1916600160a01b17905534801561002357600080fd5b50604051610954380380610954833981016040819052610042916100f5565b338061006857604051631e4fbdf760e01b81526000600482015260240160405180910390fd5b610071816100a5565b5060038054336001600160a01b031991821617909155600580549091166001600160a01b0392909216919091179055610125565b600080546001600160a01b038381166001600160a01b0319831681178455604051919092169283917f8be0079c531659141344cd1fd0a4f28419497f9722a3daafe3b4186f6b6457e09190a35050565b60006020828403121561010757600080fd5b81516001600160a01b038116811461011e57600080fd5b9392505050565b610820806101346000396000f3fe608060405234801561001057600080fd5b50600436106100ea5760003560e01c8063ad0b224c1161008c578063f079914f11610066578063f079914f146101a2578063f25f4b56146101c6578063f2fde38b146101d9578063f781abc3146101ec57600080fd5b8063ad0b224c1461018a578063c2f29eb014610192578063d055ccfe1461019a57600080fd5b8063715018a6116100c8578063715018a61461014b5780638da5cb5b1461015357806396a8797e14610164578063a4baecc91461017757600080fd5b80633e4d0310146100ef5780634162169f146101045780636f5cc3b914610134575b600080fd5b6101026100fd3660046106f9565b6101ff565b005b600554610117906001600160a01b031681565b6040516001600160a01b0390911681526020015b60405180910390f35b61013d60045481565b60405190815260200161012b565b610102610229565b6000546001600160a01b0316610117565b600154610117906001600160a01b031681565b600254610117906001600160a01b031681565b61010261023d565b6101026103a1565b6101026103b8565b6000546101b690600160a01b900460ff1681565b604051901515815260200161012b565b600354610117906001600160a01b031681565b6101026101e73660046106f9565b610497565b6101026101fa36600461071b565b6104d2565b610207610660565b600380546001600160a01b0319166001600160a01b0392909216919091179055565b610231610660565b61023b600061068d565b565b600054600160a01b900460ff1661026757604051631867fcd960e11b815260040160405180910390fd5b61026f610660565b6002546040516370a0823160e01b81523060048201526000916001600160a01b0316906370a0823190602401602060405180830381865afa1580156102b8573d6000803e3d6000fd5b505050506040513d601f19601f820116820180604052508101906102dc9190610747565b9050801561039e5760025460405163a9059cbb60e01b8152336004820152602481018390526000916001600160a01b03169063a9059cbb906044015b6020604051808303816000875af1158015610337573d6000803e3d6000fd5b505050506040513d601f19601f8201168201806040525081019061035b9190610760565b90508061039c5760405162461bcd60e51b815260206004820152600a6024820152697478206661696c65642160b01b60448201526064015b60405180910390fd5b505b50565b6103a9610660565b6000805460ff60a01b19169055565b600054600160a01b900460ff166103e257604051631867fcd960e11b815260040160405180910390fd5b6103ea610660565b6001546040516370a0823160e01b81523060048201526000916001600160a01b0316906370a0823190602401602060405180830381865afa158015610433573d6000803e3d6000fd5b505050506040513d601f19601f820116820180604052508101906104579190610747565b9050801561039e5760015460405163a9059cbb60e01b8152336004820152602481018390526000916001600160a01b03169063a9059cbb90604401610318565b61049f610660565b6001600160a01b0381166104c957604051631e4fbdf760e01b815260006004820152602401610393565b61039e8161068d565b6005546001600160a01b031633146104fd576040516327365a1960e01b815260040160405180910390fd5b6001546040516370a0823160e01b81523060048201526000916001600160a01b0316906370a0823190602401602060405180830381865afa158015610546573d6000803e3d6000fd5b505050506040513d601f19601f8201168201806040525081019061056a9190610747565b90506064610579826014610798565b61058391906107b5565b8311156105a657604051633728b83d60e01b815260048101849052602401610393565b600454156105df5742600454623b53806105c091906107d7565b11156105df5760405163508e6c2360e11b815260040160405180910390fd5b60015460405163a9059cbb60e01b81526001600160a01b038481166004830152602482018690529091169063a9059cbb906044016020604051808303816000875af1158015610632573d6000803e3d6000fd5b505050506040513d601f19601f820116820180604052508101906106569190610760565b5050426004555050565b6000546001600160a01b0316331461023b5760405163118cdaa760e01b8152336004820152602401610393565b600080546001600160a01b038381166001600160a01b0319831681178455604051919092169283917f8be0079c531659141344cd1fd0a4f28419497f9722a3daafe3b4186f6b6457e09190a35050565b80356001600160a01b03811681146106f457600080fd5b919050565b60006020828403121561070b57600080fd5b610714826106dd565b9392505050565b6000806040838503121561072e57600080fd5b8235915061073e602084016106dd565b90509250929050565b60006020828403121561075957600080fd5b5051919050565b60006020828403121561077257600080fd5b8151801515811461071457600080fd5b634e487b7160e01b600052601160045260246000fd5b80820281158282048414176107af576107af610782565b92915050565b6000826107d257634e487b7160e01b600052601260045260246000fd5b500490565b808201808211156107af576107af61078256fea26469706673582212204bbff83c88d0113b1bcc5d758493692c1d85624ee7271fb61f73ad261d4b6a1c64736f6c63430008140033",
  "linkReferences": {},
  "deployedLinkReferences": {}
}