{
  "_format": "hh-sol-artifact-1",
  "contractName": "Dex",
  "sourceName": "contracts/Dex.sol",
  "abi": [
    {
      "inputs": [
        {
          "internalType": "address",
          "name": "_token",
          "type": "address"
        },
        {
          "internalType": "address",
          "name": "_token2",
          "type": "address"
        }
      ],
      "stateMutability": "nonpayable",
      "type": "constructor"
    },
    {
      "inputs": [
        {
          "internalType": "address",
          "name": "tokenAddress",
          "type": "address"
        },
        {
          "internalType": "uint256",
          "name": "amount",
          "type": "uint256"
        }
      ],
      "name": "addLiquidity",
      "outputs": [],
      "stateMutability": "nonpayable",
      "type": "function"
    },
    {
      "inputs": [
        {
          "internalType": "address",
          "name": "token",
          "type": "address"
        },
        {
          "internalType": "address",
          "name": "account",
          "type": "address"
        }
      ],
      "name": "balanceOf",
      "outputs": [
        {
          "internalType": "uint256",
          "name": "",
          "type": "uint256"
        }
      ],
      "stateMutability": "view",
      "type": "function"
    },
    {
      "inputs": [],
      "name": "dexAddress",
      "outputs": [
        {
          "internalType": "address",
          "name": "",
          "type": "address"
        }
      ],
      "stateMutability": "view",
      "type": "function"
    },
    {
      "inputs": [
        {
          "internalType": "address",
          "name": "from",
          "type": "address"
        },
        {
          "internalType": "address",
          "name": "to",
          "type": "address"
        },
        {
          "internalType": "uint256",
          "name": "amount",
          "type": "uint256"
        }
      ],
      "name": "getSwapRate",
      "outputs": [
        {
          "internalType": "uint256",
          "name": "",
          "type": "uint256"
        }
      ],
      "stateMutability": "view",
      "type": "function"
    },
    {
      "inputs": [
        {
          "internalType": "address",
          "name": "from",
          "type": "address"
        },
        {
          "internalType": "address",
          "name": "to",
          "type": "address"
        },
        {
          "internalType": "uint256",
          "name": "amount",
          "type": "uint256"
        }
      ],
      "name": "swap",
      "outputs": [],
      "stateMutability": "nonpayable",
      "type": "function"
    },
    {
      "inputs": [],
      "name": "token1",
      "outputs": [
        {
          "internalType": "address",
          "name": "",
          "type": "address"
        }
      ],
      "stateMutability": "view",
      "type": "function"
    },
    {
      "inputs": [],
      "name": "token2",
      "outputs": [
        {
          "internalType": "address",
          "name": "",
          "type": "address"
        }
      ],
      "stateMutability": "view",
      "type": "function"
    }
  ],
  "bytecode": "0x608060405234801561001057600080fd5b5060405161079438038061079483398101604081905261002f9161007c565b600080546001600160a01b039384166001600160a01b031991821617909155600180549290931691161790556100af565b80516001600160a01b038116811461007757600080fd5b919050565b6000806040838503121561008f57600080fd5b61009883610060565b91506100a660208401610060565b90509250929050565b6106d6806100be6000396000f3fe608060405234801561001057600080fd5b506004361061007d5760003560e01c8063745fba841161005b578063745fba84146100e8578063d21220a7146100ee578063df791e5014610101578063f7888aec1461011457600080fd5b806325be124e1461008257806334b33715146100b257806356688700146100d3575b600080fd5b600154610095906001600160a01b031681565b6040516001600160a01b0390911681526020015b60405180910390f35b6100c56100c036600461057e565b610127565b6040519081526020016100a9565b6100e66100e13660046105ba565b610216565b005b30610095565b600054610095906001600160a01b031681565b6100e661010f36600461057e565b610292565b6100c56101223660046105e4565b6104eb565b6040516370a0823160e01b81523060048201526000906001600160a01b038516906370a0823190602401602060405180830381865afa15801561016e573d6000803e3d6000fd5b505050506040513d601f19601f820116820180604052508101906101929190610617565b6040516370a0823160e01b81523060048201526001600160a01b038516906370a0823190602401602060405180830381865afa1580156101d6573d6000803e3d6000fd5b505050506040513d601f19601f820116820180604052508101906101fa9190610617565b6102049190610630565b61020e9083610652565b949350505050565b6040516323b872dd60e01b8152336004820152306024820152604481018290526001600160a01b038316906323b872dd906064016020604051808303816000875af1158015610269573d6000803e3d6000fd5b505050506040513d601f19601f8201168201806040525081019061028d9190610677565b505050565b6000546001600160a01b0384811691161480156102bc57506001546001600160a01b038381169116145b806102ec57506001546001600160a01b0384811691161480156102ec57506000546001600160a01b038381169116145b6103335760405162461bcd60e51b8152602060048201526013602482015272496e76616c696420746f6b656e20706169722160681b60448201526064015b60405180910390fd5b6040516370a0823160e01b815233600482015281906001600160a01b038516906370a0823190602401602060405180830381865afa158015610379573d6000803e3d6000fd5b505050506040513d601f19601f8201168201806040525081019061039d9190610617565b10156103eb5760405162461bcd60e51b815260206004820152601b60248201527f4e6f7420656e6f7567682062616c616e636520746f2073776170210000000000604482015260640161032a565b60006103f8848484610127565b6040516323b872dd60e01b8152336004820152306024820152604481018490529091506001600160a01b038516906323b872dd906064016020604051808303816000875af115801561044e573d6000803e3d6000fd5b505050506040513d601f19601f820116820180604052508101906104729190610677565b5060405163a9059cbb60e01b8152336004820152602481018290526001600160a01b0384169063a9059cbb906044016020604051808303816000875af11580156104c0573d6000803e3d6000fd5b505050506040513d601f19601f820116820180604052508101906104e49190610677565b5050505050565b6040516370a0823160e01b81526001600160a01b038281166004830152600091908416906370a0823190602401602060405180830381865afa158015610535573d6000803e3d6000fd5b505050506040513d601f19601f820116820180604052508101906105599190610617565b90505b92915050565b80356001600160a01b038116811461057957600080fd5b919050565b60008060006060848603121561059357600080fd5b61059c84610562565b92506105aa60208501610562565b9150604084013590509250925092565b600080604083850312156105cd57600080fd5b6105d683610562565b946020939093013593505050565b600080604083850312156105f757600080fd5b61060083610562565b915061060e60208401610562565b90509250929050565b60006020828403121561062957600080fd5b5051919050565b60008261064d57634e487b7160e01b600052601260045260246000fd5b500490565b808202811582820484141761055c57634e487b7160e01b600052601160045260246000fd5b60006020828403121561068957600080fd5b8151801515811461069957600080fd5b939250505056fea264697066735822122058cde29c0a88ef864ce3a2f364dc16d122aa3be5b20ae00f966bb9d13707967d64736f6c63430008140033",
  "linkReferences": {},
  "deployedLinkReferences": {}
}