{
  "_format": "hh-sol-artifact-1",
  "contractName": "Bridge",
  "sourceName": "contracts/Bridge.sol",
  "abi": [
    {
      "inputs": [
        {
          "internalType": "address",
          "name": "uvm_address",
          "type": "address"
        },
        {
          "internalType": "address",
          "name": "dnm_address",
          "type": "address"
        },
        {
          "internalType": "address",
          "name": "land_address",
          "type": "address"
        },
        {
          "internalType": "address",
          "name": "stake_address",
          "type": "address"
        }
      ],
      "stateMutability": "nonpayable",
      "type": "constructor"
    },
    {
      "inputs": [
        {
          "internalType": "address",
          "name": "owner",
          "type": "address"
        }
      ],
      "name": "OwnableInvalidOwner",
      "type": "error"
    },
    {
      "inputs": [
        {
          "internalType": "address",
          "name": "account",
          "type": "address"
        }
      ],
      "name": "OwnableUnauthorizedAccount",
      "type": "error"
    },
    {
      "anonymous": false,
      "inputs": [
        {
          "indexed": true,
          "internalType": "uint256",
          "name": "id",
          "type": "uint256"
        },
        {
          "indexed": true,
          "internalType": "address",
          "name": "sender",
          "type": "address"
        },
        {
          "indexed": true,
          "internalType": "address",
          "name": "receiver",
          "type": "address"
        },
        {
          "indexed": false,
          "internalType": "uint256",
          "name": "uvm_amount",
          "type": "uint256"
        },
        {
          "indexed": false,
          "internalType": "uint256",
          "name": "dnm_amount",
          "type": "uint256"
        },
        {
          "indexed": false,
          "internalType": "uint256",
          "name": "land_id",
          "type": "uint256"
        },
        {
          "indexed": false,
          "internalType": "uint256",
          "name": "stake_duration",
          "type": "uint256"
        }
      ],
      "name": "FullTransfer",
      "type": "event"
    },
    {
      "anonymous": false,
      "inputs": [
        {
          "indexed": true,
          "internalType": "address",
          "name": "previousOwner",
          "type": "address"
        },
        {
          "indexed": true,
          "internalType": "address",
          "name": "newOwner",
          "type": "address"
        }
      ],
      "name": "OwnershipTransferred",
      "type": "event"
    },
    {
      "anonymous": false,
      "inputs": [
        {
          "indexed": true,
          "internalType": "uint256",
          "name": "id",
          "type": "uint256"
        },
        {
          "indexed": true,
          "internalType": "address",
          "name": "sender",
          "type": "address"
        },
        {
          "indexed": true,
          "internalType": "address",
          "name": "receiver",
          "type": "address"
        },
        {
          "indexed": false,
          "internalType": "uint256",
          "name": "amount",
          "type": "uint256"
        },
        {
          "indexed": false,
          "internalType": "address",
          "name": "token_address",
          "type": "address"
        }
      ],
      "name": "Transfer",
      "type": "event"
    },
    {
      "anonymous": false,
      "inputs": [
        {
          "indexed": true,
          "internalType": "uint256",
          "name": "id",
          "type": "uint256"
        },
        {
          "indexed": true,
          "internalType": "uint256",
          "name": "land",
          "type": "uint256"
        },
        {
          "indexed": false,
          "internalType": "address",
          "name": "sender",
          "type": "address"
        },
        {
          "indexed": false,
          "internalType": "address",
          "name": "receiver",
          "type": "address"
        }
      ],
      "name": "TransferNFT",
      "type": "event"
    },
    {
      "inputs": [],
      "name": "DNM",
      "outputs": [
        {
          "internalType": "contract IERC20",
          "name": "",
          "type": "address"
        }
      ],
      "stateMutability": "view",
      "type": "function"
    },
    {
      "inputs": [],
      "name": "EIGHTEEN_MONTH_DURATION",
      "outputs": [
        {
          "internalType": "uint256",
          "name": "",
          "type": "uint256"
        }
      ],
      "stateMutability": "view",
      "type": "function"
    },
    {
      "inputs": [],
      "name": "LAND",
      "outputs": [
        {
          "internalType": "contract IERC721",
          "name": "",
          "type": "address"
        }
      ],
      "stateMutability": "view",
      "type": "function"
    },
    {
      "inputs": [],
      "name": "ONE_YEAR_DURATION",
      "outputs": [
        {
          "internalType": "uint256",
          "name": "",
          "type": "uint256"
        }
      ],
      "stateMutability": "view",
      "type": "function"
    },
    {
      "inputs": [],
      "name": "REWARD_DECAY_PERIOD",
      "outputs": [
        {
          "internalType": "uint256",
          "name": "",
          "type": "uint256"
        }
      ],
      "stateMutability": "view",
      "type": "function"
    },
    {
      "inputs": [],
      "name": "STAKE_MAX_DNM",
      "outputs": [
        {
          "internalType": "uint256",
          "name": "",
          "type": "uint256"
        }
      ],
      "stateMutability": "view",
      "type": "function"
    },
    {
      "inputs": [],
      "name": "STAKE_MAX_UVM",
      "outputs": [
        {
          "internalType": "uint256",
          "name": "",
          "type": "uint256"
        }
      ],
      "stateMutability": "view",
      "type": "function"
    },
    {
      "inputs": [],
      "name": "STAKE_MIN_DNM",
      "outputs": [
        {
          "internalType": "uint256",
          "name": "",
          "type": "uint256"
        }
      ],
      "stateMutability": "view",
      "type": "function"
    },
    {
      "inputs": [],
      "name": "TIME_STEP",
      "outputs": [
        {
          "internalType": "uint256",
          "name": "",
          "type": "uint256"
        }
      ],
      "stateMutability": "view",
      "type": "function"
    },
    {
      "inputs": [],
      "name": "TWO_YEAR_DURATION",
      "outputs": [
        {
          "internalType": "uint256",
          "name": "",
          "type": "uint256"
        }
      ],
      "stateMutability": "view",
      "type": "function"
    },
    {
      "inputs": [],
      "name": "UVM",
      "outputs": [
        {
          "internalType": "contract IERC20",
          "name": "",
          "type": "address"
        }
      ],
      "stateMutability": "view",
      "type": "function"
    },
    {
      "inputs": [
        {
          "internalType": "uint256",
          "name": "dnm",
          "type": "uint256"
        }
      ],
      "name": "calDnmUvmRatio",
      "outputs": [
        {
          "internalType": "uint256",
          "name": "",
          "type": "uint256"
        }
      ],
      "stateMutability": "pure",
      "type": "function"
    },
    {
      "inputs": [
        {
          "internalType": "uint256",
          "name": "uvm_amount",
          "type": "uint256"
        },
        {
          "internalType": "uint256",
          "name": "dnm_amount",
          "type": "uint256"
        },
        {
          "internalType": "uint256",
          "name": "land_id",
          "type": "uint256"
        },
        {
          "internalType": "uint256",
          "name": "stake_duration",
          "type": "uint256"
        }
      ],
      "name": "fullTransferFromBsc",
      "outputs": [],
      "stateMutability": "nonpayable",
      "type": "function"
    },
    {
      "inputs": [
        {
          "internalType": "uint256",
          "name": "uvm_amount",
          "type": "uint256"
        },
        {
          "internalType": "uint256",
          "name": "dnm_amount",
          "type": "uint256"
        },
        {
          "internalType": "uint256",
          "name": "land_id",
          "type": "uint256"
        },
        {
          "internalType": "uint256",
          "name": "stake_duration",
          "type": "uint256"
        },
        {
          "internalType": "address",
          "name": "_address",
          "type": "address"
        }
      ],
      "name": "fullTransferToPolygon",
      "outputs": [],
      "stateMutability": "nonpayable",
      "type": "function"
    },
    {
      "inputs": [
        {
          "internalType": "uint256",
          "name": "land_id",
          "type": "uint256"
        }
      ],
      "name": "getPlanByTokenId",
      "outputs": [
        {
          "internalType": "uint8",
          "name": "",
          "type": "uint8"
        }
      ],
      "stateMutability": "pure",
      "type": "function"
    },
    {
      "inputs": [],
      "name": "id",
      "outputs": [
        {
          "internalType": "uint256",
          "name": "",
          "type": "uint256"
        }
      ],
      "stateMutability": "view",
      "type": "function"
    },
    {
      "inputs": [],
      "name": "owner",
      "outputs": [
        {
          "internalType": "address",
          "name": "",
          "type": "address"
        }
      ],
      "stateMutability": "view",
      "type": "function"
    },
    {
      "inputs": [],
      "name": "renounceOwnership",
      "outputs": [],
      "stateMutability": "nonpayable",
      "type": "function"
    },
    {
      "inputs": [],
      "name": "stakeMeta",
      "outputs": [
        {
          "internalType": "contract StakeMeta",
          "name": "",
          "type": "address"
        }
      ],
      "stateMutability": "view",
      "type": "function"
    },
    {
      "inputs": [
        {
          "internalType": "address",
          "name": "token_address",
          "type": "address"
        },
        {
          "internalType": "uint256",
          "name": "amount",
          "type": "uint256"
        }
      ],
      "name": "transferFromBSC",
      "outputs": [],
      "stateMutability": "nonpayable",
      "type": "function"
    },
    {
      "inputs": [
        {
          "internalType": "uint256",
          "name": "token_id",
          "type": "uint256"
        }
      ],
      "name": "transferNFTfromBSC",
      "outputs": [],
      "stateMutability": "nonpayable",
      "type": "function"
    },
    {
      "inputs": [
        {
          "internalType": "uint256",
          "name": "token_id",
          "type": "uint256"
        },
        {
          "internalType": "address",
          "name": "_address",
          "type": "address"
        }
      ],
      "name": "transferNFTtoPolygon",
      "outputs": [],
      "stateMutability": "nonpayable",
      "type": "function"
    },
    {
      "inputs": [
        {
          "internalType": "address",
          "name": "newOwner",
          "type": "address"
        }
      ],
      "name": "transferOwnership",
      "outputs": [],
      "stateMutability": "nonpayable",
      "type": "function"
    },
    {
      "inputs": [
        {
          "internalType": "address",
          "name": "token_address",
          "type": "address"
        },
        {
          "internalType": "address",
          "name": "_address",
          "type": "address"
        },
        {
          "internalType": "uint256",
          "name": "amount",
          "type": "uint256"
        }
      ],
      "name": "transferToPolygon",
      "outputs": [],
      "stateMutability": "nonpayable",
      "type": "function"
    }
  ],
  "bytecode": "0x60806040526301e133806001556302d124806002556303c2670060035560006004553480156200002e57600080fd5b5060405162001adb38038062001adb833981016040819052620000519162000145565b33806200007857604051631e4fbdf760e01b81526000600482015260240160405180910390fd5b6200008381620000d8565b50600580546001600160a01b039586166001600160a01b0319918216179091556006805494861694821694909417909355600780549285169284169290921790915560088054919093169116179055620001a2565b600080546001600160a01b038381166001600160a01b0319831681178455604051919092169283917f8be0079c531659141344cd1fd0a4f28419497f9722a3daafe3b4186f6b6457e09190a35050565b80516001600160a01b03811681146200014057600080fd5b919050565b600080600080608085870312156200015c57600080fd5b620001678562000128565b9350620001776020860162000128565b9250620001876040860162000128565b9150620001976060860162000128565b905092959194509250565b61192980620001b26000396000f3fe608060405234801561001057600080fd5b50600436106101585760003560e01c80638da5cb5b116100c3578063b4ebaa2d1161007c578063b4ebaa2d14610294578063c3dbb096146102b9578063ce89205b146102cc578063f19d2e5e146102df578063f2fde38b146102ef578063f9728e2d1461030257600080fd5b80638da5cb5b146102465780639965f9e2146102575780639d69c99114610260578063a4580cd01461026f578063af640d0f14610278578063b38a97791461028157600080fd5b8063631e136c11610115578063631e136c146101eb5780636955dd20146101f4578063715018a614610207578063740770131461020f5780637dea5880146102225780637fea672c1461023557600080fd5b80630e1718961461015d5780632424e6fa146101835780632abcad7a1461018e5780632f3d2fa2146101a357806332bc298c146101ce57806332dbfff3146101d8575b600080fd5b61017061016b366004611615565b610315565b6040519081526020015b60405180910390f35b6101706301e1338081565b6101a161019c366004611643565b610345565b005b6006546101b6906001600160a01b031681565b6040516001600160a01b03909116815260200161017a565b6101706201518081565b6101a16101e6366004611673565b610552565b61017060015481565b6101a16102023660046116c0565b610add565b6101a1610c48565b6008546101b6906001600160a01b031681565b6101a16102303660046116ec565b610c5c565b61017069014542ba12a337c0000081565b6000546001600160a01b03166101b6565b61017060035481565b610170670de0b6b3a764000081565b61017060025481565b61017060045481565b6005546101b6906001600160a01b031681565b6102a76102a2366004611615565b610dcb565b60405160ff909116815260200161017a565b6101a16102c736600461172d565b610e79565b6007546101b6906001600160a01b031681565b61017068018493fba64ef0000081565b6101a16102fd36600461175f565b611364565b6101a1610310366004611615565b6113a2565b600068018493fba64ef000006103358369014542ba12a337c00000611799565b61033f91906117b0565b92915050565b61034d611598565b60075460405163020604bf60e21b81526004810184905230916001600160a01b03169063081812fc90602401602060405180830381865afa158015610396573d6000803e3d6000fd5b505050506040513d601f19601f820116820180604052508101906103ba91906117d2565b6001600160a01b03161461040d5760405162461bcd60e51b81526020600482015260156024820152741b185b99081a185cc81b9bdd08185c1c1c9bdd9959605a1b60448201526064015b60405180910390fd5b6007546040516331a9108f60e11b81526004810184905233916001600160a01b031690636352211e90602401602060405180830381865afa158015610456573d6000803e3d6000fd5b505050506040513d601f19601f8201168201806040525081019061047a91906117d2565b6001600160a01b0316146104a05760405162461bcd60e51b8152600401610404906117ef565b6007546040516323b872dd60e01b81526001600160a01b03909116906323b872dd906104d49030903390879060040161181e565b600060405180830381600087803b1580156104ee57600080fd5b505af1158015610502573d6000803e3d6000fd5b5050600454604080513081526001600160a01b03861660208201528694509192507fb1bdd8ee0a079056387b2b46f869978b9651cab9b68bee0c92971908f627b025910160405180910390a35050565b61055a611598565b6005546040516370a0823160e01b815230600482015286916001600160a01b0316906370a0823190602401602060405180830381865afa1580156105a2573d6000803e3d6000fd5b505050506040513d601f19601f820116820180604052508101906105c69190611842565b10156105e45760405162461bcd60e51b81526004016104049061185b565b6006546040516370a0823160e01b815230600482015285916001600160a01b0316906370a0823190602401602060405180830381865afa15801561062c573d6000803e3d6000fd5b505050506040513d601f19601f820116820180604052508101906106509190611842565b101561066e5760405162461bcd60e51b81526004016104049061185b565b6007546040516331a9108f60e11b81526004810185905230916001600160a01b031690636352211e90602401602060405180830381865afa1580156106b7573d6000803e3d6000fd5b505050506040513d601f19601f820116820180604052508101906106db91906117d2565b6001600160a01b0316146107265760405162461bcd60e51b815260206004820152601260248201527124b73b30b634b2103630b7321037bbb732b960711b6044820152606401610404565b6001600460008282546107399190611890565b909155505081156109275760065460085460405163095ea7b360e01b81526001600160a01b0391821660048201526024810187905291169063095ea7b3906044016020604051808303816000875af1158015610799573d6000803e3d6000fd5b505050506040513d601f19601f820116820180604052508101906107bd91906118a3565b5060006107c985610315565b60055460085460405163095ea7b360e01b81526001600160a01b03918216600482015260248101849052929350169063095ea7b3906044016020604051808303816000875af1158015610820573d6000803e3d6000fd5b505050506040513d601f19601f8201168201806040525081019061084491906118a3565b5060075460085460405163095ea7b360e01b81526001600160a01b0391821660048201526024810187905291169063095ea7b390604401600060405180830381600087803b15801561089557600080fd5b505af11580156108a9573d6000803e3d6000fd5b50506008546040516320f76e5f60e11b81526001600160a01b038681166004830152602482018a9052604482018990526064820188905290911692506341eedcbe9150608401600060405180830381600087803b15801561090957600080fd5b505af115801561091d573d6000803e3d6000fd5b5050505050610a7e565b6007546040516323b872dd60e01b81526001600160a01b03909116906323b872dd9061095b9030908590889060040161181e565b600060405180830381600087803b15801561097557600080fd5b505af1158015610989573d6000803e3d6000fd5b505060055460405163a9059cbb60e01b81526001600160a01b038581166004830152602482018a9052909116925063a9059cbb91506044016020604051808303816000875af11580156109e0573d6000803e3d6000fd5b505050506040513d601f19601f82011682018060405250810190610a0491906118a3565b5060065460405163a9059cbb60e01b81526001600160a01b038381166004830152602482018790529091169063a9059cbb906044016020604051808303816000875af1158015610a58573d6000803e3d6000fd5b505050506040513d601f19601f82011682018060405250810190610a7c91906118a3565b505b6004546040805187815260208101879052908101859052606081018490526001600160a01b0383169133917f1b56594a908ab98ff0c509dce4035e6bae9bde8eff8c4e8d5c1afac95a3ad44d9060800160405180910390a45050505050565b604051636eb1769f60e11b8152336004820152306024820152829082906001600160a01b0383169063dd62ed3e90604401602060405180830381865afa158015610b2b573d6000803e3d6000fd5b505050506040513d601f19601f82011682018060405250810190610b4f9190611842565b1015610b6d5760405162461bcd60e51b8152600401610404906118c5565b600160046000828254610b809190611890565b90915550506040516323b872dd60e01b81526001600160a01b038216906323b872dd90610bb59033903090879060040161181e565b6020604051808303816000875af1158015610bd4573d6000803e3d6000fd5b505050506040513d601f19601f82011682018060405250810190610bf891906118a3565b50600454604080518481526001600160a01b03861660208201523092339290917f227e58b8c176111094bcb6377c6bc077bf3dc9bbd089539116c826ee827c6a8e910160405180910390a4505050565b610c50611598565b610c5a60006115c5565b565b610c64611598565b6040516370a0823160e01b8152306004820152839082906001600160a01b038316906370a0823190602401602060405180830381865afa158015610cac573d6000803e3d6000fd5b505050506040513d601f19601f82011682018060405250810190610cd09190611842565b1015610cee5760405162461bcd60e51b81526004016104049061185b565b600160046000828254610d019190611890565b909155505060405163a9059cbb60e01b81526001600160a01b0384811660048301526024820184905282169063a9059cbb906044016020604051808303816000875af1158015610d55573d6000803e3d6000fd5b505050506040513d601f19601f82011682018060405250810190610d7991906118a3565b50600454604080518481526001600160a01b03871660208201523092339290917f227e58b8c176111094bcb6377c6bc077bf3dc9bbd089539116c826ee827c6a8e91015b60405180910390a450505050565b600060018210158015610de05750611f408211155b15610ded57506001919050565b611f418210158015610e015750613a988211155b15610e0e57506002919050565b613a998210158015610e225750614e208211155b15610e2f57506003919050565b614e218210158015610e4357506159d88211155b15610e5057506004919050565b6159d98210158015610e6457506161a88211155b15610e7157506005919050565b506000919050565b8015610f3c57600154811480610e90575060035481145b80610e9c575060025481145b610edd5760405162461bcd60e51b8152602060048201526012602482015271496e76616c6964207374616b652074696d6560701b6044820152606401610404565b6000610ee884610315565b905084811115610f3a5760405162461bcd60e51b815260206004820152601b60248201527f496e7375666669656369656e7420616d6f756e74206f662075766d00000000006044820152606401610404565b505b600554604051636eb1769f60e11b815233600482015230602482015285916001600160a01b03169063dd62ed3e90604401602060405180830381865afa158015610f8a573d6000803e3d6000fd5b505050506040513d601f19601f82011682018060405250810190610fae9190611842565b1015610fcc5760405162461bcd60e51b8152600401610404906118c5565b600654604051636eb1769f60e11b815233600482015230602482015284916001600160a01b03169063dd62ed3e90604401602060405180830381865afa15801561101a573d6000803e3d6000fd5b505050506040513d601f19601f8201168201806040525081019061103e9190611842565b101561105c5760405162461bcd60e51b8152600401610404906118c5565b60075460405163020604bf60e21b81526004810184905230916001600160a01b03169063081812fc90602401602060405180830381865afa1580156110a5573d6000803e3d6000fd5b505050506040513d601f19601f820116820180604052508101906110c991906117d2565b6001600160a01b0316146111175760405162461bcd60e51b8152602060048201526015602482015274151bdad95b881a5cc81b9bdd08185c1c1c9bdd9959605a1b6044820152606401610404565b6007546040516331a9108f60e11b81526004810184905233916001600160a01b031690636352211e90602401602060405180830381865afa158015611160573d6000803e3d6000fd5b505050506040513d601f19601f8201168201806040525081019061118491906117d2565b6001600160a01b0316146111aa5760405162461bcd60e51b8152600401610404906117ef565b6005546040516323b872dd60e01b81526001600160a01b03909116906323b872dd906111de9033903090899060040161181e565b6020604051808303816000875af11580156111fd573d6000803e3d6000fd5b505050506040513d601f19601f8201168201806040525081019061122191906118a3565b506006546040516323b872dd60e01b81526001600160a01b03909116906323b872dd906112569033903090889060040161181e565b6020604051808303816000875af1158015611275573d6000803e3d6000fd5b505050506040513d601f19601f8201168201806040525081019061129991906118a3565b506007546040516323b872dd60e01b81526001600160a01b03909116906323b872dd906112ce9033903090879060040161181e565b600060405180830381600087803b1580156112e857600080fd5b505af11580156112fc573d6000803e3d6000fd5b505050506001600460008282546113139190611890565b9091555050600454604080518681526020810186905290810184905260608101839052309133917f1b56594a908ab98ff0c509dce4035e6bae9bde8eff8c4e8d5c1afac95a3ad44d90608001610dbd565b61136c611598565b6001600160a01b03811661139657604051631e4fbdf760e01b815260006004820152602401610404565b61139f816115c5565b50565b60075460405163020604bf60e21b81526004810183905230916001600160a01b03169063081812fc90602401602060405180830381865afa1580156113eb573d6000803e3d6000fd5b505050506040513d601f19601f8201168201806040525081019061140f91906117d2565b6001600160a01b03161461145d5760405162461bcd60e51b81526020600482015260156024820152741b185b99081a185cc81b9bdd08185c1c1c9bdd9959605a1b6044820152606401610404565b6007546040516331a9108f60e11b81526004810183905233916001600160a01b031690636352211e90602401602060405180830381865afa1580156114a6573d6000803e3d6000fd5b505050506040513d601f19601f820116820180604052508101906114ca91906117d2565b6001600160a01b0316146114f05760405162461bcd60e51b8152600401610404906117ef565b6007546040516323b872dd60e01b81526001600160a01b03909116906323b872dd906115249033903090869060040161181e565b600060405180830381600087803b15801561153e57600080fd5b505af1158015611552573d6000803e3d6000fd5b5050600454604080513381523060208201528594509192507fb1bdd8ee0a079056387b2b46f869978b9651cab9b68bee0c92971908f627b025910160405180910390a350565b6000546001600160a01b03163314610c5a5760405163118cdaa760e01b8152336004820152602401610404565b600080546001600160a01b038381166001600160a01b0319831681178455604051919092169283917f8be0079c531659141344cd1fd0a4f28419497f9722a3daafe3b4186f6b6457e09190a35050565b60006020828403121561162757600080fd5b5035919050565b6001600160a01b038116811461139f57600080fd5b6000806040838503121561165657600080fd5b8235915060208301356116688161162e565b809150509250929050565b600080600080600060a0868803121561168b57600080fd5b8535945060208601359350604086013592506060860135915060808601356116b28161162e565b809150509295509295909350565b600080604083850312156116d357600080fd5b82356116de8161162e565b946020939093013593505050565b60008060006060848603121561170157600080fd5b833561170c8161162e565b9250602084013561171c8161162e565b929592945050506040919091013590565b6000806000806080858703121561174357600080fd5b5050823594602084013594506040840135936060013592509050565b60006020828403121561177157600080fd5b813561177c8161162e565b9392505050565b634e487b7160e01b600052601160045260246000fd5b808202811582820484141761033f5761033f611783565b6000826117cd57634e487b7160e01b600052601260045260246000fd5b500490565b6000602082840312156117e457600080fd5b815161177c8161162e565b6020808252601590820152743cb7ba9030b932903737ba103a34329037bbb732b960591b604082015260600190565b6001600160a01b039384168152919092166020820152604081019190915260600190565b60006020828403121561185457600080fd5b5051919050565b6020808252818101527f496e73756666696369656e742062616c616e636520696e20636f6e7472616374604082015260600190565b8082018082111561033f5761033f611783565b6000602082840312156118b557600080fd5b8151801515811461177c57600080fd5b602080825260149082015273082d8d8deeec2dcc6ca40dcdee840cadcdeeaced60631b60408201526060019056fea264697066735822122035f9da23ca3b2ea3fe411c858ca6a38785c0439688b254cf2fef11b4f80d505264736f6c63430008140033",
  "linkReferences": {},
  "deployedLinkReferences": {}
}