{
  "_format": "hh-sol-artifact-1",
  "contractName": "Bridge",
  "sourceName": "contracts/Bridge.sol",
  "abi": [
    {
      "inputs": [
        {
          "internalType": "address",
          "name": "uvm_address",
          "type": "address"
        },
        {
          "internalType": "address",
          "name": "dnm_address",
          "type": "address"
        },
        {
          "internalType": "address",
          "name": "land_address",
          "type": "address"
        },
        {
          "internalType": "address",
          "name": "stake_address",
          "type": "address"
        }
      ],
      "stateMutability": "nonpayable",
      "type": "constructor"
    },
    {
      "inputs": [
        {
          "internalType": "address",
          "name": "owner",
          "type": "address"
        }
      ],
      "name": "OwnableInvalidOwner",
      "type": "error"
    },
    {
      "inputs": [
        {
          "internalType": "address",
          "name": "account",
          "type": "address"
        }
      ],
      "name": "OwnableUnauthorizedAccount",
      "type": "error"
    },
    {
      "anonymous": false,
      "inputs": [
        {
          "indexed": true,
          "internalType": "uint256",
          "name": "id",
          "type": "uint256"
        },
        {
          "indexed": true,
          "internalType": "address",
          "name": "sender",
          "type": "address"
        },
        {
          "indexed": true,
          "internalType": "address",
          "name": "receiver",
          "type": "address"
        },
        {
          "indexed": false,
          "internalType": "uint256",
          "name": "uvm_amount",
          "type": "uint256"
        },
        {
          "indexed": false,
          "internalType": "uint256",
          "name": "dnm_amount",
          "type": "uint256"
        },
        {
          "indexed": false,
          "internalType": "uint256",
          "name": "land_id",
          "type": "uint256"
        },
        {
          "indexed": false,
          "internalType": "uint256",
          "name": "stake_duration",
          "type": "uint256"
        }
      ],
      "name": "FullTransfer",
      "type": "event"
    },
    {
      "anonymous": false,
      "inputs": [
        {
          "indexed": true,
          "internalType": "address",
          "name": "previousOwner",
          "type": "address"
        },
        {
          "indexed": true,
          "internalType": "address",
          "name": "newOwner",
          "type": "address"
        }
      ],
      "name": "OwnershipTransferred",
      "type": "event"
    },
    {
      "anonymous": false,
      "inputs": [
        {
          "indexed": true,
          "internalType": "uint256",
          "name": "id",
          "type": "uint256"
        },
        {
          "indexed": true,
          "internalType": "address",
          "name": "sender",
          "type": "address"
        },
        {
          "indexed": true,
          "internalType": "address",
          "name": "receiver",
          "type": "address"
        },
        {
          "indexed": false,
          "internalType": "uint256",
          "name": "amount",
          "type": "uint256"
        },
        {
          "indexed": false,
          "internalType": "address",
          "name": "token_address",
          "type": "address"
        }
      ],
      "name": "Transfer",
      "type": "event"
    },
    {
      "anonymous": false,
      "inputs": [
        {
          "indexed": true,
          "internalType": "uint256",
          "name": "id",
          "type": "uint256"
        },
        {
          "indexed": true,
          "internalType": "uint256",
          "name": "land",
          "type": "uint256"
        },
        {
          "indexed": false,
          "internalType": "address",
          "name": "sender",
          "type": "address"
        },
        {
          "indexed": false,
          "internalType": "address",
          "name": "receiver",
          "type": "address"
        }
      ],
      "name": "TransferNFT",
      "type": "event"
    },
    {
      "inputs": [],
      "name": "DNM",
      "outputs": [
        {
          "internalType": "contract IERC20",
          "name": "",
          "type": "address"
        }
      ],
      "stateMutability": "view",
      "type": "function"
    },
    {
      "inputs": [],
      "name": "EIGHTEEN_MONTH_DURATION",
      "outputs": [
        {
          "internalType": "uint256",
          "name": "",
          "type": "uint256"
        }
      ],
      "stateMutability": "view",
      "type": "function"
    },
    {
      "inputs": [],
      "name": "LAND",
      "outputs": [
        {
          "internalType": "contract IERC721",
          "name": "",
          "type": "address"
        }
      ],
      "stateMutability": "view",
      "type": "function"
    },
    {
      "inputs": [],
      "name": "ONE_YEAR_DURATION",
      "outputs": [
        {
          "internalType": "uint256",
          "name": "",
          "type": "uint256"
        }
      ],
      "stateMutability": "view",
      "type": "function"
    },
    {
      "inputs": [],
      "name": "REWARD_DECAY_PERIOD",
      "outputs": [
        {
          "internalType": "uint256",
          "name": "",
          "type": "uint256"
        }
      ],
      "stateMutability": "view",
      "type": "function"
    },
    {
      "inputs": [],
      "name": "STAKE_MAX_DNM",
      "outputs": [
        {
          "internalType": "uint256",
          "name": "",
          "type": "uint256"
        }
      ],
      "stateMutability": "view",
      "type": "function"
    },
    {
      "inputs": [],
      "name": "STAKE_MAX_UVM",
      "outputs": [
        {
          "internalType": "uint256",
          "name": "",
          "type": "uint256"
        }
      ],
      "stateMutability": "view",
      "type": "function"
    },
    {
      "inputs": [],
      "name": "STAKE_MIN_DNM",
      "outputs": [
        {
          "internalType": "uint256",
          "name": "",
          "type": "uint256"
        }
      ],
      "stateMutability": "view",
      "type": "function"
    },
    {
      "inputs": [],
      "name": "TIME_STEP",
      "outputs": [
        {
          "internalType": "uint256",
          "name": "",
          "type": "uint256"
        }
      ],
      "stateMutability": "view",
      "type": "function"
    },
    {
      "inputs": [],
      "name": "TWO_YEAR_DURATION",
      "outputs": [
        {
          "internalType": "uint256",
          "name": "",
          "type": "uint256"
        }
      ],
      "stateMutability": "view",
      "type": "function"
    },
    {
      "inputs": [],
      "name": "UVM",
      "outputs": [
        {
          "internalType": "contract IERC20",
          "name": "",
          "type": "address"
        }
      ],
      "stateMutability": "view",
      "type": "function"
    },
    {
      "inputs": [
        {
          "internalType": "uint256",
          "name": "dnm",
          "type": "uint256"
        }
      ],
      "name": "calDnmUvmRatio",
      "outputs": [
        {
          "internalType": "uint256",
          "name": "",
          "type": "uint256"
        }
      ],
      "stateMutability": "pure",
      "type": "function"
    },
    {
      "inputs": [
        {
          "internalType": "uint256",
          "name": "uvm_amount",
          "type": "uint256"
        },
        {
          "internalType": "uint256",
          "name": "dnm_amount",
          "type": "uint256"
        },
        {
          "internalType": "uint256",
          "name": "land_id",
          "type": "uint256"
        },
        {
          "internalType": "uint256",
          "name": "stake_duration",
          "type": "uint256"
        }
      ],
      "name": "fullTransferFromBsc",
      "outputs": [],
      "stateMutability": "nonpayable",
      "type": "function"
    },
    {
      "inputs": [
        {
          "internalType": "uint256",
          "name": "uvm_amount",
          "type": "uint256"
        },
        {
          "internalType": "uint256",
          "name": "dnm_amount",
          "type": "uint256"
        },
        {
          "internalType": "uint256",
          "name": "land_id",
          "type": "uint256"
        },
        {
          "internalType": "uint256",
          "name": "stake_duration",
          "type": "uint256"
        },
        {
          "internalType": "address",
          "name": "_address",
          "type": "address"
        }
      ],
      "name": "fullTransferToPolygon",
      "outputs": [],
      "stateMutability": "nonpayable",
      "type": "function"
    },
    {
      "inputs": [
        {
          "internalType": "uint256",
          "name": "land_id",
          "type": "uint256"
        }
      ],
      "name": "getPlanByTokenId",
      "outputs": [
        {
          "internalType": "uint8",
          "name": "",
          "type": "uint8"
        }
      ],
      "stateMutability": "pure",
      "type": "function"
    },
    {
      "inputs": [],
      "name": "id",
      "outputs": [
        {
          "internalType": "uint256",
          "name": "",
          "type": "uint256"
        }
      ],
      "stateMutability": "view",
      "type": "function"
    },
    {
      "inputs": [],
      "name": "owner",
      "outputs": [
        {
          "internalType": "address",
          "name": "",
          "type": "address"
        }
      ],
      "stateMutability": "view",
      "type": "function"
    },
    {
      "inputs": [],
      "name": "renounceOwnership",
      "outputs": [],
      "stateMutability": "nonpayable",
      "type": "function"
    },
    {
      "inputs": [],
      "name": "stakeMeta",
      "outputs": [
        {
          "internalType": "contract StakeMeta",
          "name": "",
          "type": "address"
        }
      ],
      "stateMutability": "view",
      "type": "function"
    },
    {
      "inputs": [
        {
          "internalType": "address",
          "name": "token_address",
          "type": "address"
        },
        {
          "internalType": "uint256",
          "name": "amount",
          "type": "uint256"
        }
      ],
      "name": "transferFromBSC",
      "outputs": [],
      "stateMutability": "nonpayable",
      "type": "function"
    },
    {
      "inputs": [
        {
          "internalType": "uint256",
          "name": "token_id",
          "type": "uint256"
        }
      ],
      "name": "transferNFTfromBSC",
      "outputs": [],
      "stateMutability": "nonpayable",
      "type": "function"
    },
    {
      "inputs": [
        {
          "internalType": "uint256",
          "name": "token_id",
          "type": "uint256"
        },
        {
          "internalType": "address",
          "name": "_address",
          "type": "address"
        }
      ],
      "name": "transferNFTtoPolygon",
      "outputs": [],
      "stateMutability": "nonpayable",
      "type": "function"
    },
    {
      "inputs": [
        {
          "internalType": "address",
          "name": "newOwner",
          "type": "address"
        }
      ],
      "name": "transferOwnership",
      "outputs": [],
      "stateMutability": "nonpayable",
      "type": "function"
    },
    {
      "inputs": [
        {
          "internalType": "address",
          "name": "token_address",
          "type": "address"
        },
        {
          "internalType": "address",
          "name": "_address",
          "type": "address"
        },
        {
          "internalType": "uint256",
          "name": "amount",
          "type": "uint256"
        }
      ],
      "name": "transferToPolygon",
      "outputs": [],
      "stateMutability": "nonpayable",
      "type": "function"
    }
  ],
  "bytecode": "0x60806040526301e133806001556302d124806002556303c2670060035560006004553480156200002e57600080fd5b5060405162001a9f38038062001a9f833981016040819052620000519162000145565b33806200007857604051631e4fbdf760e01b81526000600482015260240160405180910390fd5b6200008381620000d8565b50600580546001600160a01b039586166001600160a01b0319918216179091556006805494861694821694909417909355600780549285169284169290921790915560088054919093169116179055620001a2565b600080546001600160a01b038381166001600160a01b0319831681178455604051919092169283917f8be0079c531659141344cd1fd0a4f28419497f9722a3daafe3b4186f6b6457e09190a35050565b80516001600160a01b03811681146200014057600080fd5b919050565b600080600080608085870312156200015c57600080fd5b620001678562000128565b9350620001776020860162000128565b9250620001876040860162000128565b9150620001976060860162000128565b905092959194509250565b6118ed80620001b26000396000f3fe608060405234801561001057600080fd5b50600436106101585760003560e01c80638da5cb5b116100c3578063b4ebaa2d1161007c578063b4ebaa2d14610294578063c3dbb096146102b9578063ce89205b146102cc578063f19d2e5e146102df578063f2fde38b146102ef578063f9728e2d1461030257600080fd5b80638da5cb5b146102465780639965f9e2146102575780639d69c99114610260578063a4580cd01461026f578063af640d0f14610278578063b38a97791461028157600080fd5b8063631e136c11610115578063631e136c146101eb5780636955dd20146101f4578063715018a614610207578063740770131461020f5780637dea5880146102225780637fea672c1461023557600080fd5b80630e1718961461015d5780632424e6fa146101835780632abcad7a1461018e5780632f3d2fa2146101a357806332bc298c146101ce57806332dbfff3146101d8575b600080fd5b61017061016b366004611608565b610315565b6040519081526020015b60405180910390f35b6101706301e1338081565b6101a161019c366004611636565b610345565b005b6006546101b6906001600160a01b031681565b6040516001600160a01b03909116815260200161017a565b6101706201518081565b6101a16101e6366004611666565b6104de565b61017060015481565b6101a16102023660046116b3565b610a69565b6101a1610bd4565b6008546101b6906001600160a01b031681565b6101a16102303660046116df565b610be8565b61017069014542ba12a337c0000081565b6000546001600160a01b03166101b6565b61017060035481565b610170670de0b6b3a764000081565b61017060025481565b61017060045481565b6005546101b6906001600160a01b031681565b6102a76102a2366004611608565b610d57565b60405160ff909116815260200161017a565b6101a16102c7366004611720565b610e05565b6007546101b6906001600160a01b031681565b61017068018493fba64ef0000081565b6101a16102fd366004611752565b611318565b6101a1610310366004611608565b611356565b600068018493fba64ef000006103358369014542ba12a337c0000061178c565b61033f91906117a3565b92915050565b61034d61158b565b6007546040516331a9108f60e11b81526004810184905230916001600160a01b031690636352211e90602401602060405180830381865afa158015610396573d6000803e3d6000fd5b505050506040513d601f19601f820116820180604052508101906103ba91906117c5565b6001600160a01b0316146104155760405162461bcd60e51b815260206004820152601760248201527f776520646f6e742068617665207468697320746f6b656e00000000000000000060448201526064015b60405180910390fd5b6007546040516323b872dd60e01b81526001600160a01b03909116906323b872dd90610449903090859087906004016117e2565b600060405180830381600087803b15801561046357600080fd5b505af1158015610477573d6000803e3d6000fd5b5050505060016004600082825461048e9190611806565b9091555050600454604080513081526001600160a01b03841660208201528492917fb1bdd8ee0a079056387b2b46f869978b9651cab9b68bee0c92971908f627b025910160405180910390a35050565b6104e661158b565b6005546040516370a0823160e01b815230600482015286916001600160a01b0316906370a0823190602401602060405180830381865afa15801561052e573d6000803e3d6000fd5b505050506040513d601f19601f820116820180604052508101906105529190611819565b10156105705760405162461bcd60e51b815260040161040c90611832565b6006546040516370a0823160e01b815230600482015285916001600160a01b0316906370a0823190602401602060405180830381865afa1580156105b8573d6000803e3d6000fd5b505050506040513d601f19601f820116820180604052508101906105dc9190611819565b10156105fa5760405162461bcd60e51b815260040161040c90611832565b6007546040516331a9108f60e11b81526004810185905230916001600160a01b031690636352211e90602401602060405180830381865afa158015610643573d6000803e3d6000fd5b505050506040513d601f19601f8201168201806040525081019061066791906117c5565b6001600160a01b0316146106b25760405162461bcd60e51b815260206004820152601260248201527124b73b30b634b2103630b7321037bbb732b960711b604482015260640161040c565b6001600460008282546106c59190611806565b909155505081156108b35760065460085460405163095ea7b360e01b81526001600160a01b0391821660048201526024810187905291169063095ea7b3906044016020604051808303816000875af1158015610725573d6000803e3d6000fd5b505050506040513d601f19601f820116820180604052508101906107499190611867565b50600061075585610315565b60055460085460405163095ea7b360e01b81526001600160a01b03918216600482015260248101849052929350169063095ea7b3906044016020604051808303816000875af11580156107ac573d6000803e3d6000fd5b505050506040513d601f19601f820116820180604052508101906107d09190611867565b5060075460085460405163095ea7b360e01b81526001600160a01b0391821660048201526024810187905291169063095ea7b390604401600060405180830381600087803b15801561082157600080fd5b505af1158015610835573d6000803e3d6000fd5b50506008546040516320f76e5f60e11b81526001600160a01b038681166004830152602482018a9052604482018990526064820188905290911692506341eedcbe9150608401600060405180830381600087803b15801561089557600080fd5b505af11580156108a9573d6000803e3d6000fd5b5050505050610a0a565b6007546040516323b872dd60e01b81526001600160a01b03909116906323b872dd906108e7903090859088906004016117e2565b600060405180830381600087803b15801561090157600080fd5b505af1158015610915573d6000803e3d6000fd5b505060055460405163a9059cbb60e01b81526001600160a01b038581166004830152602482018a9052909116925063a9059cbb91506044016020604051808303816000875af115801561096c573d6000803e3d6000fd5b505050506040513d601f19601f820116820180604052508101906109909190611867565b5060065460405163a9059cbb60e01b81526001600160a01b038381166004830152602482018790529091169063a9059cbb906044016020604051808303816000875af11580156109e4573d6000803e3d6000fd5b505050506040513d601f19601f82011682018060405250810190610a089190611867565b505b6004546040805187815260208101879052908101859052606081018490526001600160a01b0383169133917f1b56594a908ab98ff0c509dce4035e6bae9bde8eff8c4e8d5c1afac95a3ad44d9060800160405180910390a45050505050565b604051636eb1769f60e11b8152336004820152306024820152829082906001600160a01b0383169063dd62ed3e90604401602060405180830381865afa158015610ab7573d6000803e3d6000fd5b505050506040513d601f19601f82011682018060405250810190610adb9190611819565b1015610af95760405162461bcd60e51b815260040161040c90611889565b600160046000828254610b0c9190611806565b90915550506040516323b872dd60e01b81526001600160a01b038216906323b872dd90610b41903390309087906004016117e2565b6020604051808303816000875af1158015610b60573d6000803e3d6000fd5b505050506040513d601f19601f82011682018060405250810190610b849190611867565b50600454604080518481526001600160a01b03861660208201523092339290917f227e58b8c176111094bcb6377c6bc077bf3dc9bbd089539116c826ee827c6a8e910160405180910390a4505050565b610bdc61158b565b610be660006115b8565b565b610bf061158b565b6040516370a0823160e01b8152306004820152839082906001600160a01b038316906370a0823190602401602060405180830381865afa158015610c38573d6000803e3d6000fd5b505050506040513d601f19601f82011682018060405250810190610c5c9190611819565b1015610c7a5760405162461bcd60e51b815260040161040c90611832565b600160046000828254610c8d9190611806565b909155505060405163a9059cbb60e01b81526001600160a01b0384811660048301526024820184905282169063a9059cbb906044016020604051808303816000875af1158015610ce1573d6000803e3d6000fd5b505050506040513d601f19601f82011682018060405250810190610d059190611867565b50600454604080518481526001600160a01b03871660208201523092339290917f227e58b8c176111094bcb6377c6bc077bf3dc9bbd089539116c826ee827c6a8e91015b60405180910390a450505050565b600060018210158015610d6c5750611f408211155b15610d7957506001919050565b611f418210158015610d8d5750613a988211155b15610d9a57506002919050565b613a998210158015610dae5750614e208211155b15610dbb57506003919050565b614e218210158015610dcf57506159d88211155b15610ddc57506004919050565b6159d98210158015610df057506161a88211155b15610dfd57506005919050565b506000919050565b8015610ec857600154811480610e1c575060035481145b80610e28575060025481145b610e695760405162461bcd60e51b8152602060048201526012602482015271496e76616c6964207374616b652074696d6560701b604482015260640161040c565b6000610e7484610315565b905084811115610ec65760405162461bcd60e51b815260206004820152601b60248201527f496e7375666669656369656e7420616d6f756e74206f662075766d0000000000604482015260640161040c565b505b600554604051636eb1769f60e11b815233600482015230602482015285916001600160a01b03169063dd62ed3e90604401602060405180830381865afa158015610f16573d6000803e3d6000fd5b505050506040513d601f19601f82011682018060405250810190610f3a9190611819565b1015610f585760405162461bcd60e51b815260040161040c90611889565b600654604051636eb1769f60e11b815233600482015230602482015284916001600160a01b03169063dd62ed3e90604401602060405180830381865afa158015610fa6573d6000803e3d6000fd5b505050506040513d601f19601f82011682018060405250810190610fca9190611819565b1015610fe85760405162461bcd60e51b815260040161040c90611889565b60075460405163020604bf60e21b81526004810184905230916001600160a01b03169063081812fc90602401602060405180830381865afa158015611031573d6000803e3d6000fd5b505050506040513d601f19601f8201168201806040525081019061105591906117c5565b6001600160a01b0316146110a35760405162461bcd60e51b8152602060048201526015602482015274151bdad95b881a5cc81b9bdd08185c1c1c9bdd9959605a1b604482015260640161040c565b6007546040516331a9108f60e11b81526004810184905233916001600160a01b031690636352211e90602401602060405180830381865afa1580156110ec573d6000803e3d6000fd5b505050506040513d601f19601f8201168201806040525081019061111091906117c5565b6001600160a01b03161461115e5760405162461bcd60e51b81526020600482015260156024820152743cb7ba9030b932903737ba103a34329037bbb732b960591b604482015260640161040c565b6005546040516323b872dd60e01b81526001600160a01b03909116906323b872dd90611192903390309089906004016117e2565b6020604051808303816000875af11580156111b1573d6000803e3d6000fd5b505050506040513d601f19601f820116820180604052508101906111d59190611867565b506006546040516323b872dd60e01b81526001600160a01b03909116906323b872dd9061120a903390309088906004016117e2565b6020604051808303816000875af1158015611229573d6000803e3d6000fd5b505050506040513d601f19601f8201168201806040525081019061124d9190611867565b506007546040516323b872dd60e01b81526001600160a01b03909116906323b872dd90611282903390309087906004016117e2565b600060405180830381600087803b15801561129c57600080fd5b505af11580156112b0573d6000803e3d6000fd5b505050506001600460008282546112c79190611806565b9091555050600454604080518681526020810186905290810184905260608101839052309133917f1b56594a908ab98ff0c509dce4035e6bae9bde8eff8c4e8d5c1afac95a3ad44d90608001610d49565b61132061158b565b6001600160a01b03811661134a57604051631e4fbdf760e01b81526000600482015260240161040c565b611353816115b8565b50565b60075460405163020604bf60e21b81526004810183905230916001600160a01b03169063081812fc90602401602060405180830381865afa15801561139f573d6000803e3d6000fd5b505050506040513d601f19601f820116820180604052508101906113c391906117c5565b6001600160a01b0316146114115760405162461bcd60e51b81526020600482015260156024820152741b185b99081a185cc81b9bdd08185c1c1c9bdd9959605a1b604482015260640161040c565b6007546040516331a9108f60e11b81526004810183905233916001600160a01b031690636352211e90602401602060405180830381865afa15801561145a573d6000803e3d6000fd5b505050506040513d601f19601f8201168201806040525081019061147e91906117c5565b6001600160a01b0316146114cc5760405162461bcd60e51b81526020600482015260156024820152743cb7ba9030b932903737ba103a34329037bbb732b960591b604482015260640161040c565b6007546040516323b872dd60e01b81526001600160a01b03909116906323b872dd90611500903390309086906004016117e2565b600060405180830381600087803b15801561151a57600080fd5b505af115801561152e573d6000803e3d6000fd5b505050506001600460008282546115459190611806565b9091555050600454604080513381523060208201528392917fb1bdd8ee0a079056387b2b46f869978b9651cab9b68bee0c92971908f627b025910160405180910390a350565b6000546001600160a01b03163314610be65760405163118cdaa760e01b815233600482015260240161040c565b600080546001600160a01b038381166001600160a01b0319831681178455604051919092169283917f8be0079c531659141344cd1fd0a4f28419497f9722a3daafe3b4186f6b6457e09190a35050565b60006020828403121561161a57600080fd5b5035919050565b6001600160a01b038116811461135357600080fd5b6000806040838503121561164957600080fd5b82359150602083013561165b81611621565b809150509250929050565b600080600080600060a0868803121561167e57600080fd5b8535945060208601359350604086013592506060860135915060808601356116a581611621565b809150509295509295909350565b600080604083850312156116c657600080fd5b82356116d181611621565b946020939093013593505050565b6000806000606084860312156116f457600080fd5b83356116ff81611621565b9250602084013561170f81611621565b929592945050506040919091013590565b6000806000806080858703121561173657600080fd5b5050823594602084013594506040840135936060013592509050565b60006020828403121561176457600080fd5b813561176f81611621565b9392505050565b634e487b7160e01b600052601160045260246000fd5b808202811582820484141761033f5761033f611776565b6000826117c057634e487b7160e01b600052601260045260246000fd5b500490565b6000602082840312156117d757600080fd5b815161176f81611621565b6001600160a01b039384168152919092166020820152604081019190915260600190565b8082018082111561033f5761033f611776565b60006020828403121561182b57600080fd5b5051919050565b6020808252818101527f496e73756666696369656e742062616c616e636520696e20636f6e7472616374604082015260600190565b60006020828403121561187957600080fd5b8151801515811461176f57600080fd5b602080825260149082015273082d8d8deeec2dcc6ca40dcdee840cadcdeeaced60631b60408201526060019056fea2646970667358221220e85a0163b31765dbeeabf1c2ccd51085667b0ae7221c4cac00fa2a206e3e673b64736f6c63430008140033",
  "linkReferences": {},
  "deployedLinkReferences": {}
}