{
  "_format": "hh-sol-artifact-1",
  "contractName": "Bridge",
  "sourceName": "contracts/Bridge.sol",
  "abi": [
    {
      "inputs": [],
      "stateMutability": "nonpayable",
      "type": "constructor"
    },
    {
      "inputs": [
        {
          "internalType": "address",
          "name": "owner",
          "type": "address"
        }
      ],
      "name": "OwnableInvalidOwner",
      "type": "error"
    },
    {
      "inputs": [
        {
          "internalType": "address",
          "name": "account",
          "type": "address"
        }
      ],
      "name": "OwnableUnauthorizedAccount",
      "type": "error"
    },
    {
      "anonymous": false,
      "inputs": [
        {
          "indexed": true,
          "internalType": "address",
          "name": "previousOwner",
          "type": "address"
        },
        {
          "indexed": true,
          "internalType": "address",
          "name": "newOwner",
          "type": "address"
        }
      ],
      "name": "OwnershipTransferred",
      "type": "event"
    },
    {
      "anonymous": false,
      "inputs": [
        {
          "indexed": false,
          "internalType": "address",
          "name": "me",
          "type": "address"
        },
        {
          "indexed": false,
          "internalType": "string",
          "name": "message",
          "type": "string"
        }
      ],
      "name": "TestEvent",
      "type": "event"
    },
    {
      "anonymous": false,
      "inputs": [
        {
          "indexed": true,
          "internalType": "address",
          "name": "sender",
          "type": "address"
        },
        {
          "indexed": true,
          "internalType": "address",
          "name": "receiver",
          "type": "address"
        },
        {
          "indexed": false,
          "internalType": "uint256",
          "name": "amount",
          "type": "uint256"
        },
        {
          "indexed": false,
          "internalType": "address",
          "name": "token_address",
          "type": "address"
        }
      ],
      "name": "Transfer",
      "type": "event"
    },
    {
      "inputs": [],
      "name": "id",
      "outputs": [
        {
          "internalType": "uint256",
          "name": "",
          "type": "uint256"
        }
      ],
      "stateMutability": "view",
      "type": "function"
    },
    {
      "inputs": [],
      "name": "owner",
      "outputs": [
        {
          "internalType": "address",
          "name": "",
          "type": "address"
        }
      ],
      "stateMutability": "view",
      "type": "function"
    },
    {
      "inputs": [],
      "name": "renounceOwnership",
      "outputs": [],
      "stateMutability": "nonpayable",
      "type": "function"
    },
    {
      "inputs": [
        {
          "internalType": "address",
          "name": "token_address",
          "type": "address"
        },
        {
          "internalType": "uint256",
          "name": "amount",
          "type": "uint256"
        }
      ],
      "name": "transferFromBSC",
      "outputs": [],
      "stateMutability": "nonpayable",
      "type": "function"
    },
    {
      "inputs": [
        {
          "internalType": "address",
          "name": "newOwner",
          "type": "address"
        }
      ],
      "name": "transferOwnership",
      "outputs": [],
      "stateMutability": "nonpayable",
      "type": "function"
    },
    {
      "inputs": [
        {
          "internalType": "address",
          "name": "token_address",
          "type": "address"
        },
        {
          "internalType": "address",
          "name": "_address",
          "type": "address"
        },
        {
          "internalType": "uint256",
          "name": "amount",
          "type": "uint256"
        }
      ],
      "name": "transferToPolygon",
      "outputs": [],
      "stateMutability": "nonpayable",
      "type": "function"
    }
  ],
  "bytecode": "0x6080604052600060015534801561001557600080fd5b50338061003c57604051631e4fbdf760e01b81526000600482015260240160405180910390fd5b6100458161004b565b5061009b565b600080546001600160a01b038381166001600160a01b0319831681178455604051919092169283917f8be0079c531659141344cd1fd0a4f28419497f9722a3daafe3b4186f6b6457e09190a35050565b610602806100aa6000396000f3fe608060405234801561001057600080fd5b50600436106100625760003560e01c80636955dd2014610067578063715018a61461007c5780637dea5880146100845780638da5cb5b14610097578063af640d0f146100b7578063f2fde38b146100ce575b600080fd5b61007a6100753660046104e2565b6100e1565b005b61007a610276565b61007a61009236600461050c565b61028a565b6000546040516001600160a01b0390911681526020015b60405180910390f35b6100c060015481565b6040519081526020016100ae565b61007a6100dc366004610548565b61040b565b604051636eb1769f60e11b8152336004820152306024820152829082906001600160a01b0383169063dd62ed3e90604401602060405180830381865afa15801561012f573d6000803e3d6000fd5b505050506040513d601f19601f82011682018060405250810190610153919061056a565b101561019d5760405162461bcd60e51b8152602060048201526014602482015273082d8d8deeec2dcc6ca40dcdee840cadcdeeaced60631b60448201526064015b60405180910390fd5b60018060008282546101af9190610583565b90915550506040516323b872dd60e01b8152336004820152306024820152604481018390526001600160a01b038216906323b872dd906064016020604051808303816000875af1158015610207573d6000803e3d6000fd5b505050506040513d601f19601f8201168201806040525081019061022b91906105aa565b50604080518381526001600160a01b0385166020820152309133917f5f2147fb558c977441fbdfebcf8cd5776606adc8da5ff95566fc2a4137e54d13910160405180910390a3505050565b61027e610449565b6102886000610476565b565b610292610449565b6040516370a0823160e01b8152306004820152839082906001600160a01b038316906370a0823190602401602060405180830381865afa1580156102da573d6000803e3d6000fd5b505050506040513d601f19601f820116820180604052508101906102fe919061056a565b101561034c5760405162461bcd60e51b815260206004820181905260248201527f496e73756666696369656e742062616c616e636520696e20636f6e74726163746044820152606401610194565b60405163a9059cbb60e01b81526001600160a01b0384811660048301526024820184905282169063a9059cbb906044016020604051808303816000875af115801561039b573d6000803e3d6000fd5b505050506040513d601f19601f820116820180604052508101906103bf91906105aa565b50604080518381526001600160a01b0386166020820152309133917f5f2147fb558c977441fbdfebcf8cd5776606adc8da5ff95566fc2a4137e54d13910160405180910390a350505050565b610413610449565b6001600160a01b03811661043d57604051631e4fbdf760e01b815260006004820152602401610194565b61044681610476565b50565b6000546001600160a01b031633146102885760405163118cdaa760e01b8152336004820152602401610194565b600080546001600160a01b038381166001600160a01b0319831681178455604051919092169283917f8be0079c531659141344cd1fd0a4f28419497f9722a3daafe3b4186f6b6457e09190a35050565b80356001600160a01b03811681146104dd57600080fd5b919050565b600080604083850312156104f557600080fd5b6104fe836104c6565b946020939093013593505050565b60008060006060848603121561052157600080fd5b61052a846104c6565b9250610538602085016104c6565b9150604084013590509250925092565b60006020828403121561055a57600080fd5b610563826104c6565b9392505050565b60006020828403121561057c57600080fd5b5051919050565b808201808211156105a457634e487b7160e01b600052601160045260246000fd5b92915050565b6000602082840312156105bc57600080fd5b8151801515811461056357600080fdfea264697066735822122004cee584a2d5bef6b2f6c32c6fe796b27a8ff61258dc98e429b3a9f736372e7f64736f6c63430008140033",
  "linkReferences": {},
  "deployedLinkReferences": {}
}