{
  "_format": "hh-sol-artifact-1",
  "contractName": "UsersStruct",
  "sourceName": "contracts/UsersStruct.sol",
  "abi": [
    {
      "inputs": [
        {
          "internalType": "uint256",
          "name": "",
          "type": "uint256"
        }
      ],
      "name": "BVPlan",
      "outputs": [
        {
          "internalType": "uint256",
          "name": "",
          "type": "uint256"
        }
      ],
      "stateMutability": "view",
      "type": "function"
    },
    {
      "inputs": [
        {
          "internalType": "uint256",
          "name": "",
          "type": "uint256"
        }
      ],
      "name": "ListLevelUpDate",
      "outputs": [
        {
          "internalType": "uint256",
          "name": "date",
          "type": "uint256"
        },
        {
          "internalType": "uint256",
          "name": "level",
          "type": "uint256"
        }
      ],
      "stateMutability": "view",
      "type": "function"
    },
    {
      "inputs": [
        {
          "internalType": "uint256",
          "name": "",
          "type": "uint256"
        }
      ],
      "name": "UserAddress",
      "outputs": [
        {
          "internalType": "address",
          "name": "",
          "type": "address"
        }
      ],
      "stateMutability": "view",
      "type": "function"
    },
    {
      "inputs": [
        {
          "internalType": "uint256",
          "name": "",
          "type": "uint256"
        },
        {
          "internalType": "uint256",
          "name": "",
          "type": "uint256"
        }
      ],
      "name": "UserLevelUpDateIndex",
      "outputs": [
        {
          "internalType": "uint256",
          "name": "",
          "type": "uint256"
        }
      ],
      "stateMutability": "view",
      "type": "function"
    },
    {
      "inputs": [
        {
          "internalType": "address",
          "name": "",
          "type": "address"
        }
      ],
      "name": "UserList",
      "outputs": [
        {
          "internalType": "uint256",
          "name": "id",
          "type": "uint256"
        },
        {
          "components": [
            {
              "internalType": "uint256",
              "name": "left",
              "type": "uint256"
            },
            {
              "internalType": "uint256",
              "name": "right",
              "type": "uint256"
            },
            {
              "internalType": "uint256",
              "name": "dir",
              "type": "uint256"
            },
            {
              "internalType": "uint256",
              "name": "level",
              "type": "uint256"
            },
            {
              "internalType": "uint256",
              "name": "summ",
              "type": "uint256"
            }
          ],
          "internalType": "struct UsersStruct.BusinessValue",
          "name": "bv",
          "type": "tuple"
        },
        {
          "components": [
            {
              "internalType": "uint256",
              "name": "date",
              "type": "uint256"
            },
            {
              "internalType": "uint256",
              "name": "order_id",
              "type": "uint256"
            },
            {
              "internalType": "uint256",
              "name": "bv_level",
              "type": "uint256"
            }
          ],
          "internalType": "struct UsersStruct.LastOrder",
          "name": "last_order",
          "type": "tuple"
        },
        {
          "internalType": "uint256",
          "name": "depth",
          "type": "uint256"
        },
        {
          "internalType": "uint256",
          "name": "pending_withdraw",
          "type": "uint256"
        },
        {
          "internalType": "uint256",
          "name": "levelup_count",
          "type": "uint256"
        },
        {
          "internalType": "uint256",
          "name": "lastweek",
          "type": "uint256"
        },
        {
          "internalType": "uint256",
          "name": "step",
          "type": "uint256"
        },
        {
          "internalType": "uint256",
          "name": "pending_voucher",
          "type": "uint256"
        },
        {
          "internalType": "bool",
          "name": "exists",
          "type": "bool"
        },
        {
          "internalType": "bytes32",
          "name": "data",
          "type": "bytes32"
        }
      ],
      "stateMutability": "view",
      "type": "function"
    },
    {
      "inputs": [
        {
          "internalType": "uint256",
          "name": "",
          "type": "uint256"
        },
        {
          "internalType": "uint256",
          "name": "",
          "type": "uint256"
        }
      ],
      "name": "UsersPaths",
      "outputs": [
        {
          "internalType": "bytes32",
          "name": "",
          "type": "bytes32"
        }
      ],
      "stateMutability": "view",
      "type": "function"
    },
    {
      "inputs": [
        {
          "internalType": "uint256",
          "name": "",
          "type": "uint256"
        },
        {
          "internalType": "uint256",
          "name": "",
          "type": "uint256"
        }
      ],
      "name": "UsersPathsHash",
      "outputs": [
        {
          "internalType": "bytes32",
          "name": "",
          "type": "bytes32"
        }
      ],
      "stateMutability": "view",
      "type": "function"
    },
    {
      "inputs": [
        {
          "internalType": "address",
          "name": "user_address",
          "type": "address"
        }
      ],
      "name": "getUser",
      "outputs": [
        {
          "components": [
            {
              "internalType": "uint256",
              "name": "id",
              "type": "uint256"
            },
            {
              "components": [
                {
                  "internalType": "uint256",
                  "name": "left",
                  "type": "uint256"
                },
                {
                  "internalType": "uint256",
                  "name": "right",
                  "type": "uint256"
                },
                {
                  "internalType": "uint256",
                  "name": "dir",
                  "type": "uint256"
                },
                {
                  "internalType": "uint256",
                  "name": "level",
                  "type": "uint256"
                },
                {
                  "internalType": "uint256",
                  "name": "summ",
                  "type": "uint256"
                }
              ],
              "internalType": "struct UsersStruct.BusinessValue",
              "name": "bv",
              "type": "tuple"
            },
            {
              "components": [
                {
                  "internalType": "uint256",
                  "name": "date",
                  "type": "uint256"
                },
                {
                  "internalType": "uint256",
                  "name": "order_id",
                  "type": "uint256"
                },
                {
                  "internalType": "uint256",
                  "name": "bv_level",
                  "type": "uint256"
                }
              ],
              "internalType": "struct UsersStruct.LastOrder",
              "name": "last_order",
              "type": "tuple"
            },
            {
              "internalType": "uint256",
              "name": "depth",
              "type": "uint256"
            },
            {
              "internalType": "uint256",
              "name": "pending_withdraw",
              "type": "uint256"
            },
            {
              "internalType": "uint256",
              "name": "levelup_count",
              "type": "uint256"
            },
            {
              "internalType": "uint256",
              "name": "lastweek",
              "type": "uint256"
            },
            {
              "internalType": "uint256",
              "name": "step",
              "type": "uint256"
            },
            {
              "internalType": "uint256",
              "name": "pending_voucher",
              "type": "uint256"
            },
            {
              "internalType": "bool",
              "name": "exists",
              "type": "bool"
            },
            {
              "internalType": "bytes32",
              "name": "data",
              "type": "bytes32"
            }
          ],
          "internalType": "struct UsersStruct.User",
          "name": "user",
          "type": "tuple"
        }
      ],
      "stateMutability": "nonpayable",
      "type": "function"
    },
    {
      "inputs": [],
      "name": "level_up_data_index",
      "outputs": [
        {
          "internalType": "uint256",
          "name": "",
          "type": "uint256"
        }
      ],
      "stateMutability": "view",
      "type": "function"
    },
    {
      "inputs": [],
      "name": "user_id",
      "outputs": [
        {
          "internalType": "uint256",
          "name": "",
          "type": "uint256"
        }
      ],
      "stateMutability": "view",
      "type": "function"
    }
  ],
  "bytecode": "0x608060405234801561001057600080fd5b506106c2806100206000396000f3fe608060405234801561001057600080fd5b506004361061009e5760003560e01c8063bb5d88fa11610066578063bb5d88fa1461015e578063c2afb68314610167578063e6d3c18f14610187578063eb63a59e146101c3578063f89183121461029857600080fd5b8063120a521a146100a35780633ce0adeb146100e9578063511095b5146101225780636f77926b146101355780637548f42414610155575b600080fd5b6100cc6100b13660046104a4565b6005602052600090815260409020546001600160a01b031681565b6040516001600160a01b0390911681526020015b60405180910390f35b6101146100f73660046104bd565b600660209081526000928352604080842090915290825290205481565b6040519081526020016100e0565b6101146101303660046104bd565b6102c3565b6101486101433660046104df565b6102f4565b6040516100e0919061050f565b61011460015481565b61011460005481565b6101146101753660046104a4565b60086020526000908152604090205481565b6101ae6101953660046104a4565b6004602052600090815260409020805460019091015482565b604080519283526020830191909152016100e0565b6102816101d13660046104df565b6002602081815260009283526040928390208054845160a08101865260018301548152938201548484015260038201548486015260048201546060808601919091526005830154608086015285519081018652600683015481526007830154938101939093526008820154948301949094526009810154600a820154600b830154600c840154600d850154600e860154600f87015460109097015495969495939492939192909160ff909116908b565b6040516100e09b9a999897969594939291906105ea565b6101146102a63660046104bd565b600760209081526000928352604080842090915290825290205481565b600360205281600052604060002081815481106102df57600080fd5b90600052602060002001600091509150505481565b6102fc6103f3565b506001600160a01b031660009081526002602081815260409283902083516101608101855281548152845160a080820187526001840154825294830154818501526003830154818701526004830154606080830191909152600584015460808084019190915283860192909252865180820188526006850154815260078501549581019590955260088401548588015295820193909352600982015494810194909452600a81015491840191909152600b81015491830191909152600c81015460c0830152600d81015460e0830152600e810154610100830152600f81015460ff1615156101208301526010015461014082015290565b604051806101600160405280600081526020016104386040518060a0016040528060008152602001600081526020016000815260200160008152602001600081525090565b815260200161046160405180606001604052806000815260200160008152602001600081525090565b8152602001600081526020016000815260200160008152602001600081526020016000815260200160008152602001600015158152602001600080191681525090565b6000602082840312156104b657600080fd5b5035919050565b600080604083850312156104d057600080fd5b50508035926020909101359150565b6000602082840312156104f157600080fd5b81356001600160a01b038116811461050857600080fd5b9392505050565b815181526020808301516102208301916105569084018280518252602081015160208301526040810151604083015260608101516060830152608081015160808301525050565b50604083810151805160c0850152602081015160e085015290810151610100840152506060830151610120818185015260808501519150610140828186015260a086015161016086015260c086015161018086015260e08601516101a08601526101008601516101c08601528186015192506105d76101e086018415159052565b8086015161020086015250505092915050565b8b8152610220810161062a602083018d80518252602081015160208301526040810151604083015260608101516060830152608081015160808301525050565b8a5160c083015260208b015160e08301526040909a01516101008201526101208101989098526101408801969096526101608701949094526101808601929092526101a08501526101c084015215156101e0830152610200909101529291505056fea2646970667358221220a26866242a75ac8e3a8a017c2cdb60239ae8f6bd7f2712e116d98d25db6d595a64736f6c63430008140033",
  "linkReferences": {},
  "deployedLinkReferences": {}
}