{
  "_format": "hh-sol-artifact-1",
  "contractName": "ProductNFT",
  "sourceName": "contracts/ProductNFT.sol",
  "abi": [
    {
      "inputs": [
        {
          "internalType": "address",
          "name": "initialOwner",
          "type": "address"
        }
      ],
      "stateMutability": "nonpayable",
      "type": "constructor"
    },
    {
      "inputs": [],
      "name": "ECDSAInvalidSignature",
      "type": "error"
    },
    {
      "inputs": [
        {
          "internalType": "uint256",
          "name": "length",
          "type": "uint256"
        }
      ],
      "name": "ECDSAInvalidSignatureLength",
      "type": "error"
    },
    {
      "inputs": [
        {
          "internalType": "bytes32",
          "name": "s",
          "type": "bytes32"
        }
      ],
      "name": "ECDSAInvalidSignatureS",
      "type": "error"
    },
    {
      "inputs": [
        {
          "internalType": "address",
          "name": "sender",
          "type": "address"
        },
        {
          "internalType": "uint256",
          "name": "tokenId",
          "type": "uint256"
        },
        {
          "internalType": "address",
          "name": "owner",
          "type": "address"
        }
      ],
      "name": "ERC721IncorrectOwner",
      "type": "error"
    },
    {
      "inputs": [
        {
          "internalType": "address",
          "name": "operator",
          "type": "address"
        },
        {
          "internalType": "uint256",
          "name": "tokenId",
          "type": "uint256"
        }
      ],
      "name": "ERC721InsufficientApproval",
      "type": "error"
    },
    {
      "inputs": [
        {
          "internalType": "address",
          "name": "approver",
          "type": "address"
        }
      ],
      "name": "ERC721InvalidApprover",
      "type": "error"
    },
    {
      "inputs": [
        {
          "internalType": "address",
          "name": "operator",
          "type": "address"
        }
      ],
      "name": "ERC721InvalidOperator",
      "type": "error"
    },
    {
      "inputs": [
        {
          "internalType": "address",
          "name": "owner",
          "type": "address"
        }
      ],
      "name": "ERC721InvalidOwner",
      "type": "error"
    },
    {
      "inputs": [
        {
          "internalType": "address",
          "name": "receiver",
          "type": "address"
        }
      ],
      "name": "ERC721InvalidReceiver",
      "type": "error"
    },
    {
      "inputs": [
        {
          "internalType": "address",
          "name": "sender",
          "type": "address"
        }
      ],
      "name": "ERC721InvalidSender",
      "type": "error"
    },
    {
      "inputs": [
        {
          "internalType": "uint256",
          "name": "tokenId",
          "type": "uint256"
        }
      ],
      "name": "ERC721NonexistentToken",
      "type": "error"
    },
    {
      "inputs": [],
      "name": "InvalidShortString",
      "type": "error"
    },
    {
      "inputs": [
        {
          "internalType": "address",
          "name": "owner",
          "type": "address"
        }
      ],
      "name": "OwnableInvalidOwner",
      "type": "error"
    },
    {
      "inputs": [
        {
          "internalType": "address",
          "name": "account",
          "type": "address"
        }
      ],
      "name": "OwnableUnauthorizedAccount",
      "type": "error"
    },
    {
      "inputs": [
        {
          "internalType": "string",
          "name": "str",
          "type": "string"
        }
      ],
      "name": "StringTooLong",
      "type": "error"
    },
    {
      "anonymous": false,
      "inputs": [
        {
          "indexed": true,
          "internalType": "address",
          "name": "owner",
          "type": "address"
        },
        {
          "indexed": true,
          "internalType": "address",
          "name": "approved",
          "type": "address"
        },
        {
          "indexed": true,
          "internalType": "uint256",
          "name": "tokenId",
          "type": "uint256"
        }
      ],
      "name": "Approval",
      "type": "event"
    },
    {
      "anonymous": false,
      "inputs": [
        {
          "indexed": true,
          "internalType": "address",
          "name": "owner",
          "type": "address"
        },
        {
          "indexed": true,
          "internalType": "address",
          "name": "operator",
          "type": "address"
        },
        {
          "indexed": false,
          "internalType": "bool",
          "name": "approved",
          "type": "bool"
        }
      ],
      "name": "ApprovalForAll",
      "type": "event"
    },
    {
      "anonymous": false,
      "inputs": [
        {
          "indexed": false,
          "internalType": "uint256",
          "name": "_fromTokenId",
          "type": "uint256"
        },
        {
          "indexed": false,
          "internalType": "uint256",
          "name": "_toTokenId",
          "type": "uint256"
        }
      ],
      "name": "BatchMetadataUpdate",
      "type": "event"
    },
    {
      "anonymous": false,
      "inputs": [],
      "name": "EIP712DomainChanged",
      "type": "event"
    },
    {
      "anonymous": false,
      "inputs": [
        {
          "indexed": false,
          "internalType": "uint256",
          "name": "_tokenId",
          "type": "uint256"
        }
      ],
      "name": "MetadataUpdate",
      "type": "event"
    },
    {
      "anonymous": false,
      "inputs": [
        {
          "indexed": true,
          "internalType": "address",
          "name": "previousOwner",
          "type": "address"
        },
        {
          "indexed": true,
          "internalType": "address",
          "name": "newOwner",
          "type": "address"
        }
      ],
      "name": "OwnershipTransferred",
      "type": "event"
    },
    {
      "anonymous": false,
      "inputs": [
        {
          "indexed": true,
          "internalType": "address",
          "name": "from",
          "type": "address"
        },
        {
          "indexed": true,
          "internalType": "address",
          "name": "to",
          "type": "address"
        },
        {
          "indexed": true,
          "internalType": "uint256",
          "name": "tokenId",
          "type": "uint256"
        }
      ],
      "name": "Transfer",
      "type": "event"
    },
    {
      "inputs": [
        {
          "internalType": "address",
          "name": "to",
          "type": "address"
        },
        {
          "internalType": "uint256",
          "name": "tokenId",
          "type": "uint256"
        }
      ],
      "name": "approve",
      "outputs": [],
      "stateMutability": "nonpayable",
      "type": "function"
    },
    {
      "inputs": [
        {
          "internalType": "address",
          "name": "owner",
          "type": "address"
        }
      ],
      "name": "balanceOf",
      "outputs": [
        {
          "internalType": "uint256",
          "name": "",
          "type": "uint256"
        }
      ],
      "stateMutability": "view",
      "type": "function"
    },
    {
      "inputs": [],
      "name": "eip712Domain",
      "outputs": [
        {
          "internalType": "bytes1",
          "name": "fields",
          "type": "bytes1"
        },
        {
          "internalType": "string",
          "name": "name",
          "type": "string"
        },
        {
          "internalType": "string",
          "name": "version",
          "type": "string"
        },
        {
          "internalType": "uint256",
          "name": "chainId",
          "type": "uint256"
        },
        {
          "internalType": "address",
          "name": "verifyingContract",
          "type": "address"
        },
        {
          "internalType": "bytes32",
          "name": "salt",
          "type": "bytes32"
        },
        {
          "internalType": "uint256[]",
          "name": "extensions",
          "type": "uint256[]"
        }
      ],
      "stateMutability": "view",
      "type": "function"
    },
    {
      "inputs": [
        {
          "internalType": "uint256",
          "name": "tokenId",
          "type": "uint256"
        }
      ],
      "name": "getApproved",
      "outputs": [
        {
          "internalType": "address",
          "name": "",
          "type": "address"
        }
      ],
      "stateMutability": "view",
      "type": "function"
    },
    {
      "inputs": [
        {
          "internalType": "address",
          "name": "owner",
          "type": "address"
        },
        {
          "internalType": "address",
          "name": "operator",
          "type": "address"
        }
      ],
      "name": "isApprovedForAll",
      "outputs": [
        {
          "internalType": "bool",
          "name": "",
          "type": "bool"
        }
      ],
      "stateMutability": "view",
      "type": "function"
    },
    {
      "inputs": [],
      "name": "name",
      "outputs": [
        {
          "internalType": "string",
          "name": "",
          "type": "string"
        }
      ],
      "stateMutability": "view",
      "type": "function"
    },
    {
      "inputs": [],
      "name": "owner",
      "outputs": [
        {
          "internalType": "address",
          "name": "",
          "type": "address"
        }
      ],
      "stateMutability": "view",
      "type": "function"
    },
    {
      "inputs": [
        {
          "internalType": "uint256",
          "name": "tokenId",
          "type": "uint256"
        }
      ],
      "name": "ownerOf",
      "outputs": [
        {
          "internalType": "address",
          "name": "",
          "type": "address"
        }
      ],
      "stateMutability": "view",
      "type": "function"
    },
    {
      "inputs": [
        {
          "components": [
            {
              "internalType": "uint256",
              "name": "tokenId",
              "type": "uint256"
            },
            {
              "internalType": "uint256",
              "name": "price",
              "type": "uint256"
            },
            {
              "internalType": "string",
              "name": "uri",
              "type": "string"
            },
            {
              "internalType": "address",
              "name": "seller",
              "type": "address"
            },
            {
              "internalType": "bytes",
              "name": "signature",
              "type": "bytes"
            }
          ],
          "internalType": "struct ProductNFT.LazyNFTVoucher",
          "name": "voucher",
          "type": "tuple"
        }
      ],
      "name": "recover",
      "outputs": [
        {
          "internalType": "address",
          "name": "",
          "type": "address"
        }
      ],
      "stateMutability": "view",
      "type": "function"
    },
    {
      "inputs": [],
      "name": "renounceOwnership",
      "outputs": [],
      "stateMutability": "nonpayable",
      "type": "function"
    },
    {
      "inputs": [
        {
          "components": [
            {
              "internalType": "uint256",
              "name": "tokenId",
              "type": "uint256"
            },
            {
              "internalType": "uint256",
              "name": "price",
              "type": "uint256"
            },
            {
              "internalType": "string",
              "name": "uri",
              "type": "string"
            },
            {
              "internalType": "address",
              "name": "seller",
              "type": "address"
            },
            {
              "internalType": "bytes",
              "name": "signature",
              "type": "bytes"
            }
          ],
          "internalType": "struct ProductNFT.LazyNFTVoucher",
          "name": "voucher",
          "type": "tuple"
        }
      ],
      "name": "safeMint",
      "outputs": [],
      "stateMutability": "nonpayable",
      "type": "function"
    },
    {
      "inputs": [
        {
          "internalType": "address",
          "name": "from",
          "type": "address"
        },
        {
          "internalType": "address",
          "name": "to",
          "type": "address"
        },
        {
          "internalType": "uint256",
          "name": "tokenId",
          "type": "uint256"
        }
      ],
      "name": "safeTransferFrom",
      "outputs": [],
      "stateMutability": "nonpayable",
      "type": "function"
    },
    {
      "inputs": [
        {
          "internalType": "address",
          "name": "from",
          "type": "address"
        },
        {
          "internalType": "address",
          "name": "to",
          "type": "address"
        },
        {
          "internalType": "uint256",
          "name": "tokenId",
          "type": "uint256"
        },
        {
          "internalType": "bytes",
          "name": "data",
          "type": "bytes"
        }
      ],
      "name": "safeTransferFrom",
      "outputs": [],
      "stateMutability": "nonpayable",
      "type": "function"
    },
    {
      "inputs": [
        {
          "internalType": "address",
          "name": "operator",
          "type": "address"
        },
        {
          "internalType": "bool",
          "name": "approved",
          "type": "bool"
        }
      ],
      "name": "setApprovalForAll",
      "outputs": [],
      "stateMutability": "nonpayable",
      "type": "function"
    },
    {
      "inputs": [
        {
          "internalType": "bytes4",
          "name": "interfaceId",
          "type": "bytes4"
        }
      ],
      "name": "supportsInterface",
      "outputs": [
        {
          "internalType": "bool",
          "name": "",
          "type": "bool"
        }
      ],
      "stateMutability": "view",
      "type": "function"
    },
    {
      "inputs": [],
      "name": "symbol",
      "outputs": [
        {
          "internalType": "string",
          "name": "",
          "type": "string"
        }
      ],
      "stateMutability": "view",
      "type": "function"
    },
    {
      "inputs": [
        {
          "internalType": "uint256",
          "name": "tokenId",
          "type": "uint256"
        }
      ],
      "name": "tokenURI",
      "outputs": [
        {
          "internalType": "string",
          "name": "",
          "type": "string"
        }
      ],
      "stateMutability": "view",
      "type": "function"
    },
    {
      "inputs": [
        {
          "internalType": "address",
          "name": "from",
          "type": "address"
        },
        {
          "internalType": "address",
          "name": "to",
          "type": "address"
        },
        {
          "internalType": "uint256",
          "name": "tokenId",
          "type": "uint256"
        }
      ],
      "name": "transferFrom",
      "outputs": [],
      "stateMutability": "nonpayable",
      "type": "function"
    },
    {
      "inputs": [
        {
          "internalType": "address",
          "name": "newOwner",
          "type": "address"
        }
      ],
      "name": "transferOwnership",
      "outputs": [],
      "stateMutability": "nonpayable",
      "type": "function"
    }
  ],
  "bytecode": "0x6101606040523480156200001257600080fd5b50604051620020cb380380620020cb833981016040819052620000359162000299565b604051806040016040528060078152602001664172616e44616f60c81b815250604051806040016040528060018152602001603160f81b815250826040518060400160405280600a815260200169141c9bd91d58dd13919560b21b815250604051806040016040528060048152602001631413919560e21b8152508160009081620000c1919062000370565b506001620000d0828262000370565b5050506001600160a01b0381166200010357604051631e4fbdf760e01b8152600060048201526024015b60405180910390fd5b6200010e81620001cb565b506200011c8260086200021d565b610120526200012d8160096200021d565b61014052815160208084019190912060e052815190820120610100524660a052620001bb60e05161010051604080517f8b73c3c69bb8fe3d512ecc4cf759cc79239f7b179b0ffacaa9a75d522b39400f60208201529081019290925260608201524660808201523060a082015260009060c00160405160208183030381529060405280519060200120905090565b60805250503060c05250620004b1565b600780546001600160a01b038381166001600160a01b0319831681179093556040519116919082907f8be0079c531659141344cd1fd0a4f28419497f9722a3daafe3b4186f6b6457e090600090a35050565b60006020835110156200023d57620002358362000256565b905062000250565b816200024a848262000370565b5060ff90505b92915050565b600080829050601f8151111562000284578260405163305a27a960e01b8152600401620000fa91906200043c565b805162000291826200048c565b179392505050565b600060208284031215620002ac57600080fd5b81516001600160a01b0381168114620002c457600080fd5b9392505050565b634e487b7160e01b600052604160045260246000fd5b600181811c90821680620002f657607f821691505b6020821081036200031757634e487b7160e01b600052602260045260246000fd5b50919050565b601f8211156200036b57600081815260208120601f850160051c81016020861015620003465750805b601f850160051c820191505b81811015620003675782815560010162000352565b5050505b505050565b81516001600160401b038111156200038c576200038c620002cb565b620003a4816200039d8454620002e1565b846200031d565b602080601f831160018114620003dc5760008415620003c35750858301515b600019600386901b1c1916600185901b17855562000367565b600085815260208120601f198616915b828110156200040d57888601518255948401946001909101908401620003ec565b50858210156200042c5787850151600019600388901b60f8161c191681555b5050505050600190811b01905550565b600060208083528351808285015260005b818110156200046b578581018301518582016040015282016200044d565b506000604082860101526040601f19601f8301168501019250505092915050565b80516020808301519190811015620003175760001960209190910360031b1b16919050565b60805160a05160c05160e051610100516101205161014051611bbf6200050c6000396000610a4401526000610a1201526000610fe601526000610fbe01526000610f1901526000610f4301526000610f6d0152611bbf6000f3fe608060405234801561001057600080fd5b50600436106101215760003560e01c8063715018a6116100ad578063a22cb46511610071578063a22cb4651461025f578063b88d4fde14610272578063c87b56dd14610285578063e985e9c514610298578063f2fde38b146102ab57600080fd5b8063715018a614610210578063805823741461021857806384b0196e1461022b5780638da5cb5b1461024657806395d89b411461025757600080fd5b806323b872dd116100f457806323b872dd146101a357806342842e0e146101b6578063451f5078146101c95780636352211e146101dc57806370a08231146101ef57600080fd5b806301ffc9a71461012657806306fdde031461014e578063081812fc14610163578063095ea7b31461018e575b600080fd5b6101396101343660046115dc565b6102be565b60405190151581526020015b60405180910390f35b6101566102cf565b6040516101459190611649565b61017661017136600461165c565b610361565b6040516001600160a01b039091168152602001610145565b6101a161019c366004611691565b61038a565b005b6101a16101b13660046116bb565b610399565b6101a16101c43660046116bb565b610429565b6101a16101d73660046116f7565b610449565b6101766101ea36600461165c565b6104b2565b6102026101fd366004611732565b6104bd565b604051908152602001610145565b6101a1610505565b6101766102263660046116f7565b610519565b61023361067c565b604051610145979695949392919061174d565b6007546001600160a01b0316610176565b6101566106c2565b6101a161026d3660046117e3565b6106d1565b6101a1610280366004611835565b6106dc565b61015661029336600461165c565b6106f3565b6101396102a6366004611911565b6106fe565b6101a16102b9366004611732565b61072c565b60006102c982610767565b92915050565b6060600080546102de90611944565b80601f016020809104026020016040519081016040528092919081815260200182805461030a90611944565b80156103575780601f1061032c57610100808354040283529160200191610357565b820191906000526020600020905b81548152906001019060200180831161033a57829003601f168201915b5050505050905090565b600061036c8261078c565b506000828152600460205260409020546001600160a01b03166102c9565b6103958282336107c5565b5050565b6001600160a01b0382166103c857604051633250574960e11b8152600060048201526024015b60405180910390fd5b60006103d58383336107d2565b9050836001600160a01b0316816001600160a01b031614610423576040516364283d7b60e01b81526001600160a01b03808616600483015260248201849052821660448201526064016103bf565b50505050565b610444838383604051806020016040528060008152506106dc565b505050565b61046361045c6080830160608401611732565b82356108cb565b6104af8135610475604084018461197e565b8080601f0160208091040260200160405190810160405280939291908181526020018383808284376000920191909152506108e592505050565b50565b60006102c98261078c565b60006001600160a01b0382166104e9576040516322718ad960e21b8152600060048201526024016103bf565b506001600160a01b031660009081526003602052604090205490565b61050d610935565b6105176000610962565b565b60008061062583356020850135610533604087018761197e565b6040516105419291906119cc565b60405190819003902061055a6080880160608901611732565b6040805160a060208201819052605960c08301527f4c617a794e4654566f7563686572282075696e7432353620746f6b656e49642c60e08301527f75696e743235362070726963652c737472696e67207572692c616464726573736101008301527f2073656c6c65722c206279746573207369676e6174757265290000000000000061012083015291810195909552606085019390935260808401919091526001600160a01b03169082015261014001604051602081830303815290604052805190602001206109b4565b905060006106748261063a608087018761197e565b8080601f0160208091040260200160405190810160405280939291908181526020018383808284376000920191909152506109e192505050565b949350505050565b600060608060008060006060610690610a0b565b610698610a3d565b60408051600080825260208201909252600f60f81b9b939a50919850469750309650945092509050565b6060600180546102de90611944565b610395338383610a6a565b6106e7848484610399565b61042384848484610b09565b60606102c982610c32565b6001600160a01b03918216600090815260056020908152604080832093909416825291909152205460ff1690565b610734610935565b6001600160a01b03811661075e57604051631e4fbdf760e01b8152600060048201526024016103bf565b6104af81610962565b60006001600160e01b03198216632483248360e11b14806102c957506102c982610d3b565b6000818152600260205260408120546001600160a01b0316806102c957604051637e27328960e01b8152600481018490526024016103bf565b6104448383836001610d8b565b6000828152600260205260408120546001600160a01b03908116908316156107ff576107ff818486610e91565b6001600160a01b0381161561083d5761081c600085600080610d8b565b6001600160a01b038116600090815260036020526040902080546000190190555b6001600160a01b0385161561086c576001600160a01b0385166000908152600360205260409020805460010190555b60008481526002602052604080822080546001600160a01b0319166001600160a01b0389811691821790925591518793918516917fddf252ad1be2c89b69c2b068fc378daa952ba7f163c4a11628f55a4df523b3ef91a4949350505050565b610395828260405180602001604052806000815250610ef5565b60008281526006602052604090206108fd8282611a2a565b506040518281527ff8e1a15aba9398e019f0b49df1a4fde98ee17ae345cb5f6b5e2c27f5033e8ce79060200160405180910390a15050565b6007546001600160a01b031633146105175760405163118cdaa760e01b81523360048201526024016103bf565b600780546001600160a01b038381166001600160a01b0319831681179093556040519116919082907f8be0079c531659141344cd1fd0a4f28419497f9722a3daafe3b4186f6b6457e090600090a35050565b60006102c96109c1610f0c565b8360405161190160f01b8152600281019290925260228201526042902090565b6000806000806109f18686611037565b925092509250610a018282611084565b5090949350505050565b6060610a387f0000000000000000000000000000000000000000000000000000000000000000600861113d565b905090565b6060610a387f0000000000000000000000000000000000000000000000000000000000000000600961113d565b6001600160a01b038216610a9c57604051630b61174360e31b81526001600160a01b03831660048201526024016103bf565b6001600160a01b03838116600081815260056020908152604080832094871680845294825291829020805460ff191686151590811790915591519182527f17307eab39ab6107e8899845ad3d59bd9653f200f220920489ca2b5937696c31910160405180910390a3505050565b6001600160a01b0383163b1561042357604051630a85bd0160e11b81526001600160a01b0384169063150b7a0290610b4b903390889087908790600401611aea565b6020604051808303816000875af1925050508015610b86575060408051601f3d908101601f19168201909252610b8391810190611b27565b60015b610bef573d808015610bb4576040519150601f19603f3d011682016040523d82523d6000602084013e610bb9565b606091505b508051600003610be757604051633250574960e11b81526001600160a01b03851660048201526024016103bf565b805181602001fd5b6001600160e01b03198116630a85bd0160e11b14610c2b57604051633250574960e11b81526001600160a01b03851660048201526024016103bf565b5050505050565b6060610c3d8261078c565b5060008281526006602052604081208054610c5790611944565b80601f0160208091040260200160405190810160405280929190818152602001828054610c8390611944565b8015610cd05780601f10610ca557610100808354040283529160200191610cd0565b820191906000526020600020905b815481529060010190602001808311610cb357829003601f168201915b505050505090506000610cee60408051602081019091526000815290565b90508051600003610d00575092915050565b815115610d32578082604051602001610d1a929190611b44565b60405160208183030381529060405292505050919050565b610674846111e8565b60006001600160e01b031982166380ac58cd60e01b1480610d6c57506001600160e01b03198216635b5e139f60e01b145b806102c957506301ffc9a760e01b6001600160e01b03198316146102c9565b8080610d9f57506001600160a01b03821615155b15610e61576000610daf8461078c565b90506001600160a01b03831615801590610ddb5750826001600160a01b0316816001600160a01b031614155b8015610dee5750610dec81846106fe565b155b15610e175760405163a9fbf51f60e01b81526001600160a01b03841660048201526024016103bf565b8115610e5f5783856001600160a01b0316826001600160a01b03167f8c5be1e5ebec7d5bd14f71427d1e84f3dd0314c0f7b2291e5b200ac8c7c3b92560405160405180910390a45b505b5050600090815260046020526040902080546001600160a01b0319166001600160a01b0392909216919091179055565b610e9c83838361125d565b610444576001600160a01b038316610eca57604051637e27328960e01b8152600481018290526024016103bf565b60405163177e802f60e01b81526001600160a01b0383166004820152602481018290526044016103bf565b610eff83836112c0565b6104446000848484610b09565b6000306001600160a01b037f000000000000000000000000000000000000000000000000000000000000000016148015610f6557507f000000000000000000000000000000000000000000000000000000000000000046145b15610f8f57507f000000000000000000000000000000000000000000000000000000000000000090565b610a38604080517f8b73c3c69bb8fe3d512ecc4cf759cc79239f7b179b0ffacaa9a75d522b39400f60208201527f0000000000000000000000000000000000000000000000000000000000000000918101919091527f000000000000000000000000000000000000000000000000000000000000000060608201524660808201523060a082015260009060c00160405160208183030381529060405280519060200120905090565b600080600083516041036110715760208401516040850151606086015160001a61106388828585611325565b95509550955050505061107d565b50508151600091506002905b9250925092565b600082600381111561109857611098611b73565b036110a1575050565b60018260038111156110b5576110b5611b73565b036110d35760405163f645eedf60e01b815260040160405180910390fd5b60028260038111156110e7576110e7611b73565b036111085760405163fce698f760e01b8152600481018290526024016103bf565b600382600381111561111c5761111c611b73565b03610395576040516335e2f38360e21b8152600481018290526024016103bf565b606060ff831461115757611150836113f4565b90506102c9565b81805461116390611944565b80601f016020809104026020016040519081016040528092919081815260200182805461118f90611944565b80156111dc5780601f106111b1576101008083540402835291602001916111dc565b820191906000526020600020905b8154815290600101906020018083116111bf57829003601f168201915b505050505090506102c9565b60606111f38261078c565b50600061120b60408051602081019091526000815290565b9050600081511161122b5760405180602001604052806000815250611256565b8061123584611433565b604051602001611246929190611b44565b6040516020818303038152906040525b9392505050565b60006001600160a01b038316158015906106745750826001600160a01b0316846001600160a01b03161480611297575061129784846106fe565b806106745750506000908152600460205260409020546001600160a01b03908116911614919050565b6001600160a01b0382166112ea57604051633250574960e11b8152600060048201526024016103bf565b60006112f8838360006107d2565b90506001600160a01b03811615610444576040516339e3563760e11b8152600060048201526024016103bf565b600080807f7fffffffffffffffffffffffffffffff5d576e7357a4501ddfe92f46681b20a084111561136057506000915060039050826113ea565b604080516000808252602082018084528a905260ff891692820192909252606081018790526080810186905260019060a0016020604051602081039080840390855afa1580156113b4573d6000803e3d6000fd5b5050604051601f1901519150506001600160a01b0381166113e0575060009250600191508290506113ea565b9250600091508190505b9450945094915050565b60606000611401836114c6565b604080516020808252818301909252919250600091906020820181803683375050509182525060208101929092525090565b60606000611440836114ee565b600101905060008167ffffffffffffffff8111156114605761146061181f565b6040519080825280601f01601f19166020018201604052801561148a576020820181803683370190505b5090508181016020015b600019016f181899199a1a9b1b9c1cb0b131b232b360811b600a86061a8153600a850494508461149457509392505050565b600060ff8216601f8111156102c957604051632cd44ac360e21b815260040160405180910390fd5b60008072184f03e93ff9f4daa797ed6e38ed64bf6a1f0160401b831061152d5772184f03e93ff9f4daa797ed6e38ed64bf6a1f0160401b830492506040015b6d04ee2d6d415b85acef81000000008310611559576d04ee2d6d415b85acef8100000000830492506020015b662386f26fc10000831061157757662386f26fc10000830492506010015b6305f5e100831061158f576305f5e100830492506008015b61271083106115a357612710830492506004015b606483106115b5576064830492506002015b600a83106102c95760010192915050565b6001600160e01b0319811681146104af57600080fd5b6000602082840312156115ee57600080fd5b8135611256816115c6565b60005b838110156116145781810151838201526020016115fc565b50506000910152565b600081518084526116358160208601602086016115f9565b601f01601f19169290920160200192915050565b602081526000611256602083018461161d565b60006020828403121561166e57600080fd5b5035919050565b80356001600160a01b038116811461168c57600080fd5b919050565b600080604083850312156116a457600080fd5b6116ad83611675565b946020939093013593505050565b6000806000606084860312156116d057600080fd5b6116d984611675565b92506116e760208501611675565b9150604084013590509250925092565b60006020828403121561170957600080fd5b813567ffffffffffffffff81111561172057600080fd5b820160a0818503121561125657600080fd5b60006020828403121561174457600080fd5b61125682611675565b60ff60f81b881681526000602060e08184015261176d60e084018a61161d565b838103604085015261177f818a61161d565b606085018990526001600160a01b038816608086015260a0850187905284810360c0860152855180825283870192509083019060005b818110156117d1578351835292840192918401916001016117b5565b50909c9b505050505050505050505050565b600080604083850312156117f657600080fd5b6117ff83611675565b91506020830135801515811461181457600080fd5b809150509250929050565b634e487b7160e01b600052604160045260246000fd5b6000806000806080858703121561184b57600080fd5b61185485611675565b935061186260208601611675565b925060408501359150606085013567ffffffffffffffff8082111561188657600080fd5b818701915087601f83011261189a57600080fd5b8135818111156118ac576118ac61181f565b604051601f8201601f19908116603f011681019083821181831017156118d4576118d461181f565b816040528281528a60208487010111156118ed57600080fd5b82602086016020830137600060208483010152809550505050505092959194509250565b6000806040838503121561192457600080fd5b61192d83611675565b915061193b60208401611675565b90509250929050565b600181811c9082168061195857607f821691505b60208210810361197857634e487b7160e01b600052602260045260246000fd5b50919050565b6000808335601e1984360301811261199557600080fd5b83018035915067ffffffffffffffff8211156119b057600080fd5b6020019150368190038213156119c557600080fd5b9250929050565b8183823760009101908152919050565b601f82111561044457600081815260208120601f850160051c81016020861015611a035750805b601f850160051c820191505b81811015611a2257828155600101611a0f565b505050505050565b815167ffffffffffffffff811115611a4457611a4461181f565b611a5881611a528454611944565b846119dc565b602080601f831160018114611a8d5760008415611a755750858301515b600019600386901b1c1916600185901b178555611a22565b600085815260208120601f198616915b82811015611abc57888601518255948401946001909101908401611a9d565b5085821015611ada5787850151600019600388901b60f8161c191681555b5050505050600190811b01905550565b6001600160a01b0385811682528416602082015260408101839052608060608201819052600090611b1d9083018461161d565b9695505050505050565b600060208284031215611b3957600080fd5b8151611256816115c6565b60008351611b568184602088016115f9565b835190830190611b6a8183602088016115f9565b01949350505050565b634e487b7160e01b600052602160045260246000fdfea264697066735822122092d2acedbd03b196e9a083ccacd8f11be95f6bc5badc23fa6eb45c88830b921f64736f6c63430008140033",
  "linkReferences": {},
  "deployedLinkReferences": {}
}