{
  "_format": "hh-sol-artifact-1",
  "contractName": "Users",
  "sourceName": "contracts/Users.sol",
  "abi": [
    {
      "inputs": [],
      "name": "DevTimeOver",
      "type": "error"
    },
    {
      "inputs": [
        {
          "internalType": "address",
          "name": "owner",
          "type": "address"
        }
      ],
      "name": "OwnableInvalidOwner",
      "type": "error"
    },
    {
      "inputs": [
        {
          "internalType": "address",
          "name": "account",
          "type": "address"
        }
      ],
      "name": "OwnableUnauthorizedAccount",
      "type": "error"
    },
    {
      "anonymous": false,
      "inputs": [
        {
          "indexed": true,
          "internalType": "address",
          "name": "previousOwner",
          "type": "address"
        },
        {
          "indexed": true,
          "internalType": "address",
          "name": "newOwner",
          "type": "address"
        }
      ],
      "name": "OwnershipTransferred",
      "type": "event"
    },
    {
      "inputs": [
        {
          "internalType": "uint256",
          "name": "",
          "type": "uint256"
        }
      ],
      "name": "BVPlan",
      "outputs": [
        {
          "internalType": "uint256",
          "name": "",
          "type": "uint256"
        }
      ],
      "stateMutability": "view",
      "type": "function"
    },
    {
      "inputs": [
        {
          "internalType": "uint256",
          "name": "",
          "type": "uint256"
        }
      ],
      "name": "ListLevelUpDate",
      "outputs": [
        {
          "internalType": "uint256",
          "name": "date",
          "type": "uint256"
        },
        {
          "internalType": "uint256",
          "name": "level",
          "type": "uint256"
        }
      ],
      "stateMutability": "view",
      "type": "function"
    },
    {
      "inputs": [
        {
          "internalType": "uint256",
          "name": "",
          "type": "uint256"
        }
      ],
      "name": "UserAddress",
      "outputs": [
        {
          "internalType": "address",
          "name": "",
          "type": "address"
        }
      ],
      "stateMutability": "view",
      "type": "function"
    },
    {
      "inputs": [
        {
          "internalType": "uint256",
          "name": "",
          "type": "uint256"
        },
        {
          "internalType": "uint256",
          "name": "",
          "type": "uint256"
        }
      ],
      "name": "UserLevelUpDateIndex",
      "outputs": [
        {
          "internalType": "uint256",
          "name": "",
          "type": "uint256"
        }
      ],
      "stateMutability": "view",
      "type": "function"
    },
    {
      "inputs": [
        {
          "internalType": "address",
          "name": "",
          "type": "address"
        }
      ],
      "name": "UserList",
      "outputs": [
        {
          "internalType": "uint256",
          "name": "id",
          "type": "uint256"
        },
        {
          "components": [
            {
              "internalType": "uint256",
              "name": "left",
              "type": "uint256"
            },
            {
              "internalType": "uint256",
              "name": "right",
              "type": "uint256"
            },
            {
              "internalType": "uint256",
              "name": "dir",
              "type": "uint256"
            },
            {
              "internalType": "uint256",
              "name": "level",
              "type": "uint256"
            },
            {
              "internalType": "uint256",
              "name": "summ",
              "type": "uint256"
            }
          ],
          "internalType": "struct UsersStruct.BusinessValue",
          "name": "bv",
          "type": "tuple"
        },
        {
          "components": [
            {
              "internalType": "uint256",
              "name": "date",
              "type": "uint256"
            },
            {
              "internalType": "uint256",
              "name": "order_id",
              "type": "uint256"
            },
            {
              "internalType": "uint256",
              "name": "bv_level",
              "type": "uint256"
            }
          ],
          "internalType": "struct UsersStruct.LastOrder",
          "name": "last_order",
          "type": "tuple"
        },
        {
          "internalType": "uint256",
          "name": "depth",
          "type": "uint256"
        },
        {
          "internalType": "uint256",
          "name": "pending_withdraw",
          "type": "uint256"
        },
        {
          "internalType": "uint256",
          "name": "levelup_count",
          "type": "uint256"
        },
        {
          "internalType": "uint256",
          "name": "lastweek",
          "type": "uint256"
        },
        {
          "internalType": "uint256",
          "name": "step",
          "type": "uint256"
        },
        {
          "internalType": "uint256",
          "name": "pending_voucher",
          "type": "uint256"
        },
        {
          "internalType": "bool",
          "name": "exists",
          "type": "bool"
        },
        {
          "internalType": "bytes32",
          "name": "data",
          "type": "bytes32"
        }
      ],
      "stateMutability": "view",
      "type": "function"
    },
    {
      "inputs": [
        {
          "internalType": "uint256",
          "name": "",
          "type": "uint256"
        },
        {
          "internalType": "uint256",
          "name": "",
          "type": "uint256"
        }
      ],
      "name": "UsersPaths",
      "outputs": [
        {
          "internalType": "bytes32",
          "name": "",
          "type": "bytes32"
        }
      ],
      "stateMutability": "view",
      "type": "function"
    },
    {
      "inputs": [
        {
          "internalType": "uint256",
          "name": "",
          "type": "uint256"
        },
        {
          "internalType": "uint256",
          "name": "",
          "type": "uint256"
        }
      ],
      "name": "UsersPathsHash",
      "outputs": [
        {
          "internalType": "bytes32",
          "name": "",
          "type": "bytes32"
        }
      ],
      "stateMutability": "view",
      "type": "function"
    },
    {
      "inputs": [
        {
          "components": [
            {
              "internalType": "address",
              "name": "userAddr",
              "type": "address"
            },
            {
              "internalType": "address",
              "name": "parent_addr",
              "type": "address"
            },
            {
              "internalType": "uint256",
              "name": "bvlevel",
              "type": "uint256"
            },
            {
              "internalType": "uint256",
              "name": "bvsum",
              "type": "uint256"
            },
            {
              "internalType": "uint256",
              "name": "levelup_date",
              "type": "uint256"
            }
          ],
          "internalType": "struct UsersStruct.ImportUser[]",
          "name": "users",
          "type": "tuple[]"
        }
      ],
      "name": "addUserBulk",
      "outputs": [],
      "stateMutability": "nonpayable",
      "type": "function"
    },
    {
      "inputs": [],
      "name": "calculator",
      "outputs": [
        {
          "internalType": "contract Calculator",
          "name": "",
          "type": "address"
        }
      ],
      "stateMutability": "view",
      "type": "function"
    },
    {
      "inputs": [
        {
          "internalType": "uint256",
          "name": "a",
          "type": "uint256"
        },
        {
          "internalType": "uint256",
          "name": "b",
          "type": "uint256"
        }
      ],
      "name": "floor",
      "outputs": [
        {
          "internalType": "uint256",
          "name": "",
          "type": "uint256"
        }
      ],
      "stateMutability": "pure",
      "type": "function"
    },
    {
      "inputs": [
        {
          "internalType": "bytes1",
          "name": "b",
          "type": "bytes1"
        },
        {
          "internalType": "uint8",
          "name": "position",
          "type": "uint8"
        }
      ],
      "name": "getBit",
      "outputs": [
        {
          "internalType": "uint8",
          "name": "",
          "type": "uint8"
        }
      ],
      "stateMutability": "pure",
      "type": "function"
    },
    {
      "inputs": [
        {
          "internalType": "address",
          "name": "user_address",
          "type": "address"
        }
      ],
      "name": "getUser",
      "outputs": [
        {
          "components": [
            {
              "internalType": "uint256",
              "name": "id",
              "type": "uint256"
            },
            {
              "components": [
                {
                  "internalType": "uint256",
                  "name": "left",
                  "type": "uint256"
                },
                {
                  "internalType": "uint256",
                  "name": "right",
                  "type": "uint256"
                },
                {
                  "internalType": "uint256",
                  "name": "dir",
                  "type": "uint256"
                },
                {
                  "internalType": "uint256",
                  "name": "level",
                  "type": "uint256"
                },
                {
                  "internalType": "uint256",
                  "name": "summ",
                  "type": "uint256"
                }
              ],
              "internalType": "struct UsersStruct.BusinessValue",
              "name": "bv",
              "type": "tuple"
            },
            {
              "components": [
                {
                  "internalType": "uint256",
                  "name": "date",
                  "type": "uint256"
                },
                {
                  "internalType": "uint256",
                  "name": "order_id",
                  "type": "uint256"
                },
                {
                  "internalType": "uint256",
                  "name": "bv_level",
                  "type": "uint256"
                }
              ],
              "internalType": "struct UsersStruct.LastOrder",
              "name": "last_order",
              "type": "tuple"
            },
            {
              "internalType": "uint256",
              "name": "depth",
              "type": "uint256"
            },
            {
              "internalType": "uint256",
              "name": "pending_withdraw",
              "type": "uint256"
            },
            {
              "internalType": "uint256",
              "name": "levelup_count",
              "type": "uint256"
            },
            {
              "internalType": "uint256",
              "name": "lastweek",
              "type": "uint256"
            },
            {
              "internalType": "uint256",
              "name": "step",
              "type": "uint256"
            },
            {
              "internalType": "uint256",
              "name": "pending_voucher",
              "type": "uint256"
            },
            {
              "internalType": "bool",
              "name": "exists",
              "type": "bool"
            },
            {
              "internalType": "bytes32",
              "name": "data",
              "type": "bytes32"
            }
          ],
          "internalType": "struct UsersStruct.User",
          "name": "user",
          "type": "tuple"
        }
      ],
      "stateMutability": "nonpayable",
      "type": "function"
    },
    {
      "inputs": [
        {
          "components": [
            {
              "internalType": "uint256",
              "name": "id",
              "type": "uint256"
            },
            {
              "components": [
                {
                  "internalType": "uint256",
                  "name": "left",
                  "type": "uint256"
                },
                {
                  "internalType": "uint256",
                  "name": "right",
                  "type": "uint256"
                },
                {
                  "internalType": "uint256",
                  "name": "dir",
                  "type": "uint256"
                },
                {
                  "internalType": "uint256",
                  "name": "level",
                  "type": "uint256"
                },
                {
                  "internalType": "uint256",
                  "name": "summ",
                  "type": "uint256"
                }
              ],
              "internalType": "struct UsersStruct.BusinessValue",
              "name": "bv",
              "type": "tuple"
            },
            {
              "components": [
                {
                  "internalType": "uint256",
                  "name": "date",
                  "type": "uint256"
                },
                {
                  "internalType": "uint256",
                  "name": "order_id",
                  "type": "uint256"
                },
                {
                  "internalType": "uint256",
                  "name": "bv_level",
                  "type": "uint256"
                }
              ],
              "internalType": "struct UsersStruct.LastOrder",
              "name": "last_order",
              "type": "tuple"
            },
            {
              "internalType": "uint256",
              "name": "depth",
              "type": "uint256"
            },
            {
              "internalType": "uint256",
              "name": "pending_withdraw",
              "type": "uint256"
            },
            {
              "internalType": "uint256",
              "name": "levelup_count",
              "type": "uint256"
            },
            {
              "internalType": "uint256",
              "name": "lastweek",
              "type": "uint256"
            },
            {
              "internalType": "uint256",
              "name": "step",
              "type": "uint256"
            },
            {
              "internalType": "uint256",
              "name": "pending_voucher",
              "type": "uint256"
            },
            {
              "internalType": "bool",
              "name": "exists",
              "type": "bool"
            },
            {
              "internalType": "bytes32",
              "name": "data",
              "type": "bytes32"
            }
          ],
          "internalType": "struct UsersStruct.User",
          "name": "parent",
          "type": "tuple"
        },
        {
          "components": [
            {
              "internalType": "uint256",
              "name": "id",
              "type": "uint256"
            },
            {
              "components": [
                {
                  "internalType": "uint256",
                  "name": "left",
                  "type": "uint256"
                },
                {
                  "internalType": "uint256",
                  "name": "right",
                  "type": "uint256"
                },
                {
                  "internalType": "uint256",
                  "name": "dir",
                  "type": "uint256"
                },
                {
                  "internalType": "uint256",
                  "name": "level",
                  "type": "uint256"
                },
                {
                  "internalType": "uint256",
                  "name": "summ",
                  "type": "uint256"
                }
              ],
              "internalType": "struct UsersStruct.BusinessValue",
              "name": "bv",
              "type": "tuple"
            },
            {
              "components": [
                {
                  "internalType": "uint256",
                  "name": "date",
                  "type": "uint256"
                },
                {
                  "internalType": "uint256",
                  "name": "order_id",
                  "type": "uint256"
                },
                {
                  "internalType": "uint256",
                  "name": "bv_level",
                  "type": "uint256"
                }
              ],
              "internalType": "struct UsersStruct.LastOrder",
              "name": "last_order",
              "type": "tuple"
            },
            {
              "internalType": "uint256",
              "name": "depth",
              "type": "uint256"
            },
            {
              "internalType": "uint256",
              "name": "pending_withdraw",
              "type": "uint256"
            },
            {
              "internalType": "uint256",
              "name": "levelup_count",
              "type": "uint256"
            },
            {
              "internalType": "uint256",
              "name": "lastweek",
              "type": "uint256"
            },
            {
              "internalType": "uint256",
              "name": "step",
              "type": "uint256"
            },
            {
              "internalType": "uint256",
              "name": "pending_voucher",
              "type": "uint256"
            },
            {
              "internalType": "bool",
              "name": "exists",
              "type": "bool"
            },
            {
              "internalType": "bytes32",
              "name": "data",
              "type": "bytes32"
            }
          ],
          "internalType": "struct UsersStruct.User",
          "name": "child",
          "type": "tuple"
        }
      ],
      "name": "isChildOfParent",
      "outputs": [
        {
          "internalType": "bool",
          "name": "",
          "type": "bool"
        },
        {
          "internalType": "uint8",
          "name": "",
          "type": "uint8"
        }
      ],
      "stateMutability": "nonpayable",
      "type": "function"
    },
    {
      "inputs": [],
      "name": "isDev",
      "outputs": [
        {
          "internalType": "bool",
          "name": "",
          "type": "bool"
        }
      ],
      "stateMutability": "view",
      "type": "function"
    },
    {
      "inputs": [],
      "name": "level_up_data_index",
      "outputs": [
        {
          "internalType": "uint256",
          "name": "",
          "type": "uint256"
        }
      ],
      "stateMutability": "view",
      "type": "function"
    },
    {
      "inputs": [],
      "name": "owner",
      "outputs": [
        {
          "internalType": "address",
          "name": "",
          "type": "address"
        }
      ],
      "stateMutability": "view",
      "type": "function"
    },
    {
      "inputs": [],
      "name": "renounceOwnership",
      "outputs": [],
      "stateMutability": "nonpayable",
      "type": "function"
    },
    {
      "inputs": [],
      "name": "switchToProduction",
      "outputs": [],
      "stateMutability": "nonpayable",
      "type": "function"
    },
    {
      "inputs": [
        {
          "internalType": "address",
          "name": "newOwner",
          "type": "address"
        }
      ],
      "name": "transferOwnership",
      "outputs": [],
      "stateMutability": "nonpayable",
      "type": "function"
    },
    {
      "inputs": [],
      "name": "user_id",
      "outputs": [
        {
          "internalType": "uint256",
          "name": "",
          "type": "uint256"
        }
      ],
      "stateMutability": "view",
      "type": "function"
    }
  ],
  "bytecode": "0x60806040526000805460ff60a01b1916600160a01b17905534801561002357600080fd5b50338061004a57604051631e4fbdf760e01b81526000600482015260240160405180910390fd5b61005381610059565b506100a9565b600080546001600160a01b038381166001600160a01b0319831681178455604051919092169283917f8be0079c531659141344cd1fd0a4f28419497f9722a3daafe3b4186f6b6457e09190a35050565b6119de806100b86000396000f3fe608060405234801561001057600080fd5b506004361061012c5760003560e01c8063c1debecb116100ad578063eb63a59e11610071578063eb63a59e146102d2578063f079914f146103a7578063f27be14e146103cb578063f2fde38b146103f7578063f89183121461040a57600080fd5b8063c1debecb14610248578063c2afb6831461025b578063c2f29eb01461027b578063ce3e39c014610283578063e6d3c18f1461029657600080fd5b8063715018a6116100f4578063715018a6146102085780637548f424146102125780638da5cb5b1461021b578063bb5d88fa1461022c578063be379d5b1461023557600080fd5b8063120a521a146101315780633070667f146101775780633ce0adeb1461019c578063511095b5146101d55780636f77926b146101e8575b600080fd5b61015a61013f366004611364565b6006602052600090815260409020546001600160a01b031681565b6040516001600160a01b0390911681526020015b60405180910390f35b61018a61018536600461137d565b610435565b60405160ff909116815260200161016e565b6101c76101aa3660046113c9565b600760209081526000928352604080842090915290825290205481565b60405190815260200161016e565b6101c76101e33660046113c9565b610474565b6101fb6101f6366004611407565b6104a5565b60405161016e9190611422565b6102106105a4565b005b6101c760025481565b6000546001600160a01b031661015a565b6101c760015481565b6101c76102433660046113c9565b6105b8565b610210610256366004611591565b6105cb565b6101c7610269366004611364565b60096020526000908152604090205481565b610210610702565b600a5461015a906001600160a01b031681565b6102bd6102a4366004611364565b6005602052600090815260409020805460019091015482565b6040805192835260208301919091520161016e565b6103906102e0366004611407565b6003602081815260009283526040928390208054845160a08101865260018301548152600283015481850152938201548486015260048201546060808601919091526005830154608086015285519081018652600683015481526007830154938101939093526008820154948301949094526009810154600a820154600b830154600c840154600d850154600e860154600f87015460109097015495969495939492939192909160ff909116908b565b60405161016e9b9a99989796959493929190611687565b6000546103bb90600160a01b900460ff1681565b604051901515815260200161016e565b6103de6103d9366004611890565b610719565b60408051921515835260ff90911660208301520161016e565b610210610405366004611407565b610a86565b6101c76104183660046113c9565b600860209081526000928352604080842090915290825290205481565b6000806104438360076118dd565b600160ff919091161b905060f884901c8082166104618560076118dd565b60ff91821691161c925050505b92915050565b6004602052816000526040600020818154811061049057600080fd5b90600052602060002001600091509150505481565b6104ad611253565b506001600160a01b031660009081526003602081815260409283902083516101608101855281548152845160a080820187526001840154825260028401548286015294830154818701526004830154606080830191909152600584015460808084019190915283860192909252865180820188526006850154815260078501549581019590955260088401548588015295820193909352600982015494810194909452600a81015491840191909152600b81015491830191909152600c81015460c0830152600d81015460e0830152600e810154610100830152600f81015460ff1615156101208301526010015461014082015290565b6105ac610ac4565b6105b66000610af1565b565b60006105c4828461190c565b9392505050565b600054600160a01b900460ff166105f557604051631867fcd960e11b815260040160405180910390fd5b6105fd610ac4565b60005b81518110156106fe576003600083838151811061061f5761061f611920565b602090810291909101810151516001600160a01b03168252810191909152604001600020600f015460ff166106ec576106ec82828151811061066357610663611920565b60200260200101516000015183838151811061068157610681611920565b60200260200101516020015184848151811061069f5761069f611920565b6020026020010151604001518585815181106106bd576106bd611920565b6020026020010151606001518686815181106106db576106db611920565b602002602001015160800151610b41565b806106f681611936565b915050610600565b5050565b61070a610ac4565b6000805460ff60a01b19169055565b6000808260600151846060015110610737575060009050600a610a7f565b6000610100856060015161074b919061190c565b905060006101008660600151610761919061194f565b905081156108dd5780156107e157845160009081526008602052604081209061078b600185611963565b81526020808201929092526040908101600090812054895182526008909352908120906107b9600186611963565b815260200190815260200160002054146107dc576000600b935093505050610a7f565b6108dd565b6000600183116107fb576647656e6573697360c81b610827565b8651600090815260086020526040812090610817600286611963565b8152602001908152602001600020545b8751600090815260076020526040812091925090829082610849600188611963565b815260200190815260200160002054604051602001610872929190918252602082015260400190565b60408051601f1981840301815291815281516020808401919091208a51600090815260089092529181209293509091816108ad600189611963565b81526020019081526020016000205490508082146108d8576000606f97509750505050505050610a7f565b505050505b60006108ea60088361190c565b9050600a6000805b838111610a225760005b60088160ff161015610a0f578261091281611936565b9350508583111561095e57895160009081526007602090815260408083208a8452825290912054610957918490811061094d5761094d611920565b1a60f81b82610435565b9350610a0f565b8a5160009081526007602090815260408083208a84528252822054610997918590811061098d5761098d611920565b1a60f81b83610435565b8b5160009081526007602090815260408083208c8452825282205492935090916109d591869081106109cb576109cb611920565b1a60f81b84610435565b90508060ff168260ff16146109fa576000600c9a509a50505050505050505050610a7f565b50508080610a0790611976565b9150506108fc565b5080610a1a81611936565b9150506108f2565b5060028260ff1610610a745760405162461bcd60e51b8152602060048201526016602482015275736f6d657468696e672077656e742077726f6e67202160501b60448201526064015b60405180910390fd5b506001955093505050505b9250929050565b610a8e610ac4565b6001600160a01b038116610ab857604051631e4fbdf760e01b815260006004820152602401610a6b565b610ac181610af1565b50565b6000546001600160a01b031633146105b65760405163118cdaa760e01b8152336004820152602401610a6b565b600080546001600160a01b038381166001600160a01b0319831681178455604051919092169283917f8be0079c531659141344cd1fd0a4f28419497f9722a3daafe3b4186f6b6457e09190a35050565b6001600160a01b03808516600090815260036020818152604080842081516101608101835281548152825160a080820185526001840154825260028401548287015283870154828601526004840154606080840191909152600585015460808085019190915284880193909352855180820187526006860154815260078601548189015260088601548188015284870152600985015490840152600a84015491830191909152600b83015490820152600c82015460c0820152600d82015460e0820152600e820154610100820152600f8083015460ff9081161515610120840152601090930154610140830152968c16865293909252909220909201541615610c7d5760405162461bcd60e51b815260206004820152600e60248201526d757365727320657869737473202160901b6044820152606401610a6b565b806101200151610cc65760405162461bcd60e51b8152602060048201526014602482015273706172656e74206973206e6f742065786973747360601b6044820152606401610a6b565b600281602001516040015110610d2a5760405162461bcd60e51b815260206004820152602360248201527f706172656e742063616e206e6f742068617665206d6f7265207468616e2032206044820152623234b960e91b6064820152608401610a6b565b6001546000908152600460205260409020606080519091610d4d91608090611304565b50600060405180610160016040528060015481526020016040518060a00160405280600081526020016000815260200160008152602001898152602001888152508152602001604051806060016040528060008152602001600081526020016000815250815260200184606001516001610dc79190611995565b8152600060208083018290526040808401839052606084018390526080840183905260a08401839052600160c0850181905260e090940183905283548352600682529182902080546001600160a01b0319166001600160a01b038e161790558601510151919250610e389190611995565b6001600160a01b038881166000908152600360208181526040808420830195909555928c1682528382208551815585840151805160018084019190915581860151600284015581870151938301939093556060808201516004840155608091820151600584015587870151805160068501559586015160078401559490950151600882015592850151600984015592840151600a83015560a0840151600b83015560c0840151600c83015560e0840151600d830155610100840151600e830155610120840151600f8301805460ff191691151591909117905561014084015160109092019190915581549190610f2d83611936565b90915550508051610f3f908588610f53565b610f498184611003565b5050505050505050565b600083815260066020908152604080832080546001600160a01b0390811685526003808552838620600d0186905583518085018552888152808601888152600280548952600588528689208351815591516001928301558b89526004885286892090548154928301825590895287892090910155925490911685529092528220600b0180549192610fe383611936565b909155505060028054906000610ff883611936565b919050555050505050565b60006101008260600151611017919061190c565b90506000610100836060015161102d919061194f565b905060005b828110156110a6578351600090815260076020818152604080842085855282528084205489518552928252808420858552825280842092909255865183526008808252828420858552825282842054895185529082528284208585529091529120558061109e81611936565b915050611032565b50801561110057825160009081526007602090815260408083208584528252918290205490850151909101516110df9190839015611225565b8451600090815260076020908152604080832086845290915290205561121f565b6000611119816000866020015160400151600014611225565b85516000908152600760209081526040808320878452909152902055821561121d57600060018411611155576647656e6573697360c81b611181565b8551600090815260086020526040812090611171600287611963565b8152602001908152602001600020545b86516000908152600760205260408120919250908290826111a3600189611963565b8152602001908152602001600020546040516020016111cc929190918252602082015260400190565b60408051601f1981840301815291815281516020808401919091208a51600090815260089092529181209293509091829161120860018a611963565b81526020810191909152604001600020555050505b505b50505050565b6000806112338460ff611963565b8361123f576001611242565b60005b60ff16901b85189150509392505050565b604051806101600160405280600081526020016112986040518060a0016040528060008152602001600081526020016000815260200160008152602001600081525090565b81526020016112c160405180606001604052806000815260200160008152602001600081525090565b8152602001600081526020016000815260200160008152602001600081526020016000815260200160008152602001600015158152602001600080191681525090565b82805482825590600052602060002090810192821561133f579160200282015b8281111561133f578251825591602001919060010190611324565b5061134b92915061134f565b5090565b5b8082111561134b5760008155600101611350565b60006020828403121561137657600080fd5b5035919050565b6000806040838503121561139057600080fd5b82356001600160f81b0319811681146113a857600080fd5b9150602083013560ff811681146113be57600080fd5b809150509250929050565b600080604083850312156113dc57600080fd5b50508035926020909101359150565b80356001600160a01b038116811461140257600080fd5b919050565b60006020828403121561141957600080fd5b6105c4826113eb565b815181526020808301516102208301916114699084018280518252602081015160208301526040810151604083015260608101516060830152608081015160808301525050565b50604083810151805160c0850152602081015160e085015290810151610100840152506060830151610120818185015260808501519150610140828186015260a086015161016086015260c086015161018086015260e08601516101a08601526101008601516101c08601528186015192506114ea6101e086018415159052565b8086015161020086015250505092915050565b634e487b7160e01b600052604160045260246000fd5b60405160a0810167ffffffffffffffff81118282101715611536576115366114fd565b60405290565b604051610160810167ffffffffffffffff81118282101715611536576115366114fd565b604051601f8201601f1916810167ffffffffffffffff81118282101715611589576115896114fd565b604052919050565b600060208083850312156115a457600080fd5b823567ffffffffffffffff808211156115bc57600080fd5b818501915085601f8301126115d057600080fd5b8135818111156115e2576115e26114fd565b6115f0848260051b01611560565b818152848101925060a091820284018501918883111561160f57600080fd5b938501935b8285101561167b5780858a03121561162c5760008081fd5b611634611513565b61163d866113eb565b815261164a8787016113eb565b8188015260408681013590820152606080870135908201526080808701359082015284529384019392850192611614565b50979650505050505050565b8b815261022081016116c7602083018d80518252602081015160208301526040810151604083015260608101516060830152608081015160808301525050565b8a5160c083015260208b015160e08301526040909a01516101008201526101208101989098526101408801969096526101608701949094526101808601929092526101a08501526101c084015215156101e08301526102009091015292915050565b600060a0828403121561173b57600080fd5b611743611513565b9050813581526020820135602082015260408201356040820152606082013560608201526080820135608082015292915050565b60006060828403121561178957600080fd5b6040516060810181811067ffffffffffffffff821117156117ac576117ac6114fd565b80604052508091508235815260208301356020820152604083013560408201525092915050565b8035801515811461140257600080fd5b600061022082840312156117f657600080fd5b6117fe61153c565b9050813581526118118360208401611729565b60208201526118238360c08401611777565b604082015261012080830135606083015261014080840135608084015261016084013560a084015261018084013560c08401526101a084013560e08401526101c084013561010084015261187a6101e085016117d3565b8284015261020084013581840152505092915050565b60008061044083850312156118a457600080fd5b6118ae84846117e3565b91506118be8461022085016117e3565b90509250929050565b634e487b7160e01b600052601160045260246000fd5b60ff828116828216039081111561046e5761046e6118c7565b634e487b7160e01b600052601260045260246000fd5b60008261191b5761191b6118f6565b500490565b634e487b7160e01b600052603260045260246000fd5b600060018201611948576119486118c7565b5060010190565b60008261195e5761195e6118f6565b500690565b8181038181111561046e5761046e6118c7565b600060ff821660ff810361198c5761198c6118c7565b60010192915050565b8082018082111561046e5761046e6118c756fea2646970667358221220144337be5d450d22bede79c4e7160a69bfda38b2c2db78e64714bce6ca5a4b7f64736f6c63430008140033",
  "linkReferences": {},
  "deployedLinkReferences": {}
}