{
  "_format": "hh-sol-artifact-1",
  "contractName": "Calculator",
  "sourceName": "contracts/Calculator.sol",
  "abi": [
    {
      "inputs": [
        {
          "internalType": "uint256",
          "name": "fromId",
          "type": "uint256"
        }
      ],
      "name": "InvalidFromID",
      "type": "error"
    },
    {
      "inputs": [
        {
          "internalType": "uint256",
          "name": "fromId",
          "type": "uint256"
        },
        {
          "internalType": "uint256",
          "name": "toId",
          "type": "uint256"
        }
      ],
      "name": "InvalidRangeID",
      "type": "error"
    },
    {
      "inputs": [
        {
          "internalType": "uint256",
          "name": "toId",
          "type": "uint256"
        }
      ],
      "name": "InvalidToID",
      "type": "error"
    },
    {
      "inputs": [],
      "name": "UserNotFound",
      "type": "error"
    },
    {
      "anonymous": false,
      "inputs": [
        {
          "indexed": true,
          "internalType": "address",
          "name": "user_address",
          "type": "address"
        },
        {
          "indexed": true,
          "internalType": "uint256",
          "name": "user_id",
          "type": "uint256"
        }
      ],
      "name": "CreatedUser",
      "type": "event"
    },
    {
      "anonymous": false,
      "inputs": [
        {
          "indexed": true,
          "internalType": "uint256",
          "name": "user_id",
          "type": "uint256"
        },
        {
          "indexed": true,
          "internalType": "uint256",
          "name": "date",
          "type": "uint256"
        },
        {
          "indexed": true,
          "internalType": "uint256",
          "name": "level",
          "type": "uint256"
        }
      ],
      "name": "LevelUp",
      "type": "event"
    },
    {
      "anonymous": false,
      "inputs": [
        {
          "indexed": true,
          "internalType": "uint256",
          "name": "id",
          "type": "uint256"
        },
        {
          "indexed": true,
          "internalType": "uint256",
          "name": "seller_id",
          "type": "uint256"
        },
        {
          "indexed": true,
          "internalType": "uint256",
          "name": "user_id",
          "type": "uint256"
        }
      ],
      "name": "NewOrderEvent",
      "type": "event"
    },
    {
      "inputs": [
        {
          "internalType": "uint256",
          "name": "",
          "type": "uint256"
        }
      ],
      "name": "BVPlan",
      "outputs": [
        {
          "internalType": "uint256",
          "name": "",
          "type": "uint256"
        }
      ],
      "stateMutability": "view",
      "type": "function"
    },
    {
      "inputs": [
        {
          "internalType": "uint256",
          "name": "",
          "type": "uint256"
        }
      ],
      "name": "ListLevelUpDate",
      "outputs": [
        {
          "internalType": "uint256",
          "name": "date",
          "type": "uint256"
        },
        {
          "internalType": "uint256",
          "name": "level",
          "type": "uint256"
        }
      ],
      "stateMutability": "view",
      "type": "function"
    },
    {
      "inputs": [
        {
          "internalType": "uint256",
          "name": "",
          "type": "uint256"
        }
      ],
      "name": "OrderList",
      "outputs": [
        {
          "internalType": "uint256",
          "name": "id",
          "type": "uint256"
        },
        {
          "internalType": "uint256",
          "name": "user_id",
          "type": "uint256"
        },
        {
          "internalType": "uint256",
          "name": "seller_id",
          "type": "uint256"
        },
        {
          "internalType": "uint256",
          "name": "bv_value",
          "type": "uint256"
        },
        {
          "internalType": "uint256",
          "name": "sv_value",
          "type": "uint256"
        },
        {
          "internalType": "uint256",
          "name": "seller_token",
          "type": "uint256"
        },
        {
          "internalType": "uint256",
          "name": "date",
          "type": "uint256"
        },
        {
          "internalType": "bytes32",
          "name": "data",
          "type": "bytes32"
        },
        {
          "internalType": "bool",
          "name": "exists",
          "type": "bool"
        }
      ],
      "stateMutability": "view",
      "type": "function"
    },
    {
      "inputs": [
        {
          "internalType": "uint256",
          "name": "",
          "type": "uint256"
        }
      ],
      "name": "UserAddress",
      "outputs": [
        {
          "internalType": "address",
          "name": "",
          "type": "address"
        }
      ],
      "stateMutability": "view",
      "type": "function"
    },
    {
      "inputs": [
        {
          "internalType": "uint256",
          "name": "",
          "type": "uint256"
        },
        {
          "internalType": "uint256",
          "name": "",
          "type": "uint256"
        }
      ],
      "name": "UserLevelUpDateIndex",
      "outputs": [
        {
          "internalType": "uint256",
          "name": "",
          "type": "uint256"
        }
      ],
      "stateMutability": "view",
      "type": "function"
    },
    {
      "inputs": [
        {
          "internalType": "address",
          "name": "",
          "type": "address"
        }
      ],
      "name": "UserList",
      "outputs": [
        {
          "internalType": "uint256",
          "name": "id",
          "type": "uint256"
        },
        {
          "components": [
            {
              "internalType": "uint256",
              "name": "left",
              "type": "uint256"
            },
            {
              "internalType": "uint256",
              "name": "right",
              "type": "uint256"
            },
            {
              "internalType": "uint256",
              "name": "dir",
              "type": "uint256"
            },
            {
              "internalType": "uint256",
              "name": "level",
              "type": "uint256"
            },
            {
              "internalType": "uint256",
              "name": "summ",
              "type": "uint256"
            }
          ],
          "internalType": "struct UsersStruct.BusinessValue",
          "name": "bv",
          "type": "tuple"
        },
        {
          "components": [
            {
              "internalType": "uint256",
              "name": "date",
              "type": "uint256"
            },
            {
              "internalType": "uint256",
              "name": "order_id",
              "type": "uint256"
            },
            {
              "internalType": "uint256",
              "name": "bv_level",
              "type": "uint256"
            }
          ],
          "internalType": "struct UsersStruct.LastOrder",
          "name": "last_order",
          "type": "tuple"
        },
        {
          "internalType": "uint256",
          "name": "depth",
          "type": "uint256"
        },
        {
          "internalType": "uint256",
          "name": "pending_withdraw",
          "type": "uint256"
        },
        {
          "internalType": "uint256",
          "name": "levelup_count",
          "type": "uint256"
        },
        {
          "internalType": "uint256",
          "name": "lastweek",
          "type": "uint256"
        },
        {
          "internalType": "uint256",
          "name": "step",
          "type": "uint256"
        },
        {
          "internalType": "uint256",
          "name": "pending_voucher",
          "type": "uint256"
        },
        {
          "internalType": "bool",
          "name": "exists",
          "type": "bool"
        },
        {
          "internalType": "bytes32",
          "name": "data",
          "type": "bytes32"
        }
      ],
      "stateMutability": "view",
      "type": "function"
    },
    {
      "inputs": [
        {
          "internalType": "uint256",
          "name": "",
          "type": "uint256"
        },
        {
          "internalType": "uint256",
          "name": "",
          "type": "uint256"
        }
      ],
      "name": "UsersPaths",
      "outputs": [
        {
          "internalType": "bytes32",
          "name": "",
          "type": "bytes32"
        }
      ],
      "stateMutability": "view",
      "type": "function"
    },
    {
      "inputs": [
        {
          "internalType": "uint256",
          "name": "",
          "type": "uint256"
        },
        {
          "internalType": "uint256",
          "name": "",
          "type": "uint256"
        }
      ],
      "name": "UsersPathsHash",
      "outputs": [
        {
          "internalType": "bytes32",
          "name": "",
          "type": "bytes32"
        }
      ],
      "stateMutability": "view",
      "type": "function"
    },
    {
      "inputs": [
        {
          "components": [
            {
              "internalType": "uint256",
              "name": "id",
              "type": "uint256"
            },
            {
              "components": [
                {
                  "internalType": "uint256",
                  "name": "left",
                  "type": "uint256"
                },
                {
                  "internalType": "uint256",
                  "name": "right",
                  "type": "uint256"
                },
                {
                  "internalType": "uint256",
                  "name": "dir",
                  "type": "uint256"
                },
                {
                  "internalType": "uint256",
                  "name": "level",
                  "type": "uint256"
                },
                {
                  "internalType": "uint256",
                  "name": "summ",
                  "type": "uint256"
                }
              ],
              "internalType": "struct UsersStruct.BusinessValue",
              "name": "bv",
              "type": "tuple"
            },
            {
              "components": [
                {
                  "internalType": "uint256",
                  "name": "date",
                  "type": "uint256"
                },
                {
                  "internalType": "uint256",
                  "name": "order_id",
                  "type": "uint256"
                },
                {
                  "internalType": "uint256",
                  "name": "bv_level",
                  "type": "uint256"
                }
              ],
              "internalType": "struct UsersStruct.LastOrder",
              "name": "last_order",
              "type": "tuple"
            },
            {
              "internalType": "uint256",
              "name": "depth",
              "type": "uint256"
            },
            {
              "internalType": "uint256",
              "name": "pending_withdraw",
              "type": "uint256"
            },
            {
              "internalType": "uint256",
              "name": "levelup_count",
              "type": "uint256"
            },
            {
              "internalType": "uint256",
              "name": "lastweek",
              "type": "uint256"
            },
            {
              "internalType": "uint256",
              "name": "step",
              "type": "uint256"
            },
            {
              "internalType": "uint256",
              "name": "pending_voucher",
              "type": "uint256"
            },
            {
              "internalType": "bool",
              "name": "exists",
              "type": "bool"
            },
            {
              "internalType": "bytes32",
              "name": "data",
              "type": "bytes32"
            }
          ],
          "internalType": "struct UsersStruct.User",
          "name": "user",
          "type": "tuple"
        }
      ],
      "name": "calcW",
      "outputs": [
        {
          "components": [
            {
              "internalType": "uint256",
              "name": "id",
              "type": "uint256"
            },
            {
              "components": [
                {
                  "internalType": "uint256",
                  "name": "left",
                  "type": "uint256"
                },
                {
                  "internalType": "uint256",
                  "name": "right",
                  "type": "uint256"
                },
                {
                  "internalType": "uint256",
                  "name": "dir",
                  "type": "uint256"
                },
                {
                  "internalType": "uint256",
                  "name": "level",
                  "type": "uint256"
                },
                {
                  "internalType": "uint256",
                  "name": "summ",
                  "type": "uint256"
                }
              ],
              "internalType": "struct UsersStruct.BusinessValue",
              "name": "bv",
              "type": "tuple"
            },
            {
              "components": [
                {
                  "internalType": "uint256",
                  "name": "date",
                  "type": "uint256"
                },
                {
                  "internalType": "uint256",
                  "name": "order_id",
                  "type": "uint256"
                },
                {
                  "internalType": "uint256",
                  "name": "bv_level",
                  "type": "uint256"
                }
              ],
              "internalType": "struct UsersStruct.LastOrder",
              "name": "last_order",
              "type": "tuple"
            },
            {
              "internalType": "uint256",
              "name": "depth",
              "type": "uint256"
            },
            {
              "internalType": "uint256",
              "name": "pending_withdraw",
              "type": "uint256"
            },
            {
              "internalType": "uint256",
              "name": "levelup_count",
              "type": "uint256"
            },
            {
              "internalType": "uint256",
              "name": "lastweek",
              "type": "uint256"
            },
            {
              "internalType": "uint256",
              "name": "step",
              "type": "uint256"
            },
            {
              "internalType": "uint256",
              "name": "pending_voucher",
              "type": "uint256"
            },
            {
              "internalType": "bool",
              "name": "exists",
              "type": "bool"
            },
            {
              "internalType": "bytes32",
              "name": "data",
              "type": "bytes32"
            }
          ],
          "internalType": "struct UsersStruct.User",
          "name": "",
          "type": "tuple"
        }
      ],
      "stateMutability": "nonpayable",
      "type": "function"
    },
    {
      "inputs": [
        {
          "components": [
            {
              "internalType": "uint256",
              "name": "id",
              "type": "uint256"
            },
            {
              "components": [
                {
                  "internalType": "uint256",
                  "name": "left",
                  "type": "uint256"
                },
                {
                  "internalType": "uint256",
                  "name": "right",
                  "type": "uint256"
                },
                {
                  "internalType": "uint256",
                  "name": "dir",
                  "type": "uint256"
                },
                {
                  "internalType": "uint256",
                  "name": "level",
                  "type": "uint256"
                },
                {
                  "internalType": "uint256",
                  "name": "summ",
                  "type": "uint256"
                }
              ],
              "internalType": "struct UsersStruct.BusinessValue",
              "name": "bv",
              "type": "tuple"
            },
            {
              "components": [
                {
                  "internalType": "uint256",
                  "name": "date",
                  "type": "uint256"
                },
                {
                  "internalType": "uint256",
                  "name": "order_id",
                  "type": "uint256"
                },
                {
                  "internalType": "uint256",
                  "name": "bv_level",
                  "type": "uint256"
                }
              ],
              "internalType": "struct UsersStruct.LastOrder",
              "name": "last_order",
              "type": "tuple"
            },
            {
              "internalType": "uint256",
              "name": "depth",
              "type": "uint256"
            },
            {
              "internalType": "uint256",
              "name": "pending_withdraw",
              "type": "uint256"
            },
            {
              "internalType": "uint256",
              "name": "levelup_count",
              "type": "uint256"
            },
            {
              "internalType": "uint256",
              "name": "lastweek",
              "type": "uint256"
            },
            {
              "internalType": "uint256",
              "name": "step",
              "type": "uint256"
            },
            {
              "internalType": "uint256",
              "name": "pending_voucher",
              "type": "uint256"
            },
            {
              "internalType": "bool",
              "name": "exists",
              "type": "bool"
            },
            {
              "internalType": "bytes32",
              "name": "data",
              "type": "bytes32"
            }
          ],
          "internalType": "struct UsersStruct.User",
          "name": "user",
          "type": "tuple"
        },
        {
          "components": [
            {
              "internalType": "uint256",
              "name": "id",
              "type": "uint256"
            },
            {
              "internalType": "uint256",
              "name": "user_id",
              "type": "uint256"
            },
            {
              "internalType": "uint256",
              "name": "seller_id",
              "type": "uint256"
            },
            {
              "internalType": "uint256",
              "name": "bv_value",
              "type": "uint256"
            },
            {
              "internalType": "uint256",
              "name": "sv_value",
              "type": "uint256"
            },
            {
              "internalType": "uint256",
              "name": "seller_token",
              "type": "uint256"
            },
            {
              "internalType": "uint256",
              "name": "date",
              "type": "uint256"
            },
            {
              "internalType": "bytes32",
              "name": "data",
              "type": "bytes32"
            },
            {
              "internalType": "bool",
              "name": "exists",
              "type": "bool"
            }
          ],
          "internalType": "struct OrdersStruct.Order",
          "name": "order",
          "type": "tuple"
        },
        {
          "internalType": "uint256",
          "name": "ulevel",
          "type": "uint256"
        },
        {
          "internalType": "uint256",
          "name": "lr",
          "type": "uint256"
        }
      ],
      "name": "calculateOrder",
      "outputs": [
        {
          "components": [
            {
              "internalType": "uint256",
              "name": "id",
              "type": "uint256"
            },
            {
              "components": [
                {
                  "internalType": "uint256",
                  "name": "left",
                  "type": "uint256"
                },
                {
                  "internalType": "uint256",
                  "name": "right",
                  "type": "uint256"
                },
                {
                  "internalType": "uint256",
                  "name": "dir",
                  "type": "uint256"
                },
                {
                  "internalType": "uint256",
                  "name": "level",
                  "type": "uint256"
                },
                {
                  "internalType": "uint256",
                  "name": "summ",
                  "type": "uint256"
                }
              ],
              "internalType": "struct UsersStruct.BusinessValue",
              "name": "bv",
              "type": "tuple"
            },
            {
              "components": [
                {
                  "internalType": "uint256",
                  "name": "date",
                  "type": "uint256"
                },
                {
                  "internalType": "uint256",
                  "name": "order_id",
                  "type": "uint256"
                },
                {
                  "internalType": "uint256",
                  "name": "bv_level",
                  "type": "uint256"
                }
              ],
              "internalType": "struct UsersStruct.LastOrder",
              "name": "last_order",
              "type": "tuple"
            },
            {
              "internalType": "uint256",
              "name": "depth",
              "type": "uint256"
            },
            {
              "internalType": "uint256",
              "name": "pending_withdraw",
              "type": "uint256"
            },
            {
              "internalType": "uint256",
              "name": "levelup_count",
              "type": "uint256"
            },
            {
              "internalType": "uint256",
              "name": "lastweek",
              "type": "uint256"
            },
            {
              "internalType": "uint256",
              "name": "step",
              "type": "uint256"
            },
            {
              "internalType": "uint256",
              "name": "pending_voucher",
              "type": "uint256"
            },
            {
              "internalType": "bool",
              "name": "exists",
              "type": "bool"
            },
            {
              "internalType": "bytes32",
              "name": "data",
              "type": "bytes32"
            }
          ],
          "internalType": "struct UsersStruct.User",
          "name": "",
          "type": "tuple"
        }
      ],
      "stateMutability": "nonpayable",
      "type": "function"
    },
    {
      "inputs": [
        {
          "internalType": "uint256",
          "name": "_order_id",
          "type": "uint256"
        }
      ],
      "name": "getOrderList",
      "outputs": [
        {
          "components": [
            {
              "internalType": "uint256",
              "name": "id",
              "type": "uint256"
            },
            {
              "internalType": "uint256",
              "name": "user_id",
              "type": "uint256"
            },
            {
              "internalType": "uint256",
              "name": "seller_id",
              "type": "uint256"
            },
            {
              "internalType": "uint256",
              "name": "bv_value",
              "type": "uint256"
            },
            {
              "internalType": "uint256",
              "name": "sv_value",
              "type": "uint256"
            },
            {
              "internalType": "uint256",
              "name": "seller_token",
              "type": "uint256"
            },
            {
              "internalType": "uint256",
              "name": "date",
              "type": "uint256"
            },
            {
              "internalType": "bytes32",
              "name": "data",
              "type": "bytes32"
            },
            {
              "internalType": "bool",
              "name": "exists",
              "type": "bool"
            }
          ],
          "internalType": "struct OrdersStruct.Order",
          "name": "order",
          "type": "tuple"
        }
      ],
      "stateMutability": "view",
      "type": "function"
    },
    {
      "inputs": [
        {
          "internalType": "uint256",
          "name": "fromId",
          "type": "uint256"
        },
        {
          "internalType": "uint256",
          "name": "toId",
          "type": "uint256"
        }
      ],
      "name": "getOrderLists",
      "outputs": [
        {
          "components": [
            {
              "internalType": "uint256",
              "name": "id",
              "type": "uint256"
            },
            {
              "internalType": "uint256",
              "name": "user_id",
              "type": "uint256"
            },
            {
              "internalType": "uint256",
              "name": "seller_id",
              "type": "uint256"
            },
            {
              "internalType": "uint256",
              "name": "bv_value",
              "type": "uint256"
            },
            {
              "internalType": "uint256",
              "name": "sv_value",
              "type": "uint256"
            },
            {
              "internalType": "uint256",
              "name": "seller_token",
              "type": "uint256"
            },
            {
              "internalType": "uint256",
              "name": "date",
              "type": "uint256"
            },
            {
              "internalType": "bytes32",
              "name": "data",
              "type": "bytes32"
            },
            {
              "internalType": "bool",
              "name": "exists",
              "type": "bool"
            }
          ],
          "internalType": "struct OrdersStruct.Order[]",
          "name": "",
          "type": "tuple[]"
        }
      ],
      "stateMutability": "view",
      "type": "function"
    },
    {
      "inputs": [
        {
          "internalType": "uint256",
          "name": "_user_id",
          "type": "uint256"
        },
        {
          "internalType": "bool",
          "name": "ignore_validation",
          "type": "bool"
        }
      ],
      "name": "getUser",
      "outputs": [
        {
          "internalType": "address",
          "name": "",
          "type": "address"
        },
        {
          "components": [
            {
              "internalType": "uint256",
              "name": "id",
              "type": "uint256"
            },
            {
              "components": [
                {
                  "internalType": "uint256",
                  "name": "left",
                  "type": "uint256"
                },
                {
                  "internalType": "uint256",
                  "name": "right",
                  "type": "uint256"
                },
                {
                  "internalType": "uint256",
                  "name": "dir",
                  "type": "uint256"
                },
                {
                  "internalType": "uint256",
                  "name": "level",
                  "type": "uint256"
                },
                {
                  "internalType": "uint256",
                  "name": "summ",
                  "type": "uint256"
                }
              ],
              "internalType": "struct UsersStruct.BusinessValue",
              "name": "bv",
              "type": "tuple"
            },
            {
              "components": [
                {
                  "internalType": "uint256",
                  "name": "date",
                  "type": "uint256"
                },
                {
                  "internalType": "uint256",
                  "name": "order_id",
                  "type": "uint256"
                },
                {
                  "internalType": "uint256",
                  "name": "bv_level",
                  "type": "uint256"
                }
              ],
              "internalType": "struct UsersStruct.LastOrder",
              "name": "last_order",
              "type": "tuple"
            },
            {
              "internalType": "uint256",
              "name": "depth",
              "type": "uint256"
            },
            {
              "internalType": "uint256",
              "name": "pending_withdraw",
              "type": "uint256"
            },
            {
              "internalType": "uint256",
              "name": "levelup_count",
              "type": "uint256"
            },
            {
              "internalType": "uint256",
              "name": "lastweek",
              "type": "uint256"
            },
            {
              "internalType": "uint256",
              "name": "step",
              "type": "uint256"
            },
            {
              "internalType": "uint256",
              "name": "pending_voucher",
              "type": "uint256"
            },
            {
              "internalType": "bool",
              "name": "exists",
              "type": "bool"
            },
            {
              "internalType": "bytes32",
              "name": "data",
              "type": "bytes32"
            }
          ],
          "internalType": "struct UsersStruct.User",
          "name": "",
          "type": "tuple"
        }
      ],
      "stateMutability": "view",
      "type": "function"
    },
    {
      "inputs": [
        {
          "internalType": "address",
          "name": "user_address",
          "type": "address"
        }
      ],
      "name": "getUser",
      "outputs": [
        {
          "components": [
            {
              "internalType": "uint256",
              "name": "id",
              "type": "uint256"
            },
            {
              "components": [
                {
                  "internalType": "uint256",
                  "name": "left",
                  "type": "uint256"
                },
                {
                  "internalType": "uint256",
                  "name": "right",
                  "type": "uint256"
                },
                {
                  "internalType": "uint256",
                  "name": "dir",
                  "type": "uint256"
                },
                {
                  "internalType": "uint256",
                  "name": "level",
                  "type": "uint256"
                },
                {
                  "internalType": "uint256",
                  "name": "summ",
                  "type": "uint256"
                }
              ],
              "internalType": "struct UsersStruct.BusinessValue",
              "name": "bv",
              "type": "tuple"
            },
            {
              "components": [
                {
                  "internalType": "uint256",
                  "name": "date",
                  "type": "uint256"
                },
                {
                  "internalType": "uint256",
                  "name": "order_id",
                  "type": "uint256"
                },
                {
                  "internalType": "uint256",
                  "name": "bv_level",
                  "type": "uint256"
                }
              ],
              "internalType": "struct UsersStruct.LastOrder",
              "name": "last_order",
              "type": "tuple"
            },
            {
              "internalType": "uint256",
              "name": "depth",
              "type": "uint256"
            },
            {
              "internalType": "uint256",
              "name": "pending_withdraw",
              "type": "uint256"
            },
            {
              "internalType": "uint256",
              "name": "levelup_count",
              "type": "uint256"
            },
            {
              "internalType": "uint256",
              "name": "lastweek",
              "type": "uint256"
            },
            {
              "internalType": "uint256",
              "name": "step",
              "type": "uint256"
            },
            {
              "internalType": "uint256",
              "name": "pending_voucher",
              "type": "uint256"
            },
            {
              "internalType": "bool",
              "name": "exists",
              "type": "bool"
            },
            {
              "internalType": "bytes32",
              "name": "data",
              "type": "bytes32"
            }
          ],
          "internalType": "struct UsersStruct.User",
          "name": "user",
          "type": "tuple"
        }
      ],
      "stateMutability": "view",
      "type": "function"
    },
    {
      "inputs": [
        {
          "internalType": "uint256",
          "name": "fromId",
          "type": "uint256"
        },
        {
          "internalType": "uint256",
          "name": "toId",
          "type": "uint256"
        }
      ],
      "name": "getUserList",
      "outputs": [
        {
          "components": [
            {
              "components": [
                {
                  "internalType": "uint256",
                  "name": "id",
                  "type": "uint256"
                },
                {
                  "components": [
                    {
                      "internalType": "uint256",
                      "name": "left",
                      "type": "uint256"
                    },
                    {
                      "internalType": "uint256",
                      "name": "right",
                      "type": "uint256"
                    },
                    {
                      "internalType": "uint256",
                      "name": "dir",
                      "type": "uint256"
                    },
                    {
                      "internalType": "uint256",
                      "name": "level",
                      "type": "uint256"
                    },
                    {
                      "internalType": "uint256",
                      "name": "summ",
                      "type": "uint256"
                    }
                  ],
                  "internalType": "struct UsersStruct.BusinessValue",
                  "name": "bv",
                  "type": "tuple"
                },
                {
                  "components": [
                    {
                      "internalType": "uint256",
                      "name": "date",
                      "type": "uint256"
                    },
                    {
                      "internalType": "uint256",
                      "name": "order_id",
                      "type": "uint256"
                    },
                    {
                      "internalType": "uint256",
                      "name": "bv_level",
                      "type": "uint256"
                    }
                  ],
                  "internalType": "struct UsersStruct.LastOrder",
                  "name": "last_order",
                  "type": "tuple"
                },
                {
                  "internalType": "uint256",
                  "name": "depth",
                  "type": "uint256"
                },
                {
                  "internalType": "uint256",
                  "name": "pending_withdraw",
                  "type": "uint256"
                },
                {
                  "internalType": "uint256",
                  "name": "levelup_count",
                  "type": "uint256"
                },
                {
                  "internalType": "uint256",
                  "name": "lastweek",
                  "type": "uint256"
                },
                {
                  "internalType": "uint256",
                  "name": "step",
                  "type": "uint256"
                },
                {
                  "internalType": "uint256",
                  "name": "pending_voucher",
                  "type": "uint256"
                },
                {
                  "internalType": "bool",
                  "name": "exists",
                  "type": "bool"
                },
                {
                  "internalType": "bytes32",
                  "name": "data",
                  "type": "bytes32"
                }
              ],
              "internalType": "struct UsersStruct.User",
              "name": "user",
              "type": "tuple"
            },
            {
              "internalType": "address",
              "name": "user_address",
              "type": "address"
            }
          ],
          "internalType": "struct UsersStruct.UserInfo[]",
          "name": "",
          "type": "tuple[]"
        }
      ],
      "stateMutability": "view",
      "type": "function"
    },
    {
      "inputs": [
        {
          "internalType": "uint256",
          "name": "timestamp",
          "type": "uint256"
        }
      ],
      "name": "getWeekNumber",
      "outputs": [
        {
          "internalType": "uint256",
          "name": "",
          "type": "uint256"
        }
      ],
      "stateMutability": "pure",
      "type": "function"
    },
    {
      "inputs": [],
      "name": "level_up_data_index",
      "outputs": [
        {
          "internalType": "uint256",
          "name": "",
          "type": "uint256"
        }
      ],
      "stateMutability": "view",
      "type": "function"
    },
    {
      "inputs": [],
      "name": "order_id",
      "outputs": [
        {
          "internalType": "uint256",
          "name": "",
          "type": "uint256"
        }
      ],
      "stateMutability": "view",
      "type": "function"
    },
    {
      "inputs": [],
      "name": "user_id",
      "outputs": [
        {
          "internalType": "uint256",
          "name": "",
          "type": "uint256"
        }
      ],
      "stateMutability": "view",
      "type": "function"
    }
  ],
  "bytecode": "0x608060405234801561001057600080fd5b5061181d806100206000396000f3fe608060405234801561001057600080fd5b50600436106101215760003560e01c80636f77926b116100ad578063bb5d88fa11610071578063bb5d88fa14610346578063c2afb6831461034f578063e6d3c18f1461036f578063eb63a59e146103ab578063f89183121461048057600080fd5b80636f77926b146102ee5780637548f4241461030157806380658cf81461030a5780638cbe096e1461032a578063b97914251461033d57600080fd5b806344da319c116100f457806344da319c14610267578063511095b514610288578063514fbe501461029b57806352e70839146102bb5780635c79347f146102ce57600080fd5b806306b099af14610126578063120a521a146101cd5780632d823e6d1461020e5780633ce0adeb1461022e575b600080fd5b6101826101343660046110ed565b600a6020526000908152604090208054600182015460028301546003840154600485015460058601546006870154600788015460089098015496979596949593949293919290919060ff1689565b60408051998a5260208a0198909852968801959095526060870193909352608086019190915260a085015260c084015260e08301521515610100820152610120015b60405180910390f35b6101f66101db3660046110ed565b6005602052600090815260409020546001600160a01b031681565b6040516001600160a01b0390911681526020016101c4565b61022161021c366004611330565b6104ab565b6040516101c49190611427565b61025961023c36600461143c565b600660209081526000928352604080842090915290825290205481565b6040519081526020016101c4565b61027a61027536600461145e565b61073b565b6040516101c492919061148a565b61025961029636600461143c565b610886565b6102ae6102a936600461143c565b6108b7565b6040516101c491906114a8565b6102216102c936600461150a565b610b05565b6102e16102dc3660046110ed565b610c6f565b6040516101c49190611626565b6102216102fc366004611635565b610cf5565b61025960015481565b61031d61031836600461143c565b610df4565b6040516101c4919061165e565b6102596103383660046110ed565b610f9a565b61025960095481565b61025960005481565b61025961035d3660046110ed565b60086020526000908152604090205481565b61039661037d3660046110ed565b6004602052600090815260409020805460019091015482565b604080519283526020830191909152016101c4565b6104696103b9366004611635565b6002602081815260009283526040928390208054845160a08101865260018301548152938201548484015260038201548486015260048201546060808601919091526005830154608086015285519081018652600683015481526007830154938101939093526008820154948301949094526009810154600a820154600b830154600c840154600d850154600e860154600f87015460109097015495969495939492939192909160ff909116908b565b6040516101c49b9a999897969594939291906116a1565b61025961048e36600461143c565b600760209081526000928352604080842090915290825290205481565b6104b3610fcb565b60006104be42610f9a565b9050808360c00151106105225760405162461bcd60e51b815260206004820152602160248201527f596f752063616e206e6f742063616c63756c617465207269676874206e6f77206044820152602160f81b60648201526084015b60405180910390fd5b6040808401510151681043561a8829300000906802b5e3af16b1880000906702c68af0bb140000906000906001811080159061055f575060078111155b1561071b578060070361057557600a91506105d9565b8060060361058657601491506105d9565b8060050361059757603291506105d9565b806004036105a857606491506105d9565b806003036105b95760c891506105d9565b806002036105cb576101f491506105d9565b806001036105d9576103e891505b6020880151516000906105ed908790611759565b90506000868a60200151602001516106059190611759565b905060008183116106165782610618565b815b905084811061063b57506020808b0180516000908190529051909101528361067d565b610645888261177b565b60208c01518051610657908390611792565b905250610664888261177b565b8b602001516020018181516106799190611792565b9052505b808b60e00181815161068f91906117a5565b90525060e08b01516000906106a690600590611759565b90506106b381600561177b565b8c60e0018181516106c49190611792565b9052506106d18183611792565b91506106dd878261177b565b8c610100018181516106ef91906117a5565b90525060006106fe898461177b565b9050808d60800181815161071291906117a5565b90525050505050505b60408801515161072a90610f9a565b60c089015250959695505050505050565b6000610745610fcb565b6000848152600560205260409020546001600160a01b031680158015610769575083155b15610787576040516319c29a3360e21b815260040160405180910390fd5b6001600160a01b03811660009081526002602081815260409283902083516101608101855281548152845160a080820187526001840154825294830154818501526003830154818701526004830154606080830191909152600584015460808084019190915283860192909252865180820188526006850154815260078501549581019590955260088401548588015295820193909352600982015494810194909452600a81015491840191909152600b81015491830191909152600c81015460c0830152600d81015460e0830152600e810154610100830152600f81015460ff16151561012083015260100154610140820152909590945092505050565b600360205281600052604060002081815481106108a257600080fd5b90600052602060002001600091509150505481565b6060828260018210156108e057604051633a2bd95560e11b815260048101839052602401610519565b80821061090a5760405163d427f71f60e01b81526004810182905260248101839052604401610519565b60005484111561093057604051633322840360e11b815260048101859052602401610519565b600061093c8686611792565b67ffffffffffffffff81111561095457610954611106565b60405190808252806020026020018201604052801561098d57816020015b61097a61107c565b8152602001906001900390816109725790505b50905060005b61099d8787611792565b811015610afb5760006005816109b3848b6117a5565b8152602080820192909252604090810160009081205482516001600160a01b039091168083526002808652928490206101a0830185528054838601908152855160a08082018852600184015482529583015481890152600383015481880152600483015460608281019190915260058401546080808401919091528187019290925287519081018852600684015481526007840154818a0152600884015497810197909752840195909552600981015493830193909352600a83015460c0830152600b83015460e0830152600c830154610100830152600d830154610120830152600e830154610140830152600f83015460ff161515610160830152601090920154610180820152918252918101829052845191925090849084908110610adc57610adc6117b8565b6020026020010181905250508080610af3906117ce565b915050610993565b5095945050505050565b610b0d610fcb565b82600803610b1c575083610c67565b811580610b295750816001145b610b695760405162461bcd60e51b81526020600482015260116024820152701b1c881a5cc81b9bdd0818dbdc9c9958dd607a1b6044820152606401610519565b6000610b788560c00151610f9a565b90506000610b8d876040015160000151610f9a565b90508660c001518211610bd95760405162461bcd60e51b815260206004820152601460248201527332b93937b91034b7103bb2b2b590373ab6b132b960611b6044820152606401610519565b610be48160016117a5565b8210158015610bf7575060408701515115155b15610c0857610c05876104ab565b96505b83600003610c2f57606086015160208801518051610c279083906117a5565b905250610c4d565b85606001518760200151602001818151610c4991906117a5565b9052505b5050506040808501805190910183905260c0840151905152835b949350505050565b610c7761109c565b506000908152600a6020908152604091829020825161012081018452815481526001820154928101929092526002810154928201929092526003820154606082015260048201546080820152600582015460a0820152600682015460c0820152600782015460e082015260089091015460ff16151561010082015290565b610cfd610fcb565b506001600160a01b031660009081526002602081815260409283902083516101608101855281548152845160a080820187526001840154825294830154818501526003830154818701526004830154606080830191909152600584015460808084019190915283860192909252865180820188526006850154815260078501549581019590955260088401548588015295820193909352600982015494810194909452600a81015491840191909152600b81015491830191909152600c81015460c0830152600d81015460e0830152600e810154610100830152600f81015460ff1615156101208301526010015461014082015290565b606082826001821015610e1d57604051633a2bd95560e11b815260048101839052602401610519565b808210610e475760405163d427f71f60e01b81526004810182905260248101839052604401610519565b600954841115610e6d57604051633322840360e11b815260048101859052602401610519565b6000610e798686611792565b67ffffffffffffffff811115610e9157610e91611106565b604051908082528060200260200182016040528015610eca57816020015b610eb761109c565b815260200190600190039081610eaf5790505b50905060005b610eda8787611792565b811015610afb57600a6000610eef838a6117a5565b81526020808201929092526040908101600020815161012081018352815481526001820154938101939093526002810154918301919091526003810154606083015260048101546080830152600581015460a0830152600681015460c0830152600781015460e08301526008015460ff1615156101008201528251839083908110610f7c57610f7c6117b8565b60200260200101819052508080610f92906117ce565b915050610ed0565b60006206978080831015610fb15750600092915050565b610fbb8184611792565b925062093a80610c678185611759565b604051806101600160405280600081526020016110106040518060a0016040528060008152602001600081526020016000815260200160008152602001600081525090565b815260200161103960405180606001604052806000815260200160008152602001600081525090565b8152602001600081526020016000815260200160008152602001600081526020016000815260200160008152602001600015158152602001600080191681525090565b604051806040016040528061108f610fcb565b8152600060209091015290565b60405180610120016040528060008152602001600081526020016000815260200160008152602001600081526020016000815260200160008152602001600080191681526020016000151581525090565b6000602082840312156110ff57600080fd5b5035919050565b634e487b7160e01b600052604160045260246000fd5b604051610160810167ffffffffffffffff8111828210171561114e57634e487b7160e01b600052604160045260246000fd5b60405290565b604051610120810167ffffffffffffffff8111828210171561114e57634e487b7160e01b600052604160045260246000fd5b600060a0828403121561119857600080fd5b60405160a0810181811067ffffffffffffffff821117156111c957634e487b7160e01b600052604160045260246000fd5b806040525080915082358152602083013560208201526040830135604082015260608301356060820152608083013560808201525092915050565b60006060828403121561121657600080fd5b6040516060810181811067ffffffffffffffff8211171561124757634e487b7160e01b600052604160045260246000fd5b80604052508091508235815260208301356020820152604083013560408201525092915050565b8035801515811461127e57600080fd5b919050565b6000610220828403121561129657600080fd5b61129e61111c565b9050813581526112b18360208401611186565b60208201526112c38360c08401611204565b604082015261012080830135606083015261014080840135608084015261016084013560a084015261018084013560c08401526101a084013560e08401526101c084013561010084015261131a6101e0850161126e565b8284015261020084013581840152505092915050565b6000610220828403121561134357600080fd5b61134d8383611283565b9392505050565b805182526020810151611395602084018280518252602081015160208301526040810151604083015260608101516060830152608081015160808301525050565b50604081810151805160c0850152602081015160e085015290810151610100840152506060810151610120818185015260808301519150610140828186015260a084015161016086015260c084015161018086015260e08401516101a08601526101008401516101c08601528184015192506114166101e086018415159052565b808401516102008601525050505050565b61022081016114368284611354565b92915050565b6000806040838503121561144f57600080fd5b50508035926020909101359150565b6000806040838503121561147157600080fd5b823591506114816020840161126e565b90509250929050565b6001600160a01b0383168152610240810161134d6020830184611354565b6020808252825182820181905260009190848201906040850190845b818110156114fe5783516114d9848251611354565b8501516001600160a01b031661022084015292840192610240909201916001016114c4565b50909695505050505050565b60008060008084860361038081121561152257600080fd5b61152c8787611283565b945061012061021f198201121561154257600080fd5b5061154b611154565b61022086013581526102408601356020820152610260860135604082015261028086013560608201526102a086013560808201526102c086013560a08201526102e086013560c082015261030086013560e08201526115ad610320870161126e565b610100820152939693955050505061034082013591610360013590565b805182526020810151602083015260408101516040830152606081015160608301526080810151608083015260a081015160a083015260c081015160c083015260e081015160e083015261010080820151151581840152505050565b610120810161143682846115ca565b60006020828403121561164757600080fd5b81356001600160a01b038116811461134d57600080fd5b6020808252825182820181905260009190848201906040850190845b818110156114fe5761168d8385516115ca565b92840192610120929092019160010161167a565b8b815261022081016116e1602083018d80518252602081015160208301526040810151604083015260608101516060830152608081015160808301525050565b8a5160c083015260208b015160e08301526040909a01516101008201526101208101989098526101408801969096526101608701949094526101808601929092526101a08501526101c084015215156101e08301526102009091015292915050565b634e487b7160e01b600052601160045260246000fd5b60008261177657634e487b7160e01b600052601260045260246000fd5b500490565b808202811582820484141761143657611436611743565b8181038181111561143657611436611743565b8082018082111561143657611436611743565b634e487b7160e01b600052603260045260246000fd5b6000600182016117e0576117e0611743565b506001019056fea2646970667358221220dc09725b74e7944d9421365ceac3a8af5aa681be0a6200ef7d5d45991bf65b1164736f6c63430008140033",
  "linkReferences": {},
  "deployedLinkReferences": {}
}