{
  "_format": "hh-sol-artifact-1",
  "contractName": "Gateway",
  "sourceName": "contracts/Gateway.sol",
  "abi": [
    {
      "inputs": [
        {
          "internalType": "address",
          "name": "token_1",
          "type": "address"
        },
        {
          "internalType": "address",
          "name": "token_2",
          "type": "address"
        },
        {
          "internalType": "address",
          "name": "main_wallet",
          "type": "address"
        },
        {
          "internalType": "address",
          "name": "_dao",
          "type": "address"
        },
        {
          "internalType": "address",
          "name": "_calculator",
          "type": "address"
        }
      ],
      "stateMutability": "nonpayable",
      "type": "constructor"
    },
    {
      "inputs": [],
      "name": "DevTimeOver",
      "type": "error"
    },
    {
      "inputs": [
        {
          "internalType": "uint256",
          "name": "",
          "type": "uint256"
        }
      ],
      "name": "InvalidAmount",
      "type": "error"
    },
    {
      "inputs": [
        {
          "internalType": "uint256",
          "name": "fromId",
          "type": "uint256"
        }
      ],
      "name": "InvalidFromID",
      "type": "error"
    },
    {
      "inputs": [],
      "name": "InvalidPayment",
      "type": "error"
    },
    {
      "inputs": [
        {
          "internalType": "uint256",
          "name": "fromId",
          "type": "uint256"
        },
        {
          "internalType": "uint256",
          "name": "toId",
          "type": "uint256"
        }
      ],
      "name": "InvalidRangeID",
      "type": "error"
    },
    {
      "inputs": [
        {
          "internalType": "uint256",
          "name": "toId",
          "type": "uint256"
        }
      ],
      "name": "InvalidToID",
      "type": "error"
    },
    {
      "inputs": [],
      "name": "OnlyDao",
      "type": "error"
    },
    {
      "inputs": [
        {
          "internalType": "address",
          "name": "owner",
          "type": "address"
        }
      ],
      "name": "OwnableInvalidOwner",
      "type": "error"
    },
    {
      "inputs": [
        {
          "internalType": "address",
          "name": "account",
          "type": "address"
        }
      ],
      "name": "OwnableUnauthorizedAccount",
      "type": "error"
    },
    {
      "inputs": [],
      "name": "PaymentError",
      "type": "error"
    },
    {
      "inputs": [],
      "name": "ReentrancyGuardReentrantCall",
      "type": "error"
    },
    {
      "inputs": [
        {
          "internalType": "uint256",
          "name": "seller_id",
          "type": "uint256"
        }
      ],
      "name": "SellerNotFound",
      "type": "error"
    },
    {
      "inputs": [],
      "name": "TransferError",
      "type": "error"
    },
    {
      "inputs": [],
      "name": "UserNotFound",
      "type": "error"
    },
    {
      "inputs": [],
      "name": "Wait45Days",
      "type": "error"
    },
    {
      "anonymous": false,
      "inputs": [
        {
          "indexed": true,
          "internalType": "address",
          "name": "seller_addr",
          "type": "address"
        },
        {
          "indexed": false,
          "internalType": "uint256",
          "name": "added_volume",
          "type": "uint256"
        },
        {
          "indexed": false,
          "internalType": "uint256",
          "name": "current_bv",
          "type": "uint256"
        }
      ],
      "name": "AddedSaleVolume",
      "type": "event"
    },
    {
      "anonymous": false,
      "inputs": [
        {
          "indexed": true,
          "internalType": "uint256",
          "name": "id",
          "type": "uint256"
        },
        {
          "indexed": true,
          "internalType": "address",
          "name": "seller_addr",
          "type": "address"
        }
      ],
      "name": "CreatedSeller",
      "type": "event"
    },
    {
      "anonymous": false,
      "inputs": [
        {
          "indexed": true,
          "internalType": "address",
          "name": "user_address",
          "type": "address"
        },
        {
          "indexed": true,
          "internalType": "uint256",
          "name": "user_id",
          "type": "uint256"
        }
      ],
      "name": "CreatedUser",
      "type": "event"
    },
    {
      "anonymous": false,
      "inputs": [
        {
          "indexed": true,
          "internalType": "uint256",
          "name": "user_id",
          "type": "uint256"
        },
        {
          "indexed": true,
          "internalType": "uint256",
          "name": "date",
          "type": "uint256"
        },
        {
          "indexed": true,
          "internalType": "uint256",
          "name": "level",
          "type": "uint256"
        }
      ],
      "name": "LevelUp",
      "type": "event"
    },
    {
      "anonymous": false,
      "inputs": [
        {
          "indexed": true,
          "internalType": "uint256",
          "name": "id",
          "type": "uint256"
        },
        {
          "indexed": true,
          "internalType": "uint256",
          "name": "seller_id",
          "type": "uint256"
        },
        {
          "indexed": true,
          "internalType": "uint256",
          "name": "user_id",
          "type": "uint256"
        }
      ],
      "name": "NewOrderEvent",
      "type": "event"
    },
    {
      "anonymous": false,
      "inputs": [
        {
          "indexed": true,
          "internalType": "address",
          "name": "previousOwner",
          "type": "address"
        },
        {
          "indexed": true,
          "internalType": "address",
          "name": "newOwner",
          "type": "address"
        }
      ],
      "name": "OwnershipTransferred",
      "type": "event"
    },
    {
      "inputs": [
        {
          "internalType": "uint256",
          "name": "",
          "type": "uint256"
        }
      ],
      "name": "BVPlan",
      "outputs": [
        {
          "internalType": "uint256",
          "name": "",
          "type": "uint256"
        }
      ],
      "stateMutability": "view",
      "type": "function"
    },
    {
      "inputs": [
        {
          "internalType": "uint256",
          "name": "",
          "type": "uint256"
        }
      ],
      "name": "ListLevelUpDate",
      "outputs": [
        {
          "internalType": "uint256",
          "name": "date",
          "type": "uint256"
        },
        {
          "internalType": "uint256",
          "name": "level",
          "type": "uint256"
        }
      ],
      "stateMutability": "view",
      "type": "function"
    },
    {
      "inputs": [
        {
          "internalType": "uint256",
          "name": "",
          "type": "uint256"
        }
      ],
      "name": "OrderList",
      "outputs": [
        {
          "internalType": "uint256",
          "name": "id",
          "type": "uint256"
        },
        {
          "internalType": "uint256",
          "name": "user_id",
          "type": "uint256"
        },
        {
          "internalType": "uint256",
          "name": "seller_id",
          "type": "uint256"
        },
        {
          "internalType": "uint256",
          "name": "bv_value",
          "type": "uint256"
        },
        {
          "internalType": "uint256",
          "name": "sv_value",
          "type": "uint256"
        },
        {
          "internalType": "uint256",
          "name": "seller_token",
          "type": "uint256"
        },
        {
          "internalType": "uint256",
          "name": "date",
          "type": "uint256"
        },
        {
          "internalType": "bytes32",
          "name": "data",
          "type": "bytes32"
        },
        {
          "internalType": "bool",
          "name": "exists",
          "type": "bool"
        }
      ],
      "stateMutability": "view",
      "type": "function"
    },
    {
      "inputs": [
        {
          "internalType": "uint256",
          "name": "",
          "type": "uint256"
        }
      ],
      "name": "SellerAddress",
      "outputs": [
        {
          "internalType": "address",
          "name": "",
          "type": "address"
        }
      ],
      "stateMutability": "view",
      "type": "function"
    },
    {
      "inputs": [
        {
          "internalType": "address",
          "name": "",
          "type": "address"
        }
      ],
      "name": "SellerList",
      "outputs": [
        {
          "internalType": "uint256",
          "name": "id",
          "type": "uint256"
        },
        {
          "internalType": "address",
          "name": "seller_addr",
          "type": "address"
        },
        {
          "internalType": "uint256",
          "name": "bv_value",
          "type": "uint256"
        },
        {
          "internalType": "uint256",
          "name": "token_withdraw_value",
          "type": "uint256"
        },
        {
          "internalType": "bool",
          "name": "exists",
          "type": "bool"
        }
      ],
      "stateMutability": "view",
      "type": "function"
    },
    {
      "inputs": [],
      "name": "Token1",
      "outputs": [
        {
          "internalType": "contract IERC20",
          "name": "",
          "type": "address"
        }
      ],
      "stateMutability": "view",
      "type": "function"
    },
    {
      "inputs": [],
      "name": "Token2",
      "outputs": [
        {
          "internalType": "contract IERC20",
          "name": "",
          "type": "address"
        }
      ],
      "stateMutability": "view",
      "type": "function"
    },
    {
      "inputs": [
        {
          "internalType": "uint256",
          "name": "",
          "type": "uint256"
        }
      ],
      "name": "UserAddress",
      "outputs": [
        {
          "internalType": "address",
          "name": "",
          "type": "address"
        }
      ],
      "stateMutability": "view",
      "type": "function"
    },
    {
      "inputs": [
        {
          "internalType": "uint256",
          "name": "",
          "type": "uint256"
        },
        {
          "internalType": "uint256",
          "name": "",
          "type": "uint256"
        }
      ],
      "name": "UserLevelUpDateIndex",
      "outputs": [
        {
          "internalType": "uint256",
          "name": "",
          "type": "uint256"
        }
      ],
      "stateMutability": "view",
      "type": "function"
    },
    {
      "inputs": [
        {
          "internalType": "address",
          "name": "",
          "type": "address"
        }
      ],
      "name": "UserList",
      "outputs": [
        {
          "internalType": "uint256",
          "name": "id",
          "type": "uint256"
        },
        {
          "components": [
            {
              "internalType": "uint256",
              "name": "left",
              "type": "uint256"
            },
            {
              "internalType": "uint256",
              "name": "right",
              "type": "uint256"
            },
            {
              "internalType": "uint256",
              "name": "dir",
              "type": "uint256"
            },
            {
              "internalType": "uint256",
              "name": "level",
              "type": "uint256"
            },
            {
              "internalType": "uint256",
              "name": "summ",
              "type": "uint256"
            }
          ],
          "internalType": "struct UsersStruct.BusinessValue",
          "name": "bv",
          "type": "tuple"
        },
        {
          "components": [
            {
              "internalType": "uint256",
              "name": "date",
              "type": "uint256"
            },
            {
              "internalType": "uint256",
              "name": "order_id",
              "type": "uint256"
            },
            {
              "internalType": "uint256",
              "name": "bv_level",
              "type": "uint256"
            }
          ],
          "internalType": "struct UsersStruct.LastOrder",
          "name": "last_order",
          "type": "tuple"
        },
        {
          "internalType": "uint256",
          "name": "depth",
          "type": "uint256"
        },
        {
          "internalType": "uint256",
          "name": "pending_withdraw",
          "type": "uint256"
        },
        {
          "internalType": "uint256",
          "name": "levelup_count",
          "type": "uint256"
        },
        {
          "internalType": "uint256",
          "name": "lastweek",
          "type": "uint256"
        },
        {
          "internalType": "uint256",
          "name": "step",
          "type": "uint256"
        },
        {
          "internalType": "uint256",
          "name": "pending_voucher",
          "type": "uint256"
        },
        {
          "internalType": "bool",
          "name": "exists",
          "type": "bool"
        },
        {
          "internalType": "bytes32",
          "name": "data",
          "type": "bytes32"
        }
      ],
      "stateMutability": "view",
      "type": "function"
    },
    {
      "inputs": [
        {
          "internalType": "uint256",
          "name": "",
          "type": "uint256"
        },
        {
          "internalType": "uint256",
          "name": "",
          "type": "uint256"
        }
      ],
      "name": "UsersPaths",
      "outputs": [
        {
          "internalType": "bytes32",
          "name": "",
          "type": "bytes32"
        }
      ],
      "stateMutability": "view",
      "type": "function"
    },
    {
      "inputs": [
        {
          "internalType": "uint256",
          "name": "",
          "type": "uint256"
        },
        {
          "internalType": "uint256",
          "name": "",
          "type": "uint256"
        }
      ],
      "name": "UsersPathsHash",
      "outputs": [
        {
          "internalType": "bytes32",
          "name": "",
          "type": "bytes32"
        }
      ],
      "stateMutability": "view",
      "type": "function"
    },
    {
      "inputs": [
        {
          "components": [
            {
              "internalType": "address",
              "name": "userAddr",
              "type": "address"
            },
            {
              "internalType": "address",
              "name": "parent_addr",
              "type": "address"
            },
            {
              "internalType": "uint256",
              "name": "bvlevel",
              "type": "uint256"
            },
            {
              "internalType": "uint256",
              "name": "bvsum",
              "type": "uint256"
            },
            {
              "internalType": "uint256",
              "name": "levelup_date",
              "type": "uint256"
            }
          ],
          "internalType": "struct UsersStruct.ImportUser[]",
          "name": "users",
          "type": "tuple[]"
        }
      ],
      "name": "addUserBulk",
      "outputs": [],
      "stateMutability": "nonpayable",
      "type": "function"
    },
    {
      "inputs": [
        {
          "internalType": "uint256[]",
          "name": "ordersId",
          "type": "uint256[]"
        }
      ],
      "name": "calculate",
      "outputs": [],
      "stateMutability": "nonpayable",
      "type": "function"
    },
    {
      "inputs": [],
      "name": "calculateWeek",
      "outputs": [],
      "stateMutability": "nonpayable",
      "type": "function"
    },
    {
      "inputs": [],
      "name": "calculator",
      "outputs": [
        {
          "internalType": "contract Calculator",
          "name": "",
          "type": "address"
        }
      ],
      "stateMutability": "view",
      "type": "function"
    },
    {
      "inputs": [
        {
          "internalType": "address",
          "name": "wallet_address",
          "type": "address"
        }
      ],
      "name": "changeFeeWallet",
      "outputs": [],
      "stateMutability": "nonpayable",
      "type": "function"
    },
    {
      "inputs": [],
      "name": "dao",
      "outputs": [
        {
          "internalType": "address",
          "name": "",
          "type": "address"
        }
      ],
      "stateMutability": "view",
      "type": "function"
    },
    {
      "inputs": [],
      "name": "feeWallet",
      "outputs": [
        {
          "internalType": "address",
          "name": "",
          "type": "address"
        }
      ],
      "stateMutability": "view",
      "type": "function"
    },
    {
      "inputs": [
        {
          "internalType": "uint256",
          "name": "a",
          "type": "uint256"
        },
        {
          "internalType": "uint256",
          "name": "b",
          "type": "uint256"
        }
      ],
      "name": "floor",
      "outputs": [
        {
          "internalType": "uint256",
          "name": "",
          "type": "uint256"
        }
      ],
      "stateMutability": "pure",
      "type": "function"
    },
    {
      "inputs": [
        {
          "internalType": "bytes1",
          "name": "b",
          "type": "bytes1"
        },
        {
          "internalType": "uint8",
          "name": "position",
          "type": "uint8"
        }
      ],
      "name": "getBit",
      "outputs": [
        {
          "internalType": "uint8",
          "name": "",
          "type": "uint8"
        }
      ],
      "stateMutability": "pure",
      "type": "function"
    },
    {
      "inputs": [
        {
          "internalType": "uint256",
          "name": "_order_id",
          "type": "uint256"
        }
      ],
      "name": "getOrderList",
      "outputs": [
        {
          "components": [
            {
              "internalType": "uint256",
              "name": "id",
              "type": "uint256"
            },
            {
              "internalType": "uint256",
              "name": "user_id",
              "type": "uint256"
            },
            {
              "internalType": "uint256",
              "name": "seller_id",
              "type": "uint256"
            },
            {
              "internalType": "uint256",
              "name": "bv_value",
              "type": "uint256"
            },
            {
              "internalType": "uint256",
              "name": "sv_value",
              "type": "uint256"
            },
            {
              "internalType": "uint256",
              "name": "seller_token",
              "type": "uint256"
            },
            {
              "internalType": "uint256",
              "name": "date",
              "type": "uint256"
            },
            {
              "internalType": "bytes32",
              "name": "data",
              "type": "bytes32"
            },
            {
              "internalType": "bool",
              "name": "exists",
              "type": "bool"
            }
          ],
          "internalType": "struct OrdersStruct.Order",
          "name": "order",
          "type": "tuple"
        }
      ],
      "stateMutability": "view",
      "type": "function"
    },
    {
      "inputs": [
        {
          "internalType": "uint256",
          "name": "fromId",
          "type": "uint256"
        },
        {
          "internalType": "uint256",
          "name": "toId",
          "type": "uint256"
        }
      ],
      "name": "getOrderLists",
      "outputs": [
        {
          "components": [
            {
              "internalType": "uint256",
              "name": "id",
              "type": "uint256"
            },
            {
              "internalType": "uint256",
              "name": "user_id",
              "type": "uint256"
            },
            {
              "internalType": "uint256",
              "name": "seller_id",
              "type": "uint256"
            },
            {
              "internalType": "uint256",
              "name": "bv_value",
              "type": "uint256"
            },
            {
              "internalType": "uint256",
              "name": "sv_value",
              "type": "uint256"
            },
            {
              "internalType": "uint256",
              "name": "seller_token",
              "type": "uint256"
            },
            {
              "internalType": "uint256",
              "name": "date",
              "type": "uint256"
            },
            {
              "internalType": "bytes32",
              "name": "data",
              "type": "bytes32"
            },
            {
              "internalType": "bool",
              "name": "exists",
              "type": "bool"
            }
          ],
          "internalType": "struct OrdersStruct.Order[]",
          "name": "",
          "type": "tuple[]"
        }
      ],
      "stateMutability": "view",
      "type": "function"
    },
    {
      "inputs": [
        {
          "internalType": "uint256",
          "name": "_seller_id",
          "type": "uint256"
        },
        {
          "internalType": "bool",
          "name": "ignore_vaildation",
          "type": "bool"
        }
      ],
      "name": "getSeller",
      "outputs": [
        {
          "components": [
            {
              "internalType": "uint256",
              "name": "id",
              "type": "uint256"
            },
            {
              "internalType": "address",
              "name": "seller_addr",
              "type": "address"
            },
            {
              "internalType": "uint256",
              "name": "bv_value",
              "type": "uint256"
            },
            {
              "internalType": "uint256",
              "name": "token_withdraw_value",
              "type": "uint256"
            },
            {
              "internalType": "bool",
              "name": "exists",
              "type": "bool"
            }
          ],
          "internalType": "struct Sellers.Seller",
          "name": "",
          "type": "tuple"
        }
      ],
      "stateMutability": "view",
      "type": "function"
    },
    {
      "inputs": [
        {
          "internalType": "uint256",
          "name": "fromId",
          "type": "uint256"
        },
        {
          "internalType": "uint256",
          "name": "toId",
          "type": "uint256"
        }
      ],
      "name": "getSellerList",
      "outputs": [
        {
          "components": [
            {
              "internalType": "uint256",
              "name": "id",
              "type": "uint256"
            },
            {
              "internalType": "address",
              "name": "seller_addr",
              "type": "address"
            },
            {
              "internalType": "uint256",
              "name": "bv_value",
              "type": "uint256"
            },
            {
              "internalType": "uint256",
              "name": "token_withdraw_value",
              "type": "uint256"
            },
            {
              "internalType": "bool",
              "name": "exists",
              "type": "bool"
            }
          ],
          "internalType": "struct Sellers.Seller[]",
          "name": "",
          "type": "tuple[]"
        }
      ],
      "stateMutability": "view",
      "type": "function"
    },
    {
      "inputs": [
        {
          "internalType": "uint256",
          "name": "_user_id",
          "type": "uint256"
        },
        {
          "internalType": "bool",
          "name": "ignore_validation",
          "type": "bool"
        }
      ],
      "name": "getUser",
      "outputs": [
        {
          "internalType": "address",
          "name": "",
          "type": "address"
        },
        {
          "components": [
            {
              "internalType": "uint256",
              "name": "id",
              "type": "uint256"
            },
            {
              "components": [
                {
                  "internalType": "uint256",
                  "name": "left",
                  "type": "uint256"
                },
                {
                  "internalType": "uint256",
                  "name": "right",
                  "type": "uint256"
                },
                {
                  "internalType": "uint256",
                  "name": "dir",
                  "type": "uint256"
                },
                {
                  "internalType": "uint256",
                  "name": "level",
                  "type": "uint256"
                },
                {
                  "internalType": "uint256",
                  "name": "summ",
                  "type": "uint256"
                }
              ],
              "internalType": "struct UsersStruct.BusinessValue",
              "name": "bv",
              "type": "tuple"
            },
            {
              "components": [
                {
                  "internalType": "uint256",
                  "name": "date",
                  "type": "uint256"
                },
                {
                  "internalType": "uint256",
                  "name": "order_id",
                  "type": "uint256"
                },
                {
                  "internalType": "uint256",
                  "name": "bv_level",
                  "type": "uint256"
                }
              ],
              "internalType": "struct UsersStruct.LastOrder",
              "name": "last_order",
              "type": "tuple"
            },
            {
              "internalType": "uint256",
              "name": "depth",
              "type": "uint256"
            },
            {
              "internalType": "uint256",
              "name": "pending_withdraw",
              "type": "uint256"
            },
            {
              "internalType": "uint256",
              "name": "levelup_count",
              "type": "uint256"
            },
            {
              "internalType": "uint256",
              "name": "lastweek",
              "type": "uint256"
            },
            {
              "internalType": "uint256",
              "name": "step",
              "type": "uint256"
            },
            {
              "internalType": "uint256",
              "name": "pending_voucher",
              "type": "uint256"
            },
            {
              "internalType": "bool",
              "name": "exists",
              "type": "bool"
            },
            {
              "internalType": "bytes32",
              "name": "data",
              "type": "bytes32"
            }
          ],
          "internalType": "struct UsersStruct.User",
          "name": "",
          "type": "tuple"
        }
      ],
      "stateMutability": "view",
      "type": "function"
    },
    {
      "inputs": [
        {
          "internalType": "address",
          "name": "user_address",
          "type": "address"
        }
      ],
      "name": "getUser",
      "outputs": [
        {
          "components": [
            {
              "internalType": "uint256",
              "name": "id",
              "type": "uint256"
            },
            {
              "components": [
                {
                  "internalType": "uint256",
                  "name": "left",
                  "type": "uint256"
                },
                {
                  "internalType": "uint256",
                  "name": "right",
                  "type": "uint256"
                },
                {
                  "internalType": "uint256",
                  "name": "dir",
                  "type": "uint256"
                },
                {
                  "internalType": "uint256",
                  "name": "level",
                  "type": "uint256"
                },
                {
                  "internalType": "uint256",
                  "name": "summ",
                  "type": "uint256"
                }
              ],
              "internalType": "struct UsersStruct.BusinessValue",
              "name": "bv",
              "type": "tuple"
            },
            {
              "components": [
                {
                  "internalType": "uint256",
                  "name": "date",
                  "type": "uint256"
                },
                {
                  "internalType": "uint256",
                  "name": "order_id",
                  "type": "uint256"
                },
                {
                  "internalType": "uint256",
                  "name": "bv_level",
                  "type": "uint256"
                }
              ],
              "internalType": "struct UsersStruct.LastOrder",
              "name": "last_order",
              "type": "tuple"
            },
            {
              "internalType": "uint256",
              "name": "depth",
              "type": "uint256"
            },
            {
              "internalType": "uint256",
              "name": "pending_withdraw",
              "type": "uint256"
            },
            {
              "internalType": "uint256",
              "name": "levelup_count",
              "type": "uint256"
            },
            {
              "internalType": "uint256",
              "name": "lastweek",
              "type": "uint256"
            },
            {
              "internalType": "uint256",
              "name": "step",
              "type": "uint256"
            },
            {
              "internalType": "uint256",
              "name": "pending_voucher",
              "type": "uint256"
            },
            {
              "internalType": "bool",
              "name": "exists",
              "type": "bool"
            },
            {
              "internalType": "bytes32",
              "name": "data",
              "type": "bytes32"
            }
          ],
          "internalType": "struct UsersStruct.User",
          "name": "user",
          "type": "tuple"
        }
      ],
      "stateMutability": "view",
      "type": "function"
    },
    {
      "inputs": [
        {
          "internalType": "uint256",
          "name": "fromId",
          "type": "uint256"
        },
        {
          "internalType": "uint256",
          "name": "toId",
          "type": "uint256"
        }
      ],
      "name": "getUserList",
      "outputs": [
        {
          "components": [
            {
              "components": [
                {
                  "internalType": "uint256",
                  "name": "id",
                  "type": "uint256"
                },
                {
                  "components": [
                    {
                      "internalType": "uint256",
                      "name": "left",
                      "type": "uint256"
                    },
                    {
                      "internalType": "uint256",
                      "name": "right",
                      "type": "uint256"
                    },
                    {
                      "internalType": "uint256",
                      "name": "dir",
                      "type": "uint256"
                    },
                    {
                      "internalType": "uint256",
                      "name": "level",
                      "type": "uint256"
                    },
                    {
                      "internalType": "uint256",
                      "name": "summ",
                      "type": "uint256"
                    }
                  ],
                  "internalType": "struct UsersStruct.BusinessValue",
                  "name": "bv",
                  "type": "tuple"
                },
                {
                  "components": [
                    {
                      "internalType": "uint256",
                      "name": "date",
                      "type": "uint256"
                    },
                    {
                      "internalType": "uint256",
                      "name": "order_id",
                      "type": "uint256"
                    },
                    {
                      "internalType": "uint256",
                      "name": "bv_level",
                      "type": "uint256"
                    }
                  ],
                  "internalType": "struct UsersStruct.LastOrder",
                  "name": "last_order",
                  "type": "tuple"
                },
                {
                  "internalType": "uint256",
                  "name": "depth",
                  "type": "uint256"
                },
                {
                  "internalType": "uint256",
                  "name": "pending_withdraw",
                  "type": "uint256"
                },
                {
                  "internalType": "uint256",
                  "name": "levelup_count",
                  "type": "uint256"
                },
                {
                  "internalType": "uint256",
                  "name": "lastweek",
                  "type": "uint256"
                },
                {
                  "internalType": "uint256",
                  "name": "step",
                  "type": "uint256"
                },
                {
                  "internalType": "uint256",
                  "name": "pending_voucher",
                  "type": "uint256"
                },
                {
                  "internalType": "bool",
                  "name": "exists",
                  "type": "bool"
                },
                {
                  "internalType": "bytes32",
                  "name": "data",
                  "type": "bytes32"
                }
              ],
              "internalType": "struct UsersStruct.User",
              "name": "user",
              "type": "tuple"
            },
            {
              "internalType": "address",
              "name": "user_address",
              "type": "address"
            }
          ],
          "internalType": "struct UsersStruct.UserInfo[]",
          "name": "",
          "type": "tuple[]"
        }
      ],
      "stateMutability": "view",
      "type": "function"
    },
    {
      "inputs": [
        {
          "components": [
            {
              "internalType": "uint256",
              "name": "id",
              "type": "uint256"
            },
            {
              "components": [
                {
                  "internalType": "uint256",
                  "name": "left",
                  "type": "uint256"
                },
                {
                  "internalType": "uint256",
                  "name": "right",
                  "type": "uint256"
                },
                {
                  "internalType": "uint256",
                  "name": "dir",
                  "type": "uint256"
                },
                {
                  "internalType": "uint256",
                  "name": "level",
                  "type": "uint256"
                },
                {
                  "internalType": "uint256",
                  "name": "summ",
                  "type": "uint256"
                }
              ],
              "internalType": "struct UsersStruct.BusinessValue",
              "name": "bv",
              "type": "tuple"
            },
            {
              "components": [
                {
                  "internalType": "uint256",
                  "name": "date",
                  "type": "uint256"
                },
                {
                  "internalType": "uint256",
                  "name": "order_id",
                  "type": "uint256"
                },
                {
                  "internalType": "uint256",
                  "name": "bv_level",
                  "type": "uint256"
                }
              ],
              "internalType": "struct UsersStruct.LastOrder",
              "name": "last_order",
              "type": "tuple"
            },
            {
              "internalType": "uint256",
              "name": "depth",
              "type": "uint256"
            },
            {
              "internalType": "uint256",
              "name": "pending_withdraw",
              "type": "uint256"
            },
            {
              "internalType": "uint256",
              "name": "levelup_count",
              "type": "uint256"
            },
            {
              "internalType": "uint256",
              "name": "lastweek",
              "type": "uint256"
            },
            {
              "internalType": "uint256",
              "name": "step",
              "type": "uint256"
            },
            {
              "internalType": "uint256",
              "name": "pending_voucher",
              "type": "uint256"
            },
            {
              "internalType": "bool",
              "name": "exists",
              "type": "bool"
            },
            {
              "internalType": "bytes32",
              "name": "data",
              "type": "bytes32"
            }
          ],
          "internalType": "struct UsersStruct.User",
          "name": "parent",
          "type": "tuple"
        },
        {
          "components": [
            {
              "internalType": "uint256",
              "name": "id",
              "type": "uint256"
            },
            {
              "components": [
                {
                  "internalType": "uint256",
                  "name": "left",
                  "type": "uint256"
                },
                {
                  "internalType": "uint256",
                  "name": "right",
                  "type": "uint256"
                },
                {
                  "internalType": "uint256",
                  "name": "dir",
                  "type": "uint256"
                },
                {
                  "internalType": "uint256",
                  "name": "level",
                  "type": "uint256"
                },
                {
                  "internalType": "uint256",
                  "name": "summ",
                  "type": "uint256"
                }
              ],
              "internalType": "struct UsersStruct.BusinessValue",
              "name": "bv",
              "type": "tuple"
            },
            {
              "components": [
                {
                  "internalType": "uint256",
                  "name": "date",
                  "type": "uint256"
                },
                {
                  "internalType": "uint256",
                  "name": "order_id",
                  "type": "uint256"
                },
                {
                  "internalType": "uint256",
                  "name": "bv_level",
                  "type": "uint256"
                }
              ],
              "internalType": "struct UsersStruct.LastOrder",
              "name": "last_order",
              "type": "tuple"
            },
            {
              "internalType": "uint256",
              "name": "depth",
              "type": "uint256"
            },
            {
              "internalType": "uint256",
              "name": "pending_withdraw",
              "type": "uint256"
            },
            {
              "internalType": "uint256",
              "name": "levelup_count",
              "type": "uint256"
            },
            {
              "internalType": "uint256",
              "name": "lastweek",
              "type": "uint256"
            },
            {
              "internalType": "uint256",
              "name": "step",
              "type": "uint256"
            },
            {
              "internalType": "uint256",
              "name": "pending_voucher",
              "type": "uint256"
            },
            {
              "internalType": "bool",
              "name": "exists",
              "type": "bool"
            },
            {
              "internalType": "bytes32",
              "name": "data",
              "type": "bytes32"
            }
          ],
          "internalType": "struct UsersStruct.User",
          "name": "child",
          "type": "tuple"
        }
      ],
      "name": "isChildOfParent",
      "outputs": [
        {
          "internalType": "bool",
          "name": "",
          "type": "bool"
        },
        {
          "internalType": "uint8",
          "name": "",
          "type": "uint8"
        }
      ],
      "stateMutability": "nonpayable",
      "type": "function"
    },
    {
      "inputs": [],
      "name": "isDev",
      "outputs": [
        {
          "internalType": "bool",
          "name": "",
          "type": "bool"
        }
      ],
      "stateMutability": "view",
      "type": "function"
    },
    {
      "inputs": [],
      "name": "last_withdrawal_time",
      "outputs": [
        {
          "internalType": "uint256",
          "name": "",
          "type": "uint256"
        }
      ],
      "stateMutability": "view",
      "type": "function"
    },
    {
      "inputs": [],
      "name": "level_up_data_index",
      "outputs": [
        {
          "internalType": "uint256",
          "name": "",
          "type": "uint256"
        }
      ],
      "stateMutability": "view",
      "type": "function"
    },
    {
      "inputs": [],
      "name": "order_id",
      "outputs": [
        {
          "internalType": "uint256",
          "name": "",
          "type": "uint256"
        }
      ],
      "stateMutability": "view",
      "type": "function"
    },
    {
      "inputs": [],
      "name": "owner",
      "outputs": [
        {
          "internalType": "address",
          "name": "",
          "type": "address"
        }
      ],
      "stateMutability": "view",
      "type": "function"
    },
    {
      "inputs": [
        {
          "components": [
            {
              "internalType": "uint256",
              "name": "bv_value",
              "type": "uint256"
            },
            {
              "internalType": "uint256",
              "name": "sv_value",
              "type": "uint256"
            },
            {
              "internalType": "uint256",
              "name": "seller_token",
              "type": "uint256"
            },
            {
              "internalType": "address",
              "name": "seller_address",
              "type": "address"
            },
            {
              "internalType": "bytes32",
              "name": "data",
              "type": "bytes32"
            }
          ],
          "internalType": "struct Payments.PaymentData",
          "name": "_payment",
          "type": "tuple"
        },
        {
          "internalType": "address",
          "name": "parent_addr",
          "type": "address"
        },
        {
          "internalType": "address",
          "name": "call_back",
          "type": "address"
        }
      ],
      "name": "payment",
      "outputs": [
        {
          "internalType": "uint256",
          "name": "",
          "type": "uint256"
        }
      ],
      "stateMutability": "nonpayable",
      "type": "function"
    },
    {
      "inputs": [
        {
          "components": [
            {
              "internalType": "uint256",
              "name": "bv_value",
              "type": "uint256"
            },
            {
              "internalType": "uint256",
              "name": "sv_value",
              "type": "uint256"
            },
            {
              "internalType": "uint256",
              "name": "seller_token",
              "type": "uint256"
            },
            {
              "internalType": "address",
              "name": "seller_address",
              "type": "address"
            },
            {
              "internalType": "bytes32",
              "name": "data",
              "type": "bytes32"
            }
          ],
          "internalType": "struct Payments.PaymentData",
          "name": "_payment",
          "type": "tuple"
        },
        {
          "internalType": "uint256",
          "name": "parent_id",
          "type": "uint256"
        },
        {
          "internalType": "address",
          "name": "call_back",
          "type": "address"
        }
      ],
      "name": "payment",
      "outputs": [
        {
          "internalType": "uint256",
          "name": "",
          "type": "uint256"
        }
      ],
      "stateMutability": "nonpayable",
      "type": "function"
    },
    {
      "inputs": [
        {
          "components": [
            {
              "internalType": "uint256",
              "name": "bv_value",
              "type": "uint256"
            },
            {
              "internalType": "uint256",
              "name": "sv_value",
              "type": "uint256"
            },
            {
              "internalType": "uint256",
              "name": "seller_token",
              "type": "uint256"
            },
            {
              "internalType": "address",
              "name": "seller_address",
              "type": "address"
            },
            {
              "internalType": "bytes32",
              "name": "data",
              "type": "bytes32"
            }
          ],
          "internalType": "struct Payments.PaymentData",
          "name": "_payment",
          "type": "tuple"
        },
        {
          "internalType": "address",
          "name": "payer_user",
          "type": "address"
        },
        {
          "internalType": "address",
          "name": "from_user",
          "type": "address"
        },
        {
          "internalType": "uint256",
          "name": "parent_id",
          "type": "uint256"
        }
      ],
      "name": "paymentFrom",
      "outputs": [
        {
          "internalType": "uint256",
          "name": "",
          "type": "uint256"
        }
      ],
      "stateMutability": "nonpayable",
      "type": "function"
    },
    {
      "inputs": [
        {
          "components": [
            {
              "internalType": "uint256",
              "name": "bv_value",
              "type": "uint256"
            },
            {
              "internalType": "uint256",
              "name": "sv_value",
              "type": "uint256"
            },
            {
              "internalType": "uint256",
              "name": "seller_token",
              "type": "uint256"
            },
            {
              "internalType": "address",
              "name": "seller_address",
              "type": "address"
            },
            {
              "internalType": "bytes32",
              "name": "data",
              "type": "bytes32"
            }
          ],
          "internalType": "struct Payments.PaymentData",
          "name": "_payment",
          "type": "tuple"
        },
        {
          "internalType": "address",
          "name": "payer_user",
          "type": "address"
        },
        {
          "internalType": "address",
          "name": "from_user",
          "type": "address"
        },
        {
          "internalType": "address",
          "name": "parent_addr",
          "type": "address"
        }
      ],
      "name": "paymentFrom",
      "outputs": [
        {
          "internalType": "uint256",
          "name": "",
          "type": "uint256"
        }
      ],
      "stateMutability": "nonpayable",
      "type": "function"
    },
    {
      "inputs": [],
      "name": "renounceOwnership",
      "outputs": [],
      "stateMutability": "nonpayable",
      "type": "function"
    },
    {
      "inputs": [
        {
          "internalType": "address",
          "name": "spender",
          "type": "address"
        }
      ],
      "name": "revokeAllowance",
      "outputs": [],
      "stateMutability": "nonpayable",
      "type": "function"
    },
    {
      "inputs": [],
      "name": "seller_id",
      "outputs": [
        {
          "internalType": "uint256",
          "name": "",
          "type": "uint256"
        }
      ],
      "stateMutability": "view",
      "type": "function"
    },
    {
      "inputs": [
        {
          "internalType": "address",
          "name": "spender",
          "type": "address"
        },
        {
          "internalType": "uint256",
          "name": "amount",
          "type": "uint256"
        }
      ],
      "name": "setAllowance",
      "outputs": [],
      "stateMutability": "nonpayable",
      "type": "function"
    },
    {
      "inputs": [
        {
          "internalType": "address",
          "name": "cal",
          "type": "address"
        }
      ],
      "name": "setCalculator",
      "outputs": [],
      "stateMutability": "nonpayable",
      "type": "function"
    },
    {
      "inputs": [],
      "name": "switchToProduction",
      "outputs": [],
      "stateMutability": "nonpayable",
      "type": "function"
    },
    {
      "inputs": [
        {
          "internalType": "address",
          "name": "newOwner",
          "type": "address"
        }
      ],
      "name": "transferOwnership",
      "outputs": [],
      "stateMutability": "nonpayable",
      "type": "function"
    },
    {
      "inputs": [],
      "name": "user_id",
      "outputs": [
        {
          "internalType": "uint256",
          "name": "",
          "type": "uint256"
        }
      ],
      "stateMutability": "view",
      "type": "function"
    },
    {
      "inputs": [],
      "name": "withdrawToken1Balance",
      "outputs": [],
      "stateMutability": "nonpayable",
      "type": "function"
    },
    {
      "inputs": [],
      "name": "withdrawToken2Balance",
      "outputs": [],
      "stateMutability": "nonpayable",
      "type": "function"
    },
    {
      "inputs": [
        {
          "internalType": "uint256",
          "name": "withdraw_amount",
          "type": "uint256"
        },
        {
          "internalType": "address",
          "name": "withdrawal_address",
          "type": "address"
        }
      ],
      "name": "withdrawWithDao",
      "outputs": [],
      "stateMutability": "nonpayable",
      "type": "function"
    }
  ],
  "bytecode": "0x60806040526000805460ff60a01b1916600160a01b1790553480156200002457600080fd5b5060405162004f1938038062004f19833981016040819052620000479162000603565b8133806200006f57604051631e4fbdf760e01b81526000600482015260240160405180910390fd5b6200007a816200044c565b506001600d81905560138054336001600160a01b0319918216179091556015805482166001600160a01b039485161790558180556003829055600e829055601180548216898516179055601280548216888516179055600c80549091169284169290921790915560007f71f482bdabd1ea844d62c952b094e632959690d7448ca2aab34034ec98569358819055680393ef1a5127c800007ff5559028dc9ba50d75343c779b2f75e13a84a14662932fc67a486f263ca31a9655680727de34a24f9000007f0387e9d1203691d8e3362a7e4c6723de358a4010d7f31ecbec3fbfc61d1c75fc556811e3ab8395c6e800007febae6141bae5521e99e0a8d610356b0f501fea54980b59c84841db43ba7204f4556823c757072b8dd000007f12d0c11577e2f0950f57c455c117796550b79f444811db8ba2f69c57b646c7845568478eae0e571ba000007f64c15cc42be7899b001f818cf4433057002112c418d1d3a67cd5cb453051d33e5568b2e4b323d9c51000007fa50eece07c7db1631545c0069bd8f5f54d5935e215d59097edf258a44ba916345552690165c96647b38a2000007f72c6bfb7988af3a1efa6568f02a999bc52252641c659d85961ca3d372b57d5cf5560066020526060805162000276907f3e5fec24aa4dc4e5aee2e025e51e1392c72a2500577559fae9665c6d52bd6a31906080906200057f565b50600060405180610160016040528060035481526020016040518060a001604052806000815260200160008152602001600081526020016000815260200160008152508152602001604051806060016040528060008152602001600081526020016000815250815260200160008152602001600081526020016000815260200160008152602001600081526020016000815260200160011515815260200160008019168152509050620003346003544260086200049c60201b60201c565b6001600160a01b038516600081815260056020818152604080842086518155868301518051600183015580840151600283015580830151600380840191909155606080830151600485015560809283015196840196909655888401518051600685015580860151600785015584015160088085019190915595890151600984015590880151600a83015560a0880151600b83015560c0880151600c83015560e0880151600d830155610100880151600e830155610120880151600f8301805460ff19169115159190911790556101408801516010909201919091558054855292909152822080546001600160a01b031916909317909255815491906200043a8362000673565b9190505550505050505050506200069b565b600080546001600160a01b038381166001600160a01b0319831681178455604051919092169283917f8be0079c531659141344cd1fd0a4f28419497f9722a3daafe3b4186f6b6457e09190a35050565b600083815260086020908152604080832080546001600160a01b0390811685526005808552838620600d0186905583518085018552888152808601888152600480548952600788528689208351815591516001928301558b89526006885286892090548154928301825590895287892090910155925490911685529092528220600b01805491926200052e8362000673565b91905055508183857f66833f6d7d7a01eaed9fb21eb9cc54f0fb9497fa9251a6c0773372c8d3e0aa0c60405160405180910390a460048054906000620005748362000673565b919050555050505050565b828054828255906000526020600020908101928215620005bd579160200282015b82811115620005bd578251825591602001919060010190620005a0565b50620005cb929150620005cf565b5090565b5b80821115620005cb5760008155600101620005d0565b80516001600160a01b0381168114620005fe57600080fd5b919050565b600080600080600060a086880312156200061c57600080fd5b6200062786620005e6565b94506200063760208701620005e6565b93506200064760408701620005e6565b92506200065760608701620005e6565b91506200066760808701620005e6565b90509295509295909350565b6000600182016200069457634e487b7160e01b600052601160045260246000fd5b5060010190565b61486e80620006ab6000396000f3fe608060405234801561001057600080fd5b50600436106102bb5760003560e01c80638da5cb5b11610182578063c2afb683116100e9578063eb63a59e116100a2578063f27be14e1161007c578063f27be14e146108d8578063f2fde38b14610904578063f781abc314610917578063f89183121461092a57600080fd5b8063eb63a59e146107c9578063f079914f146108a1578063f25f4b56146108c557600080fd5b8063c2afb68314610737578063c2f29eb014610757578063c53468f01461075f578063ce3e39c014610772578063d055ccfe14610785578063e6d3c18f1461078d57600080fd5b8063b67ea6371161013b578063b67ea637146106cc578063b9791425146106ec578063ba19bdb2146106f5578063bb5d88fa14610708578063be379d5b14610711578063c1debecb1461072457600080fd5b80638da5cb5b1461064357806396a8797e146106545780639b421b5614610667578063a4baecc91461067a578063ad0b224c1461068d578063ad11fe441461069557600080fd5b806358db9768116102265780636f77926b116101df5780636f77926b1461056d578063715018a61461058d5780637548f424146105955780637b4364801461059e5780637df6cc6f146105a757806380658cf81461062357600080fd5b806358db9768146104f65780635c79347f14610516578063654157a0146105365780636610e173146105495780636615d4371461055c5780636f5cc3b91461056457600080fd5b80634162169f116102785780634162169f1461045357806344da319c146104665780634d343cb214610487578063511095b5146104b0578063514fbe50146104c357806356e56826146104e357600080fd5b806306b099af146102c0578063120a521a146103675780633070667f146103a8578063310ec4a7146103cd5780633ce0adeb146104075780633e4d031014610440575b600080fd5b61031c6102ce366004613bbd565b60026020819052600091825260409091208054600182015492820154600383015460048401546005850154600686015460078701546008909701549597969495939492939192909160ff1689565b60408051998a5260208a0198909852968801959095526060870193909352608086019190915260a085015260c084015260e08301521515610100820152610120015b60405180910390f35b610390610375366004613bbd565b6008602052600090815260409020546001600160a01b031681565b6040516001600160a01b03909116815260200161035e565b6103bb6103b6366004613bd6565b610955565b60405160ff909116815260200161035e565b6104056103db366004613c3e565b3360009081526016602090815260408083206001600160a01b039590951683529390529190912055565b005b610432610415366004613c68565b600960209081526000928352604080842090915290825290205481565b60405190815260200161035e565b61040561044e366004613c8a565b610994565b601554610390906001600160a01b031681565b610479610474366004613cbe565b6109be565b60405161035e929190613db6565b610390610495366004613bbd565b6010602052600090815260409020546001600160a01b031681565b6104326104be366004613c68565b610b0d565b6104d66104d1366004613c68565b610b3e565b60405161035e9190613dd4565b6104326104f1366004613f42565b610d90565b610509610504366004613c68565b610e92565b60405161035e9190613fc7565b610529610524366004613bbd565b611032565b60405161035e9190614065565b610432610544366004614074565b6110b5565b6104326105573660046140b8565b611179565b6104056111a9565b61043260145481565b61058061057b366004613c8a565b61141f565b60405161035e91906140ec565b610405611520565b61043260045481565b610432600e5481565b6105f16105b5366004613c8a565b600f602052600090815260409020805460018201546002830154600384015460049094015492936001600160a01b039092169290919060ff1685565b604080519586526001600160a01b0390941660208601529284019190915260608301521515608082015260a00161035e565b610636610631366004613c68565b611534565b60405161035e91906140fb565b6000546001600160a01b0316610390565b601154610390906001600160a01b031681565b61043261067536600461413e565b6116da565b601254610390906001600160a01b031681565b6104056117ae565b6104056106a3366004613c8a565b3360009081526016602090815260408083206001600160a01b0394909416835292905290812055565b6106df6106da366004613cbe565b61190d565b60405161035e9190614194565b61043260015481565b6104056107033660046141c6565b6119bd565b61043260035481565b61043261071f366004613c68565b61203e565b61040561073236600461425c565b61204a565b610432610745366004613bbd565b600b6020526000908152604090205481565b61040561217d565b61040561076d366004613c8a565b612194565b600c54610390906001600160a01b031681565b6104056121e1565b6107b461079b366004613bbd565b6007602052600090815260409020805460019091015482565b6040805192835260208301919091520161035e565b61088a6107d7366004613c8a565b6005602081815260009283526040928390208054845160a08101865260018301548152600283015481850152600383015481870152600483015460608083019190915294830154608082015285519485018652600683015485526007830154938501939093526008820154948401949094526009810154600a820154600b830154600c840154600d850154600e860154600f87015460109097015497989795969495939492939192909160ff909116908b565b60405161035e9b9a9998979695949392919061433c565b6000546108b590600160a01b900460ff1681565b604051901515815260200161035e565b601354610390906001600160a01b031681565b6108eb6108e6366004614513565b6122c0565b60408051921515835260ff90911660208301520161035e565b610405610912366004613c8a565b612626565b61040561092536600461454a565b612661565b610432610938366004613c68565b600a60209081526000928352604080842090915290825290205481565b600080610963836007614583565b600160ff919091161b905060f884901c808216610981856007614583565b60ff91821691161c925050505b92915050565b61099c6127ef565b601380546001600160a01b0319166001600160a01b0392909216919091179055565b60006109c8613a01565b6000848152600860205260409020546001600160a01b0316801580156109ec575083155b15610a0a576040516319c29a3360e21b815260040160405180910390fd5b6001600160a01b03811660009081526005602081815260409283902083516101608101855281548152845160a080820187526001840154825260028401548286015260038401548288015260048401546060808401919091529584015460808084019190915283860192909252865180870188526006850154815260078501549581019590955260088401548588015295820193909352600982015493810193909352600a81015491830191909152600b81015492820192909252600c82015460c0820152600d82015460e0820152600e820154610100820152600f82015460ff16151561012082015260109091015461014082015290925090505b9250929050565b60066020528160005260406000208181548110610b2957600080fd5b90600052602060002001600091509150505481565b606082826001821015610b6c57604051633a2bd95560e11b8152600481018390526024015b60405180910390fd5b808210610b965760405163d427f71f60e01b81526004810182905260248101839052604401610b63565b600354841115610bbc57604051633322840360e11b815260048101859052602401610b63565b6000610bc8868661459c565b67ffffffffffffffff811115610be057610be0613e36565b604051908082528060200260200182016040528015610c1957816020015b610c06613ab2565b815260200190600190039081610bfe5790505b50905060005b610c29878761459c565b811015610d86576000600881610c3f848b6145af565b8152602080820192909252604090810160009081205482516001600160a01b039091168083526005808652928490206101a0830185528054838601908152855160a08082018852600184015482526002840154828a01526003840154828901526004840154606083810191909152968401546080808401919091528787019290925287519687018852600684015487526007840154878a0152600884015497870197909752840194909452600981015494830194909452600a84015460c0830152600b84015460e0830152600c840154610100830152600d840154610120830152600e840154610140830152600f84015460ff1615156101608301526010909301546101808201529081529182018190528451909250849084908110610d6757610d676145c2565b6020026020010181905250508080610d7e906145d8565b915050610c1f565b5095945050505050565b6000610d9a61281c565b336001600160a01b03851614610e58576020808601516001600160a01b038616600090815260168352604080822033835290935291909120541015610e1a5760405162461bcd60e51b8152602060048201526016602482015275185b1b1bddd85b98d9481a5cc81b9bdd081d985b1a5960521b6044820152606401610b63565b6020808601516001600160a01b0386166000908152601683526040808220338352909352918220805491929091610e5290849061459c565b90915550505b600082815260086020526040902054610e7e90859085906001600160a01b031688612846565b9050610e8a6001600d55565b949350505050565b606082826001821015610ebb57604051633a2bd95560e11b815260048101839052602401610b63565b808210610ee55760405163d427f71f60e01b81526004810182905260248101839052604401610b63565b600e54841115610f0b57604051633322840360e11b815260048101859052602401610b63565b6000610f17868661459c565b67ffffffffffffffff811115610f2f57610f2f613e36565b604051908082528060200260200182016040528015610f6857816020015b610f55613ad2565b815260200190600190039081610f4d5790505b50905060005b610f78878761459c565b811015610d86576000601081610f8e848b6145af565b815260208082019290925260409081016000908120546001600160a01b03908116808352600f855291839020835160a081018552815481526001820154909216948201949094526002840154928101929092526003830154606083015260049092015460ff1615156080820152845191925090849084908110611013576110136145c2565b602002602001018190525050808061102a906145d8565b915050610f6e565b61103a613b0c565b506000908152600260208181526040928390208351610120810185528154815260018201549281019290925291820154928101929092526003810154606083015260048101546080830152600581015460a0830152600681015460c0830152600781015460e08301526008015460ff16151561010082015290565b60006110bf61281c565b60006110cd33338688612846565b6040805163e3cc09ff60e01b815233600482015260248101839052875160448201526020880151606482015290870151608482015260608701516001600160a01b0390811660a4830152608088015160c4830152919250849182169063e3cc09ff9060e401600060405180830381600087803b15801561114c57600080fd5b505af1158015611160573d6000803e3d6000fd5b50939450505050506111726001600d55565b9392505050565b600061118361281c565b6000838152600860205260408120546110cd90339081906001600160a01b031688612846565b3360009081526005602081815260409283902083516101608101855281548152845160a08082018752600180850154835260028501548387015260038501548389015260048501546060808501919091529685015460808085019190915284870193909352875180880189526006860154815260078601549681019690965260088501548689015296830194909452600983015494820194909452600a82015493810193909352600b81015491830191909152600c81015460c0830152600d81015460e0830152600e810154610100830152600f81015460ff16151561012083018190526010909101546101408301529091146112de5760405162461bcd60e51b81526020600482015260136024820152721d5cd95c88191bd95cc81b9bdd08195e1a5cdd606a1b6044820152606401610b63565b600c54604051632d823e6d60e01b81526001600160a01b0390911690632d823e6d9061130e9084906004016140ec565b610220604051808303816000875af115801561132e573d6000803e3d6000fd5b505050506040513d601f19601f820116820180604052508101906113529190614684565b33600090815260056020818152604092839020845181558482015180516001830155808301516002830155808501516003830155606080820151600484015560809182015194830194909455858501518051600684015592830151600783015591909301516008840155908301516009830155820151600a82015560a0820151600b82015560c0820151600c82015560e0820151600d820155610100820151600e820155610120820151600f8201805460ff19169115159190911790556101409091015160109091015550565b611427613a01565b506001600160a01b031660009081526005602081815260409283902083516101608101855281548152845160a080820187526001840154825260028401548286015260038401548288015260048401546060808401919091529584015460808084019190915283860192909252865180870188526006850154815260078501549581019590955260088401548588015295820193909352600982015493810193909352600a81015491830191909152600b81015492820192909252600c82015460c0820152600d82015460e0820152600e820154610100820152600f82015460ff16151561012082015260109091015461014082015290565b6115286127ef565b6115326000612a6d565b565b60608282600182101561155d57604051633a2bd95560e11b815260048101839052602401610b63565b8082106115875760405163d427f71f60e01b81526004810182905260248101839052604401610b63565b6001548411156115ad57604051633322840360e11b815260048101859052602401610b63565b60006115b9868661459c565b67ffffffffffffffff8111156115d1576115d1613e36565b60405190808252806020026020018201604052801561160a57816020015b6115f7613b0c565b8152602001906001900390816115ef5790505b50905060005b61161a878761459c565b811015610d86576002600061162f838a6145af565b81526020808201929092526040908101600020815161012081018352815481526001820154938101939093526002810154918301919091526003810154606083015260048101546080830152600581015460a0830152600681015460c0830152600781015460e08301526008015460ff16151561010082015282518390839081106116bc576116bc6145c2565b602002602001018190525080806116d2906145d8565b915050611610565b60006116e461281c565b336001600160a01b038516146117a2576020808601516001600160a01b0386166000908152601683526040808220338352909352919091205410156117645760405162461bcd60e51b8152602060048201526016602482015275185b1b1bddd85b98d9481a5cc81b9bdd081d985b1a5960521b6044820152606401610b63565b6020808601516001600160a01b038616600090815260168352604080822033835290935291822080549192909161179c90849061459c565b90915550505b610e7e84848488612846565b600054600160a01b900460ff166117d857604051631867fcd960e11b815260040160405180910390fd5b6117e06127ef565b6012546040516370a0823160e01b81523060048201526000916001600160a01b0316906370a0823190602401602060405180830381865afa158015611829573d6000803e3d6000fd5b505050506040513d601f19601f8201168201806040525081019061184d9190614733565b9050801561190a5760125460405163a9059cbb60e01b8152336004820152602481018390526000916001600160a01b03169063a9059cbb906044015b6020604051808303816000875af11580156118a8573d6000803e3d6000fd5b505050506040513d601f19601f820116820180604052508101906118cc919061474c565b9050806119085760405162461bcd60e51b815260206004820152600a6024820152697478206661696c65642160b01b6044820152606401610b63565b505b50565b611915613ad2565b6000838152601060205260409020546001600160a01b031680158015611939575082155b1561195a57604051631bf4938960e11b815260048101859052602401610b63565b6001600160a01b039081166000908152600f6020908152604091829020825160a08101845281548152600182015490941691840191909152600281015491830191909152600381015460608301526004015460ff16151560808201529392505050565b3360009081526005602081815260409283902083516101608101855281548152845160a08082018752600180850154835260028501548387015260038501548389015260048501546060808501919091529685015460808085019190915284870193909352875180880189526006860154815260078601549681019690965260088501548689015296830194909452600983015494820194909452600a82015493810193909352600b81015491830191909152600c81015460c0830152600d81015460e0830152600e810154610100830152600f81015460ff1615156101208301819052601090910154610140830152909114611af25760405162461bcd60e51b81526020600482015260136024820152721d5cd95c88191bd95cc81b9bdd08195e1a5cdd606a1b6044820152606401610b63565b60005b8251811015611f7057600060026000858481518110611b1657611b166145c2565b6020908102919091018101518252818101929092526040908101600020815161012081018352815481526001820154938101939093526002810154918301919091526003810154606083015260048101546080830152600581015460a0830152600681015460c0830152600781015460e08301526008015460ff1615156101008201819052909150611be05760405162461bcd60e51b81526020600482015260136024820152726f72646572206973206e6f742065786973747360681b6044820152606401610b63565b838281518110611bf257611bf26145c2565b602002602001015183604001516020015110611c505760405162461bcd60e51b815260206004820181905260248201527f796f752063616e206e6f742063616c63756c617465206f6c64206f72646572736044820152606401610b63565b600860005b8460a00151811015611d085760c0830151855160009081526006602052604081208054600792919085908110611c8d57611c8d6145c2565b906000526020600020015481526020019081526020016000206000015411611cf657845160009081526006602052604081208054600792919084908110611cd657611cd66145c2565b906000526020600020015481526020019081526020016000206001015491505b80611d00816145d8565b915050611c55565b50848381518110611d1b57611d1b6145c2565b6020908102919091018101516040808701518301919091528382015160009081526008808452828220546001600160a01b03168252600580855283832084516101608101865281548152855160a08082018852600184015482526002840154828a0152600384015482890152600484015460608084019190915294840154608080840191909152838a01929092528751808601895260068501548152600785015499810199909952948301548888015295810196909652600981015491860191909152600a81015493850193909352600b83015490840152600c82015460c0840152600d82015460e0840152600e820154610100840152600f82015460ff161515610120840152601090910154610140830152908190611e3c9087906122c0565b9092509050600182151514611e8a5760405162461bcd60e51b815260206004820152601460248201527318da1a5b19081a5cc81b9bdd0818dbdc9c9958dd60621b6044820152606401610b63565b60ff81161580611e9d57508060ff166001145b611edd5760405162461bcd60e51b81526020600482015260116024820152701c9b081a5cc81b9bdd0818dbdc9c9958dd607a1b6044820152606401610b63565b600c546040516352e7083960e01b81526001600160a01b03909116906352e7083990611f13908990889088908790600401614769565b610220604051808303816000875af1158015611f33573d6000803e3d6000fd5b505050506040513d601f19601f82011682018060405250810190611f579190614684565b9550505050508080611f68906145d8565b915050611af5565b5033600090815260056020818152604092839020845181558482015180516001830155808301516002830155808501516003830155606080820151600484015560809182015194830194909455858501518051600684015592830151600783015591909301516008840155908301516009830155820151600a82015560a0820151600b82015560c0820151600c82015560e0820151600d820155610100820151600e820155610120820151600f8201805460ff19169115159190911790556101409091015160109091015550565b600061117282846147b6565b600054600160a01b900460ff1661207457604051631867fcd960e11b815260040160405180910390fd5b61207c6127ef565b60005b8151811015611908576005600083838151811061209e5761209e6145c2565b602090810291909101810151516001600160a01b03168252810191909152604001600020600f015460ff1661216b5761216b8282815181106120e2576120e26145c2565b602002602001015160000151838381518110612100576121006145c2565b60200260200101516020015184848151811061211e5761211e6145c2565b60200260200101516040015185858151811061213c5761213c6145c2565b60200260200101516060015186868151811061215a5761215a6145c2565b602002602001015160800151612abd565b80612175816145d8565b91505061207f565b6121856127ef565b6000805460ff60a01b19169055565b6015546001600160a01b031633146121bf576040516327365a1960e01b815260040160405180910390fd5b600c80546001600160a01b0319166001600160a01b0392909216919091179055565b600054600160a01b900460ff1661220b57604051631867fcd960e11b815260040160405180910390fd5b6122136127ef565b6011546040516370a0823160e01b81523060048201526000916001600160a01b0316906370a0823190602401602060405180830381865afa15801561225c573d6000803e3d6000fd5b505050506040513d601f19601f820116820180604052508101906122809190614733565b9050801561190a5760115460405163a9059cbb60e01b8152336004820152602481018390526000916001600160a01b03169063a9059cbb90604401611889565b60008082606001518460600151106122de575060009050600a610b06565b600061010085606001516122f291906147b6565b90506000610100866060015161230891906147ca565b905081156124845780156123885784516000908152600a602052604081209061233260018561459c565b8152602080820192909252604090810160009081205489518252600a9093529081209061236060018661459c565b81526020019081526020016000205414612383576000600b935093505050610b06565b612484565b6000600183116123a2576647656e6573697360c81b6123ce565b86516000908152600a60205260408120906123be60028661459c565b8152602001908152602001600020545b87516000908152600960205260408120919250908290826123f060018861459c565b815260200190815260200160002054604051602001612419929190918252602082015260400190565b60408051601f1981840301815291815281516020808401919091208a516000908152600a90925291812092935090918161245460018961459c565b815260200190815260200160002054905080821461247f576000606f97509750505050505050610b06565b505050505b60006124916008836147b6565b9050600a6000805b8381116125c95760005b60088160ff1610156125b657826124b9816145d8565b9350508583111561250557895160009081526009602090815260408083208a84528252909120546124fe91849081106124f4576124f46145c2565b1a60f81b82610955565b93506125b6565b8a5160009081526009602090815260408083208a8452825282205461253e9185908110612534576125346145c2565b1a60f81b83610955565b8b5160009081526009602090815260408083208c84528252822054929350909161257c9186908110612572576125726145c2565b1a60f81b84610955565b90508060ff168260ff16146125a1576000600c9a509a50505050505050505050610b06565b505080806125ae906147de565b9150506124a3565b50806125c1816145d8565b915050612499565b5060028260ff16106126165760405162461bcd60e51b8152602060048201526016602482015275736f6d657468696e672077656e742077726f6e67202160501b6044820152606401610b63565b5060019890975095505050505050565b61262e6127ef565b6001600160a01b03811661265857604051631e4fbdf760e01b815260006004820152602401610b63565b61190a81612a6d565b6015546001600160a01b0316331461268c576040516327365a1960e01b815260040160405180910390fd5b6011546040516370a0823160e01b81523060048201526000916001600160a01b0316906370a0823190602401602060405180830381865afa1580156126d5573d6000803e3d6000fd5b505050506040513d601f19601f820116820180604052508101906126f99190614733565b905060646127088260146147fd565b61271291906147b6565b83111561273557604051633728b83d60e01b815260048101849052602401610b63565b6014541561276e5742601454623b538061274f91906145af565b111561276e5760405163508e6c2360e11b815260040160405180910390fd5b60115460405163a9059cbb60e01b81526001600160a01b038481166004830152602482018690529091169063a9059cbb906044016020604051808303816000875af11580156127c1573d6000803e3d6000fd5b505050506040513d601f19601f820116820180604052508101906127e5919061474c565b5050426014555050565b6000546001600160a01b031633146115325760405163118cdaa760e01b8152336004820152602401610b63565b6002600d540361283f57604051633ee5aeb560e01b815260040160405180910390fd5b6002600d55565b6001600160a01b0383166000908152600560205260408120600f015460ff166128785761287884846008600042612abd565b60608201516001600160a01b03166000908152600f602052604090206004015460ff166128ac576128ac8260600151612efc565b8160400151600114806128c3575081604001516002145b6128fd5760405162461bcd60e51b815260206004820152600b60248201526a3bb937b733903a37b5b2b760a91b6044820152606401610b63565b6001600160a01b0384166000908152600560205260409020600f015460ff1615156001146129645760405162461bcd60e51b8152602060048201526014602482015273736f6d657468696e672069732077726f6e67202160601b6044820152606401610b63565b60608201516001600160a01b03166000908152600f602052604090206004015460ff1615156001146129cf5760405162461bcd60e51b8152602060048201526014602482015273736f6d657468696e672069732077726f6e67202160601b6044820152606401610b63565b6129d9858361300d565b6129e784836000015161334b565b6129f98260600151836000015161353d565b6040805160c0810182526001600160a01b038087166000908152600560209081528482205484526060808801519093168252600f8152908490205481840152855183850152850151908201529083015160808083019190915283015160a0820152612a63816135c5565b9695505050505050565b600080546001600160a01b038381166001600160a01b0319831681178455604051919092169283917f8be0079c531659141344cd1fd0a4f28419497f9722a3daafe3b4186f6b6457e09190a35050565b6001600160a01b03808516600090815260056020818152604080842081516101608101835281548152825160a080820185526001840154825260028401548287015260038401548286015260048401546060808401919091528488015460808085019190915284880193909352855180820187526006860154815260078601548189015260088601548188015284870152600985015490840152600a84015491830191909152600b83015490820152600c82015460c0820152600d82015460e0820152600e820154610100820152600f8083015460ff9081161515610120840152601090930154610140830152968c16865293909252909220909201541615612bf95760405162461bcd60e51b815260206004820152600e60248201526d757365727320657869737473202160901b6044820152606401610b63565b806101200151612c425760405162461bcd60e51b8152602060048201526014602482015273706172656e74206973206e6f742065786973747360601b6044820152606401610b63565b600281602001516040015110612ca65760405162461bcd60e51b815260206004820152602360248201527f706172656e742063616e206e6f742068617665206d6f7265207468616e2032206044820152623234b960e91b6064820152608401610b63565b6003546000908152600660205260409020606080519091612cc991608090613b5d565b50600060405180610160016040528060035481526020016040518060a00160405280600081526020016000815260200160008152602001898152602001888152508152602001604051806060016040528060008152602001600081526020016000815250815260200184606001516001612d4391906145af565b8152600060208083018290526040808401839052606084018390526080840183905260a08401839052600160c0850181905260e09094018390526003548352600882529182902080546001600160a01b0319166001600160a01b038e161790558601510151919250612db591906145af565b6001600160a01b038881166000908152600560208181526040808420600390810196909655938d168084528484208751815587830151805160018301558084015160028301558087015182890155606080820151600484015560809182015195830195909555888701518051600684015593840151600783015592860151600882015592870151600984015590860151600a83015560a0860151600b83015560c0860151600c83015560e0860151600d830155610100860151600e830155610120860151600f8301805460ff1916911515919091179055610140860151601090920191909155925491519192917fd9e1d255053318ccf2a036b32fd2a70cced70ba0d33da18b23b2ccb7d4c002799190a360038054906000612ed6836145d8565b90915550508051612ee89085886136d3565b612ef281846137b2565b5050505050505050565b6001600160a01b0381166000908152600f602052604090206004015460ff1615612f595760405162461bcd60e51b815260206004820152600e60248201526d757365727320657869737473202160901b6044820152606401610b63565b6040805160a081018252600e805482526001600160a01b038085166020808501828152600086880181815260608801828152600160808a01818152878552600f87528b85208b51815595519186018054929099166001600160a01b0319928316179098559151600285015551600384015594516004909201805492151560ff1990931692909217909155845481526010909152948520805490921617905580549192613004836145d8565b91905055505050565b8051602082015110156130335760405163078d696560e31b815260040160405180910390fd5b60008160400151600114613052576012546001600160a01b031661305f565b6011546001600160a01b03165b601254835160208501519293506001600160a01b03909116916000916130849161459c565b8451909150600082156131e957600060646130a08560036147fd565b6130aa91906147b6565b90506130b6818561459c565b6013546040516323b872dd60e01b81529195506001600160a01b03808916926323b872dd926130ee928d929116908690600401614814565b6020604051808303816000875af115801561310d573d6000803e3d6000fd5b505050506040513d601f19601f82011682018060405250810190613131919061474c565b9150816131515760405163abab8fc960e01b815260040160405180910390fd5b60608701516040516323b872dd60e01b81526001600160a01b038816916323b872dd91613184918c918990600401614814565b6020604051808303816000875af11580156131a3573d6000803e3d6000fd5b505050506040513d601f19601f820116820180604052508101906131c7919061474c565b9150816131e75760405163abab8fc960e01b815260040160405180910390fd5b505b811561334257600060646131fe8460036147fd565b61320891906147b6565b9050613214818461459c565b6013546040516323b872dd60e01b81529194506001600160a01b03808816926323b872dd9261324c928d929116908690600401614814565b6020604051808303816000875af115801561326b573d6000803e3d6000fd5b505050506040513d601f19601f8201168201806040525081019061328f919061474c565b9150816132af5760405163abab8fc960e01b815260040160405180910390fd5b6040516323b872dd60e01b81526001600160a01b038616906323b872dd906132df908b9030908890600401614814565b6020604051808303816000875af11580156132fe573d6000803e3d6000fd5b505050506040513d601f19601f82011682018060405250810190613322919061474c565b915081612ef25760405163abab8fc960e01b815260040160405180910390fd5b50505050505050565b6001600160a01b038216600090815260056020819052604082200180548392906133769084906145af565b90915550506001600160a01b03821660009081526005602081815260409283902083516101608101855281548152845160a08082018752600180850154835260028501548387015260038501548389015260048501546060808501919091529685015460808085019190915284870193845288518089018a52600687015481526007870154978101979097526008860154878a015297840195909552600984015486840152600a84015496830196909652600b83015495820195909552600c82015460c0820152600d82015460e0820152600e820154610100820152600f82015460ff161515610120820152601090910154610140820152925190910151900361347f57505050565b6001805b81836020015160600151613497919061459c565b8111613536576001600160a01b038516600090815260056020818152604080842090920154848452600b909152912054118015906134ef57506001600160a01b03851660009081526005602052604090206004015481105b15613524576001600160a01b0385166000908152600560205260409020600481018290555461351f9042836136d3565b613536565b8061352e816145d8565b915050613483565b5050505050565b6001600160a01b0382166000908152600f6020526040812060020180548392906135689084906145af565b90915550506001600160a01b0382166000818152600f6020908152604091829020600201548251858152918201527fe9b039ba5208d950d1ec71cc708e7b7df6f65be7fb465be8a54b397a4be8f3d9910160405180910390a25050565b6040805161012081018252600180548083528451602080850191825280870180518688019081528888015160608089019182528a01516080808a019182528b015160a0808b019182524260c08c01908152908d015160e08c019081526101008c018b815260009a8b526002988990528d8b208d51815599518a8d015595519789019790975592516003880155905160048701555160058601555160068501559151600784015590516008909201805460ff191692151592909217909155855190519254945191949092917f55c69eda1963e4cfeb989afa75b9fe9175dca805edf0ee115e95db30140f3c77908690a4600180549060006136c4836145d8565b90915550506001549392505050565b600083815260086020908152604080832080546001600160a01b0390811685526005808552838620600d0186905583518085018552888152808601888152600480548952600788528689208351815591516001928301558b89526006885286892090548154928301825590895287892090910155925490911685529092528220600b0180549192613763836145d8565b91905055508183857f66833f6d7d7a01eaed9fb21eb9cc54f0fb9497fa9251a6c0773372c8d3e0aa0c60405160405180910390a4600480549060006137a7836145d8565b919050555050505050565b600061010082606001516137c691906147b6565b9050600061010083606001516137dc91906147ca565b905060005b8281101561385557835160009081526009602081815260408084208585528252808420548951855292825280842085855282528084209290925586518352600a808252828420858552825282842054895185529082528284208585529091529120558061384d816145d8565b9150506137e1565b5080156138af578251600090815260096020908152604080832085845282529182902054908501519091015161388e91908390156139d3565b845160009081526009602090815260408083208684529091529020556139cd565b60006138c88160008660200151604001516000146139d3565b85516000908152600960209081526040808320878452909152902055821561353657600060018411613904576647656e6573697360c81b613930565b85516000908152600a602052604081209061392060028761459c565b8152602001908152602001600020545b865160009081526009602052604081209192509082908261395260018961459c565b81526020019081526020016000205460405160200161397b929190918252602082015260400190565b60408051601f1981840301815291815281516020808401919091208a516000908152600a909252918120929350909182916139b760018a61459c565b8152602081019190915260400160002055505050505b50505050565b6000806139e18460ff61459c565b836139ed5760016139f0565b60005b60ff16901b85189150509392505050565b60405180610160016040528060008152602001613a466040518060a0016040528060008152602001600081526020016000815260200160008152602001600081525090565b8152602001613a6f60405180606001604052806000815260200160008152602001600081525090565b8152602001600081526020016000815260200160008152602001600081526020016000815260200160008152602001600015158152602001600080191681525090565b6040518060400160405280613ac5613a01565b8152600060209091015290565b6040518060a001604052806000815260200160006001600160a01b0316815260200160008152602001600081526020016000151581525090565b60405180610120016040528060008152602001600081526020016000815260200160008152602001600081526020016000815260200160008152602001600080191681526020016000151581525090565b828054828255906000526020600020908101928215613b98579160200282015b82811115613b98578251825591602001919060010190613b7d565b50613ba4929150613ba8565b5090565b5b80821115613ba45760008155600101613ba9565b600060208284031215613bcf57600080fd5b5035919050565b60008060408385031215613be957600080fd5b82356001600160f81b031981168114613c0157600080fd5b9150602083013560ff81168114613c1757600080fd5b809150509250929050565b80356001600160a01b0381168114613c3957600080fd5b919050565b60008060408385031215613c5157600080fd5b613c5a83613c22565b946020939093013593505050565b60008060408385031215613c7b57600080fd5b50508035926020909101359150565b600060208284031215613c9c57600080fd5b61117282613c22565b801515811461190a57600080fd5b8035613c3981613ca5565b60008060408385031215613cd157600080fd5b823591506020830135613c1781613ca5565b805182526020810151613d24602084018280518252602081015160208301526040810151604083015260608101516060830152608081015160808301525050565b50604081810151805160c0850152602081015160e085015290810151610100840152506060810151610120818185015260808301519150610140828186015260a084015161016086015260c084015161018086015260e08401516101a08601526101008401516101c0860152818401519250613da56101e086018415159052565b808401516102008601525050505050565b6001600160a01b038316815261024081016111726020830184613ce3565b6020808252825182820181905260009190848201906040850190845b81811015613e2a578351613e05848251613ce3565b8501516001600160a01b03166102208401529284019261024090920191600101613df0565b50909695505050505050565b634e487b7160e01b600052604160045260246000fd5b60405160a0810167ffffffffffffffff81118282101715613e6f57613e6f613e36565b60405290565b6040516060810167ffffffffffffffff81118282101715613e6f57613e6f613e36565b604051610160810167ffffffffffffffff81118282101715613e6f57613e6f613e36565b604051601f8201601f1916810167ffffffffffffffff81118282101715613ee557613ee5613e36565b604052919050565b600060a08284031215613eff57600080fd5b613f07613e4c565b9050813581526020820135602082015260408201356040820152613f2d60608301613c22565b60608201526080820135608082015292915050565b6000806000806101008587031215613f5957600080fd5b613f638686613eed565b9350613f7160a08601613c22565b9250613f7f60c08601613c22565b9396929550929360e00135925050565b805182526020808201516001600160a01b03169083015260408082015190830152606080820151908301526080908101511515910152565b6020808252825182820181905260009190848201906040850190845b81811015613e2a57613ff6838551613f8f565b9284019260a09290920191600101613fe3565b805182526020810151602083015260408101516040830152606081015160608301526080810151608083015260a081015160a083015260c081015160c083015260e081015160e083015261010080820151151581840152505050565b610120810161098e8284614009565b600080600060e0848603121561408957600080fd5b6140938585613eed565b92506140a160a08501613c22565b91506140af60c08501613c22565b90509250925092565b600080600060e084860312156140cd57600080fd5b6140d78585613eed565b925060a084013591506140af60c08501613c22565b610220810161098e8284613ce3565b6020808252825182820181905260009190848201906040850190845b81811015613e2a5761412a838551614009565b928401926101209290920191600101614117565b600080600080610100858703121561415557600080fd5b61415f8686613eed565b935061416d60a08601613c22565b925061417b60c08601613c22565b915061418960e08601613c22565b905092959194509250565b60a0810161098e8284613f8f565b600067ffffffffffffffff8211156141bc576141bc613e36565b5060051b60200190565b600060208083850312156141d957600080fd5b823567ffffffffffffffff8111156141f057600080fd5b8301601f8101851361420157600080fd5b803561421461420f826141a2565b613ebc565b81815260059190911b8201830190838101908783111561423357600080fd5b928401925b8284101561425157833582529284019290840190614238565b979650505050505050565b6000602080838503121561426f57600080fd5b823567ffffffffffffffff81111561428657600080fd5b8301601f8101851361429757600080fd5b80356142a561420f826141a2565b81815260a091820283018401918482019190888411156142c457600080fd5b938501935b838510156143305780858a0312156142e15760008081fd5b6142e9613e4c565b6142f286613c22565b81526142ff878701613c22565b81880152604086810135908201526060808701359082015260808087013590820152835293840193918501916142c9565b50979650505050505050565b8b8152610220810161437c602083018d80518252602081015160208301526040810151604083015260608101516060830152608081015160808301525050565b8a5160c083015260208b015160e08301526040909a01516101008201526101208101989098526101408801969096526101608701949094526101808601929092526101a08501526101c084015215156101e08301526102009091015292915050565b600060a082840312156143f057600080fd5b6143f8613e4c565b9050813581526020820135602082015260408201356040820152606082013560608201526080820135608082015292915050565b60006060828403121561443e57600080fd5b614446613e75565b905081358152602082013560208201526040820135604082015292915050565b6000610220828403121561447957600080fd5b614481613e98565b90508135815261449483602084016143de565b60208201526144a68360c0840161442c565b604082015261012080830135606083015261014080840135608084015261016084013560a084015261018084013560c08401526101a084013560e08401526101c08401356101008401526144fd6101e08501613cb3565b8284015261020084013581840152505092915050565b600080610440838503121561452757600080fd5b6145318484614466565b9150614541846102208501614466565b90509250929050565b6000806040838503121561455d57600080fd5b8235915061454160208401613c22565b634e487b7160e01b600052601160045260246000fd5b60ff828116828216039081111561098e5761098e61456d565b8181038181111561098e5761098e61456d565b8082018082111561098e5761098e61456d565b634e487b7160e01b600052603260045260246000fd5b6000600182016145ea576145ea61456d565b5060010190565b600060a0828403121561460357600080fd5b61460b613e4c565b9050815181526020820151602082015260408201516040820152606082015160608201526080820151608082015292915050565b60006060828403121561465157600080fd5b614659613e75565b905081518152602082015160208201526040820151604082015292915050565b8051613c3981613ca5565b6000610220828403121561469757600080fd5b61469f613e98565b825181526146b084602085016145f1565b60208201526146c28460c0850161463f565b604082015261012080840151606083015261014080850151608084015261016085015160a084015261018085015160c08401526101a085015160e08401526101c08501516101008401526147196101e08601614679565b828401526102008501518184015250508091505092915050565b60006020828403121561474557600080fd5b5051919050565b60006020828403121561475e57600080fd5b815161117281613ca5565b61038081016147788287613ce3565b614786610220830186614009565b8361034083015260ff831661036083015295945050505050565b634e487b7160e01b600052601260045260246000fd5b6000826147c5576147c56147a0565b500490565b6000826147d9576147d96147a0565b500690565b600060ff821660ff81036147f4576147f461456d565b60010192915050565b808202811582820484141761098e5761098e61456d565b6001600160a01b03938416815291909216602082015260408101919091526060019056fea2646970667358221220c013fb81d8250de89bd482315f580229a4bc932e581154bfd33b32f42188c9ea64736f6c63430008140033",
  "linkReferences": {},
  "deployedLinkReferences": {}
}