{
  "_format": "hh-sol-artifact-1",
  "contractName": "Gateway",
  "sourceName": "contracts/Gateway.sol",
  "abi": [
    {
      "inputs": [
        {
          "internalType": "address",
          "name": "token_1",
          "type": "address"
        },
        {
          "internalType": "address",
          "name": "token_2",
          "type": "address"
        },
        {
          "internalType": "address",
          "name": "main_wallet",
          "type": "address"
        },
        {
          "internalType": "address",
          "name": "_dao",
          "type": "address"
        }
      ],
      "stateMutability": "nonpayable",
      "type": "constructor"
    },
    {
      "inputs": [],
      "name": "DevTimeOver",
      "type": "error"
    },
    {
      "inputs": [
        {
          "internalType": "uint256",
          "name": "",
          "type": "uint256"
        }
      ],
      "name": "InvalidAmount",
      "type": "error"
    },
    {
      "inputs": [],
      "name": "InvalidPayment",
      "type": "error"
    },
    {
      "inputs": [],
      "name": "OnlyDao",
      "type": "error"
    },
    {
      "inputs": [
        {
          "internalType": "address",
          "name": "owner",
          "type": "address"
        }
      ],
      "name": "OwnableInvalidOwner",
      "type": "error"
    },
    {
      "inputs": [
        {
          "internalType": "address",
          "name": "account",
          "type": "address"
        }
      ],
      "name": "OwnableUnauthorizedAccount",
      "type": "error"
    },
    {
      "inputs": [],
      "name": "PaymentError",
      "type": "error"
    },
    {
      "inputs": [],
      "name": "ReentrancyGuardReentrantCall",
      "type": "error"
    },
    {
      "inputs": [],
      "name": "TransferError",
      "type": "error"
    },
    {
      "inputs": [],
      "name": "Wait45Days",
      "type": "error"
    },
    {
      "anonymous": false,
      "inputs": [
        {
          "indexed": true,
          "internalType": "address",
          "name": "previousOwner",
          "type": "address"
        },
        {
          "indexed": true,
          "internalType": "address",
          "name": "newOwner",
          "type": "address"
        }
      ],
      "name": "OwnershipTransferred",
      "type": "event"
    },
    {
      "inputs": [
        {
          "internalType": "uint256",
          "name": "",
          "type": "uint256"
        }
      ],
      "name": "BVPlan",
      "outputs": [
        {
          "internalType": "uint256",
          "name": "",
          "type": "uint256"
        }
      ],
      "stateMutability": "view",
      "type": "function"
    },
    {
      "inputs": [
        {
          "internalType": "uint256",
          "name": "",
          "type": "uint256"
        }
      ],
      "name": "ListLevelUpDate",
      "outputs": [
        {
          "internalType": "uint256",
          "name": "date",
          "type": "uint256"
        },
        {
          "internalType": "uint256",
          "name": "level",
          "type": "uint256"
        }
      ],
      "stateMutability": "view",
      "type": "function"
    },
    {
      "inputs": [
        {
          "internalType": "uint256",
          "name": "",
          "type": "uint256"
        }
      ],
      "name": "OrderList",
      "outputs": [
        {
          "internalType": "uint256",
          "name": "id",
          "type": "uint256"
        },
        {
          "internalType": "uint256",
          "name": "user_id",
          "type": "uint256"
        },
        {
          "internalType": "uint256",
          "name": "seller_id",
          "type": "uint256"
        },
        {
          "internalType": "uint256",
          "name": "bv_value",
          "type": "uint256"
        },
        {
          "internalType": "uint256",
          "name": "sv_value",
          "type": "uint256"
        },
        {
          "internalType": "uint256",
          "name": "seller_token",
          "type": "uint256"
        },
        {
          "internalType": "uint256",
          "name": "date",
          "type": "uint256"
        },
        {
          "internalType": "bytes32",
          "name": "data",
          "type": "bytes32"
        },
        {
          "internalType": "bool",
          "name": "exists",
          "type": "bool"
        }
      ],
      "stateMutability": "view",
      "type": "function"
    },
    {
      "inputs": [
        {
          "internalType": "uint256",
          "name": "",
          "type": "uint256"
        }
      ],
      "name": "SellerAddress",
      "outputs": [
        {
          "internalType": "address",
          "name": "",
          "type": "address"
        }
      ],
      "stateMutability": "view",
      "type": "function"
    },
    {
      "inputs": [
        {
          "internalType": "address",
          "name": "",
          "type": "address"
        }
      ],
      "name": "SellerList",
      "outputs": [
        {
          "internalType": "uint256",
          "name": "id",
          "type": "uint256"
        },
        {
          "internalType": "address",
          "name": "seller_addr",
          "type": "address"
        },
        {
          "internalType": "uint256",
          "name": "bv_value",
          "type": "uint256"
        },
        {
          "internalType": "uint256",
          "name": "token_withdraw_value",
          "type": "uint256"
        },
        {
          "internalType": "bool",
          "name": "exists",
          "type": "bool"
        }
      ],
      "stateMutability": "view",
      "type": "function"
    },
    {
      "inputs": [],
      "name": "Token1",
      "outputs": [
        {
          "internalType": "contract IERC20",
          "name": "",
          "type": "address"
        }
      ],
      "stateMutability": "view",
      "type": "function"
    },
    {
      "inputs": [],
      "name": "Token2",
      "outputs": [
        {
          "internalType": "contract IERC20",
          "name": "",
          "type": "address"
        }
      ],
      "stateMutability": "view",
      "type": "function"
    },
    {
      "inputs": [
        {
          "internalType": "uint256",
          "name": "",
          "type": "uint256"
        }
      ],
      "name": "UserAddress",
      "outputs": [
        {
          "internalType": "address",
          "name": "",
          "type": "address"
        }
      ],
      "stateMutability": "view",
      "type": "function"
    },
    {
      "inputs": [
        {
          "internalType": "uint256",
          "name": "",
          "type": "uint256"
        },
        {
          "internalType": "uint256",
          "name": "",
          "type": "uint256"
        }
      ],
      "name": "UserLevelUpDateIndex",
      "outputs": [
        {
          "internalType": "uint256",
          "name": "",
          "type": "uint256"
        }
      ],
      "stateMutability": "view",
      "type": "function"
    },
    {
      "inputs": [
        {
          "internalType": "address",
          "name": "",
          "type": "address"
        }
      ],
      "name": "UserList",
      "outputs": [
        {
          "internalType": "uint256",
          "name": "id",
          "type": "uint256"
        },
        {
          "components": [
            {
              "internalType": "uint256",
              "name": "left",
              "type": "uint256"
            },
            {
              "internalType": "uint256",
              "name": "right",
              "type": "uint256"
            },
            {
              "internalType": "uint256",
              "name": "dir",
              "type": "uint256"
            },
            {
              "internalType": "uint256",
              "name": "level",
              "type": "uint256"
            },
            {
              "internalType": "uint256",
              "name": "summ",
              "type": "uint256"
            }
          ],
          "internalType": "struct UsersStruct.BusinessValue",
          "name": "bv",
          "type": "tuple"
        },
        {
          "components": [
            {
              "internalType": "uint256",
              "name": "date",
              "type": "uint256"
            },
            {
              "internalType": "uint256",
              "name": "order_id",
              "type": "uint256"
            },
            {
              "internalType": "uint256",
              "name": "bv_level",
              "type": "uint256"
            }
          ],
          "internalType": "struct UsersStruct.LastOrder",
          "name": "last_order",
          "type": "tuple"
        },
        {
          "internalType": "uint256",
          "name": "depth",
          "type": "uint256"
        },
        {
          "internalType": "uint256",
          "name": "pending_withdraw",
          "type": "uint256"
        },
        {
          "internalType": "uint256",
          "name": "levelup_count",
          "type": "uint256"
        },
        {
          "internalType": "uint256",
          "name": "lastweek",
          "type": "uint256"
        },
        {
          "internalType": "uint256",
          "name": "step",
          "type": "uint256"
        },
        {
          "internalType": "uint256",
          "name": "pending_voucher",
          "type": "uint256"
        },
        {
          "internalType": "bool",
          "name": "exists",
          "type": "bool"
        },
        {
          "internalType": "bytes32",
          "name": "data",
          "type": "bytes32"
        }
      ],
      "stateMutability": "view",
      "type": "function"
    },
    {
      "inputs": [
        {
          "internalType": "uint256",
          "name": "",
          "type": "uint256"
        },
        {
          "internalType": "uint256",
          "name": "",
          "type": "uint256"
        }
      ],
      "name": "UsersPaths",
      "outputs": [
        {
          "internalType": "bytes32",
          "name": "",
          "type": "bytes32"
        }
      ],
      "stateMutability": "view",
      "type": "function"
    },
    {
      "inputs": [
        {
          "internalType": "uint256",
          "name": "",
          "type": "uint256"
        },
        {
          "internalType": "uint256",
          "name": "",
          "type": "uint256"
        }
      ],
      "name": "UsersPathsHash",
      "outputs": [
        {
          "internalType": "bytes32",
          "name": "",
          "type": "bytes32"
        }
      ],
      "stateMutability": "view",
      "type": "function"
    },
    {
      "inputs": [
        {
          "components": [
            {
              "internalType": "address",
              "name": "userAddr",
              "type": "address"
            },
            {
              "internalType": "address",
              "name": "parent_addr",
              "type": "address"
            },
            {
              "internalType": "uint256",
              "name": "bvlevel",
              "type": "uint256"
            },
            {
              "internalType": "uint256",
              "name": "bvsum",
              "type": "uint256"
            },
            {
              "internalType": "uint256",
              "name": "levelup_date",
              "type": "uint256"
            }
          ],
          "internalType": "struct UsersStruct.ImportUser[]",
          "name": "users",
          "type": "tuple[]"
        }
      ],
      "name": "addUserBulk",
      "outputs": [],
      "stateMutability": "nonpayable",
      "type": "function"
    },
    {
      "inputs": [
        {
          "internalType": "uint256[]",
          "name": "ordersId",
          "type": "uint256[]"
        }
      ],
      "name": "calculate",
      "outputs": [],
      "stateMutability": "nonpayable",
      "type": "function"
    },
    {
      "inputs": [],
      "name": "calculateWeek",
      "outputs": [],
      "stateMutability": "nonpayable",
      "type": "function"
    },
    {
      "inputs": [],
      "name": "calculator",
      "outputs": [
        {
          "internalType": "contract Calculator",
          "name": "",
          "type": "address"
        }
      ],
      "stateMutability": "view",
      "type": "function"
    },
    {
      "inputs": [
        {
          "internalType": "address",
          "name": "wallet_address",
          "type": "address"
        }
      ],
      "name": "changeFeeWallet",
      "outputs": [],
      "stateMutability": "nonpayable",
      "type": "function"
    },
    {
      "inputs": [],
      "name": "dao",
      "outputs": [
        {
          "internalType": "address",
          "name": "",
          "type": "address"
        }
      ],
      "stateMutability": "view",
      "type": "function"
    },
    {
      "inputs": [],
      "name": "feeWallet",
      "outputs": [
        {
          "internalType": "address",
          "name": "",
          "type": "address"
        }
      ],
      "stateMutability": "view",
      "type": "function"
    },
    {
      "inputs": [
        {
          "internalType": "uint256",
          "name": "a",
          "type": "uint256"
        },
        {
          "internalType": "uint256",
          "name": "b",
          "type": "uint256"
        }
      ],
      "name": "floor",
      "outputs": [
        {
          "internalType": "uint256",
          "name": "",
          "type": "uint256"
        }
      ],
      "stateMutability": "pure",
      "type": "function"
    },
    {
      "inputs": [
        {
          "internalType": "bytes1",
          "name": "b",
          "type": "bytes1"
        },
        {
          "internalType": "uint8",
          "name": "position",
          "type": "uint8"
        }
      ],
      "name": "getBit",
      "outputs": [
        {
          "internalType": "uint8",
          "name": "",
          "type": "uint8"
        }
      ],
      "stateMutability": "pure",
      "type": "function"
    },
    {
      "inputs": [
        {
          "internalType": "uint256",
          "name": "_order_id",
          "type": "uint256"
        }
      ],
      "name": "getOrderList",
      "outputs": [
        {
          "components": [
            {
              "internalType": "uint256",
              "name": "id",
              "type": "uint256"
            },
            {
              "internalType": "uint256",
              "name": "user_id",
              "type": "uint256"
            },
            {
              "internalType": "uint256",
              "name": "seller_id",
              "type": "uint256"
            },
            {
              "internalType": "uint256",
              "name": "bv_value",
              "type": "uint256"
            },
            {
              "internalType": "uint256",
              "name": "sv_value",
              "type": "uint256"
            },
            {
              "internalType": "uint256",
              "name": "seller_token",
              "type": "uint256"
            },
            {
              "internalType": "uint256",
              "name": "date",
              "type": "uint256"
            },
            {
              "internalType": "bytes32",
              "name": "data",
              "type": "bytes32"
            },
            {
              "internalType": "bool",
              "name": "exists",
              "type": "bool"
            }
          ],
          "internalType": "struct OrdersStruct.Order",
          "name": "order",
          "type": "tuple"
        }
      ],
      "stateMutability": "nonpayable",
      "type": "function"
    },
    {
      "inputs": [
        {
          "internalType": "address",
          "name": "user_address",
          "type": "address"
        }
      ],
      "name": "getUser",
      "outputs": [
        {
          "components": [
            {
              "internalType": "uint256",
              "name": "id",
              "type": "uint256"
            },
            {
              "components": [
                {
                  "internalType": "uint256",
                  "name": "left",
                  "type": "uint256"
                },
                {
                  "internalType": "uint256",
                  "name": "right",
                  "type": "uint256"
                },
                {
                  "internalType": "uint256",
                  "name": "dir",
                  "type": "uint256"
                },
                {
                  "internalType": "uint256",
                  "name": "level",
                  "type": "uint256"
                },
                {
                  "internalType": "uint256",
                  "name": "summ",
                  "type": "uint256"
                }
              ],
              "internalType": "struct UsersStruct.BusinessValue",
              "name": "bv",
              "type": "tuple"
            },
            {
              "components": [
                {
                  "internalType": "uint256",
                  "name": "date",
                  "type": "uint256"
                },
                {
                  "internalType": "uint256",
                  "name": "order_id",
                  "type": "uint256"
                },
                {
                  "internalType": "uint256",
                  "name": "bv_level",
                  "type": "uint256"
                }
              ],
              "internalType": "struct UsersStruct.LastOrder",
              "name": "last_order",
              "type": "tuple"
            },
            {
              "internalType": "uint256",
              "name": "depth",
              "type": "uint256"
            },
            {
              "internalType": "uint256",
              "name": "pending_withdraw",
              "type": "uint256"
            },
            {
              "internalType": "uint256",
              "name": "levelup_count",
              "type": "uint256"
            },
            {
              "internalType": "uint256",
              "name": "lastweek",
              "type": "uint256"
            },
            {
              "internalType": "uint256",
              "name": "step",
              "type": "uint256"
            },
            {
              "internalType": "uint256",
              "name": "pending_voucher",
              "type": "uint256"
            },
            {
              "internalType": "bool",
              "name": "exists",
              "type": "bool"
            },
            {
              "internalType": "bytes32",
              "name": "data",
              "type": "bytes32"
            }
          ],
          "internalType": "struct UsersStruct.User",
          "name": "user",
          "type": "tuple"
        }
      ],
      "stateMutability": "nonpayable",
      "type": "function"
    },
    {
      "inputs": [
        {
          "components": [
            {
              "internalType": "uint256",
              "name": "id",
              "type": "uint256"
            },
            {
              "components": [
                {
                  "internalType": "uint256",
                  "name": "left",
                  "type": "uint256"
                },
                {
                  "internalType": "uint256",
                  "name": "right",
                  "type": "uint256"
                },
                {
                  "internalType": "uint256",
                  "name": "dir",
                  "type": "uint256"
                },
                {
                  "internalType": "uint256",
                  "name": "level",
                  "type": "uint256"
                },
                {
                  "internalType": "uint256",
                  "name": "summ",
                  "type": "uint256"
                }
              ],
              "internalType": "struct UsersStruct.BusinessValue",
              "name": "bv",
              "type": "tuple"
            },
            {
              "components": [
                {
                  "internalType": "uint256",
                  "name": "date",
                  "type": "uint256"
                },
                {
                  "internalType": "uint256",
                  "name": "order_id",
                  "type": "uint256"
                },
                {
                  "internalType": "uint256",
                  "name": "bv_level",
                  "type": "uint256"
                }
              ],
              "internalType": "struct UsersStruct.LastOrder",
              "name": "last_order",
              "type": "tuple"
            },
            {
              "internalType": "uint256",
              "name": "depth",
              "type": "uint256"
            },
            {
              "internalType": "uint256",
              "name": "pending_withdraw",
              "type": "uint256"
            },
            {
              "internalType": "uint256",
              "name": "levelup_count",
              "type": "uint256"
            },
            {
              "internalType": "uint256",
              "name": "lastweek",
              "type": "uint256"
            },
            {
              "internalType": "uint256",
              "name": "step",
              "type": "uint256"
            },
            {
              "internalType": "uint256",
              "name": "pending_voucher",
              "type": "uint256"
            },
            {
              "internalType": "bool",
              "name": "exists",
              "type": "bool"
            },
            {
              "internalType": "bytes32",
              "name": "data",
              "type": "bytes32"
            }
          ],
          "internalType": "struct UsersStruct.User",
          "name": "parent",
          "type": "tuple"
        },
        {
          "components": [
            {
              "internalType": "uint256",
              "name": "id",
              "type": "uint256"
            },
            {
              "components": [
                {
                  "internalType": "uint256",
                  "name": "left",
                  "type": "uint256"
                },
                {
                  "internalType": "uint256",
                  "name": "right",
                  "type": "uint256"
                },
                {
                  "internalType": "uint256",
                  "name": "dir",
                  "type": "uint256"
                },
                {
                  "internalType": "uint256",
                  "name": "level",
                  "type": "uint256"
                },
                {
                  "internalType": "uint256",
                  "name": "summ",
                  "type": "uint256"
                }
              ],
              "internalType": "struct UsersStruct.BusinessValue",
              "name": "bv",
              "type": "tuple"
            },
            {
              "components": [
                {
                  "internalType": "uint256",
                  "name": "date",
                  "type": "uint256"
                },
                {
                  "internalType": "uint256",
                  "name": "order_id",
                  "type": "uint256"
                },
                {
                  "internalType": "uint256",
                  "name": "bv_level",
                  "type": "uint256"
                }
              ],
              "internalType": "struct UsersStruct.LastOrder",
              "name": "last_order",
              "type": "tuple"
            },
            {
              "internalType": "uint256",
              "name": "depth",
              "type": "uint256"
            },
            {
              "internalType": "uint256",
              "name": "pending_withdraw",
              "type": "uint256"
            },
            {
              "internalType": "uint256",
              "name": "levelup_count",
              "type": "uint256"
            },
            {
              "internalType": "uint256",
              "name": "lastweek",
              "type": "uint256"
            },
            {
              "internalType": "uint256",
              "name": "step",
              "type": "uint256"
            },
            {
              "internalType": "uint256",
              "name": "pending_voucher",
              "type": "uint256"
            },
            {
              "internalType": "bool",
              "name": "exists",
              "type": "bool"
            },
            {
              "internalType": "bytes32",
              "name": "data",
              "type": "bytes32"
            }
          ],
          "internalType": "struct UsersStruct.User",
          "name": "child",
          "type": "tuple"
        }
      ],
      "name": "isChildOfParent",
      "outputs": [
        {
          "internalType": "bool",
          "name": "",
          "type": "bool"
        },
        {
          "internalType": "uint8",
          "name": "",
          "type": "uint8"
        }
      ],
      "stateMutability": "nonpayable",
      "type": "function"
    },
    {
      "inputs": [],
      "name": "isDev",
      "outputs": [
        {
          "internalType": "bool",
          "name": "",
          "type": "bool"
        }
      ],
      "stateMutability": "view",
      "type": "function"
    },
    {
      "inputs": [],
      "name": "last_withdrawal_time",
      "outputs": [
        {
          "internalType": "uint256",
          "name": "",
          "type": "uint256"
        }
      ],
      "stateMutability": "view",
      "type": "function"
    },
    {
      "inputs": [],
      "name": "level_up_data_index",
      "outputs": [
        {
          "internalType": "uint256",
          "name": "",
          "type": "uint256"
        }
      ],
      "stateMutability": "view",
      "type": "function"
    },
    {
      "inputs": [],
      "name": "order_id",
      "outputs": [
        {
          "internalType": "uint256",
          "name": "",
          "type": "uint256"
        }
      ],
      "stateMutability": "view",
      "type": "function"
    },
    {
      "inputs": [],
      "name": "owner",
      "outputs": [
        {
          "internalType": "address",
          "name": "",
          "type": "address"
        }
      ],
      "stateMutability": "view",
      "type": "function"
    },
    {
      "inputs": [
        {
          "components": [
            {
              "internalType": "uint256",
              "name": "bv_value",
              "type": "uint256"
            },
            {
              "internalType": "uint256",
              "name": "sv_value",
              "type": "uint256"
            },
            {
              "internalType": "uint256",
              "name": "seller_token",
              "type": "uint256"
            },
            {
              "internalType": "address",
              "name": "seller_address",
              "type": "address"
            },
            {
              "internalType": "bytes32",
              "name": "data",
              "type": "bytes32"
            }
          ],
          "internalType": "struct Payments.PaymentData",
          "name": "_payment",
          "type": "tuple"
        },
        {
          "internalType": "address",
          "name": "parent_addr",
          "type": "address"
        },
        {
          "internalType": "address",
          "name": "call_back",
          "type": "address"
        }
      ],
      "name": "payment",
      "outputs": [
        {
          "internalType": "uint256",
          "name": "",
          "type": "uint256"
        }
      ],
      "stateMutability": "nonpayable",
      "type": "function"
    },
    {
      "inputs": [
        {
          "components": [
            {
              "internalType": "uint256",
              "name": "bv_value",
              "type": "uint256"
            },
            {
              "internalType": "uint256",
              "name": "sv_value",
              "type": "uint256"
            },
            {
              "internalType": "uint256",
              "name": "seller_token",
              "type": "uint256"
            },
            {
              "internalType": "address",
              "name": "seller_address",
              "type": "address"
            },
            {
              "internalType": "bytes32",
              "name": "data",
              "type": "bytes32"
            }
          ],
          "internalType": "struct Payments.PaymentData",
          "name": "_payment",
          "type": "tuple"
        },
        {
          "internalType": "uint256",
          "name": "parent_id",
          "type": "uint256"
        },
        {
          "internalType": "address",
          "name": "call_back",
          "type": "address"
        }
      ],
      "name": "payment",
      "outputs": [
        {
          "internalType": "uint256",
          "name": "",
          "type": "uint256"
        }
      ],
      "stateMutability": "nonpayable",
      "type": "function"
    },
    {
      "inputs": [
        {
          "components": [
            {
              "internalType": "uint256",
              "name": "bv_value",
              "type": "uint256"
            },
            {
              "internalType": "uint256",
              "name": "sv_value",
              "type": "uint256"
            },
            {
              "internalType": "uint256",
              "name": "seller_token",
              "type": "uint256"
            },
            {
              "internalType": "address",
              "name": "seller_address",
              "type": "address"
            },
            {
              "internalType": "bytes32",
              "name": "data",
              "type": "bytes32"
            }
          ],
          "internalType": "struct Payments.PaymentData",
          "name": "_payment",
          "type": "tuple"
        },
        {
          "internalType": "address",
          "name": "payer_user",
          "type": "address"
        },
        {
          "internalType": "address",
          "name": "from_user",
          "type": "address"
        },
        {
          "internalType": "uint256",
          "name": "parent_id",
          "type": "uint256"
        }
      ],
      "name": "paymentFrom",
      "outputs": [
        {
          "internalType": "uint256",
          "name": "",
          "type": "uint256"
        }
      ],
      "stateMutability": "nonpayable",
      "type": "function"
    },
    {
      "inputs": [
        {
          "components": [
            {
              "internalType": "uint256",
              "name": "bv_value",
              "type": "uint256"
            },
            {
              "internalType": "uint256",
              "name": "sv_value",
              "type": "uint256"
            },
            {
              "internalType": "uint256",
              "name": "seller_token",
              "type": "uint256"
            },
            {
              "internalType": "address",
              "name": "seller_address",
              "type": "address"
            },
            {
              "internalType": "bytes32",
              "name": "data",
              "type": "bytes32"
            }
          ],
          "internalType": "struct Payments.PaymentData",
          "name": "_payment",
          "type": "tuple"
        },
        {
          "internalType": "address",
          "name": "payer_user",
          "type": "address"
        },
        {
          "internalType": "address",
          "name": "from_user",
          "type": "address"
        },
        {
          "internalType": "address",
          "name": "parent_addr",
          "type": "address"
        }
      ],
      "name": "paymentFrom",
      "outputs": [
        {
          "internalType": "uint256",
          "name": "",
          "type": "uint256"
        }
      ],
      "stateMutability": "nonpayable",
      "type": "function"
    },
    {
      "inputs": [],
      "name": "renounceOwnership",
      "outputs": [],
      "stateMutability": "nonpayable",
      "type": "function"
    },
    {
      "inputs": [
        {
          "internalType": "address",
          "name": "spender",
          "type": "address"
        }
      ],
      "name": "revokeAllowance",
      "outputs": [],
      "stateMutability": "nonpayable",
      "type": "function"
    },
    {
      "inputs": [],
      "name": "seller_id",
      "outputs": [
        {
          "internalType": "uint256",
          "name": "",
          "type": "uint256"
        }
      ],
      "stateMutability": "view",
      "type": "function"
    },
    {
      "inputs": [
        {
          "internalType": "address",
          "name": "spender",
          "type": "address"
        },
        {
          "internalType": "uint256",
          "name": "amount",
          "type": "uint256"
        }
      ],
      "name": "setAllowance",
      "outputs": [],
      "stateMutability": "nonpayable",
      "type": "function"
    },
    {
      "inputs": [
        {
          "internalType": "address",
          "name": "cal",
          "type": "address"
        }
      ],
      "name": "setCalculator",
      "outputs": [],
      "stateMutability": "nonpayable",
      "type": "function"
    },
    {
      "inputs": [],
      "name": "switchToProduction",
      "outputs": [],
      "stateMutability": "nonpayable",
      "type": "function"
    },
    {
      "inputs": [
        {
          "internalType": "address",
          "name": "newOwner",
          "type": "address"
        }
      ],
      "name": "transferOwnership",
      "outputs": [],
      "stateMutability": "nonpayable",
      "type": "function"
    },
    {
      "inputs": [],
      "name": "user_id",
      "outputs": [
        {
          "internalType": "uint256",
          "name": "",
          "type": "uint256"
        }
      ],
      "stateMutability": "view",
      "type": "function"
    },
    {
      "inputs": [],
      "name": "withdrawToken1Balance",
      "outputs": [],
      "stateMutability": "nonpayable",
      "type": "function"
    },
    {
      "inputs": [],
      "name": "withdrawToken2Balance",
      "outputs": [],
      "stateMutability": "nonpayable",
      "type": "function"
    },
    {
      "inputs": [
        {
          "internalType": "uint256",
          "name": "withdraw_amount",
          "type": "uint256"
        },
        {
          "internalType": "address",
          "name": "withdrawal_address",
          "type": "address"
        }
      ],
      "name": "withdrawWithDao",
      "outputs": [],
      "stateMutability": "nonpayable",
      "type": "function"
    },
    {
      "inputs": [],
      "name": "withraw_token",
      "outputs": [],
      "stateMutability": "nonpayable",
      "type": "function"
    }
  ],
  "bytecode": "0x60806040526002805460ff60a01b1916600160a01b1790553480156200002457600080fd5b5060405162004364380380620043648339810160408190526200004791620005c9565b8033806200006f57604051631e4fbdf760e01b81526000600482015260240160405180910390fd5b6200007a816200043f565b506001600d81905560138054336001600160a01b0319918216179091556015805482166001600160a01b0394851617905560008281556003839055600e839055601180548316898616179055601280549092169387169390931790557f71f482bdabd1ea844d62c952b094e632959690d7448ca2aab34034ec98569358829055680393ef1a5127c800007ff5559028dc9ba50d75343c779b2f75e13a84a14662932fc67a486f263ca31a9655680727de34a24f9000007f0387e9d1203691d8e3362a7e4c6723de358a4010d7f31ecbec3fbfc61d1c75fc556811e3ab8395c6e800007febae6141bae5521e99e0a8d610356b0f501fea54980b59c84841db43ba7204f4556823c757072b8dd000007f12d0c11577e2f0950f57c455c117796550b79f444811db8ba2f69c57b646c7845568478eae0e571ba000007f64c15cc42be7899b001f818cf4433057002112c418d1d3a67cd5cb453051d33e5568b2e4b323d9c51000007fa50eece07c7db1631545c0069bd8f5f54d5935e215d59097edf258a44ba91634559052690165c96647b38a2000007f72c6bfb7988af3a1efa6568f02a999bc52252641c659d85961ca3d372b57d5cf556006602052606080516200026a907f3e5fec24aa4dc4e5aee2e025e51e1392c72a2500577559fae9665c6d52bd6a319060809062000545565b50600060405180610160016040528060035481526020016040518060a001604052806000815260200160008152602001600081526020016000815260200160008152508152602001604051806060016040528060008152602001600081526020016000815250815260200160008152602001600081526020016000815260200160008152602001600081526020016000815260200160011515815260200160008019168152509050620003286003544260086200049160201b60201c565b6001600160a01b038416600081815260056020818152604080842086518155868301518051600183015580840151600283015580830151600380840191909155606080830151600485015560809283015196840196909655888401518051600685015580860151600785015584015160088085019190915595890151600984015590880151600a83015560a0880151600b83015560c0880151600c83015560e0880151600d830155610100880151600e830155610120880151600f8301805460ff19169115159190911790556101408801516010909201919091558054855292909152822080546001600160a01b031916909317909255815491906200042e8362000626565b91905055505050505050506200064e565b600280546001600160a01b038381166001600160a01b0319831681179093556040519116919082907f8be0079c531659141344cd1fd0a4f28419497f9722a3daafe3b4186f6b6457e090600090a35050565b600083815260086020908152604080832080546001600160a01b0390811685526005808552838620600d0186905583518085018552888152808601888152600480548952600788528689208351815591516001928301558b89526006885286892090548154928301825590895287892090910155925490911685529092528220600b0180549192620005238362000626565b9091555050600480549060006200053a8362000626565b919050555050505050565b82805482825590600052602060002090810192821562000583579160200282015b828111156200058357825182559160200191906001019062000566565b506200059192915062000595565b5090565b5b8082111562000591576000815560010162000596565b80516001600160a01b0381168114620005c457600080fd5b919050565b60008060008060808587031215620005e057600080fd5b620005eb85620005ac565b9350620005fb60208601620005ac565b92506200060b60408601620005ac565b91506200061b60608601620005ac565b905092959194509250565b6000600182016200064757634e487b7160e01b600052601160045260246000fd5b5060010190565b613d06806200065e6000396000f3fe608060405234801561001057600080fd5b506004361061027f5760003560e01c80639b421b561161015c578063c2f29eb0116100ce578063f079914f11610087578063f079914f146107e0578063f25f4b5614610804578063f27be14e14610817578063f2fde38b14610843578063f781abc314610856578063f89183121461086957600080fd5b8063c2f29eb014610679578063c53468f014610681578063ce3e39c0146106b1578063d055ccfe146106c4578063e6d3c18f146106cc578063eb63a59e1461070857600080fd5b8063b979142511610120578063b97914251461060e578063ba19bdb214610617578063bb5d88fa1461062a578063be379d5b14610633578063c1debecb14610646578063c2afb6831461065957600080fd5b80639b421b56146105a9578063a4baecc9146105bc578063ad0b224c146105cf578063ad11fe44146105d7578063b4a4601e146103c857600080fd5b8063654157a0116101f5578063715018a6116101b9578063715018a6146104ef5780637548f424146104f75780637b436480146105005780637df6cc6f146105095780638da5cb5b1461058557806396a8797e1461059657600080fd5b8063654157a0146104985780636610e173146104ab5780636615d437146104be5780636f5cc3b9146104c65780636f77926b146104cf57600080fd5b80633e4d0310116102475780633e4d0310146104035780634162169f146104165780634d343cb214610429578063511095b51461045257806356e56826146104655780635c79347f1461047857600080fd5b806306b099af14610284578063120a521a1461032a5780633070667f1461036b578063310ec4a7146103905780633ce0adeb146103ca575b600080fd5b6102df6102923660046131c5565b600160208190526000918252604090912080549181015460028201546003830154600484015460058501546006860154600787015460089097015495969495939492939192909160ff1689565b60408051998a5260208a0198909852968801959095526060870193909352608086019190915260a085015260c084015260e08301521515610100820152610120015b60405180910390f35b6103536103383660046131c5565b6008602052600090815260409020546001600160a01b031681565b6040516001600160a01b039091168152602001610321565b61037e6103793660046131de565b610894565b60405160ff9091168152602001610321565b6103c861039e366004613246565b3360009081526016602090815260408083206001600160a01b039590951683529390529190912055565b005b6103f56103d8366004613270565b600960209081526000928352604080842090915290825290205481565b604051908152602001610321565b6103c8610411366004613292565b6108d3565b601554610353906001600160a01b031681565b6103536104373660046131c5565b6010602052600090815260409020546001600160a01b031681565b6103f5610460366004613270565b6108fd565b6103f56104733660046133b9565b61092e565b61048b6104863660046131c5565b610a35565b6040516103219190613462565b6103f56104a6366004613471565b610b06565b6103f56104b93660046134b5565b610bca565b6103c8610bfa565b6103f560145481565b6104e26104dd366004613292565b610e70565b60405161032191906135bc565b6103c8610f71565b6103f560045481565b6103f5600e5481565b610553610517366004613292565b600f602052600090815260409020805460018201546002830154600384015460049094015492936001600160a01b039092169290919060ff1685565b604080519586526001600160a01b0390941660208601529284019190915260608301521515608082015260a001610321565b6002546001600160a01b0316610353565b601154610353906001600160a01b031681565b6103f56105b73660046135cb565b610f85565b601254610353906001600160a01b031681565b6103c8611059565b6103c86105e5366004613292565b3360009081526016602090815260408083206001600160a01b0394909416835292905290812055565b6103f560005481565b6103c8610625366004613645565b6111b8565b6103f560035481565b6103f5610641366004613270565b611839565b6103c86106543660046136db565b611845565b6103f56106673660046131c5565b600b6020526000908152604090205481565b6103c8611978565b6103c861068f366004613292565b600c80546001600160a01b0319166001600160a01b0392909216919091179055565b600c54610353906001600160a01b031681565b6103c861198f565b6106f36106da3660046131c5565b6007602052600090815260409020805460019091015482565b60408051928352602083019190915201610321565b6107c9610716366004613292565b6005602081815260009283526040928390208054845160a08101865260018301548152600283015481850152600383015481870152600483015460608083019190915294830154608082015285519485018652600683015485526007830154938501939093526008820154948401949094526009810154600a820154600b830154600c840154600d850154600e860154600f87015460109097015497989795969495939492939192909160ff909116908b565b6040516103219b9a999897969594939291906137bb565b6002546107f490600160a01b900460ff1681565b6040519015158152602001610321565b601354610353906001600160a01b031681565b61082a6108253660046139ab565b611a6e565b60408051921515835260ff909116602083015201610321565b6103c8610851366004613292565b611dd6565b6103c86108643660046139e2565b611e11565b6103f5610877366004613270565b600a60209081526000928352604080842090915290825290205481565b6000806108a2836007613a1b565b600160ff919091161b905060f884901c8082166108c0856007613a1b565b60ff91821691161c925050505b92915050565b6108db611f9f565b601380546001600160a01b0319166001600160a01b0392909216919091179055565b6006602052816000526040600020818154811061091957600080fd5b90600052602060002001600091509150505481565b6000610938611fcc565b336001600160a01b038516146109fb576020808601516001600160a01b0386166000908152601683526040808220338352909352919091205410156109bd5760405162461bcd60e51b8152602060048201526016602482015275185b1b1bddd85b98d9481a5cc81b9bdd081d985b1a5960521b60448201526064015b60405180910390fd5b6020808601516001600160a01b03861660009081526016835260408082203383529093529182208054919290916109f5908490613a34565b90915550505b600082815260086020526040902054610a2190859085906001600160a01b031688611ff6565b9050610a2d6001600d55565b949350505050565b610a8960405180610120016040528060008152602001600081526020016000815260200160008152602001600081526020016000815260200160008152602001600080191681526020016000151581525090565b506000908152600160208181526040928390208351610120810185528154815292810154918301919091526002810154928201929092526003820154606082015260048201546080820152600582015460a0820152600682015460c0820152600782015460e082015260089091015460ff16151561010082015290565b6000610b10611fcc565b6000610b1e33338688611ff6565b6040805163e3cc09ff60e01b815233600482015260248101839052875160448201526020880151606482015290870151608482015260608701516001600160a01b0390811660a4830152608088015160c4830152919250849182169063e3cc09ff9060e401600060405180830381600087803b158015610b9d57600080fd5b505af1158015610bb1573d6000803e3d6000fd5b5093945050505050610bc36001600d55565b9392505050565b6000610bd4611fcc565b600083815260086020526040812054610b1e90339081906001600160a01b031688611ff6565b3360009081526005602081815260409283902083516101608101855281548152845160a08082018752600180850154835260028501548387015260038501548389015260048501546060808501919091529685015460808085019190915284870193909352875180880189526006860154815260078601549681019690965260088501548689015296830194909452600983015494820194909452600a82015493810193909352600b81015491830191909152600c81015460c0830152600d81015460e0830152600e810154610100830152600f81015460ff1615156101208301819052601090910154610140830152909114610d2f5760405162461bcd60e51b81526020600482015260136024820152721d5cd95c88191bd95cc81b9bdd08195e1a5cdd606a1b60448201526064016109b4565b600c54604051632d823e6d60e01b81526001600160a01b0390911690632d823e6d90610d5f9084906004016135bc565b610220604051808303816000875af1158015610d7f573d6000803e3d6000fd5b505050506040513d601f19601f82011682018060405250810190610da39190613ada565b33600090815260056020818152604092839020845181558482015180516001830155808301516002830155808501516003830155606080820151600484015560809182015194830194909455858501518051600684015592830151600783015591909301516008840155908301516009830155820151600a82015560a0820151600b82015560c0820151600c82015560e0820151600d820155610100820151600e820155610120820151600f8201805460ff19169115159190911790556101409091015160109091015550565b610e786130b4565b506001600160a01b031660009081526005602081815260409283902083516101608101855281548152845160a080820187526001840154825260028401548286015260038401548288015260048401546060808401919091529584015460808084019190915283860192909252865180870188526006850154815260078501549581019590955260088401548588015295820193909352600982015493810193909352600a81015491830191909152600b81015492820192909252600c82015460c0820152600d82015460e0820152600e820154610100820152600f82015460ff16151561012082015260109091015461014082015290565b610f79611f9f565b610f83600061221d565b565b6000610f8f611fcc565b336001600160a01b0385161461104d576020808601516001600160a01b03861660009081526016835260408082203383529093529190912054101561100f5760405162461bcd60e51b8152602060048201526016602482015275185b1b1bddd85b98d9481a5cc81b9bdd081d985b1a5960521b60448201526064016109b4565b6020808601516001600160a01b0386166000908152601683526040808220338352909352918220805491929091611047908490613a34565b90915550505b610a2184848488611ff6565b600254600160a01b900460ff1661108357604051631867fcd960e11b815260040160405180910390fd5b61108b611f9f565b6012546040516370a0823160e01b81523060048201526000916001600160a01b0316906370a0823190602401602060405180830381865afa1580156110d4573d6000803e3d6000fd5b505050506040513d601f19601f820116820180604052508101906110f89190613b89565b905080156111b55760125460405163a9059cbb60e01b8152336004820152602481018390526000916001600160a01b03169063a9059cbb906044015b6020604051808303816000875af1158015611153573d6000803e3d6000fd5b505050506040513d601f19601f820116820180604052508101906111779190613ba2565b9050806111b35760405162461bcd60e51b815260206004820152600a6024820152697478206661696c65642160b01b60448201526064016109b4565b505b50565b3360009081526005602081815260409283902083516101608101855281548152845160a08082018752600180850154835260028501548387015260038501548389015260048501546060808501919091529685015460808085019190915284870193909352875180880189526006860154815260078601549681019690965260088501548689015296830194909452600983015494820194909452600a82015493810193909352600b81015491830191909152600c81015460c0830152600d81015460e0830152600e810154610100830152600f81015460ff16151561012083018190526010909101546101408301529091146112ed5760405162461bcd60e51b81526020600482015260136024820152721d5cd95c88191bd95cc81b9bdd08195e1a5cdd606a1b60448201526064016109b4565b60005b825181101561176b5760006001600085848151811061131157611311613bbf565b6020908102919091018101518252818101929092526040908101600020815161012081018352815481526001820154938101939093526002810154918301919091526003810154606083015260048101546080830152600581015460a0830152600681015460c0830152600781015460e08301526008015460ff16151561010082018190529091506113db5760405162461bcd60e51b81526020600482015260136024820152726f72646572206973206e6f742065786973747360681b60448201526064016109b4565b8382815181106113ed576113ed613bbf565b60200260200101518360400151602001511061144b5760405162461bcd60e51b815260206004820181905260248201527f796f752063616e206e6f742063616c63756c617465206f6c64206f726465727360448201526064016109b4565b600860005b8460a001518110156115035760c083015185516000908152600660205260408120805460079291908590811061148857611488613bbf565b9060005260206000200154815260200190815260200160002060000154116114f1578451600090815260066020526040812080546007929190849081106114d1576114d1613bbf565b906000526020600020015481526020019081526020016000206001015491505b806114fb81613bd5565b915050611450565b5084838151811061151657611516613bbf565b6020908102919091018101516040808701518301919091528382015160009081526008808452828220546001600160a01b03168252600580855283832084516101608101865281548152855160a08082018852600184015482526002840154828a0152600384015482890152600484015460608084019190915294840154608080840191909152838a01929092528751808601895260068501548152600785015499810199909952948301548888015295810196909652600981015491860191909152600a81015493850193909352600b83015490840152600c82015460c0840152600d82015460e0840152600e820154610100840152600f82015460ff161515610120840152601090910154610140830152908190611637908790611a6e565b90925090506001821515146116855760405162461bcd60e51b815260206004820152601460248201527318da1a5b19081a5cc81b9bdd0818dbdc9c9958dd60621b60448201526064016109b4565b60ff8116158061169857508060ff166001145b6116d85760405162461bcd60e51b81526020600482015260116024820152701c9b081a5cc81b9bdd0818dbdc9c9958dd607a1b60448201526064016109b4565b600c546040516352e7083960e01b81526001600160a01b03909116906352e708399061170e908990889088908790600401613bee565b610220604051808303816000875af115801561172e573d6000803e3d6000fd5b505050506040513d601f19601f820116820180604052508101906117529190613ada565b955050505050808061176390613bd5565b9150506112f0565b5033600090815260056020818152604092839020845181558482015180516001830155808301516002830155808501516003830155606080820151600484015560809182015194830194909455858501518051600684015592830151600783015591909301516008840155908301516009830155820151600a82015560a0820151600b82015560c0820151600c82015560e0820151600d820155610100820151600e820155610120820151600f8201805460ff19169115159190911790556101409091015160109091015550565b6000610bc38284613c3b565b600254600160a01b900460ff1661186f57604051631867fcd960e11b815260040160405180910390fd5b611877611f9f565b60005b81518110156111b3576005600083838151811061189957611899613bbf565b602090810291909101810151516001600160a01b03168252810191909152604001600020600f015460ff16611966576119668282815181106118dd576118dd613bbf565b6020026020010151600001518383815181106118fb576118fb613bbf565b60200260200101516020015184848151811061191957611919613bbf565b60200260200101516040015185858151811061193757611937613bbf565b60200260200101516060015186868151811061195557611955613bbf565b60200260200101516080015161226f565b8061197081613bd5565b91505061187a565b611980611f9f565b6002805460ff60a01b19169055565b600254600160a01b900460ff166119b957604051631867fcd960e11b815260040160405180910390fd5b6119c1611f9f565b6011546040516370a0823160e01b81523060048201526000916001600160a01b0316906370a0823190602401602060405180830381865afa158015611a0a573d6000803e3d6000fd5b505050506040513d601f19601f82011682018060405250810190611a2e9190613b89565b905080156111b55760115460405163a9059cbb60e01b8152336004820152602481018390526000916001600160a01b03169063a9059cbb90604401611134565b6000808260600151846060015110611a8c575060009050600a611dcf565b60006101008560600151611aa09190613c3b565b905060006101008660600151611ab69190613c4f565b90508115611c32578015611b365784516000908152600a6020526040812090611ae0600185613a34565b8152602080820192909252604090810160009081205489518252600a90935290812090611b0e600186613a34565b81526020019081526020016000205414611b31576000600b935093505050611dcf565b611c32565b600060018311611b50576647656e6573697360c81b611b7c565b86516000908152600a6020526040812090611b6c600286613a34565b8152602001908152602001600020545b8751600090815260096020526040812091925090829082611b9e600188613a34565b815260200190815260200160002054604051602001611bc7929190918252602082015260400190565b60408051601f1981840301815291815281516020808401919091208a516000908152600a909252918120929350909181611c02600189613a34565b8152602001908152602001600020549050808214611c2d576000606f97509750505050505050611dcf565b505050505b6000611c3f600883613c3b565b9050600a6000805b838111611d775760005b60088160ff161015611d645782611c6781613bd5565b93505085831115611cb357895160009081526009602090815260408083208a8452825290912054611cac9184908110611ca257611ca2613bbf565b1a60f81b82610894565b9350611d64565b8a5160009081526009602090815260408083208a84528252822054611cec9185908110611ce257611ce2613bbf565b1a60f81b83610894565b8b5160009081526009602090815260408083208c845282528220549293509091611d2a9186908110611d2057611d20613bbf565b1a60f81b84610894565b90508060ff168260ff1614611d4f576000600c9a509a50505050505050505050611dcf565b50508080611d5c90613c63565b915050611c51565b5080611d6f81613bd5565b915050611c47565b5060028260ff1610611dc45760405162461bcd60e51b8152602060048201526016602482015275736f6d657468696e672077656e742077726f6e67202160501b60448201526064016109b4565b506001955093505050505b9250929050565b611dde611f9f565b6001600160a01b038116611e0857604051631e4fbdf760e01b8152600060048201526024016109b4565b6111b58161221d565b6015546001600160a01b03163314611e3c576040516327365a1960e01b815260040160405180910390fd5b6011546040516370a0823160e01b81523060048201526000916001600160a01b0316906370a0823190602401602060405180830381865afa158015611e85573d6000803e3d6000fd5b505050506040513d601f19601f82011682018060405250810190611ea99190613b89565b90506064611eb8826014613c82565b611ec29190613c3b565b831115611ee557604051633728b83d60e01b8152600481018490526024016109b4565b60145415611f1e5742601454623b5380611eff9190613c99565b1115611f1e5760405163508e6c2360e11b815260040160405180910390fd5b60115460405163a9059cbb60e01b81526001600160a01b038481166004830152602482018690529091169063a9059cbb906044016020604051808303816000875af1158015611f71573d6000803e3d6000fd5b505050506040513d601f19601f82011682018060405250810190611f959190613ba2565b5050426014555050565b6002546001600160a01b03163314610f835760405163118cdaa760e01b81523360048201526024016109b4565b6002600d5403611fef57604051633ee5aeb560e01b815260040160405180910390fd5b6002600d55565b6001600160a01b0383166000908152600560205260408120600f015460ff16612028576120288484600860004261226f565b60608201516001600160a01b03166000908152600f602052604090206004015460ff1661205c5761205c826060015161267f565b816040015160011480612073575081604001516002145b6120ad5760405162461bcd60e51b815260206004820152600b60248201526a3bb937b733903a37b5b2b760a91b60448201526064016109b4565b6001600160a01b0384166000908152600560205260409020600f015460ff1615156001146121145760405162461bcd60e51b8152602060048201526014602482015273736f6d657468696e672069732077726f6e67202160601b60448201526064016109b4565b60608201516001600160a01b03166000908152600f602052604090206004015460ff16151560011461217f5760405162461bcd60e51b8152602060048201526014602482015273736f6d657468696e672069732077726f6e67202160601b60448201526064016109b4565b612189858361277c565b612197848360000151612aba565b6121a982606001518360000151612cac565b6040805160c0810182526001600160a01b038087166000908152600560209081528482205484526060808801519093168252600f8152908490205481840152855183850152850151908201529083015160808083019190915283015160a082015261221381612ce0565b9695505050505050565b600280546001600160a01b038381166001600160a01b0319831681179093556040519116919082907f8be0079c531659141344cd1fd0a4f28419497f9722a3daafe3b4186f6b6457e090600090a35050565b6001600160a01b03808516600090815260056020818152604080842081516101608101835281548152825160a080820185526001840154825260028401548287015260038401548286015260048401546060808401919091528488015460808085019190915284880193909352855180820187526006860154815260078601548189015260088601548188015284870152600985015490840152600a84015491830191909152600b83015490820152600c82015460c0820152600d82015460e0820152600e820154610100820152600f8083015460ff9081161515610120840152601090930154610140830152968c168652939092529092209092015416156123ab5760405162461bcd60e51b815260206004820152600e60248201526d757365727320657869737473202160901b60448201526064016109b4565b8061012001516123f45760405162461bcd60e51b8152602060048201526014602482015273706172656e74206973206e6f742065786973747360601b60448201526064016109b4565b6002816020015160400151106124585760405162461bcd60e51b815260206004820152602360248201527f706172656e742063616e206e6f742068617665206d6f7265207468616e2032206044820152623234b960e91b60648201526084016109b4565b600354600090815260066020526040902060608051909161247b91608090613165565b50600060405180610160016040528060035481526020016040518060a001604052806000815260200160008152602001600081526020018981526020018881525081526020016040518060600160405280600081526020016000815260200160008152508152602001846060015160016124f59190613c99565b8152600060208083018290526040808401839052606084018390526080840183905260a08401839052600160c0850181905260e09094018390526003548352600882529182902080546001600160a01b0319166001600160a01b038e1617905586015101519192506125679190613c99565b6001600160a01b038881166000908152600560208181526040808420600390810196909655938d1683528383208651815586820151805160018301558083015160028301558086015182880155606080820151600484015560809182015194830194909455878601518051600684015592830151600783015591909401516008850155908501516009840155840151600a83015560a0840151600b83015560c0840151600c83015560e0840151600d830155610100840151600e830155610120840151600f8301805460ff19169115159190911790556101408401516010909201919091558154919061265983613bd5565b9091555050805161266b908588612db5565b6126758184612e65565b5050505050505050565b6001600160a01b0381166000908152600f602052604090206004015460ff16156126dc5760405162461bcd60e51b815260206004820152600e60248201526d757365727320657869737473202160901b60448201526064016109b4565b6040805160a081018252600e805482526001600160a01b038481166020808501828152600086880181815260608801828152600160808a01818152968452600f90955298822088518155925193830180546001600160a01b03191694909616939093179094559051600282015594516003860155516004909401805460ff1916941515949094179093558054919261277383613bd5565b91905055505050565b8051602082015110156127a25760405163078d696560e31b815260040160405180910390fd5b600081604001516001146127c1576012546001600160a01b03166127ce565b6011546001600160a01b03165b601254835160208501519293506001600160a01b03909116916000916127f391613a34565b845190915060008215612958576000606461280f856003613c82565b6128199190613c3b565b90506128258185613a34565b6013546040516323b872dd60e01b81529195506001600160a01b03808916926323b872dd9261285d928d929116908690600401613cac565b6020604051808303816000875af115801561287c573d6000803e3d6000fd5b505050506040513d601f19601f820116820180604052508101906128a09190613ba2565b9150816128c05760405163abab8fc960e01b815260040160405180910390fd5b60608701516040516323b872dd60e01b81526001600160a01b038816916323b872dd916128f3918c918990600401613cac565b6020604051808303816000875af1158015612912573d6000803e3d6000fd5b505050506040513d601f19601f820116820180604052508101906129369190613ba2565b9150816129565760405163abab8fc960e01b815260040160405180910390fd5b505b8115612ab1576000606461296d846003613c82565b6129779190613c3b565b90506129838184613a34565b6013546040516323b872dd60e01b81529194506001600160a01b03808816926323b872dd926129bb928d929116908690600401613cac565b6020604051808303816000875af11580156129da573d6000803e3d6000fd5b505050506040513d601f19601f820116820180604052508101906129fe9190613ba2565b915081612a1e5760405163abab8fc960e01b815260040160405180910390fd5b6040516323b872dd60e01b81526001600160a01b038616906323b872dd90612a4e908b9030908890600401613cac565b6020604051808303816000875af1158015612a6d573d6000803e3d6000fd5b505050506040513d601f19601f82011682018060405250810190612a919190613ba2565b9150816126755760405163abab8fc960e01b815260040160405180910390fd5b50505050505050565b6001600160a01b03821660009081526005602081905260408220018054839290612ae5908490613c99565b90915550506001600160a01b03821660009081526005602081815260409283902083516101608101855281548152845160a08082018752600180850154835260028501548387015260038501548389015260048501546060808501919091529685015460808085019190915284870193845288518089018a52600687015481526007870154978101979097526008860154878a015297840195909552600984015486840152600a84015496830196909652600b83015495820195909552600c82015460c0820152600d82015460e0820152600e820154610100820152600f82015460ff1615156101208201526010909101546101408201529251909101519003612bee57505050565b6001805b81836020015160600151612c069190613a34565b8111612ca5576001600160a01b038516600090815260056020818152604080842090920154848452600b90915291205411801590612c5e57506001600160a01b03851660009081526005602052604090206004015481105b15612c93576001600160a01b03851660009081526005602052604090206004810182905554612c8e904283612db5565b612ca5565b80612c9d81613bd5565b915050612bf2565b5050505050565b6001600160a01b0382166000908152600f602052604081206002018054839290612cd7908490613c99565b90915550505050565b604080516101208101825260008054808352845160208085019182528087015185870190815287870151606080880191825289015160808089019182528a015160a0808a019182524260c08b01908152908c015160e08b0190815260016101008c01818152998b52968790529a89208a518155965195870195909555925160028601559051600385015551600484015551600583015551600682015593516007850155516008909301805460ff19169315159390931790925581548280612da683613bd5565b90915550506000549392505050565b600083815260086020908152604080832080546001600160a01b0390811685526005808552838620600d0186905583518085018552888152808601888152600480548952600788528689208351815591516001928301558b89526006885286892090548154928301825590895287892090910155925490911685529092528220600b0180549192612e4583613bd5565b909155505060048054906000612e5a83613bd5565b919050555050505050565b60006101008260600151612e799190613c3b565b905060006101008360600151612e8f9190613c4f565b905060005b82811015612f0857835160009081526009602081815260408084208585528252808420548951855292825280842085855282528084209290925586518352600a8082528284208585528252828420548951855290825282842085855290915291205580612f0081613bd5565b915050612e94565b508015612f625782516000908152600960209081526040808320858452825291829020549085015190910151612f419190839015613086565b84516000908152600960209081526040808320868452909152902055613080565b6000612f7b816000866020015160400151600014613086565b855160009081526009602090815260408083208784529091529020558215612ca557600060018411612fb7576647656e6573697360c81b612fe3565b85516000908152600a6020526040812090612fd3600287613a34565b8152602001908152602001600020545b8651600090815260096020526040812091925090829082613005600189613a34565b81526020019081526020016000205460405160200161302e929190918252602082015260400190565b60408051601f1981840301815291815281516020808401919091208a516000908152600a9092529181209293509091829161306a60018a613a34565b8152602081019190915260400160002055505050505b50505050565b6000806130948460ff613a34565b836130a05760016130a3565b60005b60ff16901b85189150509392505050565b604051806101600160405280600081526020016130f96040518060a0016040528060008152602001600081526020016000815260200160008152602001600081525090565b815260200161312260405180606001604052806000815260200160008152602001600081525090565b8152602001600081526020016000815260200160008152602001600081526020016000815260200160008152602001600015158152602001600080191681525090565b8280548282559060005260206000209081019282156131a0579160200282015b828111156131a0578251825591602001919060010190613185565b506131ac9291506131b0565b5090565b5b808211156131ac57600081556001016131b1565b6000602082840312156131d757600080fd5b5035919050565b600080604083850312156131f157600080fd5b82356001600160f81b03198116811461320957600080fd5b9150602083013560ff8116811461321f57600080fd5b809150509250929050565b80356001600160a01b038116811461324157600080fd5b919050565b6000806040838503121561325957600080fd5b6132628361322a565b946020939093013593505050565b6000806040838503121561328357600080fd5b50508035926020909101359150565b6000602082840312156132a457600080fd5b610bc38261322a565b634e487b7160e01b600052604160045260246000fd5b60405160a0810167ffffffffffffffff811182821017156132e6576132e66132ad565b60405290565b6040516060810167ffffffffffffffff811182821017156132e6576132e66132ad565b604051610160810167ffffffffffffffff811182821017156132e6576132e66132ad565b604051601f8201601f1916810167ffffffffffffffff8111828210171561335c5761335c6132ad565b604052919050565b600060a0828403121561337657600080fd5b61337e6132c3565b90508135815260208201356020820152604082013560408201526133a46060830161322a565b60608201526080820135608082015292915050565b60008060008061010085870312156133d057600080fd5b6133da8686613364565b93506133e860a0860161322a565b92506133f660c0860161322a565b9396929550929360e00135925050565b805182526020810151602083015260408101516040830152606081015160608301526080810151608083015260a081015160a083015260c081015160c083015260e081015160e083015261010080820151151581840152505050565b61012081016108cd8284613406565b600080600060e0848603121561348657600080fd5b6134908585613364565b925061349e60a0850161322a565b91506134ac60c0850161322a565b90509250925092565b600080600060e084860312156134ca57600080fd5b6134d48585613364565b925060a084013591506134ac60c0850161322a565b80518252602081015161352a602084018280518252602081015160208301526040810151604083015260608101516060830152608081015160808301525050565b50604081810151805160c0850152602081015160e085015290810151610100840152506060810151610120818185015260808301519150610140828186015260a084015161016086015260c084015161018086015260e08401516101a08601526101008401516101c08601528184015192506135ab6101e086018415159052565b808401516102008601525050505050565b61022081016108cd82846134e9565b60008060008061010085870312156135e257600080fd5b6135ec8686613364565b93506135fa60a0860161322a565b925061360860c0860161322a565b915061361660e0860161322a565b905092959194509250565b600067ffffffffffffffff82111561363b5761363b6132ad565b5060051b60200190565b6000602080838503121561365857600080fd5b823567ffffffffffffffff81111561366f57600080fd5b8301601f8101851361368057600080fd5b803561369361368e82613621565b613333565b81815260059190911b820183019083810190878311156136b257600080fd5b928401925b828410156136d0578335825292840192908401906136b7565b979650505050505050565b600060208083850312156136ee57600080fd5b823567ffffffffffffffff81111561370557600080fd5b8301601f8101851361371657600080fd5b803561372461368e82613621565b81815260a0918202830184019184820191908884111561374357600080fd5b938501935b838510156137af5780858a0312156137605760008081fd5b6137686132c3565b6137718661322a565b815261377e87870161322a565b8188015260408681013590820152606080870135908201526080808701359082015283529384019391850191613748565b50979650505050505050565b8b815261022081016137fb602083018d80518252602081015160208301526040810151604083015260608101516060830152608081015160808301525050565b8a5160c083015260208b015160e08301526040909a01516101008201526101208101989098526101408801969096526101608701949094526101808601929092526101a08501526101c084015215156101e08301526102009091015292915050565b600060a0828403121561386f57600080fd5b6138776132c3565b9050813581526020820135602082015260408201356040820152606082013560608201526080820135608082015292915050565b6000606082840312156138bd57600080fd5b6138c56132ec565b905081358152602082013560208201526040820135604082015292915050565b80151581146111b557600080fd5b8035613241816138e5565b6000610220828403121561391157600080fd5b61391961330f565b90508135815261392c836020840161385d565b602082015261393e8360c084016138ab565b604082015261012080830135606083015261014080840135608084015261016084013560a084015261018084013560c08401526101a084013560e08401526101c08401356101008401526139956101e085016138f3565b8284015261020084013581840152505092915050565b60008061044083850312156139bf57600080fd5b6139c984846138fe565b91506139d98461022085016138fe565b90509250929050565b600080604083850312156139f557600080fd5b823591506139d96020840161322a565b634e487b7160e01b600052601160045260246000fd5b60ff82811682821603908111156108cd576108cd613a05565b818103818111156108cd576108cd613a05565b600060a08284031215613a5957600080fd5b613a616132c3565b9050815181526020820151602082015260408201516040820152606082015160608201526080820151608082015292915050565b600060608284031215613aa757600080fd5b613aaf6132ec565b905081518152602082015160208201526040820151604082015292915050565b8051613241816138e5565b60006102208284031215613aed57600080fd5b613af561330f565b82518152613b068460208501613a47565b6020820152613b188460c08501613a95565b604082015261012080840151606083015261014080850151608084015261016085015160a084015261018085015160c08401526101a085015160e08401526101c0850151610100840152613b6f6101e08601613acf565b828401526102008501518184015250508091505092915050565b600060208284031215613b9b57600080fd5b5051919050565b600060208284031215613bb457600080fd5b8151610bc3816138e5565b634e487b7160e01b600052603260045260246000fd5b600060018201613be757613be7613a05565b5060010190565b6103808101613bfd82876134e9565b613c0b610220830186613406565b8361034083015260ff831661036083015295945050505050565b634e487b7160e01b600052601260045260246000fd5b600082613c4a57613c4a613c25565b500490565b600082613c5e57613c5e613c25565b500690565b600060ff821660ff8103613c7957613c79613a05565b60010192915050565b80820281158282048414176108cd576108cd613a05565b808201808211156108cd576108cd613a05565b6001600160a01b03938416815291909216602082015260408101919091526060019056fea26469706673582212200415dfaf18be6aa662b4e1064ed730d592b8d30950b7a9bc69cea6e1d15722df64736f6c63430008140033",
  "linkReferences": {},
  "deployedLinkReferences": {}
}