{
  "_format": "hh-sol-artifact-1",
  "contractName": "Gateway",
  "sourceName": "contracts/Gateway.sol",
  "abi": [
    {
      "inputs": [
        {
          "internalType": "address",
          "name": "token_1",
          "type": "address"
        },
        {
          "internalType": "address",
          "name": "token_2",
          "type": "address"
        },
        {
          "internalType": "address",
          "name": "_dao",
          "type": "address"
        },
        {
          "internalType": "address",
          "name": "_calculator",
          "type": "address"
        },
        {
          "internalType": "address",
          "name": "dnm_contract",
          "type": "address"
        },
        {
          "internalType": "uint256",
          "name": "dnm_user_current_reward",
          "type": "uint256"
        },
        {
          "internalType": "uint256",
          "name": "dnm_seller_current_reward",
          "type": "uint256"
        },
        {
          "internalType": "uint256",
          "name": "dnm_voucher_current_reward",
          "type": "uint256"
        }
      ],
      "stateMutability": "nonpayable",
      "type": "constructor"
    },
    {
      "inputs": [],
      "name": "DevTimeOver",
      "type": "error"
    },
    {
      "inputs": [
        {
          "internalType": "uint256",
          "name": "",
          "type": "uint256"
        }
      ],
      "name": "InvalidAmount",
      "type": "error"
    },
    {
      "inputs": [
        {
          "internalType": "uint256",
          "name": "fromId",
          "type": "uint256"
        }
      ],
      "name": "InvalidFromID",
      "type": "error"
    },
    {
      "inputs": [],
      "name": "InvalidPayment",
      "type": "error"
    },
    {
      "inputs": [
        {
          "internalType": "uint256",
          "name": "fromId",
          "type": "uint256"
        },
        {
          "internalType": "uint256",
          "name": "toId",
          "type": "uint256"
        }
      ],
      "name": "InvalidRangeID",
      "type": "error"
    },
    {
      "inputs": [
        {
          "internalType": "uint256",
          "name": "toId",
          "type": "uint256"
        }
      ],
      "name": "InvalidToID",
      "type": "error"
    },
    {
      "inputs": [],
      "name": "MintDNMError",
      "type": "error"
    },
    {
      "inputs": [],
      "name": "OnlyDao",
      "type": "error"
    },
    {
      "inputs": [
        {
          "internalType": "address",
          "name": "owner",
          "type": "address"
        }
      ],
      "name": "OwnableInvalidOwner",
      "type": "error"
    },
    {
      "inputs": [
        {
          "internalType": "address",
          "name": "account",
          "type": "address"
        }
      ],
      "name": "OwnableUnauthorizedAccount",
      "type": "error"
    },
    {
      "inputs": [
        {
          "internalType": "address",
          "name": "parent_address",
          "type": "address"
        },
        {
          "internalType": "uint256",
          "name": "user_id",
          "type": "uint256"
        }
      ],
      "name": "ParentNotExist",
      "type": "error"
    },
    {
      "inputs": [],
      "name": "PaymentError",
      "type": "error"
    },
    {
      "inputs": [],
      "name": "ReentrancyGuardReentrantCall",
      "type": "error"
    },
    {
      "inputs": [
        {
          "internalType": "uint256",
          "name": "seller_id",
          "type": "uint256"
        }
      ],
      "name": "SellerNotFound",
      "type": "error"
    },
    {
      "inputs": [],
      "name": "TransferError",
      "type": "error"
    },
    {
      "inputs": [],
      "name": "UserNotFound",
      "type": "error"
    },
    {
      "inputs": [],
      "name": "Wait45Days",
      "type": "error"
    },
    {
      "anonymous": false,
      "inputs": [
        {
          "indexed": true,
          "internalType": "address",
          "name": "seller_addr",
          "type": "address"
        },
        {
          "indexed": false,
          "internalType": "uint256",
          "name": "added_volume",
          "type": "uint256"
        },
        {
          "indexed": false,
          "internalType": "uint256",
          "name": "current_bv",
          "type": "uint256"
        }
      ],
      "name": "AddedSaleVolume",
      "type": "event"
    },
    {
      "anonymous": false,
      "inputs": [
        {
          "indexed": true,
          "internalType": "uint256",
          "name": "user_id",
          "type": "uint256"
        },
        {
          "indexed": true,
          "internalType": "uint256",
          "name": "order_id",
          "type": "uint256"
        }
      ],
      "name": "Calculated",
      "type": "event"
    },
    {
      "anonymous": false,
      "inputs": [
        {
          "indexed": true,
          "internalType": "uint256",
          "name": "user_id",
          "type": "uint256"
        },
        {
          "indexed": true,
          "internalType": "uint256",
          "name": "week_number",
          "type": "uint256"
        }
      ],
      "name": "CalculatedWeek",
      "type": "event"
    },
    {
      "anonymous": false,
      "inputs": [
        {
          "indexed": true,
          "internalType": "uint256",
          "name": "id",
          "type": "uint256"
        },
        {
          "indexed": true,
          "internalType": "address",
          "name": "seller_addr",
          "type": "address"
        }
      ],
      "name": "CreatedSeller",
      "type": "event"
    },
    {
      "anonymous": false,
      "inputs": [
        {
          "indexed": true,
          "internalType": "address",
          "name": "user_address",
          "type": "address"
        },
        {
          "indexed": true,
          "internalType": "uint256",
          "name": "user_id",
          "type": "uint256"
        }
      ],
      "name": "CreatedUser",
      "type": "event"
    },
    {
      "anonymous": false,
      "inputs": [
        {
          "indexed": true,
          "internalType": "uint256",
          "name": "user_id",
          "type": "uint256"
        },
        {
          "indexed": true,
          "internalType": "uint256",
          "name": "date",
          "type": "uint256"
        },
        {
          "indexed": true,
          "internalType": "uint256",
          "name": "level",
          "type": "uint256"
        }
      ],
      "name": "LevelUp",
      "type": "event"
    },
    {
      "anonymous": false,
      "inputs": [
        {
          "indexed": true,
          "internalType": "uint256",
          "name": "id",
          "type": "uint256"
        },
        {
          "indexed": true,
          "internalType": "uint256",
          "name": "seller_id",
          "type": "uint256"
        },
        {
          "indexed": true,
          "internalType": "uint256",
          "name": "user_id",
          "type": "uint256"
        }
      ],
      "name": "NewOrderEvent",
      "type": "event"
    },
    {
      "anonymous": false,
      "inputs": [
        {
          "indexed": true,
          "internalType": "address",
          "name": "previousOwner",
          "type": "address"
        },
        {
          "indexed": true,
          "internalType": "address",
          "name": "newOwner",
          "type": "address"
        }
      ],
      "name": "OwnershipTransferred",
      "type": "event"
    },
    {
      "inputs": [
        {
          "internalType": "uint256",
          "name": "",
          "type": "uint256"
        }
      ],
      "name": "BVPlan",
      "outputs": [
        {
          "internalType": "uint256",
          "name": "",
          "type": "uint256"
        }
      ],
      "stateMutability": "view",
      "type": "function"
    },
    {
      "inputs": [],
      "name": "DNM_SELLER_CURRENT_REWARD",
      "outputs": [
        {
          "internalType": "uint256",
          "name": "",
          "type": "uint256"
        }
      ],
      "stateMutability": "view",
      "type": "function"
    },
    {
      "inputs": [],
      "name": "DNM_SELLER_MAX_REWARD",
      "outputs": [
        {
          "internalType": "uint256",
          "name": "",
          "type": "uint256"
        }
      ],
      "stateMutability": "view",
      "type": "function"
    },
    {
      "inputs": [],
      "name": "DNM_USER_CURRENT_REWARD",
      "outputs": [
        {
          "internalType": "uint256",
          "name": "",
          "type": "uint256"
        }
      ],
      "stateMutability": "view",
      "type": "function"
    },
    {
      "inputs": [],
      "name": "DNM_USER_MAX_REWARD",
      "outputs": [
        {
          "internalType": "uint256",
          "name": "",
          "type": "uint256"
        }
      ],
      "stateMutability": "view",
      "type": "function"
    },
    {
      "inputs": [],
      "name": "DNM_VOUCHER_CURRENT_REWARD",
      "outputs": [
        {
          "internalType": "uint256",
          "name": "",
          "type": "uint256"
        }
      ],
      "stateMutability": "view",
      "type": "function"
    },
    {
      "inputs": [],
      "name": "DNM_VOUCHER_MAX_REWARD",
      "outputs": [
        {
          "internalType": "uint256",
          "name": "",
          "type": "uint256"
        }
      ],
      "stateMutability": "view",
      "type": "function"
    },
    {
      "inputs": [],
      "name": "DnmTokenAddress",
      "outputs": [
        {
          "internalType": "address",
          "name": "",
          "type": "address"
        }
      ],
      "stateMutability": "view",
      "type": "function"
    },
    {
      "inputs": [
        {
          "internalType": "uint256",
          "name": "",
          "type": "uint256"
        }
      ],
      "name": "ListLevelUpDate",
      "outputs": [
        {
          "internalType": "uint256",
          "name": "date",
          "type": "uint256"
        },
        {
          "internalType": "uint256",
          "name": "level",
          "type": "uint256"
        }
      ],
      "stateMutability": "view",
      "type": "function"
    },
    {
      "inputs": [
        {
          "internalType": "uint256",
          "name": "",
          "type": "uint256"
        }
      ],
      "name": "OrderList",
      "outputs": [
        {
          "internalType": "uint256",
          "name": "id",
          "type": "uint256"
        },
        {
          "internalType": "uint256",
          "name": "user_id",
          "type": "uint256"
        },
        {
          "internalType": "uint256",
          "name": "seller_id",
          "type": "uint256"
        },
        {
          "internalType": "uint256",
          "name": "bv_value",
          "type": "uint256"
        },
        {
          "internalType": "uint256",
          "name": "sv_value",
          "type": "uint256"
        },
        {
          "internalType": "uint256",
          "name": "seller_token",
          "type": "uint256"
        },
        {
          "internalType": "uint256",
          "name": "date",
          "type": "uint256"
        },
        {
          "internalType": "bytes32",
          "name": "data",
          "type": "bytes32"
        },
        {
          "internalType": "bool",
          "name": "exists",
          "type": "bool"
        }
      ],
      "stateMutability": "view",
      "type": "function"
    },
    {
      "inputs": [
        {
          "internalType": "uint256",
          "name": "",
          "type": "uint256"
        }
      ],
      "name": "SellerAddress",
      "outputs": [
        {
          "internalType": "address",
          "name": "",
          "type": "address"
        }
      ],
      "stateMutability": "view",
      "type": "function"
    },
    {
      "inputs": [
        {
          "internalType": "address",
          "name": "",
          "type": "address"
        }
      ],
      "name": "SellerList",
      "outputs": [
        {
          "internalType": "uint256",
          "name": "id",
          "type": "uint256"
        },
        {
          "internalType": "address",
          "name": "seller_addr",
          "type": "address"
        },
        {
          "internalType": "uint256",
          "name": "bv_value",
          "type": "uint256"
        },
        {
          "internalType": "uint256",
          "name": "token_withdraw_value",
          "type": "uint256"
        },
        {
          "internalType": "uint256",
          "name": "dnm_withdraw",
          "type": "uint256"
        },
        {
          "internalType": "bool",
          "name": "exists",
          "type": "bool"
        }
      ],
      "stateMutability": "view",
      "type": "function"
    },
    {
      "inputs": [],
      "name": "Token1",
      "outputs": [
        {
          "internalType": "contract IERC20",
          "name": "",
          "type": "address"
        }
      ],
      "stateMutability": "view",
      "type": "function"
    },
    {
      "inputs": [],
      "name": "Token2",
      "outputs": [
        {
          "internalType": "contract IERC20",
          "name": "",
          "type": "address"
        }
      ],
      "stateMutability": "view",
      "type": "function"
    },
    {
      "inputs": [
        {
          "internalType": "uint256",
          "name": "",
          "type": "uint256"
        }
      ],
      "name": "UserAddress",
      "outputs": [
        {
          "internalType": "address",
          "name": "",
          "type": "address"
        }
      ],
      "stateMutability": "view",
      "type": "function"
    },
    {
      "inputs": [
        {
          "internalType": "uint256",
          "name": "",
          "type": "uint256"
        },
        {
          "internalType": "uint256",
          "name": "",
          "type": "uint256"
        }
      ],
      "name": "UserLevelUpDateIndex",
      "outputs": [
        {
          "internalType": "uint256",
          "name": "",
          "type": "uint256"
        }
      ],
      "stateMutability": "view",
      "type": "function"
    },
    {
      "inputs": [
        {
          "internalType": "address",
          "name": "",
          "type": "address"
        }
      ],
      "name": "UserList",
      "outputs": [
        {
          "internalType": "uint256",
          "name": "id",
          "type": "uint256"
        },
        {
          "components": [
            {
              "internalType": "uint256",
              "name": "left",
              "type": "uint256"
            },
            {
              "internalType": "uint256",
              "name": "right",
              "type": "uint256"
            },
            {
              "internalType": "uint256",
              "name": "all_left",
              "type": "uint256"
            },
            {
              "internalType": "uint256",
              "name": "all_right",
              "type": "uint256"
            },
            {
              "internalType": "uint256",
              "name": "dir",
              "type": "uint256"
            },
            {
              "internalType": "uint256",
              "name": "level",
              "type": "uint256"
            },
            {
              "internalType": "uint256",
              "name": "summ",
              "type": "uint256"
            },
            {
              "internalType": "uint256",
              "name": "dnm_withdraw",
              "type": "uint256"
            }
          ],
          "internalType": "struct UsersStruct.BusinessValue",
          "name": "bv",
          "type": "tuple"
        },
        {
          "components": [
            {
              "internalType": "uint256",
              "name": "date",
              "type": "uint256"
            },
            {
              "internalType": "uint256",
              "name": "order_id",
              "type": "uint256"
            },
            {
              "internalType": "uint256",
              "name": "bv_level",
              "type": "uint256"
            }
          ],
          "internalType": "struct UsersStruct.LastOrder",
          "name": "last_order",
          "type": "tuple"
        },
        {
          "internalType": "uint256",
          "name": "depth",
          "type": "uint256"
        },
        {
          "internalType": "uint256",
          "name": "pending_withdraw",
          "type": "uint256"
        },
        {
          "internalType": "uint256",
          "name": "levelup_count",
          "type": "uint256"
        },
        {
          "internalType": "uint256",
          "name": "lastweek",
          "type": "uint256"
        },
        {
          "internalType": "uint256",
          "name": "step",
          "type": "uint256"
        },
        {
          "internalType": "uint256",
          "name": "pending_voucher",
          "type": "uint256"
        },
        {
          "internalType": "bool",
          "name": "exists",
          "type": "bool"
        },
        {
          "internalType": "bytes32",
          "name": "data",
          "type": "bytes32"
        }
      ],
      "stateMutability": "view",
      "type": "function"
    },
    {
      "inputs": [
        {
          "internalType": "uint256",
          "name": "",
          "type": "uint256"
        },
        {
          "internalType": "uint256",
          "name": "",
          "type": "uint256"
        }
      ],
      "name": "UsersPaths",
      "outputs": [
        {
          "internalType": "bytes32",
          "name": "",
          "type": "bytes32"
        }
      ],
      "stateMutability": "view",
      "type": "function"
    },
    {
      "inputs": [
        {
          "internalType": "uint256",
          "name": "",
          "type": "uint256"
        },
        {
          "internalType": "uint256",
          "name": "",
          "type": "uint256"
        }
      ],
      "name": "UsersPathsHash",
      "outputs": [
        {
          "internalType": "bytes32",
          "name": "",
          "type": "bytes32"
        }
      ],
      "stateMutability": "view",
      "type": "function"
    },
    {
      "inputs": [
        {
          "components": [
            {
              "internalType": "uint256",
              "name": "left",
              "type": "uint256"
            },
            {
              "internalType": "uint256",
              "name": "right",
              "type": "uint256"
            },
            {
              "internalType": "uint256",
              "name": "allLeft",
              "type": "uint256"
            },
            {
              "internalType": "uint256",
              "name": "allRight",
              "type": "uint256"
            },
            {
              "internalType": "uint256",
              "name": "bv_level",
              "type": "uint256"
            },
            {
              "internalType": "address",
              "name": "user_address",
              "type": "address"
            },
            {
              "internalType": "address",
              "name": "parent_address",
              "type": "address"
            },
            {
              "internalType": "uint256",
              "name": "level_up_date",
              "type": "uint256"
            }
          ],
          "internalType": "struct UsersStruct.ImportUser[]",
          "name": "users",
          "type": "tuple[]"
        }
      ],
      "name": "addUserBulk",
      "outputs": [],
      "stateMutability": "nonpayable",
      "type": "function"
    },
    {
      "inputs": [
        {
          "internalType": "uint256[]",
          "name": "ordersId",
          "type": "uint256[]"
        }
      ],
      "name": "calculate",
      "outputs": [],
      "stateMutability": "nonpayable",
      "type": "function"
    },
    {
      "inputs": [],
      "name": "calculateWeek",
      "outputs": [],
      "stateMutability": "nonpayable",
      "type": "function"
    },
    {
      "inputs": [],
      "name": "calculator",
      "outputs": [
        {
          "internalType": "contract Calculator",
          "name": "",
          "type": "address"
        }
      ],
      "stateMutability": "view",
      "type": "function"
    },
    {
      "inputs": [
        {
          "internalType": "address",
          "name": "wallet_address",
          "type": "address"
        }
      ],
      "name": "changeFeeWallet",
      "outputs": [],
      "stateMutability": "nonpayable",
      "type": "function"
    },
    {
      "inputs": [],
      "name": "dao",
      "outputs": [
        {
          "internalType": "address",
          "name": "",
          "type": "address"
        }
      ],
      "stateMutability": "view",
      "type": "function"
    },
    {
      "inputs": [],
      "name": "feeWallet",
      "outputs": [
        {
          "internalType": "address",
          "name": "",
          "type": "address"
        }
      ],
      "stateMutability": "view",
      "type": "function"
    },
    {
      "inputs": [
        {
          "internalType": "uint256",
          "name": "a",
          "type": "uint256"
        },
        {
          "internalType": "uint256",
          "name": "b",
          "type": "uint256"
        }
      ],
      "name": "floor",
      "outputs": [
        {
          "internalType": "uint256",
          "name": "",
          "type": "uint256"
        }
      ],
      "stateMutability": "pure",
      "type": "function"
    },
    {
      "inputs": [
        {
          "internalType": "address",
          "name": "owner",
          "type": "address"
        },
        {
          "internalType": "address",
          "name": "spender",
          "type": "address"
        }
      ],
      "name": "getAllowance",
      "outputs": [
        {
          "internalType": "uint256",
          "name": "",
          "type": "uint256"
        }
      ],
      "stateMutability": "view",
      "type": "function"
    },
    {
      "inputs": [
        {
          "internalType": "bytes1",
          "name": "b",
          "type": "bytes1"
        },
        {
          "internalType": "uint8",
          "name": "position",
          "type": "uint8"
        }
      ],
      "name": "getBit",
      "outputs": [
        {
          "internalType": "uint8",
          "name": "",
          "type": "uint8"
        }
      ],
      "stateMutability": "pure",
      "type": "function"
    },
    {
      "inputs": [
        {
          "internalType": "uint256",
          "name": "_order_id",
          "type": "uint256"
        }
      ],
      "name": "getOrderList",
      "outputs": [
        {
          "components": [
            {
              "internalType": "uint256",
              "name": "id",
              "type": "uint256"
            },
            {
              "internalType": "uint256",
              "name": "user_id",
              "type": "uint256"
            },
            {
              "internalType": "uint256",
              "name": "seller_id",
              "type": "uint256"
            },
            {
              "internalType": "uint256",
              "name": "bv_value",
              "type": "uint256"
            },
            {
              "internalType": "uint256",
              "name": "sv_value",
              "type": "uint256"
            },
            {
              "internalType": "uint256",
              "name": "seller_token",
              "type": "uint256"
            },
            {
              "internalType": "uint256",
              "name": "date",
              "type": "uint256"
            },
            {
              "internalType": "bytes32",
              "name": "data",
              "type": "bytes32"
            },
            {
              "internalType": "bool",
              "name": "exists",
              "type": "bool"
            }
          ],
          "internalType": "struct OrdersStruct.Order",
          "name": "order",
          "type": "tuple"
        }
      ],
      "stateMutability": "view",
      "type": "function"
    },
    {
      "inputs": [
        {
          "internalType": "uint256",
          "name": "fromId",
          "type": "uint256"
        },
        {
          "internalType": "uint256",
          "name": "toId",
          "type": "uint256"
        }
      ],
      "name": "getOrderLists",
      "outputs": [
        {
          "components": [
            {
              "internalType": "uint256",
              "name": "id",
              "type": "uint256"
            },
            {
              "internalType": "uint256",
              "name": "user_id",
              "type": "uint256"
            },
            {
              "internalType": "uint256",
              "name": "seller_id",
              "type": "uint256"
            },
            {
              "internalType": "uint256",
              "name": "bv_value",
              "type": "uint256"
            },
            {
              "internalType": "uint256",
              "name": "sv_value",
              "type": "uint256"
            },
            {
              "internalType": "uint256",
              "name": "seller_token",
              "type": "uint256"
            },
            {
              "internalType": "uint256",
              "name": "date",
              "type": "uint256"
            },
            {
              "internalType": "bytes32",
              "name": "data",
              "type": "bytes32"
            },
            {
              "internalType": "bool",
              "name": "exists",
              "type": "bool"
            }
          ],
          "internalType": "struct OrdersStruct.Order[]",
          "name": "",
          "type": "tuple[]"
        }
      ],
      "stateMutability": "view",
      "type": "function"
    },
    {
      "inputs": [
        {
          "internalType": "uint256",
          "name": "_seller_id",
          "type": "uint256"
        },
        {
          "internalType": "bool",
          "name": "ignore_vaildation",
          "type": "bool"
        }
      ],
      "name": "getSeller",
      "outputs": [
        {
          "components": [
            {
              "internalType": "uint256",
              "name": "id",
              "type": "uint256"
            },
            {
              "internalType": "address",
              "name": "seller_addr",
              "type": "address"
            },
            {
              "internalType": "uint256",
              "name": "bv_value",
              "type": "uint256"
            },
            {
              "internalType": "uint256",
              "name": "token_withdraw_value",
              "type": "uint256"
            },
            {
              "internalType": "uint256",
              "name": "dnm_withdraw",
              "type": "uint256"
            },
            {
              "internalType": "bool",
              "name": "exists",
              "type": "bool"
            }
          ],
          "internalType": "struct Sellers.Seller",
          "name": "",
          "type": "tuple"
        }
      ],
      "stateMutability": "view",
      "type": "function"
    },
    {
      "inputs": [
        {
          "internalType": "uint256",
          "name": "fromId",
          "type": "uint256"
        },
        {
          "internalType": "uint256",
          "name": "toId",
          "type": "uint256"
        }
      ],
      "name": "getSellerList",
      "outputs": [
        {
          "components": [
            {
              "internalType": "uint256",
              "name": "id",
              "type": "uint256"
            },
            {
              "internalType": "address",
              "name": "seller_addr",
              "type": "address"
            },
            {
              "internalType": "uint256",
              "name": "bv_value",
              "type": "uint256"
            },
            {
              "internalType": "uint256",
              "name": "token_withdraw_value",
              "type": "uint256"
            },
            {
              "internalType": "uint256",
              "name": "dnm_withdraw",
              "type": "uint256"
            },
            {
              "internalType": "bool",
              "name": "exists",
              "type": "bool"
            }
          ],
          "internalType": "struct Sellers.Seller[]",
          "name": "",
          "type": "tuple[]"
        }
      ],
      "stateMutability": "view",
      "type": "function"
    },
    {
      "inputs": [
        {
          "internalType": "uint256",
          "name": "_user_id",
          "type": "uint256"
        },
        {
          "internalType": "bool",
          "name": "ignore_validation",
          "type": "bool"
        }
      ],
      "name": "getUser",
      "outputs": [
        {
          "internalType": "address",
          "name": "",
          "type": "address"
        },
        {
          "components": [
            {
              "internalType": "uint256",
              "name": "id",
              "type": "uint256"
            },
            {
              "components": [
                {
                  "internalType": "uint256",
                  "name": "left",
                  "type": "uint256"
                },
                {
                  "internalType": "uint256",
                  "name": "right",
                  "type": "uint256"
                },
                {
                  "internalType": "uint256",
                  "name": "all_left",
                  "type": "uint256"
                },
                {
                  "internalType": "uint256",
                  "name": "all_right",
                  "type": "uint256"
                },
                {
                  "internalType": "uint256",
                  "name": "dir",
                  "type": "uint256"
                },
                {
                  "internalType": "uint256",
                  "name": "level",
                  "type": "uint256"
                },
                {
                  "internalType": "uint256",
                  "name": "summ",
                  "type": "uint256"
                },
                {
                  "internalType": "uint256",
                  "name": "dnm_withdraw",
                  "type": "uint256"
                }
              ],
              "internalType": "struct UsersStruct.BusinessValue",
              "name": "bv",
              "type": "tuple"
            },
            {
              "components": [
                {
                  "internalType": "uint256",
                  "name": "date",
                  "type": "uint256"
                },
                {
                  "internalType": "uint256",
                  "name": "order_id",
                  "type": "uint256"
                },
                {
                  "internalType": "uint256",
                  "name": "bv_level",
                  "type": "uint256"
                }
              ],
              "internalType": "struct UsersStruct.LastOrder",
              "name": "last_order",
              "type": "tuple"
            },
            {
              "internalType": "uint256",
              "name": "depth",
              "type": "uint256"
            },
            {
              "internalType": "uint256",
              "name": "pending_withdraw",
              "type": "uint256"
            },
            {
              "internalType": "uint256",
              "name": "levelup_count",
              "type": "uint256"
            },
            {
              "internalType": "uint256",
              "name": "lastweek",
              "type": "uint256"
            },
            {
              "internalType": "uint256",
              "name": "step",
              "type": "uint256"
            },
            {
              "internalType": "uint256",
              "name": "pending_voucher",
              "type": "uint256"
            },
            {
              "internalType": "bool",
              "name": "exists",
              "type": "bool"
            },
            {
              "internalType": "bytes32",
              "name": "data",
              "type": "bytes32"
            }
          ],
          "internalType": "struct UsersStruct.User",
          "name": "",
          "type": "tuple"
        }
      ],
      "stateMutability": "view",
      "type": "function"
    },
    {
      "inputs": [
        {
          "internalType": "address",
          "name": "user_address",
          "type": "address"
        }
      ],
      "name": "getUser",
      "outputs": [
        {
          "components": [
            {
              "internalType": "uint256",
              "name": "id",
              "type": "uint256"
            },
            {
              "components": [
                {
                  "internalType": "uint256",
                  "name": "left",
                  "type": "uint256"
                },
                {
                  "internalType": "uint256",
                  "name": "right",
                  "type": "uint256"
                },
                {
                  "internalType": "uint256",
                  "name": "all_left",
                  "type": "uint256"
                },
                {
                  "internalType": "uint256",
                  "name": "all_right",
                  "type": "uint256"
                },
                {
                  "internalType": "uint256",
                  "name": "dir",
                  "type": "uint256"
                },
                {
                  "internalType": "uint256",
                  "name": "level",
                  "type": "uint256"
                },
                {
                  "internalType": "uint256",
                  "name": "summ",
                  "type": "uint256"
                },
                {
                  "internalType": "uint256",
                  "name": "dnm_withdraw",
                  "type": "uint256"
                }
              ],
              "internalType": "struct UsersStruct.BusinessValue",
              "name": "bv",
              "type": "tuple"
            },
            {
              "components": [
                {
                  "internalType": "uint256",
                  "name": "date",
                  "type": "uint256"
                },
                {
                  "internalType": "uint256",
                  "name": "order_id",
                  "type": "uint256"
                },
                {
                  "internalType": "uint256",
                  "name": "bv_level",
                  "type": "uint256"
                }
              ],
              "internalType": "struct UsersStruct.LastOrder",
              "name": "last_order",
              "type": "tuple"
            },
            {
              "internalType": "uint256",
              "name": "depth",
              "type": "uint256"
            },
            {
              "internalType": "uint256",
              "name": "pending_withdraw",
              "type": "uint256"
            },
            {
              "internalType": "uint256",
              "name": "levelup_count",
              "type": "uint256"
            },
            {
              "internalType": "uint256",
              "name": "lastweek",
              "type": "uint256"
            },
            {
              "internalType": "uint256",
              "name": "step",
              "type": "uint256"
            },
            {
              "internalType": "uint256",
              "name": "pending_voucher",
              "type": "uint256"
            },
            {
              "internalType": "bool",
              "name": "exists",
              "type": "bool"
            },
            {
              "internalType": "bytes32",
              "name": "data",
              "type": "bytes32"
            }
          ],
          "internalType": "struct UsersStruct.User",
          "name": "user",
          "type": "tuple"
        }
      ],
      "stateMutability": "view",
      "type": "function"
    },
    {
      "inputs": [
        {
          "internalType": "uint256",
          "name": "fromId",
          "type": "uint256"
        },
        {
          "internalType": "uint256",
          "name": "toId",
          "type": "uint256"
        }
      ],
      "name": "getUserList",
      "outputs": [
        {
          "components": [
            {
              "components": [
                {
                  "internalType": "uint256",
                  "name": "id",
                  "type": "uint256"
                },
                {
                  "components": [
                    {
                      "internalType": "uint256",
                      "name": "left",
                      "type": "uint256"
                    },
                    {
                      "internalType": "uint256",
                      "name": "right",
                      "type": "uint256"
                    },
                    {
                      "internalType": "uint256",
                      "name": "all_left",
                      "type": "uint256"
                    },
                    {
                      "internalType": "uint256",
                      "name": "all_right",
                      "type": "uint256"
                    },
                    {
                      "internalType": "uint256",
                      "name": "dir",
                      "type": "uint256"
                    },
                    {
                      "internalType": "uint256",
                      "name": "level",
                      "type": "uint256"
                    },
                    {
                      "internalType": "uint256",
                      "name": "summ",
                      "type": "uint256"
                    },
                    {
                      "internalType": "uint256",
                      "name": "dnm_withdraw",
                      "type": "uint256"
                    }
                  ],
                  "internalType": "struct UsersStruct.BusinessValue",
                  "name": "bv",
                  "type": "tuple"
                },
                {
                  "components": [
                    {
                      "internalType": "uint256",
                      "name": "date",
                      "type": "uint256"
                    },
                    {
                      "internalType": "uint256",
                      "name": "order_id",
                      "type": "uint256"
                    },
                    {
                      "internalType": "uint256",
                      "name": "bv_level",
                      "type": "uint256"
                    }
                  ],
                  "internalType": "struct UsersStruct.LastOrder",
                  "name": "last_order",
                  "type": "tuple"
                },
                {
                  "internalType": "uint256",
                  "name": "depth",
                  "type": "uint256"
                },
                {
                  "internalType": "uint256",
                  "name": "pending_withdraw",
                  "type": "uint256"
                },
                {
                  "internalType": "uint256",
                  "name": "levelup_count",
                  "type": "uint256"
                },
                {
                  "internalType": "uint256",
                  "name": "lastweek",
                  "type": "uint256"
                },
                {
                  "internalType": "uint256",
                  "name": "step",
                  "type": "uint256"
                },
                {
                  "internalType": "uint256",
                  "name": "pending_voucher",
                  "type": "uint256"
                },
                {
                  "internalType": "bool",
                  "name": "exists",
                  "type": "bool"
                },
                {
                  "internalType": "bytes32",
                  "name": "data",
                  "type": "bytes32"
                }
              ],
              "internalType": "struct UsersStruct.User",
              "name": "user",
              "type": "tuple"
            },
            {
              "internalType": "address",
              "name": "user_address",
              "type": "address"
            }
          ],
          "internalType": "struct UsersStruct.UserInfo[]",
          "name": "",
          "type": "tuple[]"
        }
      ],
      "stateMutability": "view",
      "type": "function"
    },
    {
      "inputs": [
        {
          "components": [
            {
              "internalType": "uint256",
              "name": "id",
              "type": "uint256"
            },
            {
              "components": [
                {
                  "internalType": "uint256",
                  "name": "left",
                  "type": "uint256"
                },
                {
                  "internalType": "uint256",
                  "name": "right",
                  "type": "uint256"
                },
                {
                  "internalType": "uint256",
                  "name": "all_left",
                  "type": "uint256"
                },
                {
                  "internalType": "uint256",
                  "name": "all_right",
                  "type": "uint256"
                },
                {
                  "internalType": "uint256",
                  "name": "dir",
                  "type": "uint256"
                },
                {
                  "internalType": "uint256",
                  "name": "level",
                  "type": "uint256"
                },
                {
                  "internalType": "uint256",
                  "name": "summ",
                  "type": "uint256"
                },
                {
                  "internalType": "uint256",
                  "name": "dnm_withdraw",
                  "type": "uint256"
                }
              ],
              "internalType": "struct UsersStruct.BusinessValue",
              "name": "bv",
              "type": "tuple"
            },
            {
              "components": [
                {
                  "internalType": "uint256",
                  "name": "date",
                  "type": "uint256"
                },
                {
                  "internalType": "uint256",
                  "name": "order_id",
                  "type": "uint256"
                },
                {
                  "internalType": "uint256",
                  "name": "bv_level",
                  "type": "uint256"
                }
              ],
              "internalType": "struct UsersStruct.LastOrder",
              "name": "last_order",
              "type": "tuple"
            },
            {
              "internalType": "uint256",
              "name": "depth",
              "type": "uint256"
            },
            {
              "internalType": "uint256",
              "name": "pending_withdraw",
              "type": "uint256"
            },
            {
              "internalType": "uint256",
              "name": "levelup_count",
              "type": "uint256"
            },
            {
              "internalType": "uint256",
              "name": "lastweek",
              "type": "uint256"
            },
            {
              "internalType": "uint256",
              "name": "step",
              "type": "uint256"
            },
            {
              "internalType": "uint256",
              "name": "pending_voucher",
              "type": "uint256"
            },
            {
              "internalType": "bool",
              "name": "exists",
              "type": "bool"
            },
            {
              "internalType": "bytes32",
              "name": "data",
              "type": "bytes32"
            }
          ],
          "internalType": "struct UsersStruct.User",
          "name": "parent",
          "type": "tuple"
        },
        {
          "components": [
            {
              "internalType": "uint256",
              "name": "id",
              "type": "uint256"
            },
            {
              "components": [
                {
                  "internalType": "uint256",
                  "name": "left",
                  "type": "uint256"
                },
                {
                  "internalType": "uint256",
                  "name": "right",
                  "type": "uint256"
                },
                {
                  "internalType": "uint256",
                  "name": "all_left",
                  "type": "uint256"
                },
                {
                  "internalType": "uint256",
                  "name": "all_right",
                  "type": "uint256"
                },
                {
                  "internalType": "uint256",
                  "name": "dir",
                  "type": "uint256"
                },
                {
                  "internalType": "uint256",
                  "name": "level",
                  "type": "uint256"
                },
                {
                  "internalType": "uint256",
                  "name": "summ",
                  "type": "uint256"
                },
                {
                  "internalType": "uint256",
                  "name": "dnm_withdraw",
                  "type": "uint256"
                }
              ],
              "internalType": "struct UsersStruct.BusinessValue",
              "name": "bv",
              "type": "tuple"
            },
            {
              "components": [
                {
                  "internalType": "uint256",
                  "name": "date",
                  "type": "uint256"
                },
                {
                  "internalType": "uint256",
                  "name": "order_id",
                  "type": "uint256"
                },
                {
                  "internalType": "uint256",
                  "name": "bv_level",
                  "type": "uint256"
                }
              ],
              "internalType": "struct UsersStruct.LastOrder",
              "name": "last_order",
              "type": "tuple"
            },
            {
              "internalType": "uint256",
              "name": "depth",
              "type": "uint256"
            },
            {
              "internalType": "uint256",
              "name": "pending_withdraw",
              "type": "uint256"
            },
            {
              "internalType": "uint256",
              "name": "levelup_count",
              "type": "uint256"
            },
            {
              "internalType": "uint256",
              "name": "lastweek",
              "type": "uint256"
            },
            {
              "internalType": "uint256",
              "name": "step",
              "type": "uint256"
            },
            {
              "internalType": "uint256",
              "name": "pending_voucher",
              "type": "uint256"
            },
            {
              "internalType": "bool",
              "name": "exists",
              "type": "bool"
            },
            {
              "internalType": "bytes32",
              "name": "data",
              "type": "bytes32"
            }
          ],
          "internalType": "struct UsersStruct.User",
          "name": "child",
          "type": "tuple"
        }
      ],
      "name": "isChildOfParent",
      "outputs": [
        {
          "internalType": "bool",
          "name": "",
          "type": "bool"
        },
        {
          "internalType": "uint8",
          "name": "",
          "type": "uint8"
        }
      ],
      "stateMutability": "nonpayable",
      "type": "function"
    },
    {
      "inputs": [],
      "name": "isDev",
      "outputs": [
        {
          "internalType": "bool",
          "name": "",
          "type": "bool"
        }
      ],
      "stateMutability": "view",
      "type": "function"
    },
    {
      "inputs": [],
      "name": "last_withdrawal_time",
      "outputs": [
        {
          "internalType": "uint256",
          "name": "",
          "type": "uint256"
        }
      ],
      "stateMutability": "view",
      "type": "function"
    },
    {
      "inputs": [],
      "name": "level_up_data_index",
      "outputs": [
        {
          "internalType": "uint256",
          "name": "",
          "type": "uint256"
        }
      ],
      "stateMutability": "view",
      "type": "function"
    },
    {
      "inputs": [],
      "name": "order_id",
      "outputs": [
        {
          "internalType": "uint256",
          "name": "",
          "type": "uint256"
        }
      ],
      "stateMutability": "view",
      "type": "function"
    },
    {
      "inputs": [],
      "name": "owner",
      "outputs": [
        {
          "internalType": "address",
          "name": "",
          "type": "address"
        }
      ],
      "stateMutability": "view",
      "type": "function"
    },
    {
      "inputs": [
        {
          "components": [
            {
              "internalType": "uint256",
              "name": "bv_value",
              "type": "uint256"
            },
            {
              "internalType": "uint256",
              "name": "sv_value",
              "type": "uint256"
            },
            {
              "internalType": "uint256",
              "name": "seller_token",
              "type": "uint256"
            },
            {
              "internalType": "address",
              "name": "seller_address",
              "type": "address"
            },
            {
              "internalType": "bytes32",
              "name": "data",
              "type": "bytes32"
            }
          ],
          "internalType": "struct Payments.PaymentData",
          "name": "_payment",
          "type": "tuple"
        },
        {
          "internalType": "address",
          "name": "parent_addr",
          "type": "address"
        },
        {
          "internalType": "address",
          "name": "call_back",
          "type": "address"
        }
      ],
      "name": "payment",
      "outputs": [
        {
          "internalType": "uint256",
          "name": "",
          "type": "uint256"
        }
      ],
      "stateMutability": "nonpayable",
      "type": "function"
    },
    {
      "inputs": [
        {
          "components": [
            {
              "internalType": "uint256",
              "name": "bv_value",
              "type": "uint256"
            },
            {
              "internalType": "uint256",
              "name": "sv_value",
              "type": "uint256"
            },
            {
              "internalType": "uint256",
              "name": "seller_token",
              "type": "uint256"
            },
            {
              "internalType": "address",
              "name": "seller_address",
              "type": "address"
            },
            {
              "internalType": "bytes32",
              "name": "data",
              "type": "bytes32"
            }
          ],
          "internalType": "struct Payments.PaymentData",
          "name": "_payment",
          "type": "tuple"
        },
        {
          "internalType": "uint256",
          "name": "parent_id",
          "type": "uint256"
        },
        {
          "internalType": "address",
          "name": "call_back",
          "type": "address"
        }
      ],
      "name": "payment",
      "outputs": [
        {
          "internalType": "uint256",
          "name": "",
          "type": "uint256"
        }
      ],
      "stateMutability": "nonpayable",
      "type": "function"
    },
    {
      "inputs": [
        {
          "components": [
            {
              "internalType": "uint256",
              "name": "bv_value",
              "type": "uint256"
            },
            {
              "internalType": "uint256",
              "name": "sv_value",
              "type": "uint256"
            },
            {
              "internalType": "uint256",
              "name": "seller_token",
              "type": "uint256"
            },
            {
              "internalType": "address",
              "name": "seller_address",
              "type": "address"
            },
            {
              "internalType": "bytes32",
              "name": "data",
              "type": "bytes32"
            }
          ],
          "internalType": "struct Payments.PaymentData",
          "name": "_payment",
          "type": "tuple"
        },
        {
          "internalType": "address",
          "name": "payer_user",
          "type": "address"
        },
        {
          "internalType": "address",
          "name": "from_user",
          "type": "address"
        },
        {
          "internalType": "uint256",
          "name": "parent_id",
          "type": "uint256"
        }
      ],
      "name": "paymentFrom",
      "outputs": [
        {
          "internalType": "uint256",
          "name": "",
          "type": "uint256"
        }
      ],
      "stateMutability": "nonpayable",
      "type": "function"
    },
    {
      "inputs": [
        {
          "components": [
            {
              "internalType": "uint256",
              "name": "bv_value",
              "type": "uint256"
            },
            {
              "internalType": "uint256",
              "name": "sv_value",
              "type": "uint256"
            },
            {
              "internalType": "uint256",
              "name": "seller_token",
              "type": "uint256"
            },
            {
              "internalType": "address",
              "name": "seller_address",
              "type": "address"
            },
            {
              "internalType": "bytes32",
              "name": "data",
              "type": "bytes32"
            }
          ],
          "internalType": "struct Payments.PaymentData",
          "name": "_payment",
          "type": "tuple"
        },
        {
          "internalType": "address",
          "name": "payer_user",
          "type": "address"
        },
        {
          "internalType": "address",
          "name": "from_user",
          "type": "address"
        },
        {
          "internalType": "address",
          "name": "parent_addr",
          "type": "address"
        }
      ],
      "name": "paymentFrom",
      "outputs": [
        {
          "internalType": "uint256",
          "name": "",
          "type": "uint256"
        }
      ],
      "stateMutability": "nonpayable",
      "type": "function"
    },
    {
      "inputs": [],
      "name": "renounceOwnership",
      "outputs": [],
      "stateMutability": "nonpayable",
      "type": "function"
    },
    {
      "inputs": [
        {
          "internalType": "address",
          "name": "spender",
          "type": "address"
        }
      ],
      "name": "revokeAllowance",
      "outputs": [],
      "stateMutability": "nonpayable",
      "type": "function"
    },
    {
      "inputs": [],
      "name": "seller_id",
      "outputs": [
        {
          "internalType": "uint256",
          "name": "",
          "type": "uint256"
        }
      ],
      "stateMutability": "view",
      "type": "function"
    },
    {
      "inputs": [
        {
          "internalType": "uint256",
          "name": "amount",
          "type": "uint256"
        }
      ],
      "name": "seller_withraw_dnm",
      "outputs": [],
      "stateMutability": "nonpayable",
      "type": "function"
    },
    {
      "inputs": [
        {
          "internalType": "address",
          "name": "spender",
          "type": "address"
        },
        {
          "internalType": "uint256",
          "name": "amount",
          "type": "uint256"
        }
      ],
      "name": "setAllowance",
      "outputs": [],
      "stateMutability": "nonpayable",
      "type": "function"
    },
    {
      "inputs": [
        {
          "internalType": "address",
          "name": "cal",
          "type": "address"
        }
      ],
      "name": "setCalculator",
      "outputs": [],
      "stateMutability": "nonpayable",
      "type": "function"
    },
    {
      "inputs": [],
      "name": "switchToProduction",
      "outputs": [],
      "stateMutability": "nonpayable",
      "type": "function"
    },
    {
      "inputs": [
        {
          "internalType": "address",
          "name": "newOwner",
          "type": "address"
        }
      ],
      "name": "transferOwnership",
      "outputs": [],
      "stateMutability": "nonpayable",
      "type": "function"
    },
    {
      "inputs": [],
      "name": "user_id",
      "outputs": [
        {
          "internalType": "uint256",
          "name": "",
          "type": "uint256"
        }
      ],
      "stateMutability": "view",
      "type": "function"
    },
    {
      "inputs": [
        {
          "internalType": "uint256",
          "name": "amount",
          "type": "uint256"
        }
      ],
      "name": "user_withraw_dnm",
      "outputs": [],
      "stateMutability": "nonpayable",
      "type": "function"
    },
    {
      "inputs": [
        {
          "internalType": "uint256",
          "name": "amount",
          "type": "uint256"
        }
      ],
      "name": "user_withraw_dnm_voucher",
      "outputs": [],
      "stateMutability": "nonpayable",
      "type": "function"
    },
    {
      "inputs": [],
      "name": "withdrawToken1Balance",
      "outputs": [],
      "stateMutability": "nonpayable",
      "type": "function"
    },
    {
      "inputs": [],
      "name": "withdrawToken2Balance",
      "outputs": [],
      "stateMutability": "nonpayable",
      "type": "function"
    },
    {
      "inputs": [
        {
          "internalType": "uint256",
          "name": "withdraw_amount",
          "type": "uint256"
        },
        {
          "internalType": "address",
          "name": "withdrawal_address",
          "type": "address"
        }
      ],
      "name": "withdrawWithDao",
      "outputs": [],
      "stateMutability": "nonpayable",
      "type": "function"
    }
  ],
  "bytecode": "0x60806040526000805460ff60a01b1916600160a01b1790556a04f68ca6d8cd91c600000060185569d3c21bcecceda1000000601a556a027b46536c66c8e3000000601c553480156200005057600080fd5b50604051620057743803806200577483398101604081905262000073916200030a565b8533806200009b57604051631e4fbdf760e01b81526000600482015260240160405180910390fd5b620000a6816200029d565b506001600d81905560138054336001600160a01b0319918216179091556016805482166001600160a01b039485161790558180556003829055600e829055601995909555601b93909355601d91909155601180548416988216989098179097556012805483169688169690961790955560148054821692871692909217909155600c80549091169190941617909255600b60205260007f71f482bdabd1ea844d62c952b094e632959690d7448ca2aab34034ec98569358819055680393ef1a5127c800007ff5559028dc9ba50d75343c779b2f75e13a84a14662932fc67a486f263ca31a9655680727de34a24f9000007f0387e9d1203691d8e3362a7e4c6723de358a4010d7f31ecbec3fbfc61d1c75fc556811e3ab8395c6e800007febae6141bae5521e99e0a8d610356b0f501fea54980b59c84841db43ba7204f4556823c757072b8dd000007f12d0c11577e2f0950f57c455c117796550b79f444811db8ba2f69c57b646c7845568478eae0e571ba000007f64c15cc42be7899b001f818cf4433057002112c418d1d3a67cd5cb453051d33e5568b2e4b323d9c51000007fa50eece07c7db1631545c0069bd8f5f54d5935e215d59097edf258a44ba91634555250690165c96647b38a2000007f72c6bfb7988af3a1efa6568f02a999bc52252641c659d85961ca3d372b57d5cf5562000397565b600080546001600160a01b038381166001600160a01b0319831681178455604051919092169283917f8be0079c531659141344cd1fd0a4f28419497f9722a3daafe3b4186f6b6457e09190a35050565b80516001600160a01b03811681146200030557600080fd5b919050565b600080600080600080600080610100898b0312156200032857600080fd5b6200033389620002ed565b97506200034360208a01620002ed565b96506200035360408a01620002ed565b95506200036360608a01620002ed565b94506200037360808a01620002ed565b935060a0890151925060c0890151915060e089015190509295985092959890939650565b6153cd80620003a76000396000f3fe608060405234801561001057600080fd5b50600436106103a45760003560e01c80638da5cb5b116101e9578063c2f29eb01161010f578063e6d3c18f116100ad578063f2fde38b1161007c578063f2fde38b14610aa3578063f781abc314610ab6578063f891831214610ac9578063fd163ef514610af457600080fd5b8063e6d3c18f14610939578063eb63a59e14610975578063f079914f14610a6c578063f25f4b5614610a9057600080fd5b8063d055ccfe116100e9578063d055ccfe14610902578063d6fb9f711461090a578063e37fe60b14610913578063e5d0a5041461092657600080fd5b8063c2f29eb0146108d4578063c53468f0146108dc578063ce3e39c0146108ef57600080fd5b8063ad11fe4411610187578063bb5d88fa11610156578063bb5d88fa14610885578063be379d5b1461088e578063bf159747146108a1578063c2afb683146108b457600080fd5b8063ad11fe4414610812578063b67ea63714610849578063b979142514610869578063ba19bdb21461087257600080fd5b80639b421b56116101c35780639b421b56146107d1578063a4baecc9146107e4578063a5d386f2146107f7578063ad0b224c1461080a57600080fd5b80638da5cb5b146107a457806391b51cb4146107b557806396a8797e146107be57600080fd5b806356e56826116102ce5780636615d4371161026c5780637548f4241161023b5780637548f424146106eb5780637b436480146106f45780637df6cc6f146106fd57806380658cf81461078457600080fd5b80636615d437146106b25780636f5cc3b9146106ba5780636f77926b146106c3578063715018a6146106e357600080fd5b80635d6fde8d116102a85780635d6fde8d146106705780635eacfdd414610683578063654157a01461068c5780636610e1731461069f57600080fd5b806356e568261461061d57806358db9768146106305780635c79347f1461065057600080fd5b80633ce0adeb116103465780634d343cb2116103155780634d343cb21461059557806350875687146105be578063511095b5146105ea578063514fbe50146105fd57600080fd5b80633ce0adeb146105235780633e4d03101461054e5780634162169f1461056157806344da319c1461057457600080fd5b8063120a521a11610382578063120a521a1461047a5780633070667f146104bb578063310ec4a7146104e05780633a125d4c1461051a57600080fd5b806306b099af146103a9578063073894b9146104505780630af4187d14610467575b600080fd5b6104056103b7366004614635565b60026020819052600091825260409091208054600182015492820154600383015460048401546005850154600686015460078701546008909701549597969495939492939192909160ff1689565b60408051998a5260208a0198909852968801959095526060870193909352608086019190915260a085015260c084015260e08301521515610100820152610120015b60405180910390f35b610459601a5481565b604051908152602001610447565b61045961047536600461466a565b610afd565b6104a3610488366004614635565b6008602052600090815260409020546001600160a01b031681565b6040516001600160a01b039091168152602001610447565b6104ce6104c936600461469d565b610b2a565b60405160ff9091168152602001610447565b6105186104ee3660046146e9565b3360009081526017602090815260408083206001600160a01b039590951683529390529190912055565b005b61045960195481565b610459610531366004614713565b600960209081526000928352604080842090915290825290205481565b61051861055c366004614735565b610b67565b6016546104a3906001600160a01b031681565b610587610582366004614769565b610b91565b604051610447929190614878565b6104a36105a3366004614635565b6010602052600090815260409020546001600160a01b031681565b6105d16105cc366004614aa3565b610d21565b60408051921515835260ff909116602083015201610447565b6104596105f8366004614713565b61108c565b61061061060b366004614713565b6110bd565b6040516104479190614ad1565b61045961062b366004614baa565b611368565b61064361063e366004614713565b61146a565b6040516104479190614c39565b61066361065e366004614635565b611614565b6040516104479190614cd7565b61051861067e366004614635565b611697565b610459601c5481565b61045961069a366004614ce6565b6117c8565b6104596106ad366004614d2a565b61188c565b6105186118bc565b61045960155481565b6106d66106d1366004614735565b611bd1565b6040516104479190614d5e565b610518611d13565b61045960045481565b610459600e5481565b61074d61070b366004614735565b600f6020526000908152604090208054600182015460028301546003840154600485015460059095015493946001600160a01b03909316939192909160ff1686565b604080519687526001600160a01b0390951660208701529385019290925260608401526080830152151560a082015260c001610447565b610797610792366004614713565b611d27565b6040516104479190614d6d565b6000546001600160a01b03166104a3565b610459601d5481565b6011546104a3906001600160a01b031681565b6104596107df366004614db0565b611ecd565b6012546104a3906001600160a01b031681565b610518610805366004614635565b611fa1565b61051861210d565b610518610820366004614735565b3360009081526017602090815260408083206001600160a01b0394909416835292905290812055565b61085c610857366004614769565b612267565b6040516104479190614e06565b61045960015481565b610518610880366004614e38565b612321565b61045960035481565b61045961089c366004614713565b612a99565b6105186108af366004614635565b612aa5565b6104596108c2366004614635565b600b6020526000908152604090205481565b610518612bfa565b6105186108ea366004614735565b612c11565b600c546104a3906001600160a01b031681565b610518612c5e565b61045960185481565b6014546104a3906001600160a01b031681565b610518610934366004614ece565b612d3d565b610960610947366004614635565b6007602052600090815260409020805460019091015482565b60408051928352602083019190915201610447565b610a55610983366004614735565b6005602081815260009283526040928390208054845161010081018652600183015481526002830154818501526003830154818701526004830154606080830191909152948301546080820152600683015460a0820152600783015460c0820152600883015460e08201528551948501865260098301548552600a83015493850193909352600b82015494840194909452600c810154600d820154600e830154600f84015460108501546011860154601287015460139097015497989795969495939492939192909160ff909116908b565b6040516104479b9a99989796959493929190614fc5565b600054610a8090600160a01b900460ff1681565b6040519015158152602001610447565b6013546104a3906001600160a01b031681565b610518610ab1366004614735565b612ecf565b610518610ac436600461503e565b612f0a565b610459610ad7366004614713565b600a60209081526000928352604080842090915290825290205481565b610459601b5481565b6001600160a01b038083166000908152601760209081526040808320938516835292905220545b92915050565b600080610b38836007615077565b600160ff919091161b905060f884901c808216610b56856007615077565b60ff91821691161c95945050505050565b610b6f613098565b601380546001600160a01b0319166001600160a01b0392909216919091179055565b6000610b9b61445c565b6000848152600860205260409020546001600160a01b031680158015610bbf575083155b15610bdd576040516319c29a3360e21b815260040160405180910390fd5b8060056000836001600160a01b03166001600160a01b0316815260200190815260200160002080604051806101600160405290816000820154815260200160018201604051806101000160405290816000820154815260200160018201548152602001600282015481526020016003820154815260200160048201548152602001600582015481526020016006820154815260200160078201548152505081526020016009820160405180606001604052908160008201548152602001600182015481526020016002820154815250508152602001600c8201548152602001600d8201548152602001600e8201548152602001600f820154815260200160108201548152602001601182015481526020016012820160009054906101000a900460ff16151515158152602001601382015481525050905092509250505b9250929050565b6000808260600151846060015110610d3f575060009050600a610d1a565b60006101008560600151610d5391906150a6565b905060006101008660600151610d6991906150ba565b90508115610ee5578015610de95784516000908152600a6020526040812090610d936001856150ce565b8152602080820192909252604090810160009081205489518252600a90935290812090610dc16001866150ce565b81526020019081526020016000205414610de4576000600b935093505050610d1a565b610ee5565b600060018311610e03576647656e6573697360c81b610e2f565b86516000908152600a6020526040812090610e1f6002866150ce565b8152602001908152602001600020545b8751600090815260096020526040812091925090829082610e516001886150ce565b815260200190815260200160002054604051602001610e7a929190918252602082015260400190565b60408051601f1981840301815291815281516020808401919091208a516000908152600a909252918120929350909181610eb56001896150ce565b8152602001908152602001600020549050808214610ee0576000606f97509750505050505050610d1a565b505050505b6000610ef26008836150a6565b9050600a6000805b83811161102a5760005b60088160ff1610156110175782610f1a816150e1565b93505085831115610f6657895160009081526009602090815260408083208a8452825290912054610f5f9184908110610f5557610f556150fa565b1a60f81b82610b2a565b9350611017565b8a5160009081526009602090815260408083208a84528252822054610f9f9185908110610f9557610f956150fa565b1a60f81b83610b2a565b8b5160009081526009602090815260408083208c845282528220549293509091610fdd9186908110610fd357610fd36150fa565b1a60f81b84610b2a565b90508060ff168260ff1614611002576000600c9a509a50505050505050505050610d1a565b5050808061100f90615110565b915050610f04565b5080611022816150e1565b915050610efa565b5060028260ff161061107c5760405162461bcd60e51b8152602060048201526016602482015275736f6d657468696e672077656e742077726f6e67202160501b60448201526064015b60405180910390fd5b5060019890975095505050505050565b600660205281600052604060002081815481106110a857600080fd5b90600052602060002001600091509150505481565b6060828260018210156110e657604051633a2bd95560e11b815260048101839052602401611073565b8082106111105760405163d427f71f60e01b81526004810182905260248101839052604401611073565b60035484111561113657604051633322840360e11b815260048101859052602401611073565b600061114286866150ce565b67ffffffffffffffff81111561115a5761115a614896565b60405190808252806020026020018201604052801561119357816020015b611180614523565b8152602001906001900390816111785790505b50905060005b6111a387876150ce565b81101561135e5760006008816111b9848b61512f565b815260200190815260200160002060009054906101000a90046001600160a01b03169050604051806040016040528060056000846001600160a01b03166001600160a01b03168152602001908152602001600020604051806101600160405290816000820154815260200160018201604051806101000160405290816000820154815260200160018201548152602001600282015481526020016003820154815260200160048201548152602001600582015481526020016006820154815260200160078201548152505081526020016009820160405180606001604052908160008201548152602001600182015481526020016002820154815250508152602001600c8201548152602001600d8201548152602001600e8201548152602001600f820154815260200160108201548152602001601182015481526020016012820160009054906101000a900460ff161515151581526020016013820154815250508152602001826001600160a01b031681525083838151811061133f5761133f6150fa565b6020026020010181905250508080611356906150e1565b915050611199565b5095945050505050565b60006113726130c5565b336001600160a01b03851614611430576020808601516001600160a01b0386166000908152601783526040808220338352909352919091205410156113f25760405162461bcd60e51b8152602060048201526016602482015275185b1b1bddd85b98d9481a5cc81b9bdd081d985b1a5960521b6044820152606401611073565b6020808601516001600160a01b038616600090815260178352604080822033835290935291822080549192909161142a9084906150ce565b90915550505b60008281526008602052604090205461145690859085906001600160a01b0316886130ef565b90506114626001600d55565b949350505050565b60608282600182101561149357604051633a2bd95560e11b815260048101839052602401611073565b8082106114bd5760405163d427f71f60e01b81526004810182905260248101839052604401611073565b600e548411156114e357604051633322840360e11b815260048101859052602401611073565b60006114ef86866150ce565b67ffffffffffffffff81111561150757611507614896565b60405190808252806020026020018201604052801561154057816020015b61152d614543565b8152602001906001900390816115255790505b50905060005b61155087876150ce565b81101561135e576000601081611566848b61512f565b815260208082019290925260409081016000908120546001600160a01b03908116808352600f855291839020835160c08101855281548152600182015490921694820194909452600284015492810192909252600383015460608301526004830154608083015260059092015460ff16151560a08201528451919250908490849081106115f5576115f56150fa565b602002602001018190525050808061160c906150e1565b915050611546565b61161c614584565b506000908152600260208181526040928390208351610120810185528154815260018201549281019290925291820154928101929092526003810154606083015260048101546080830152600581015460a0830152600681015460c0830152600781015460e08301526008015460ff16151561010082015290565b601c5481601d546116a8919061512f565b11156116ef5760405162461bcd60e51b8152602060048201526016602482015275191b9b481d9bdd58da195c881b585e081c995dd85c9960521b6044820152606401611073565b3360009081526005602052604090206012015460ff1615156001146117485760405162461bcd60e51b815260206004820152600f60248201526e75736572206e6f742065786973747360881b6044820152606401611073565b3360009081526005602052604090206011015481111561177a5760405162461bcd60e51b815260040161107390615142565b336000908152600560205260408120601101805483929061179c9084906150ce565b9250508190555080601d60008282546117b5919061512f565b909155506117c59050338261331c565b50565b60006117d26130c5565b60006117e0333386886130ef565b6040805163e3cc09ff60e01b815233600482015260248101839052875160448201526020880151606482015290870151608482015260608701516001600160a01b0390811660a4830152608088015160c4830152919250849182169063e3cc09ff9060e401600060405180830381600087803b15801561185f57600080fd5b505af1158015611873573d6000803e3d6000fd5b50939450505050506118856001600d55565b9392505050565b60006118966130c5565b6000838152600860205260408120546117e090339081906001600160a01b0316886130ef565b600060056000336001600160a01b03166001600160a01b03168152602001908152602001600020604051806101600160405290816000820154815260200160018201604051806101000160405290816000820154815260200160018201548152602001600282015481526020016003820154815260200160048201548152602001600582015481526020016006820154815260200160078201548152505081526020016009820160405180606001604052908160008201548152602001600182015481526020016002820154815250508152602001600c8201548152602001600d8201548152602001600e8201548152602001600f820154815260200160108201548152602001601182015481526020016012820160009054906101000a900460ff16151515158152602001601382015481525050905080610120015115156001151514611a425760405162461bcd60e51b81526020600482015260136024820152721d5cd95c88191bd95cc81b9bdd08195e1a5cdd606a1b6044820152606401611073565b600c54601d54604051638242ad6b60e01b81526001600160a01b0390921691638242ad6b91611a769185919060040161516b565b610280604051808303816000875af1158015611a96573d6000803e3d6000fd5b505050506040513d601f19601f82011682018060405250810190611aba919061523a565b3360009081526005602081815260408084208551808255868401518051600184015580850151600284015580840151600384015560608082015160048501556080808301519785019790975560a080830151600686015560c080840151600787015560e09384015160088701558a8701518051600988015597880151600a87015596860151600b86015590890151600c85015595880151600d84015594870151600e83015592860151600f8201819055938601516010820155610100860151601182015561012086015160128201805460ff191691151591909117905561014086015160139091015551939450909290917f346c1f7af8fc99e714b7eb29786743977da9cb479ab1b0bf9f4d3d7dd31549a191a350565b611bd961445c565b60056000836001600160a01b03166001600160a01b03168152602001908152602001600020604051806101600160405290816000820154815260200160018201604051806101000160405290816000820154815260200160018201548152602001600282015481526020016003820154815260200160048201548152602001600582015481526020016006820154815260200160078201548152505081526020016009820160405180606001604052908160008201548152602001600182015481526020016002820154815250508152602001600c8201548152602001600d8201548152602001600e8201548152602001600f820154815260200160108201548152602001601182015481526020016012820160009054906101000a900460ff161515151581526020016013820154815250509050919050565b611d1b613098565b611d2560006133b9565b565b606082826001821015611d5057604051633a2bd95560e11b815260048101839052602401611073565b808210611d7a5760405163d427f71f60e01b81526004810182905260248101839052604401611073565b600154841115611da057604051633322840360e11b815260048101859052602401611073565b6000611dac86866150ce565b67ffffffffffffffff811115611dc457611dc4614896565b604051908082528060200260200182016040528015611dfd57816020015b611dea614584565b815260200190600190039081611de25790505b50905060005b611e0d87876150ce565b81101561135e5760026000611e22838a61512f565b81526020808201929092526040908101600020815161012081018352815481526001820154938101939093526002810154918301919091526003810154606083015260048101546080830152600581015460a0830152600681015460c0830152600781015460e08301526008015460ff1615156101008201528251839083908110611eaf57611eaf6150fa565b60200260200101819052508080611ec5906150e1565b915050611e03565b6000611ed76130c5565b336001600160a01b03851614611f95576020808601516001600160a01b038616600090815260178352604080822033835290935291909120541015611f575760405162461bcd60e51b8152602060048201526016602482015275185b1b1bddd85b98d9481a5cc81b9bdd081d985b1a5960521b6044820152606401611073565b6020808601516001600160a01b0386166000908152601783526040808220338352909352918220805491929091611f8f9084906150ce565b90915550505b611456848484886130ef565b601a5481601b54611fb2919061512f565b1115611ff85760405162461bcd60e51b8152602060048201526015602482015274191b9b481cd95b1b195c881b585e081c995dd85c99605a1b6044820152606401611073565b336000908152600f602052604090206005015460ff1615156001146120535760405162461bcd60e51b815260206004820152601160248201527073656c6c6572206e6f742065786973747360781b6044820152606401611073565b336000908152600f6020526040812060048101546002909101546120819068056bc75e2d63100000906150a6565b61208b91906150ce565b61209c9066470de4df8200006152e7565b9050808211156120be5760405162461bcd60e51b815260040161107390615142565b336000908152600f6020526040812060040180548492906120e090849061512f565b9250508190555081601b60008282546120f9919061512f565b909155506121099050338361331c565b5050565b600054600160a01b900460ff1661213757604051631867fcd960e11b815260040160405180910390fd5b61213f613098565b6012546040516370a0823160e01b81523060048201526000916001600160a01b0316906370a0823190602401602060405180830381865afa158015612188573d6000803e3d6000fd5b505050506040513d601f19601f820116820180604052508101906121ac91906152fe565b905080156117c55760125460405163a9059cbb60e01b8152336004820152602481018390526000916001600160a01b03169063a9059cbb906044015b6020604051808303816000875af1158015612207573d6000803e3d6000fd5b505050506040513d601f19601f8201168201806040525081019061222b9190615317565b9050806121095760405162461bcd60e51b815260206004820152600a6024820152697478206661696c65642160b01b6044820152606401611073565b61226f614543565b6000838152601060205260409020546001600160a01b031680158015612293575082155b156122b457604051631bf4938960e11b815260048101859052602401611073565b6001600160a01b039081166000908152600f6020908152604091829020825160c0810184528154815260018201549094169184019190915260028101549183019190915260038101546060830152600481015460808301526005015460ff16151560a08201529392505050565b600060056000336001600160a01b03166001600160a01b03168152602001908152602001600020604051806101600160405290816000820154815260200160018201604051806101000160405290816000820154815260200160018201548152602001600282015481526020016003820154815260200160048201548152602001600582015481526020016006820154815260200160078201548152505081526020016009820160405180606001604052908160008201548152602001600182015481526020016002820154815250508152602001600c8201548152602001600d8201548152602001600e8201548152602001600f820154815260200160108201548152602001601182015481526020016012820160009054906101000a900460ff161515151581526020016013820154815250509050806101200151151560011515146124a75760405162461bcd60e51b81526020600482015260136024820152721d5cd95c88191bd95cc81b9bdd08195e1a5cdd606a1b6044820152606401611073565b60005b8251811015612985576000600260008584815181106124cb576124cb6150fa565b6020908102919091018101518252818101929092526040908101600020815161012081018352815481526001820154938101939093526002810154918301919091526003810154606083015260048101546080830152600581015460a0830152600681015460c0830152600781015460e08301526008015460ff16151561010082018190529091506125955760405162461bcd60e51b81526020600482015260136024820152726f72646572206973206e6f742065786973747360681b6044820152606401611073565b8382815181106125a7576125a76150fa565b6020026020010151836040015160200151106126055760405162461bcd60e51b815260206004820181905260248201527f796f752063616e206e6f742063616c63756c617465206f6c64206f72646572736044820152606401611073565b600860005b8460a001518110156126bd5760c0830151855160009081526006602052604081208054600792919085908110612642576126426150fa565b9060005260206000200154815260200190815260200160002060000154116126ab5784516000908152600660205260408120805460079291908490811061268b5761268b6150fa565b906000526020600020015481526020019081526020016000206001015491505b806126b5816150e1565b91505061260a565b508483815181106126d0576126d06150fa565b60200260200101518460400151602001818152505060008061284e8660056000600860008960200151815260200190815260200160002060009054906101000a90046001600160a01b03166001600160a01b03166001600160a01b03168152602001908152602001600020604051806101600160405290816000820154815260200160018201604051806101000160405290816000820154815260200160018201548152602001600282015481526020016003820154815260200160048201548152602001600582015481526020016006820154815260200160078201548152505081526020016009820160405180606001604052908160008201548152602001600182015481526020016002820154815250508152602001600c8201548152602001600d8201548152602001600e8201548152602001600f820154815260200160108201548152602001601182015481526020016012820160009054906101000a900460ff16151515158152602001601382015481525050610d21565b909250905060018215151461289c5760405162461bcd60e51b815260206004820152601460248201527318da1a5b19081a5cc81b9bdd0818dbdc9c9958dd60621b6044820152606401611073565b60ff811615806128af57508060ff166001145b6128ef5760405162461bcd60e51b81526020600482015260116024820152701c9b081a5cc81b9bdd0818dbdc9c9958dd607a1b6044820152606401611073565b600c54601d54604051633072b75560e21b81526001600160a01b039092169163c1cadd5491612928918a91899189918891600401615334565b610280604051808303816000875af1158015612948573d6000803e3d6000fd5b505050506040513d601f19601f8201168201806040525081019061296c919061523a565b955050505050808061297d906150e1565b9150506124aa565b503360009081526005602081815260408084208551808255868401518051600184015580850151600284015580840151600384015560608082015160048501556080808301519785019790975560a080830151600686015560c080840151600787015560e09384015160088701558a8701518051600988015597880151600a870181905597870151600b870155918a0151600c86015596890151600d85015595880151600e84015594870151600f830155938601516010820155610100860151601182015561012086015160128201805460ff19169115159190911790556101408601516013909101555190927fc6d3a874561afb85c1bb3c6a732cdb68de81773583e3a3ae43144ac3fb2c06e591a35050565b600061188582846150a6565b60185481601954612ab6919061512f565b1115612afa5760405162461bcd60e51b8152602060048201526013602482015272191b9b481d5cd95c881b585e081c995dd85c99606a1b6044820152606401611073565b3360009081526005602052604090206012015460ff161515600114612b535760405162461bcd60e51b815260206004820152600f60248201526e75736572206e6f742065786973747360881b6044820152606401611073565b3360009081526005602052604081206008810154600790910154612b819068056bc75e2d63100000906150a6565b612b8b91906150ce565b612b9d9067011c37937e0800006152e7565b905080821115612bbf5760405162461bcd60e51b815260040161107390615142565b3360009081526005602052604081206008018054849290612be190849061512f565b9250508190555081601960008282546120f9919061512f565b612c02613098565b6000805460ff60a01b19169055565b6016546001600160a01b03163314612c3c576040516327365a1960e01b815260040160405180910390fd5b600c80546001600160a01b0319166001600160a01b0392909216919091179055565b600054600160a01b900460ff16612c8857604051631867fcd960e11b815260040160405180910390fd5b612c90613098565b6011546040516370a0823160e01b81523060048201526000916001600160a01b0316906370a0823190602401602060405180830381865afa158015612cd9573d6000803e3d6000fd5b505050506040513d601f19601f82011682018060405250810190612cfd91906152fe565b905080156117c55760115460405163a9059cbb60e01b8152336004820152602481018390526000916001600160a01b03169063a9059cbb906044016121e8565b600054600160a01b900460ff16612d6757604051631867fcd960e11b815260040160405180910390fd5b612d6f613098565b60005b81518110156121095760056000838381518110612d9157612d916150fa565b60209081029190910181015160a001516001600160a01b031682528101919091526040016000206012015460ff16612ebd57612ebd828281518110612dd857612dd86150fa565b602002602001015160000151838381518110612df657612df66150fa565b602002602001015160200151848481518110612e1457612e146150fa565b602002602001015160400151858581518110612e3257612e326150fa565b602002602001015160600151868681518110612e5057612e506150fa565b602002602001015160800151878781518110612e6e57612e6e6150fa565b602002602001015160a00151888881518110612e8c57612e8c6150fa565b602002602001015160c00151898981518110612eaa57612eaa6150fa565b602002602001015160e001516000613409565b80612ec7816150e1565b915050612d72565b612ed7613098565b6001600160a01b038116612f0157604051631e4fbdf760e01b815260006004820152602401611073565b6117c5816133b9565b6016546001600160a01b03163314612f35576040516327365a1960e01b815260040160405180910390fd5b6011546040516370a0823160e01b81523060048201526000916001600160a01b0316906370a0823190602401602060405180830381865afa158015612f7e573d6000803e3d6000fd5b505050506040513d601f19601f82011682018060405250810190612fa291906152fe565b90506064612fb18260146152e7565b612fbb91906150a6565b831115612fde57604051633728b83d60e01b815260048101849052602401611073565b601554156130175742601554623b5380612ff8919061512f565b11156130175760405163508e6c2360e11b815260040160405180910390fd5b60115460405163a9059cbb60e01b81526001600160a01b038481166004830152602482018690529091169063a9059cbb906044016020604051808303816000875af115801561306a573d6000803e3d6000fd5b505050506040513d601f19601f8201168201806040525081019061308e9190615317565b5050426015555050565b6000546001600160a01b03163314611d255760405163118cdaa760e01b8152336004820152602401611073565b6002600d54036130e857604051633ee5aeb560e01b815260040160405180910390fd5b6002600d55565b6001600160a01b03831660009081526005602052604081206012015460ff166131275761312760008060008060088989426000613409565b60608201516001600160a01b03166000908152600f602052604090206005015460ff1661315b5761315b82606001516138fd565b816040015160011480613172575081604001516002145b6131ac5760405162461bcd60e51b815260206004820152600b60248201526a3bb937b733903a37b5b2b760a91b6044820152606401611073565b6001600160a01b03841660009081526005602052604090206012015460ff1615156001146132135760405162461bcd60e51b8152602060048201526014602482015273736f6d657468696e672069732077726f6e67202160601b6044820152606401611073565b60608201516001600160a01b03166000908152600f602052604090206005015460ff16151560011461327e5760405162461bcd60e51b8152602060048201526014602482015273736f6d657468696e672069732077726f6e67202160601b6044820152606401611073565b6132888583613a1c565b613296848360000151613d5c565b6132a882606001518360000151613f99565b6040805160c0810182526001600160a01b038087166000908152600560209081528482205484526060808801519093168252600f8152908490205481840152855183850152850151908201529083015160808083019190915283015160a082015261331281614021565b9695505050505050565b601454604051631aa1577160e11b81526001600160a01b038481166004830152602482018490526000921690633542aee2906044016020604051808303816000875af1158015613370573d6000803e3d6000fd5b505050506040513d601f19601f820116820180604052508101906133949190615317565b9050806133b457604051630722ddfb60e51b815260040160405180910390fd5b505050565b600080546001600160a01b038381166001600160a01b0319831681178455604051919092169283917f8be0079c531659141344cd1fd0a4f28419497f9722a3daafe3b4186f6b6457e09190a35050565b6001600160a01b038084166000908152600560208181526040808420815161016081018352815481528251610100808201855260018401548252600284015482870152600384015482860152600484015460608084019190915284880154608080850191909152600686015460a080860191909152600787015460c080870191909152600888015460e080880191909152878b019690965288518085018a5260098901548152600a890154818c0152600b890154818b0152878a0152600c88015493870193909352600d87015491860191909152600e86015490850152600f8501549084015260108401549183019190915260118301549082015260128083015460ff9081161515610120840152601390930154610140830152968b168652939092529092209092015416156135725760405162461bcd60e51b815260206004820152600e60248201526d757365727320657869737473202160901b6044820152606401611073565b600160035411156135bb578061012001516135b65760035460405163056569ab60e21b81526001600160a01b03861660048201526024810191909152604401611073565b613612565b6001600160a01b038416156136125760405162461bcd60e51b815260206004820152601960248201527f726f6f7420706172656e74206973206e6f7420657869737473000000000000006044820152606401611073565b6002816020015160800151106136765760405162461bcd60e51b815260206004820152602360248201527f706172656e742063616e206e6f742068617665206d6f7265207468616e2032206044820152623234b960e91b6064820152608401611073565b6003546000908152600660205260409020606080519091613699916080906145d5565b50600060405180610160016040528060035481526020016040518061010001604052808f81526020018e81526020018d81526020018c8152602001600081526020018b815260200187815260200160008152508152602001604051806060016040528060008152602001600081526020016000815250815260200184606001516001613725919061512f565b815260006020808301829052604080840183905260608401839052608080850184905260a08501849052600160c0860181905260e0909501849052600354845260088352922080546001600160a01b0319166001600160a01b038d161790558601510151919250613796919061512f565b6001600160a01b038781166000908152600560208181526040808420830195909555928b168083528483208651815586850151805160018301558086015160028301558087015160038084019190915560608083015160048501556080808401519685019690965560a080840151600686015560c080850151600787015560e09485015160088701558b8b015180516009880155998a0151600a870155988a0151600b860155908a0151600c85015594890151600d84015593880151600e83015594870151600f820155938601516010850155610100860151601185015561012086015160128501805460ff19169115159190911790556101408601516013909401939093555492517fd9e1d255053318ccf2a036b32fd2a70cced70ba0d33da18b23b2ccb7d4c002799190a3600380549060006138d3836150e1565b909155505080516138e590868a61412f565b6138ef818461420e565b505050505050505050505050565b6001600160a01b0381166000908152600f602052604090206005015460ff161561395a5760405162461bcd60e51b815260206004820152600e60248201526d757365727320657869737473202160901b6044820152606401611073565b6040805160c081018252600e805482526001600160a01b03808516602080850182815260008688018181526060880182815260808901838152600160a08b01818152888652600f88528c86208c5181559651918701805492909a166001600160a01b031992831617909955925160028601559051600385015551600484015594516005909201805492151560ff1990931692909217909155845481526010909152948520805490921617905580549192613a13836150e1565b91905055505050565b805160208201511015613a425760405163078d696560e31b815260040160405180910390fd5b60008160400151600114613a61576012546001600160a01b0316613a6e565b6011546001600160a01b03165b601254835160208501519293506001600160a01b0390911691600091613a93916150ce565b845190915060008215613bf85760006064613aaf8560036152e7565b613ab991906150a6565b9050613ac581856150ce565b6013546040516323b872dd60e01b81529195506001600160a01b03808916926323b872dd92613afd928d929116908690600401615373565b6020604051808303816000875af1158015613b1c573d6000803e3d6000fd5b505050506040513d601f19601f82011682018060405250810190613b409190615317565b915081613b605760405163abab8fc960e01b815260040160405180910390fd5b60608701516040516323b872dd60e01b81526001600160a01b038816916323b872dd91613b93918c918990600401615373565b6020604051808303816000875af1158015613bb2573d6000803e3d6000fd5b505050506040513d601f19601f82011682018060405250810190613bd69190615317565b915081613bf65760405163abab8fc960e01b815260040160405180910390fd5b505b8115613d535760006064613c0d8460036152e7565b613c1791906150a6565b9050613c2381846150ce565b6013546040516323b872dd60e01b81529194506001600160a01b03808816926323b872dd92613c5b928d929116908690600401615373565b6020604051808303816000875af1158015613c7a573d6000803e3d6000fd5b505050506040513d601f19601f82011682018060405250810190613c9e9190615317565b915081613cbe5760405163abab8fc960e01b815260040160405180910390fd5b6040516323b872dd60e01b81526001600160a01b038616906323b872dd90613cee908b9030908890600401615373565b6020604051808303816000875af1158015613d0d573d6000803e3d6000fd5b505050506040513d601f19601f82011682018060405250810190613d319190615317565b915081613d515760405163abab8fc960e01b815260040160405180910390fd5b505b50505050505050565b6001600160a01b03821660009081526005602052604081206007018054839290613d8790849061512f565b92505081905550600060056000846001600160a01b03166001600160a01b03168152602001908152602001600020604051806101600160405290816000820154815260200160018201604051806101000160405290816000820154815260200160018201548152602001600282015481526020016003820154815260200160048201548152602001600582015481526020016006820154815260200160078201548152505081526020016009820160405180606001604052908160008201548152602001600182015481526020016002820154815250508152602001600c8201548152602001600d8201548152602001600e8201548152602001600f820154815260200160108201548152602001601182015481526020016012820160009054906101000a900460ff161515151581526020016013820154815250509050806020015160a00151600103613eda57505050565b6001805b81836020015160a00151613ef291906150ce565b8111613f92576001600160a01b038516600090815260056020908152604080832060070154848452600b9092529091205411801590613f4b57506001600160a01b03851660009081526005602052604090206006015481105b15613f80576001600160a01b03851660009081526005602052604090206006810182905554613f7b90428361412f565b613f92565b80613f8a816150e1565b915050613ede565b5050505050565b6001600160a01b0382166000908152600f602052604081206002018054839290613fc490849061512f565b90915550506001600160a01b0382166000818152600f6020908152604091829020600201548251858152918201527fe9b039ba5208d950d1ec71cc708e7b7df6f65be7fb465be8a54b397a4be8f3d9910160405180910390a25050565b6040805161012081018252600180548083528451602080850191825280870180518688019081528888015160608089019182528a01516080808a019182528b015160a0808b019182524260c08c01908152908d015160e08c019081526101008c018b815260009a8b526002988990528d8b208d51815599518a8d015595519789019790975592516003880155905160048701555160058601555160068501559151600784015590516008909201805460ff191692151592909217909155855190519254945191949092917f55c69eda1963e4cfeb989afa75b9fe9175dca805edf0ee115e95db30140f3c77908690a460018054906000614120836150e1565b90915550506001549392505050565b600083815260086020908152604080832080546001600160a01b039081168552600580855283862060100186905583518085018552888152808601888152600480548952600788528689208351815591516001928301558b89526006885286892090548154928301825590895287892090910155925490911685529092528220600e01805491926141bf836150e1565b91905055508183857f66833f6d7d7a01eaed9fb21eb9cc54f0fb9497fa9251a6c0773372c8d3e0aa0c60405160405180910390a460048054906000614203836150e1565b919050555050505050565b6000610100826060015161422291906150a6565b90506000610100836060015161423891906150ba565b905060005b828110156142b157835160009081526009602081815260408084208585528252808420548951855292825280842085855282528084209290925586518352600a80825282842085855282528284205489518552908252828420858552909152912055806142a9816150e1565b91505061423d565b50801561430a578251600090815260096020908152604080832085845282529091205490840151608001516142e9919083901561442e565b84516000908152600960209081526040808320868452909152902055614428565b600061432381600086602001516080015160001461442e565b855160009081526009602090815260408083208784529091529020558215613f925760006001841161435f576647656e6573697360c81b61438b565b85516000908152600a602052604081209061437b6002876150ce565b8152602001908152602001600020545b86516000908152600960205260408120919250908290826143ad6001896150ce565b8152602001908152602001600020546040516020016143d6929190918252602082015260400190565b60408051601f1981840301815291815281516020808401919091208a516000908152600a9092529181209293509091829161441260018a6150ce565b8152602081019190915260400160002055505050505b50505050565b60008061443c8460ff6150ce565b8361444857600161444b565b60005b60ff16901b85189150509392505050565b604051806101600160405280600081526020016144b760405180610100016040528060008152602001600081526020016000815260200160008152602001600081526020016000815260200160008152602001600081525090565b81526020016144e060405180606001604052806000815260200160008152602001600081525090565b8152602001600081526020016000815260200160008152602001600081526020016000815260200160008152602001600015158152602001600080191681525090565b604051806040016040528061453661445c565b8152600060209091015290565b6040518060c001604052806000815260200160006001600160a01b031681526020016000815260200160008152602001600081526020016000151581525090565b60405180610120016040528060008152602001600081526020016000815260200160008152602001600081526020016000815260200160008152602001600080191681526020016000151581525090565b828054828255906000526020600020908101928215614610579160200282015b828111156146105782518255916020019190600101906145f5565b5061461c929150614620565b5090565b5b8082111561461c5760008155600101614621565b60006020828403121561464757600080fd5b5035919050565b80356001600160a01b038116811461466557600080fd5b919050565b6000806040838503121561467d57600080fd5b6146868361464e565b91506146946020840161464e565b90509250929050565b600080604083850312156146b057600080fd5b82356001600160f81b0319811681146146c857600080fd5b9150602083013560ff811681146146de57600080fd5b809150509250929050565b600080604083850312156146fc57600080fd5b6147058361464e565b946020939093013593505050565b6000806040838503121561472657600080fd5b50508035926020909101359150565b60006020828403121561474757600080fd5b6118858261464e565b80151581146117c557600080fd5b803561466581614750565b6000806040838503121561477c57600080fd5b8235915060208301356146de81614750565b805182526020810151602083015260408101516040830152606081015160608301526080810151608083015260a081015160a083015260c081015160c083015260e081015160e08301525050565b8051825260208101516147f2602084018261478e565b50604081015161012061481b818501838051825260208082015190830152604090810151910152565b606083015161018085015260808301516101a085015260a08301516101c085015260c08301516101e085015260e0830151610200850152610100830151610220850152820151151561024084015250610140015161026090910152565b6001600160a01b03831681526102a0810161188560208301846147dc565b634e487b7160e01b600052604160045260246000fd5b604051610100810167ffffffffffffffff811182821017156148d0576148d0614896565b60405290565b6040516060810167ffffffffffffffff811182821017156148d0576148d0614896565b604051610160810167ffffffffffffffff811182821017156148d0576148d0614896565b604051601f8201601f1916810167ffffffffffffffff8111828210171561494657614946614896565b604052919050565b6000610100828403121561496157600080fd5b6149696148ac565b9050813581526020820135602082015260408201356040820152606082013560608201526080820135608082015260a082013560a082015260c082013560c082015260e082013560e082015292915050565b6000606082840312156149cd57600080fd5b6149d56148d6565b905081358152602082013560208201526040820135604082015292915050565b60006102808284031215614a0857600080fd5b614a106148f9565b905081358152614a23836020840161494e565b6020820152610120614a37848285016149bb565b604083015261018083013560608301526101a083013560808301526101c083013560a08301526101e083013560c083015261020083013560e0830152610220830135610100830152614a8c610240840161475e565b818301525061026082013561014082015292915050565b6000806105008385031215614ab757600080fd5b614ac184846149f5565b91506146948461028085016149f5565b6020808252825182820181905260009190848201906040850190845b81811015614b27578351614b028482516147dc565b8501516001600160a01b0316610280840152928401926102a090920191600101614aed565b50909695505050505050565b600060a08284031215614b4557600080fd5b60405160a0810181811067ffffffffffffffff82111715614b6857614b68614896565b8060405250809150823581526020830135602082015260408301356040820152614b946060840161464e565b6060820152608083013560808201525092915050565b6000806000806101008587031215614bc157600080fd5b614bcb8686614b33565b9350614bd960a0860161464e565b9250614be760c0860161464e565b9396929550929360e00135925050565b805182526020808201516001600160a01b03169083015260408082015190830152606080820151908301526080808201519083015260a0908101511515910152565b6020808252825182820181905260009190848201906040850190845b81811015614b2757614c68838551614bf7565b9284019260c09290920191600101614c55565b805182526020810151602083015260408101516040830152606081015160608301526080810151608083015260a081015160a083015260c081015160c083015260e081015160e083015261010080820151151581840152505050565b6101208101610b248284614c7b565b600080600060e08486031215614cfb57600080fd5b614d058585614b33565b9250614d1360a0850161464e565b9150614d2160c0850161464e565b90509250925092565b600080600060e08486031215614d3f57600080fd5b614d498585614b33565b925060a08401359150614d2160c0850161464e565b6102808101610b2482846147dc565b6020808252825182820181905260009190848201906040850190845b81811015614b2757614d9c838551614c7b565b928401926101209290920191600101614d89565b6000806000806101008587031215614dc757600080fd5b614dd18686614b33565b9350614ddf60a0860161464e565b9250614ded60c0860161464e565b9150614dfb60e0860161464e565b905092959194509250565b60c08101610b248284614bf7565b600067ffffffffffffffff821115614e2e57614e2e614896565b5060051b60200190565b60006020808385031215614e4b57600080fd5b823567ffffffffffffffff811115614e6257600080fd5b8301601f81018513614e7357600080fd5b8035614e86614e8182614e14565b61491d565b81815260059190911b82018301908381019087831115614ea557600080fd5b928401925b82841015614ec357833582529284019290840190614eaa565b979650505050505050565b60006020808385031215614ee157600080fd5b823567ffffffffffffffff811115614ef857600080fd5b8301601f81018513614f0957600080fd5b8035614f17614e8182614e14565b81815260089190911b82018301908381019087831115614f3657600080fd5b928401925b82841015614ec3576101008489031215614f555760008081fd5b614f5d6148ac565b84358152858501358682015260408086013590820152606080860135908201526080808601359082015260a0614f9481870161464e565b9082015260c0614fa586820161464e565b9082015260e0858101359082015282526101009093019290840190614f3b565b8b81526102808101614fda602083018d61478e565b8a5161012083015260208b01516101408301526040909a01516101608201526101808101989098526101a08801969096526101c08701949094526101e086019290925261020085015261022084015215156102408301526102609091015292915050565b6000806040838503121561505157600080fd5b823591506146946020840161464e565b634e487b7160e01b600052601160045260246000fd5b60ff8281168282160390811115610b2457610b24615061565b634e487b7160e01b600052601260045260246000fd5b6000826150b5576150b5615090565b500490565b6000826150c9576150c9615090565b500690565b81810381811115610b2457610b24615061565b6000600182016150f3576150f3615061565b5060010190565b634e487b7160e01b600052603260045260246000fd5b600060ff821660ff810361512657615126615061565b60010192915050565b80820180821115610b2457610b24615061565b6020808252600f908201526e616d6f756e742069732077726f6e6760881b604082015260600190565b6102a0810161517a82856147dc565b826102808301529392505050565b6000610100828403121561519b57600080fd5b6151a36148ac565b9050815181526020820151602082015260408201516040820152606082015160608201526080820151608082015260a082015160a082015260c082015160c082015260e082015160e082015292915050565b60006060828403121561520757600080fd5b61520f6148d6565b905081518152602082015160208201526040820151604082015292915050565b805161466581614750565b6000610280828403121561524d57600080fd5b6152556148f9565b825181526152668460208501615188565b602082015261012061527a858286016151f5565b604083015261018084015160608301526101a084015160808301526101c084015160a08301526101e084015160c083015261020084015160e08301526102208401516101008301526152cf610240850161522f565b90820152610260929092015161014083015250919050565b8082028115828204841417610b2457610b24615061565b60006020828403121561531057600080fd5b5051919050565b60006020828403121561532957600080fd5b815161188581614750565b610400810161534382886147dc565b615351610280830187614c7b565b846103a083015260ff84166103c0830152826103e08301529695505050505050565b6001600160a01b03938416815291909216602082015260408101919091526060019056fea2646970667358221220c7af9b96a73eead4181f141fe26314a5a0946892947f26017c0bf7cd227e189464736f6c63430008140033",
  "linkReferences": {},
  "deployedLinkReferences": {}
}