{
  "_format": "hh-sol-artifact-1",
  "contractName": "StakeMeta",
  "sourceName": "contracts/StakeMeta.sol",
  "abi": [
    {
      "inputs": [
        {
          "internalType": "address",
          "name": "uvm_token",
          "type": "address"
        },
        {
          "internalType": "address",
          "name": "dnm_token",
          "type": "address"
        },
        {
          "internalType": "address",
          "name": "land_token_wrapper",
          "type": "address"
        },
        {
          "internalType": "uint256",
          "name": "launch_time",
          "type": "uint256"
        }
      ],
      "stateMutability": "nonpayable",
      "type": "constructor"
    },
    {
      "inputs": [],
      "name": "OnlyDao",
      "type": "error"
    },
    {
      "inputs": [],
      "name": "OnlyOnce",
      "type": "error"
    },
    {
      "inputs": [
        {
          "internalType": "address",
          "name": "owner",
          "type": "address"
        }
      ],
      "name": "OwnableInvalidOwner",
      "type": "error"
    },
    {
      "inputs": [
        {
          "internalType": "address",
          "name": "account",
          "type": "address"
        }
      ],
      "name": "OwnableUnauthorizedAccount",
      "type": "error"
    },
    {
      "anonymous": false,
      "inputs": [
        {
          "indexed": true,
          "internalType": "address",
          "name": "user",
          "type": "address"
        },
        {
          "indexed": false,
          "internalType": "uint256",
          "name": "amount",
          "type": "uint256"
        }
      ],
      "name": "AddTokenToPool",
      "type": "event"
    },
    {
      "anonymous": false,
      "inputs": [
        {
          "indexed": false,
          "internalType": "uint256",
          "name": "user_id",
          "type": "uint256"
        },
        {
          "indexed": false,
          "internalType": "uint8",
          "name": "plan",
          "type": "uint8"
        },
        {
          "indexed": false,
          "internalType": "uint256",
          "name": "dnmAmount",
          "type": "uint256"
        },
        {
          "indexed": false,
          "internalType": "uint256",
          "name": "uvm_amount",
          "type": "uint256"
        },
        {
          "indexed": false,
          "internalType": "uint256",
          "name": "land_id",
          "type": "uint256"
        },
        {
          "indexed": false,
          "internalType": "uint256",
          "name": "stake_id",
          "type": "uint256"
        }
      ],
      "name": "NewStake",
      "type": "event"
    },
    {
      "anonymous": false,
      "inputs": [
        {
          "indexed": true,
          "internalType": "address",
          "name": "user_address",
          "type": "address"
        },
        {
          "indexed": false,
          "internalType": "uint256",
          "name": "user_id",
          "type": "uint256"
        }
      ],
      "name": "NewUser",
      "type": "event"
    },
    {
      "anonymous": false,
      "inputs": [
        {
          "indexed": true,
          "internalType": "address",
          "name": "previousOwner",
          "type": "address"
        },
        {
          "indexed": true,
          "internalType": "address",
          "name": "newOwner",
          "type": "address"
        }
      ],
      "name": "OwnershipTransferred",
      "type": "event"
    },
    {
      "anonymous": false,
      "inputs": [
        {
          "indexed": true,
          "internalType": "address",
          "name": "to",
          "type": "address"
        },
        {
          "indexed": false,
          "internalType": "uint256",
          "name": "amount",
          "type": "uint256"
        }
      ],
      "name": "TransferReward",
      "type": "event"
    },
    {
      "anonymous": false,
      "inputs": [
        {
          "indexed": true,
          "internalType": "address",
          "name": "user",
          "type": "address"
        },
        {
          "indexed": false,
          "internalType": "uint256",
          "name": "amount",
          "type": "uint256"
        }
      ],
      "name": "Withdraw",
      "type": "event"
    },
    {
      "anonymous": false,
      "inputs": [
        {
          "indexed": false,
          "internalType": "uint256",
          "name": "stake_id",
          "type": "uint256"
        }
      ],
      "name": "WithdrawUserStake",
      "type": "event"
    },
    {
      "inputs": [],
      "name": "DNM_TOKEN",
      "outputs": [
        {
          "internalType": "contract ERC20",
          "name": "",
          "type": "address"
        }
      ],
      "stateMutability": "view",
      "type": "function"
    },
    {
      "inputs": [],
      "name": "EIGHTEEN_MONTH_DURATION",
      "outputs": [
        {
          "internalType": "uint256",
          "name": "",
          "type": "uint256"
        }
      ],
      "stateMutability": "view",
      "type": "function"
    },
    {
      "inputs": [],
      "name": "LAND_TOKEN",
      "outputs": [
        {
          "internalType": "contract ERC721",
          "name": "",
          "type": "address"
        }
      ],
      "stateMutability": "view",
      "type": "function"
    },
    {
      "inputs": [],
      "name": "LAUNCH_TIME",
      "outputs": [
        {
          "internalType": "uint256",
          "name": "",
          "type": "uint256"
        }
      ],
      "stateMutability": "view",
      "type": "function"
    },
    {
      "inputs": [],
      "name": "ONE_YEAR_DURATION",
      "outputs": [
        {
          "internalType": "uint256",
          "name": "",
          "type": "uint256"
        }
      ],
      "stateMutability": "view",
      "type": "function"
    },
    {
      "inputs": [],
      "name": "REWARD_DECAY_FACTOR",
      "outputs": [
        {
          "internalType": "uint256",
          "name": "",
          "type": "uint256"
        }
      ],
      "stateMutability": "view",
      "type": "function"
    },
    {
      "inputs": [],
      "name": "REWARD_DECAY_PERIOD",
      "outputs": [
        {
          "internalType": "uint256",
          "name": "",
          "type": "uint256"
        }
      ],
      "stateMutability": "view",
      "type": "function"
    },
    {
      "inputs": [],
      "name": "STAKE_LIST_ID",
      "outputs": [
        {
          "internalType": "uint256",
          "name": "",
          "type": "uint256"
        }
      ],
      "stateMutability": "view",
      "type": "function"
    },
    {
      "inputs": [],
      "name": "STAKE_MAX_DNM",
      "outputs": [
        {
          "internalType": "uint256",
          "name": "",
          "type": "uint256"
        }
      ],
      "stateMutability": "view",
      "type": "function"
    },
    {
      "inputs": [],
      "name": "STAKE_MAX_UVM",
      "outputs": [
        {
          "internalType": "uint256",
          "name": "",
          "type": "uint256"
        }
      ],
      "stateMutability": "view",
      "type": "function"
    },
    {
      "inputs": [],
      "name": "STAKE_MIN_DNM",
      "outputs": [
        {
          "internalType": "uint256",
          "name": "",
          "type": "uint256"
        }
      ],
      "stateMutability": "view",
      "type": "function"
    },
    {
      "inputs": [],
      "name": "TIME_STEP",
      "outputs": [
        {
          "internalType": "uint256",
          "name": "",
          "type": "uint256"
        }
      ],
      "stateMutability": "view",
      "type": "function"
    },
    {
      "inputs": [],
      "name": "TOP_UP_PHASE",
      "outputs": [
        {
          "internalType": "uint256",
          "name": "",
          "type": "uint256"
        }
      ],
      "stateMutability": "view",
      "type": "function"
    },
    {
      "inputs": [],
      "name": "TOTAL_DNM_STAKED",
      "outputs": [
        {
          "internalType": "uint256",
          "name": "",
          "type": "uint256"
        }
      ],
      "stateMutability": "view",
      "type": "function"
    },
    {
      "inputs": [],
      "name": "TOTAL_LAND_STAKED",
      "outputs": [
        {
          "internalType": "uint256",
          "name": "",
          "type": "uint256"
        }
      ],
      "stateMutability": "view",
      "type": "function"
    },
    {
      "inputs": [],
      "name": "TOTAL_REWARD",
      "outputs": [
        {
          "internalType": "uint256",
          "name": "",
          "type": "uint256"
        }
      ],
      "stateMutability": "view",
      "type": "function"
    },
    {
      "inputs": [],
      "name": "TOTAL_UVM_STAKED",
      "outputs": [
        {
          "internalType": "uint256",
          "name": "",
          "type": "uint256"
        }
      ],
      "stateMutability": "view",
      "type": "function"
    },
    {
      "inputs": [],
      "name": "TWO_YEAR_DURATION",
      "outputs": [
        {
          "internalType": "uint256",
          "name": "",
          "type": "uint256"
        }
      ],
      "stateMutability": "view",
      "type": "function"
    },
    {
      "inputs": [],
      "name": "USER_LIST_ID",
      "outputs": [
        {
          "internalType": "uint256",
          "name": "",
          "type": "uint256"
        }
      ],
      "stateMutability": "view",
      "type": "function"
    },
    {
      "inputs": [],
      "name": "UVM_FEE_BALANCE",
      "outputs": [
        {
          "internalType": "uint256",
          "name": "",
          "type": "uint256"
        }
      ],
      "stateMutability": "view",
      "type": "function"
    },
    {
      "inputs": [],
      "name": "UVM_POOL_BALANCE",
      "outputs": [
        {
          "internalType": "uint256",
          "name": "",
          "type": "uint256"
        }
      ],
      "stateMutability": "view",
      "type": "function"
    },
    {
      "inputs": [],
      "name": "UVM_TOKEN",
      "outputs": [
        {
          "internalType": "contract ERC20",
          "name": "",
          "type": "address"
        }
      ],
      "stateMutability": "view",
      "type": "function"
    },
    {
      "inputs": [
        {
          "internalType": "uint256",
          "name": "amount",
          "type": "uint256"
        }
      ],
      "name": "addTokenToPool",
      "outputs": [],
      "stateMutability": "nonpayable",
      "type": "function"
    },
    {
      "inputs": [
        {
          "internalType": "uint8",
          "name": "plan",
          "type": "uint8"
        }
      ],
      "name": "allowedDnmAmountStake",
      "outputs": [
        {
          "internalType": "uint256",
          "name": "",
          "type": "uint256"
        }
      ],
      "stateMutability": "nonpayable",
      "type": "function"
    },
    {
      "inputs": [
        {
          "internalType": "uint256",
          "name": "dnm",
          "type": "uint256"
        }
      ],
      "name": "calDnmUvmRatio",
      "outputs": [
        {
          "internalType": "uint256",
          "name": "",
          "type": "uint256"
        }
      ],
      "stateMutability": "pure",
      "type": "function"
    },
    {
      "inputs": [
        {
          "internalType": "uint16",
          "name": "plan_type",
          "type": "uint16"
        },
        {
          "internalType": "uint256",
          "name": "dnm_amount",
          "type": "uint256"
        },
        {
          "internalType": "uint256",
          "name": "start",
          "type": "uint256"
        },
        {
          "internalType": "uint256",
          "name": "end",
          "type": "uint256"
        },
        {
          "internalType": "uint256",
          "name": "stake_duration",
          "type": "uint256"
        }
      ],
      "name": "calculateReward",
      "outputs": [
        {
          "internalType": "uint256",
          "name": "",
          "type": "uint256"
        }
      ],
      "stateMutability": "view",
      "type": "function"
    },
    {
      "inputs": [
        {
          "internalType": "uint256",
          "name": "stake_id",
          "type": "uint256"
        }
      ],
      "name": "calculateRewardForStake",
      "outputs": [
        {
          "internalType": "uint256",
          "name": "",
          "type": "uint256"
        }
      ],
      "stateMutability": "view",
      "type": "function"
    },
    {
      "inputs": [],
      "name": "dao",
      "outputs": [
        {
          "internalType": "address",
          "name": "",
          "type": "address"
        }
      ],
      "stateMutability": "view",
      "type": "function"
    },
    {
      "inputs": [],
      "name": "getActiveStake",
      "outputs": [
        {
          "components": [
            {
              "internalType": "uint256",
              "name": "userId",
              "type": "uint256"
            },
            {
              "internalType": "bool",
              "name": "exists",
              "type": "bool"
            },
            {
              "internalType": "uint8",
              "name": "plan",
              "type": "uint8"
            },
            {
              "internalType": "uint256",
              "name": "uvm",
              "type": "uint256"
            },
            {
              "internalType": "uint256",
              "name": "dnm",
              "type": "uint256"
            },
            {
              "internalType": "uint256",
              "name": "land",
              "type": "uint256"
            },
            {
              "internalType": "uint256",
              "name": "start",
              "type": "uint256"
            },
            {
              "internalType": "uint256",
              "name": "finish",
              "type": "uint256"
            },
            {
              "internalType": "uint256",
              "name": "stake_duration",
              "type": "uint256"
            },
            {
              "internalType": "uint256",
              "name": "total_paid_out",
              "type": "uint256"
            }
          ],
          "internalType": "struct StakeMeta.StakePlan[]",
          "name": "",
          "type": "tuple[]"
        }
      ],
      "stateMutability": "view",
      "type": "function"
    },
    {
      "inputs": [],
      "name": "getAllStake",
      "outputs": [
        {
          "components": [
            {
              "internalType": "uint256",
              "name": "userId",
              "type": "uint256"
            },
            {
              "internalType": "bool",
              "name": "exists",
              "type": "bool"
            },
            {
              "internalType": "uint8",
              "name": "plan",
              "type": "uint8"
            },
            {
              "internalType": "uint256",
              "name": "uvm",
              "type": "uint256"
            },
            {
              "internalType": "uint256",
              "name": "dnm",
              "type": "uint256"
            },
            {
              "internalType": "uint256",
              "name": "land",
              "type": "uint256"
            },
            {
              "internalType": "uint256",
              "name": "start",
              "type": "uint256"
            },
            {
              "internalType": "uint256",
              "name": "finish",
              "type": "uint256"
            },
            {
              "internalType": "uint256",
              "name": "stake_duration",
              "type": "uint256"
            },
            {
              "internalType": "uint256",
              "name": "total_paid_out",
              "type": "uint256"
            }
          ],
          "internalType": "struct StakeMeta.StakePlan[]",
          "name": "",
          "type": "tuple[]"
        }
      ],
      "stateMutability": "view",
      "type": "function"
    },
    {
      "inputs": [],
      "name": "getContractDNMBalance",
      "outputs": [
        {
          "internalType": "uint256",
          "name": "",
          "type": "uint256"
        }
      ],
      "stateMutability": "view",
      "type": "function"
    },
    {
      "inputs": [],
      "name": "getContractUVMBalance",
      "outputs": [
        {
          "internalType": "uint256",
          "name": "",
          "type": "uint256"
        }
      ],
      "stateMutability": "view",
      "type": "function"
    },
    {
      "inputs": [],
      "name": "getFinishedStake",
      "outputs": [
        {
          "components": [
            {
              "internalType": "uint256",
              "name": "userId",
              "type": "uint256"
            },
            {
              "internalType": "bool",
              "name": "exists",
              "type": "bool"
            },
            {
              "internalType": "uint8",
              "name": "plan",
              "type": "uint8"
            },
            {
              "internalType": "uint256",
              "name": "uvm",
              "type": "uint256"
            },
            {
              "internalType": "uint256",
              "name": "dnm",
              "type": "uint256"
            },
            {
              "internalType": "uint256",
              "name": "land",
              "type": "uint256"
            },
            {
              "internalType": "uint256",
              "name": "start",
              "type": "uint256"
            },
            {
              "internalType": "uint256",
              "name": "finish",
              "type": "uint256"
            },
            {
              "internalType": "uint256",
              "name": "stake_duration",
              "type": "uint256"
            },
            {
              "internalType": "uint256",
              "name": "total_paid_out",
              "type": "uint256"
            }
          ],
          "internalType": "struct StakeMeta.StakePlan[]",
          "name": "",
          "type": "tuple[]"
        }
      ],
      "stateMutability": "view",
      "type": "function"
    },
    {
      "inputs": [
        {
          "internalType": "uint256",
          "name": "land_id",
          "type": "uint256"
        }
      ],
      "name": "getPlanByTokenId",
      "outputs": [
        {
          "internalType": "uint8",
          "name": "",
          "type": "uint8"
        }
      ],
      "stateMutability": "pure",
      "type": "function"
    },
    {
      "inputs": [
        {
          "internalType": "uint256",
          "name": "id",
          "type": "uint256"
        }
      ],
      "name": "getStake",
      "outputs": [
        {
          "components": [
            {
              "internalType": "uint256",
              "name": "userId",
              "type": "uint256"
            },
            {
              "internalType": "bool",
              "name": "exists",
              "type": "bool"
            },
            {
              "internalType": "uint8",
              "name": "plan",
              "type": "uint8"
            },
            {
              "internalType": "uint256",
              "name": "uvm",
              "type": "uint256"
            },
            {
              "internalType": "uint256",
              "name": "dnm",
              "type": "uint256"
            },
            {
              "internalType": "uint256",
              "name": "land",
              "type": "uint256"
            },
            {
              "internalType": "uint256",
              "name": "start",
              "type": "uint256"
            },
            {
              "internalType": "uint256",
              "name": "finish",
              "type": "uint256"
            },
            {
              "internalType": "uint256",
              "name": "stake_duration",
              "type": "uint256"
            },
            {
              "internalType": "uint256",
              "name": "total_paid_out",
              "type": "uint256"
            }
          ],
          "internalType": "struct StakeMeta.StakePlan",
          "name": "sp",
          "type": "tuple"
        }
      ],
      "stateMutability": "view",
      "type": "function"
    },
    {
      "inputs": [
        {
          "internalType": "address",
          "name": "user_address",
          "type": "address"
        }
      ],
      "name": "getUser",
      "outputs": [
        {
          "internalType": "uint256",
          "name": "",
          "type": "uint256"
        },
        {
          "internalType": "bool",
          "name": "",
          "type": "bool"
        },
        {
          "internalType": "uint256",
          "name": "",
          "type": "uint256"
        }
      ],
      "stateMutability": "view",
      "type": "function"
    },
    {
      "inputs": [
        {
          "internalType": "address",
          "name": "user_address",
          "type": "address"
        }
      ],
      "name": "getUserStake",
      "outputs": [
        {
          "components": [
            {
              "internalType": "uint256",
              "name": "userId",
              "type": "uint256"
            },
            {
              "internalType": "bool",
              "name": "exists",
              "type": "bool"
            },
            {
              "internalType": "uint8",
              "name": "plan",
              "type": "uint8"
            },
            {
              "internalType": "uint256",
              "name": "uvm",
              "type": "uint256"
            },
            {
              "internalType": "uint256",
              "name": "dnm",
              "type": "uint256"
            },
            {
              "internalType": "uint256",
              "name": "land",
              "type": "uint256"
            },
            {
              "internalType": "uint256",
              "name": "start",
              "type": "uint256"
            },
            {
              "internalType": "uint256",
              "name": "finish",
              "type": "uint256"
            },
            {
              "internalType": "uint256",
              "name": "stake_duration",
              "type": "uint256"
            },
            {
              "internalType": "uint256",
              "name": "total_paid_out",
              "type": "uint256"
            }
          ],
          "internalType": "struct StakeMeta.StakePlan[]",
          "name": "",
          "type": "tuple[]"
        }
      ],
      "stateMutability": "view",
      "type": "function"
    },
    {
      "inputs": [
        {
          "internalType": "address",
          "name": "user_address",
          "type": "address"
        }
      ],
      "name": "getUserStakeIds",
      "outputs": [
        {
          "internalType": "uint256[]",
          "name": "",
          "type": "uint256[]"
        }
      ],
      "stateMutability": "view",
      "type": "function"
    },
    {
      "inputs": [],
      "name": "owner",
      "outputs": [
        {
          "internalType": "address",
          "name": "",
          "type": "address"
        }
      ],
      "stateMutability": "view",
      "type": "function"
    },
    {
      "inputs": [],
      "name": "renounceOwnership",
      "outputs": [],
      "stateMutability": "nonpayable",
      "type": "function"
    },
    {
      "inputs": [
        {
          "internalType": "address",
          "name": "_dao",
          "type": "address"
        }
      ],
      "name": "setDao",
      "outputs": [],
      "stateMutability": "nonpayable",
      "type": "function"
    },
    {
      "inputs": [
        {
          "internalType": "uint256",
          "name": "dnmAmount",
          "type": "uint256"
        },
        {
          "internalType": "uint256",
          "name": "land_id",
          "type": "uint256"
        },
        {
          "internalType": "uint256",
          "name": "stake_duration",
          "type": "uint256"
        }
      ],
      "name": "stake",
      "outputs": [],
      "stateMutability": "nonpayable",
      "type": "function"
    },
    {
      "inputs": [
        {
          "internalType": "address",
          "name": "staker",
          "type": "address"
        },
        {
          "internalType": "uint256",
          "name": "dnmAmount",
          "type": "uint256"
        },
        {
          "internalType": "uint256",
          "name": "land_id",
          "type": "uint256"
        },
        {
          "internalType": "uint256",
          "name": "stake_duration",
          "type": "uint256"
        }
      ],
      "name": "stakeFrom",
      "outputs": [],
      "stateMutability": "nonpayable",
      "type": "function"
    },
    {
      "inputs": [
        {
          "internalType": "uint256",
          "name": "",
          "type": "uint256"
        }
      ],
      "name": "stakeList",
      "outputs": [
        {
          "internalType": "uint256",
          "name": "userId",
          "type": "uint256"
        },
        {
          "internalType": "bool",
          "name": "exists",
          "type": "bool"
        },
        {
          "internalType": "uint8",
          "name": "plan",
          "type": "uint8"
        },
        {
          "internalType": "uint256",
          "name": "uvm",
          "type": "uint256"
        },
        {
          "internalType": "uint256",
          "name": "dnm",
          "type": "uint256"
        },
        {
          "internalType": "uint256",
          "name": "land",
          "type": "uint256"
        },
        {
          "internalType": "uint256",
          "name": "start",
          "type": "uint256"
        },
        {
          "internalType": "uint256",
          "name": "finish",
          "type": "uint256"
        },
        {
          "internalType": "uint256",
          "name": "stake_duration",
          "type": "uint256"
        },
        {
          "internalType": "uint256",
          "name": "total_paid_out",
          "type": "uint256"
        }
      ],
      "stateMutability": "view",
      "type": "function"
    },
    {
      "inputs": [
        {
          "internalType": "uint256",
          "name": "stake_id",
          "type": "uint256"
        },
        {
          "internalType": "uint256",
          "name": "start_time",
          "type": "uint256"
        }
      ],
      "name": "tempChangeStake",
      "outputs": [],
      "stateMutability": "nonpayable",
      "type": "function"
    },
    {
      "inputs": [
        {
          "internalType": "address",
          "name": "newOwner",
          "type": "address"
        }
      ],
      "name": "transferOwnership",
      "outputs": [],
      "stateMutability": "nonpayable",
      "type": "function"
    },
    {
      "inputs": [],
      "name": "updateTopUp",
      "outputs": [],
      "stateMutability": "nonpayable",
      "type": "function"
    },
    {
      "inputs": [
        {
          "internalType": "uint256",
          "name": "",
          "type": "uint256"
        }
      ],
      "name": "userList",
      "outputs": [
        {
          "internalType": "address",
          "name": "",
          "type": "address"
        }
      ],
      "stateMutability": "view",
      "type": "function"
    },
    {
      "inputs": [
        {
          "components": [
            {
              "internalType": "uint256",
              "name": "userId",
              "type": "uint256"
            },
            {
              "internalType": "bool",
              "name": "exists",
              "type": "bool"
            },
            {
              "internalType": "uint8",
              "name": "plan",
              "type": "uint8"
            },
            {
              "internalType": "uint256",
              "name": "uvm",
              "type": "uint256"
            },
            {
              "internalType": "uint256",
              "name": "dnm",
              "type": "uint256"
            },
            {
              "internalType": "uint256",
              "name": "land",
              "type": "uint256"
            },
            {
              "internalType": "uint256",
              "name": "start",
              "type": "uint256"
            },
            {
              "internalType": "uint256",
              "name": "finish",
              "type": "uint256"
            },
            {
              "internalType": "uint256",
              "name": "stake_duration",
              "type": "uint256"
            },
            {
              "internalType": "uint256",
              "name": "total_paid_out",
              "type": "uint256"
            }
          ],
          "internalType": "struct StakeMeta.StakePlan",
          "name": "sp",
          "type": "tuple"
        }
      ],
      "name": "withdrawAllowance",
      "outputs": [
        {
          "internalType": "uint256",
          "name": "",
          "type": "uint256"
        }
      ],
      "stateMutability": "view",
      "type": "function"
    },
    {
      "inputs": [
        {
          "internalType": "uint256",
          "name": "amount",
          "type": "uint256"
        },
        {
          "internalType": "address",
          "name": "to",
          "type": "address"
        }
      ],
      "name": "withdrawFeeByDao",
      "outputs": [],
      "stateMutability": "nonpayable",
      "type": "function"
    },
    {
      "inputs": [
        {
          "internalType": "uint256",
          "name": "stake_id",
          "type": "uint256"
        }
      ],
      "name": "withdrawReward",
      "outputs": [
        {
          "internalType": "bool",
          "name": "",
          "type": "bool"
        }
      ],
      "stateMutability": "nonpayable",
      "type": "function"
    },
    {
      "inputs": [
        {
          "internalType": "uint256",
          "name": "stake_id",
          "type": "uint256"
        },
        {
          "internalType": "bool",
          "name": "withdraw_reward",
          "type": "bool"
        }
      ],
      "name": "withdrawStake",
      "outputs": [],
      "stateMutability": "nonpayable",
      "type": "function"
    }
  ],
  "bytecode": "0x60806040526000805560006010556000601155600060125560006013553480156200002957600080fd5b506040516200445e3803806200445e8339810160408190526200004c9162000842565b600180546001600160a01b0319166001600160a01b038516179055600260205268018493fba64ef000007fe90b7bceb6e7df5418fb78d8ee546e97c83a08bbccc01a0644d599ccd2a7c2e05567c249fdd3277800007f679795a0195a1b76cdebb7c51d74e058aee92919b8c3389af86ef24535e8a28c55676124fee993bc00007f88601476d11616a71c5be67555bd1dff4b1cbf21533d2669b768b61518cfe1c3556726db992a3b1800007fee60d0579bcffd98e668647d59fec1ff86a7fb340ce572e844f234ae73a6918f55600560005267136dcc951d8c00007fb98b78633099fa36ed8b8680c4f8092689e1e04080eb9cbb077ca38a14d7e3845533806200017057604051631e4fbdf760e01b81526000600482015260240160405180910390fd5b6200017b81620007d3565b50604080518082018252670ed96754b5ab00008082526729a2241af62c0000602080840182815260016000818152600480855296517fabd6e7cb50984ff9c2f3e18a2660c3353dadf4e3291deeb275dae2cd1e44fe055591517fabd6e7cb50984ff9c2f3e18a2660c3353dadf4e3291deeb275dae2cd1e44fe0655865180880188528581526714d1120d7b160000818501818152600280865289875292517f91da3fd0782e51c6b3986e9e672fd566868e71f3dbc2d6c2cd6fbb3e361af2a755517f91da3fd0782e51c6b3986e9e672fd566868e71f3dbc2d6c2cd6fbb3e361af2a8558851808a018a52878152670a688906bd8b000081870190815260038087528a885291517f2e174c10e159ea99b867ce3205125c24a42d128804e4070ed6fcc8cc98166aa055517f2e174c10e159ea99b867ce3205125c24a42d128804e4070ed6fcc8cc98166aa1558951808b018b52888152670429d069189e00008188018181528b88528b895291517f1a1e6821cde7d0159c0d293177871e09677b4e42307c7db3ba94f8648a5a050f5590517f1a1e6821cde7d0159c0d293177871e09677b4e42307c7db3ba94f8648a5a0510558a51808c018c52988952670214e8348c4f000089880190815260058088528b895299517f04cde762ef08b6b6c5ded8e8c4c0b3f4e5c9ad7342c88fcc93681b4588b73f0555517f04cde762ef08b6b6c5ded8e8c4c0b3f4e5c9ad7342c88fcc93681b4588b73f06558a51808c018c52671657de7848610000808252673e73362871420000828a019081528789528b8a5291517f1471eb6eb2c5e789fc3de43f8ce62938c7d1836ec861730447e2ada8fd81017b5590517f1471eb6eb2c5e789fc3de43f8ce62938c7d1836ec861730447e2ada8fd81017c558b51808d018d52818152671f399b1438a10000818a019081528689528b8a5290517f89832631fb3c3307a103ba2c84ab569c64d6182a18893dcd163f0f1c2090733a55517f89832631fb3c3307a103ba2c84ab569c64d6182a18893dcd163f0f1c2090733b558b51808d018d52818152670f8b0a10e4700000818a019081528489528b8a5290517fa9bc9a3a348c357ba16b37005d7e6b3236198c0e939f4af8c5f19b8deeb8ebc055517fa9bc9a3a348c357ba16b37005d7e6b3236198c0e939f4af8c5f19b8deeb8ebc1558b51808d018d5281815267063eb89da4ed0000818a019081528c89528b8a5290517f3eec716f11ba9e820c81ca75eb978ffb45831ef8b7a53e5e422c26008e1ca6d555517f3eec716f11ba9e820c81ca75eb978ffb45831ef8b7a53e5e422c26008e1ca6d6558b51808d018d5290815267031f5c4ed27680008189019081528a88528a895290517f458b30c2d72bfd2c6317304a4594ecbafe5f729d3111b65fdc3a33bd48e5432d55517f458b30c2d72bfd2c6317304a4594ecbafe5f729d3111b65fdc3a33bd48e5432e558a51808c018c52671dd6559bdb1700008082526753444835ec580000828a019081529688526006808a5291517f3e5fec24aa4dc4e5aee2e025e51e1392c72a2500577559fae9665c6d52bd6a315595517f3e5fec24aa4dc4e5aee2e025e51e1392c72a2500577559fae9665c6d52bd6a32558b51808d018d52868152808901998a5294875280885293517f8819ef417987f8ae7a81f42cdfb18815282fe989326fbff903d13cf0e03ace295596517f8819ef417987f8ae7a81f42cdfb18815282fe989326fbff903d13cf0e03ace2a558951808b018b52848152808701928352908552828652517f75f96ab15d697e93042dc45b5c896c4b27e89bb6eaf39475c5c371cb2513f7d255517f75f96ab15d697e93042dc45b5c896c4b27e89bb6eaf39475c5c371cb2513f7d35587518089018952828152670853a0d2313c0000818601908152978452818552517fc5069e24aaadb2addc3e52e868fcf3f4f8acf5a87e24300992fd4540c2a87eed5595517fc5069e24aaadb2addc3e52e868fcf3f4f8acf5a87e24300992fd4540c2a87eee55865180880190975286528582019283529290925291905290517fbfd358e93f18da3ed276c3afdbdba00b8f0b6008a03476a6a86bd6320ee6938b55517fbfd358e93f18da3ed276c3afdbdba00b8f0b6008a03476a6a86bd6320ee6938c55600b55600880546001600160a01b039485166001600160a01b0319918216179091556009805493851693821693909317909255600a805491909316911617905562000894565b600380546001600160a01b038381166001600160a01b0319831681179093556040519116919082907f8be0079c531659141344cd1fd0a4f28419497f9722a3daafe3b4186f6b6457e090600090a35050565b80516001600160a01b03811681146200083d57600080fd5b919050565b600080600080608085870312156200085957600080fd5b620008648562000825565b9350620008746020860162000825565b9250620008846040860162000825565b6060959095015193969295505050565b613bba80620008a46000396000f3fe608060405234801561001057600080fd5b506004361061030c5760003560e01c8063763ba3561161019d578063bbadc93a116100e9578063d21d70de116100a2578063ead8dbd41161007c578063ead8dbd414610712578063f19d2e5e14610725578063f2fde38b14610735578063fc964a841461074857600080fd5b8063d21d70de146106ef578063e28231e914610702578063e66db2271461070a57600080fd5b8063bbadc93a1461068f578063bf2683c4146106a2578063c81acf5c146106b5578063c8333bb2146106be578063c835274b146106c7578063ce325bf8146106cf57600080fd5b80639df8cf7211610156578063a61e28ce11610130578063a61e28ce14610645578063a638f2e21461064e578063af4572b114610661578063b4ebaa2d1461066a57600080fd5b80639df8cf72146106085780639f4216e814610611578063a4580cd01461063a57600080fd5b8063763ba356146105a65780637fea672c146105b95780638da5cb5b146105ca578063974c4195146105db5780639965f9e2146105ee5780639d69c991146105f957600080fd5b806332bc298c1161025c578063523a3f08116102155780636841cbb4116101ef5780636841cbb4146105365780636ddf49911461053f5780636f77926b14610547578063715018a61461059e57600080fd5b8063523a3f0814610500578063631e136c1461038e5780636637b8821461052357600080fd5b806332bc298c146103f157806338f10585146103fb5780634162169f1461040357806341eedcbe1461042e5780634c86259e146104415780634cd1f5f2146104ed57600080fd5b80631f744406116102c957806326815e9a116102a357806326815e9a146103ac5780632879cf4b146103b55780633127ff95146103c8578063313da78f146103d157600080fd5b80631f744406146103855780632424e6fa1461038e57806324741b101461039957600080fd5b8063022466b5146103115780630adcbfac1461032d5780630ba70992146103425780630e17189614610355578063142b9cc21461036857806317387b581461037d575b600080fd5b61031a600b5481565b6040519081526020015b60405180910390f35b61033561075b565b60405161032491906135f3565b61031a6103503660046136ba565b61088f565b61031a61036336600461374f565b610a74565b61037b61037636600461377d565b610aa4565b005b610335610bac565b61031a60135481565b61031a6301e1338081565b61037b6103a73660046137ad565b610cff565b61031a60115481565b61031a6103c336600461374f565b610d1c565b61031a600d5481565b6103e46103df3660046137cf565b610e03565b60405161032491906137ec565b61031a6201518081565b610335610e72565b600754610416906001600160a01b031681565b6040516001600160a01b039091168152602001610324565b61037b61043c366004613824565b610fd5565b61049b61044f36600461374f565b601660205260009081526040902080546001820154600283015460038401546004850154600586015460068701546007880154600890980154969760ff8088169861010090980416968a565b604080519a8b5298151560208b015260ff909716978901979097526060880194909452608087019290925260a086015260c085015260e084015261010083019190915261012082015261014001610324565b600854610416906001600160a01b031681565b61051361050e36600461374f565b61186d565b6040519015158152602001610324565b61037b6105313660046137cf565b611bd0565b61031a60005481565b61031a611c24565b6105836105553660046137cf565b6001600160a01b0316600090815260146020526040902080546001820154600390920154909260ff90921691565b60408051938452911515602084015290820152606001610324565b61037b611c97565b600954610416906001600160a01b031681565b61031a69014542ba12a337c0000081565b6003546001600160a01b0316610416565b61031a6105e936600461385f565b611cab565b61031a6303c2670081565b61031a670de0b6b3a764000081565b61031a600c5481565b61041661061f36600461374f565b6015602052600090815260409020546001600160a01b031681565b61031a6302d1248081565b61031a600e5481565b61037b61065c36600461387a565b611ce0565b61031a60105481565b61067d61067836600461374f565b61250a565b60405160ff9091168152602001610324565b61033561069d3660046137cf565b6127bb565b61031a6106b03660046138a6565b61293f565b61031a60125481565b61031a600f5481565b61031a601481565b6106e26106dd36600461374f565b612b7a565b60405161032491906138f1565b600a54610416906001600160a01b031681565b61031a612c11565b61037b612c42565b61037b610720366004613900565b612d4f565b61031a68018493fba64ef0000081565b61037b6107433660046137cf565b61319b565b61037b61075636600461374f565b6131d6565b6060600060125467ffffffffffffffff81111561077a5761077a613642565b6040519080825280602002602001820160405280156107b357816020015b6107a06134c0565b8152602001906001900390816107985790505b50905060015b6012548111610889576000818152601660209081526040918290208251610140810184528154815260018083015460ff80821615159584019590955261010090819004909416948201949094526002820154606082015260038201546080820152600482015460a0820152600582015460c0820152600682015460e08201526007820154928101929092526008015461012082015290839061085b908461393b565b8151811061086b5761086b61394e565b6020026020010181905250808061088190613964565b9150506107b9565b50919050565b6000806108b7836040015160ff1684608001518560c001518660e0015187610100015161293f565b90506000836101200151826108cc919061393b565b9050600081116109355760405162461bcd60e51b815260206004820152602960248201527f796f7520686176652077697468647261776e20616c6c206f66207468652066756044820152681b1b081c995dd85c9960ba1b60648201526084015b60405180910390fd5b61010084015160c085015161094a904261393b565b116109975760405162461bcd60e51b815260206004820152601b60248201527f6974206973206265666f7265207374616b65206475726174696f6e0000000000604482015260640161092c565b60008461010001518560c00151426109af919061393b565b6109b9919061393b565b90506109c862278d008261397d565b6109d390600161399f565b9050600a81106109e15750600a5b6000816109ef600a8661397d565b6109f991906139b2565b905085610120015181610a0c919061393b565b925060008311610a6a5760405162461bcd60e51b8152602060048201526024808201527f796f7520686176652077697468647261776e20616c6c206f66207468652072656044820152631dd85c9960e21b606482015260840161092c565b5090949350505050565b600068018493fba64ef00000610a948369014542ba12a337c000006139b2565b610a9e919061397d565b92915050565b6007546001600160a01b03163314610acf576040516327365a1960e01b815260040160405180910390fd5b601154821115610b195760405162461bcd60e51b8152602060048201526015602482015274185b5bdd5b9d081a5cc81b9bdd0818dbdc9c9958dd605a1b604482015260640161092c565b8160116000828254610b2b919061393b565b909155505060085460405163a9059cbb60e01b81526001600160a01b038381166004830152602482018590529091169063a9059cbb906044016020604051808303816000875af1158015610b83573d6000803e3d6000fd5b505050506040513d601f19601f82011682018060405250810190610ba791906139c9565b505050565b60606000600e5467ffffffffffffffff811115610bcb57610bcb613642565b604051908082528060200260200182016040528015610c0457816020015b610bf16134c0565b815260200190600190039081610be95790505b509050600060015b6012548111610cf7576000818152601660205260408120600601549003610ce55760008181526016602090815260409182902082516101408101845281548152600182015460ff80821615159483019490945261010090819004909316938101939093526002810154606084015260038101546080840152600481015460a0840152600581015460c0840152600681015460e0840152600781015491830191909152600801546101208201528351849084908110610ccc57610ccc61394e565b6020908102919091010152610ce282600161399f565b91505b80610cef81613964565b915050610c0c565b509092915050565b610d07613347565b60009182526016602052604090912060050155565b600081815260166020526040812060019081015460ff16151514610d525760405162461bcd60e51b815260040161092c906139e6565b60008281526016602090815260409182902082516101408101845281548152600182015460ff80821615159483019490945261010090819004909316938101939093526002810154606084015260038101546080840152600481015460a0840152600581015460c0840152600681015460e084018190526007820154928401929092526008015461012083015215610df457610ded8161088f565b9392505050565b4260e0820152610ded8161088f565b6001600160a01b038116600090815260146020908152604091829020600201805483518184028101840190945280845260609392830182828015610e6657602002820191906000526020600020905b815481526020019060010190808311610e52575b50505050509050919050565b60606000600e54601254610e86919061393b565b905060008167ffffffffffffffff811115610ea357610ea3613642565b604051908082528060200260200182016040528015610edc57816020015b610ec96134c0565b815260200190600190039081610ec15790505b509050600060015b838111610fcc5760008181526016602052604090206006015415610fba5760008181526016602090815260409182902082516101408101845281548152600182015460ff80821615159483019490945261010090819004909316938101939093526002810154606084015260038101546080840152600481015460a0840152600581015460c0840152600681015460e0840152600781015491830191909152600801546101208201528351849084908110610fa157610fa161394e565b6020908102919091010152610fb782600161399f565b91505b80610fc481613964565b915050610ee4565b50909392505050565b6301e13380811480610fea57506302d1248081145b80610ff857506303c2670081145b6110395760405162461bcd60e51b8152602060048201526012602482015271496e76616c6964207374616b652074696d6560701b604482015260640161092c565b60006110448361250a565b905060068160ff1610801561105c575060008160ff16115b6110785760405162461bcd60e51b815260040161092c90613a13565b600061108382611cab565b905080851115801561109d5750670de0b6b3a76400008510155b6110b95760405162461bcd60e51b815260040161092c90613a39565b60006110c486610a74565b6009546040516370a0823160e01b815233600482015291925087916001600160a01b03909116906370a0823190602401602060405180830381865afa158015611111573d6000803e3d6000fd5b505050506040513d601f19601f820116820180604052508101906111359190613a7b565b101561117f5760405162461bcd60e51b81526020600482015260196024820152780889c9a40c4c2d8c2dcc6ca40d2e640dcdee840cadcdeeaced603b1b604482015260640161092c565b6008546040516370a0823160e01b815233600482015282916001600160a01b0316906370a0823190602401602060405180830381865afa1580156111c7573d6000803e3d6000fd5b505050506040513d601f19601f820116820180604052508101906111eb9190613a7b565b10156112095760405162461bcd60e51b815260040161092c90613a94565b600a546040516331a9108f60e11b81526004810187905233916001600160a01b031690636352211e90602401602060405180830381865afa158015611252573d6000803e3d6000fd5b505050506040513d601f19601f820116820180604052508101906112769190613acb565b6001600160a01b0316146112c85760405162461bcd60e51b8152602060048201526019602482015278165bdd48185c99481b9bdd081bdddb995c881bd9881b185b99603a1b604482015260640161092c565b6009546040516323b872dd60e01b81526000916001600160a01b0316906323b872dd906112fd90339030908c90600401613ae8565b6020604051808303816000875af115801561131c573d6000803e3d6000fd5b505050506040513d601f19601f8201168201806040525081019061134091906139c9565b90506001811515146113945760405162461bcd60e51b815260206004820152601e60248201527f496e7465726e616c204572726f72204f6e20444e4d205472616e736665720000604482015260640161092c565b86600d546113a2919061399f565b600d556008546040516323b872dd60e01b81526000916001600160a01b0316906323b872dd906113da90339030908890600401613ae8565b6020604051808303816000875af11580156113f9573d6000803e3d6000fd5b505050506040513d601f19601f8201168201806040525081019061141d91906139c9565b90506001811515146114415760405162461bcd60e51b815260040161092c90613b0c565b82600c5461144f919061399f565b600c55600a546040516323b872dd60e01b81526001600160a01b03909116906323b872dd9061148690339030908c90600401613ae8565b600060405180830381600087803b1580156114a057600080fd5b505af11580156114b4573d6000803e3d6000fd5b50505050600e5460016114c7919061399f565b600e556001600160a01b0389166000908152601460209081526040808320815160808101835281548152600182015460ff1615158185015260028201805484518187028101870186528181529295939486019383018282801561154957602002820191906000526020600020905b815481526020019060010190808311611535575b505050505081526020016003820154815250509050806020015115156000151503611643576013805490600061157e83613964565b90915550506040805160808101825260135481526001602082015290810160006040519080825280602002602001820160405280156115c7578160200160208202803683370190505b50815260006020918201819052601380548252601590925260409081902080546001600160a01b038f166001600160a01b031990911681179091559154905192935090917fd75b88a9203b17f9356ca063241beac16a25d5a46f485b378c2c229e864bdd4d9161163a9190815260200190565b60405180910390a25b6040805161014081018252825181526001602082015260ff88169181019190915260608101859052608081018a905260a081018990524260c0820152600060e082018190526101008201899052610120820181905260128054916116a683613964565b9190505550806016600060125481526020019081526020016000206000820151816000015560208201518160010160006101000a81548160ff02191690831515021790555060408201518160010160016101000a81548160ff021916908360ff160217905550606082015181600201556080820151816003015560a0820151816004015560c0820151816005015560e082015181600601556101008201518160070155610120820151816008015590505081601460008d6001600160a01b03166001600160a01b031681526020019081526020016000206000820151816000015560208201518160010160006101000a81548160ff02191690831515021790555060408201518160020190805190602001906117c3929190613518565b50606091820151600391909101556001600160a01b038c1660009081526014602090815260408083206012805460029092018054600181018255908652948490209094015585519254815193845260ff8c16928401929092528281018e9052928201889052608082018c905260a082015290517fe63a5261debedf32bcae3ebaf6d8f288e9c71cfbcb99ec6e1832eef7255e8e2b9181900360c00190a15050505050505050505050565b336000908152601460209081526040808320848452601683528184208251610140810184528154815260018083015460ff808216151597840197909752610100908190048716958301959095526002830154606083015260038301546080830152600483015460a0830152600583015460c0830152600683015460e0830152600783015494820194909452600890910154610120820152828201549193909291161515146119535760405162461bcd60e51b81526020600482015260136024820152721d5cd95c88191bd95cc81b9bdd08195e1a5cdd606a1b604482015260640161092c565b602081015115156001146119795760405162461bcd60e51b815260040161092c906139e6565b815481511461199a5760405162461bcd60e51b815260040161092c90613b43565b61010081015160c08201516119af904261393b565b116119fc5760405162461bcd60e51b815260206004820152601f60248201527f596f752073686f756c642077616974206174206c656173742061207965617200604482015260640161092c565b6000611a0785610d1c565b9050806010541015611a4b5760405162461bcd60e51b815260206004820152600d60248201526c506f6f6c20697320656d70747960981b604482015260640161092c565b808261012001818151611a5e919061399f565b905250600383018054829190600090611a7890849061399f565b9091555060009050670de0b6b3a7640000611a9a83662386f26fc100006139b2565b611aa4919061397d565b611aae908361393b565b90506000611abc828461393b565b90508115611bc35782601054611ad2919061393b565b60105560008781526016602090815260409182902086518155908601516001820180549388015161ffff1990941691151561ff0019169190911761010060ff9094168402179055606086015160028201556080860151600382015560a0860151600482015560c0860151600582015560e08601516006820155908501516007820155610120850151600890910155611b6a3383613374565b8060116000828254611b7c919061399f565b909155505060405182815233907f884edad9ce6fa2440d8a54cc123490eb96d2768479d49ff9c7366125a94243649060200160405180910390a25060019695505050505050565b5060009695505050505050565b611bd8613347565b6007546001600160a01b031615611c025760405163041d6a9760e51b815260040160405180910390fd5b600780546001600160a01b0319166001600160a01b0392909216919091179055565b6009546040516370a0823160e01b81523060048201526000916001600160a01b0316906370a08231906024015b602060405180830381865afa158015611c6e573d6000803e3d6000fd5b505050506040513d601f19601f82011682018060405250810190611c929190613a7b565b905090565b611c9f613347565b611ca96000613438565b565b6000611cb5612c42565b600054611cc390600161399f565b60ff8316600090815260026020526040902054610a9e91906139b2565b6301e13380811480611cf557506302d1248081145b80611d0357506303c2670081145b611d445760405162461bcd60e51b8152602060048201526012602482015271496e76616c6964207374616b652074696d6560701b604482015260640161092c565b6000611d4f8361250a565b905060068160ff16108015611d67575060008160ff16115b611d835760405162461bcd60e51b815260040161092c90613a13565b6000611d8e82611cab565b9050808511158015611da85750670de0b6b3a76400008510155b611dc45760405162461bcd60e51b815260040161092c90613a39565b6000611dcf86610a74565b6009546040516370a0823160e01b815233600482015291925087916001600160a01b03909116906370a0823190602401602060405180830381865afa158015611e1c573d6000803e3d6000fd5b505050506040513d601f19601f82011682018060405250810190611e409190613a7b565b1015611e8a5760405162461bcd60e51b81526020600482015260196024820152780889c9a40c4c2d8c2dcc6ca40d2e640dcdee840cadcdeeaced603b1b604482015260640161092c565b6008546040516370a0823160e01b815233600482015282916001600160a01b0316906370a0823190602401602060405180830381865afa158015611ed2573d6000803e3d6000fd5b505050506040513d601f19601f82011682018060405250810190611ef69190613a7b565b1015611f145760405162461bcd60e51b815260040161092c90613a94565b600a546040516331a9108f60e11b81526004810187905233916001600160a01b031690636352211e90602401602060405180830381865afa158015611f5d573d6000803e3d6000fd5b505050506040513d601f19601f82011682018060405250810190611f819190613acb565b6001600160a01b031614611fd35760405162461bcd60e51b8152602060048201526019602482015278165bdd48185c99481b9bdd081bdddb995c881bd9881b185b99603a1b604482015260640161092c565b6009546040516323b872dd60e01b81526000916001600160a01b0316906323b872dd9061200890339030908c90600401613ae8565b6020604051808303816000875af1158015612027573d6000803e3d6000fd5b505050506040513d601f19601f8201168201806040525081019061204b91906139c9565b905060018115151461209f5760405162461bcd60e51b815260206004820152601e60248201527f496e7465726e616c204572726f72204f6e20444e4d205472616e736665720000604482015260640161092c565b86600d546120ad919061399f565b600d556008546040516323b872dd60e01b81526000916001600160a01b0316906323b872dd906120e590339030908890600401613ae8565b6020604051808303816000875af1158015612104573d6000803e3d6000fd5b505050506040513d601f19601f8201168201806040525081019061212891906139c9565b905060018115151461214c5760405162461bcd60e51b815260040161092c90613b0c565b82600c5461215a919061399f565b600c55600a546040516323b872dd60e01b81526001600160a01b03909116906323b872dd9061219190339030908c90600401613ae8565b600060405180830381600087803b1580156121ab57600080fd5b505af11580156121bf573d6000803e3d6000fd5b50505050600e5460016121d2919061399f565b600e55336000908152601460209081526040808320815160808101835281548152600182015460ff1615158185015260028201805484518187028101870186528181529295939486019383018282801561224b57602002820191906000526020600020905b815481526020019060010190808311612237575b50505050508152602001600382015481525050905080602001511515600015150361232f576013805490600061228083613964565b90915550506040805160808101825260135481526001602082015290810160006040519080825280602002602001820160405280156122c9578160200160208202803683370190505b508152600060209182018190526013805482526015835260409182902080546001600160a01b03191633908117909155905491519182529293507fd75b88a9203b17f9356ca063241beac16a25d5a46f485b378c2c229e864bdd4d910160405180910390a25b6040805161014081018252825181526001602082015260ff88169181019190915260608101859052608081018a905260a081018990524260c0820152600060e0820181905261010082018990526101208201819052601280549161239283613964565b909155505060125460009081526016602090815260408083208451815584830151600180830180548886015161ffff1990911693151561ff0019169390931761010060ff909416840217905560608701516002808501919091556080880151600385015560a0880151600485015560c0880151600585015560e0880151600685015591870151600784015561012087015160089093019290925533855260148452938290208651815586840151918101805460ff1916921515929092179091559085015180518694929361246a938501920190613518565b50606091820151600391909101553360009081526014602090815260408083206012805460029092018054600181018255908652948490209094015585519254815193845260ff8c16928401929092528281018e9052928201889052608082018c905260a082015290517fe63a5261debedf32bcae3ebaf6d8f288e9c71cfbcb99ec6e1832eef7255e8e2b9181900360c00190a150505050505050505050565b60006001821015801561251f5750611f408211155b1561252c57506001919050565b611f4182101580156125405750613a988211155b1561254d57506002919050565b613a9982101580156125615750614e208211155b1561256e57506003919050565b614e21821015801561258257506159d88211155b1561258f57506004919050565b6159d982101580156125a357506161a88211155b156125b057506005919050565b6161a982101580156125c457506180e88211155b156125d157506001919050565b6180e982101580156125e55750619c408211155b156125f257506002919050565b619c418210158015612606575061afc88211155b1561261357506003919050565b61afc98210158015612627575061bb808211155b1561263457506004919050565b61bb818210158015612648575061c3508211155b1561265557506005919050565b61c3518210158015612669575061e2908211155b1561267657506001919050565b61e291821015801561268a575061fde88211155b1561269757506002919050565b61fde982101580156126ac5750620111708211155b156126b957506003919050565b6201117182101580156126cf575062011d288211155b156126dc57506004919050565b62011d2982101580156126f25750620124f88211155b156126ff57506005919050565b620124f982101580156127155750620144388211155b1561272257506001919050565b620144398210158015612738575062015f908211155b1561274557506002919050565b62015f91821015801561275b5750620173188211155b1561276857506003919050565b62017319821015801561277e575062017ed08211155b1561278b57506004919050565b62017ed182101580156127a15750620186a08211155b156127ae57506005919050565b506000919050565b919050565b6001600160a01b0381166000908152601460205260408120600201546060918167ffffffffffffffff8111156127f3576127f3613642565b60405190808252806020026020018201604052801561282c57816020015b6128196134c0565b8152602001906001900390816128115790505b50905060005b82811015612937576001600160a01b0385166000908152601460205260408120600201805460169291908490811061286c5761286c61394e565b60009182526020808320909101548352828101939093526040918201902081516101408101835281548152600182015460ff80821615159583019590955261010090819004909416928101929092526002810154606083015260038101546080830152600481015460a0830152600581015460c0830152600681015460e083015260078101549282019290925260089091015461012082015282518390839081106129195761291961394e565b6020026020010181905250808061292f90613964565b915050612832565b509392505050565b600060068661ffff16108015612959575060008661ffff16115b6129755760405162461bcd60e51b815260040161092c90613a13565b600085116129ba5760405162461bcd60e51b8152602060048201526012602482015271125b9d985b1a5908191b9b48185b5bdd5b9d60721b604482015260640161092c565b82841115612a025760405162461bcd60e51b8152602060048201526015602482015274125b9d985b1a59081cdd185c9d08185b9908195b99605a1b604482015260640161092c565b600062015180612a12868661393b565b612a1c919061397d565b9050600060015b828111612b6e5760006301e13380600b5462015180600185612a45919061393b565b612a4f91906139b2565b612a59908b61399f565b612a63919061393b565b612a6d919061397d565b90506000806301e133808803612aa05761ffff8c166000908152600460205260409020612a9a908c61348a565b90925090505b6302d124808803612ace5761ffff8c166000908152600560205260409020612ac8908c61348a565b90925090505b6303c267008803612afc5761ffff8c166000908152600660205260409020612af6908c61348a565b90925090505b6000612b08828461399f565b905060005b84811015612b4a576064612b2260148261393b565b612b2c90846139b2565b612b36919061397d565b915080612b4281613964565b915050612b0d565b50612b55818761399f565b9550505050508080612b6690613964565b915050612a23565b50979650505050505050565b612b826134c0565b5060009081526016602090815260409182902082516101408101845281548152600182015460ff80821615159483019490945261010090819004909316938101939093526002810154606084015260038101546080840152600481015460a0840152600581015460c0840152600681015460e08401526007810154918301919091526008015461012082015290565b6008546040516370a0823160e01b81523060048201526000916001600160a01b0316906370a0823190602401611c51565b600154604080516318160ddd60e01b815290516000926001600160a01b0316916318160ddd9160048083019260209291908290030181865afa158015612c8c573d6000803e3d6000fd5b505050506040513d601f19601f82011682018060405250810190612cb09190613a7b565b90506a07324bf1ed9079c58000008110612ccc57600660005550565b6a05ff3f499b4dbacf4000008110612ce657600560005550565b6a04cc32a1490afbd90000008110612d0057600460005550565b6a039925f8f6c83ce2c000008110612d1a57600360005550565b6a02661950a4857dec8000008110612d3457600260005550565b6a01330ca85242bef64000008110612d4c5760016000555b50565b33600090815260146020908152604080832085845260168352928190208151610140810183528154815260018083015460ff808216151596840196909652610100908190048616948301949094526002830154606083015260038301546080830152600483015460a0830152600583015460c0830152600683015460e083015260078301549382019390935260089091015461012082015281840154909216151514612e335760405162461bcd60e51b81526020600482015260136024820152721d5cd95c88191bd95cc81b9bdd08195e1a5cdd606a1b604482015260640161092c565b60208101511515600114612e595760405162461bcd60e51b815260040161092c906139e6565b60e081015115612ea15760405162461bcd60e51b81526020600482015260136024820152727374616b65206973206e6f742061637469766560681b604482015260640161092c565b8154815114612ec25760405162461bcd60e51b815260040161092c90613b43565b61010081015160c0820151612ed7904261393b565b11612f245760405162461bcd60e51b815260206004820152601f60248201527f596f752073686f756c642077616974206174206c656173742061207965617200604482015260640161092c565b4260e0820190815260008581526016602090815260409182902084518155908401516001820180548487015161ffff1990911692151561ff0019169290921761010060ff90931683021790556060850151600283018190556080860151600384015560a086015160048085019190915560c08701516005850155945160068401559085015160078301556101208501516008928301559054915163a9059cbb60e01b8152339381019390935260248301526001600160a01b03169063a9059cbb906044016020604051808303816000875af1158015613007573d6000803e3d6000fd5b505050506040513d601f19601f8201168201806040525081019061302b91906139c9565b508060600151600c5461303e919061393b565b600c55600954608082015160405163a9059cbb60e01b815233600482015260248101919091526001600160a01b039091169063a9059cbb906044016020604051808303816000875af1158015613098573d6000803e3d6000fd5b505050506040513d601f19601f820116820180604052508101906130bc91906139c9565b508060800151600d546130cf919061393b565b600d55600a5460a08201516040516323b872dd60e01b81526001600160a01b03909216916323b872dd916131099130913391600401613ae8565b600060405180830381600087803b15801561312357600080fd5b505af1158015613137573d6000803e3d6000fd5b505050506001600e5461314a919061393b565b600e55821515600103613162576131608461186d565b505b6040518481527fbf82b326dece9f8ab13bc4f7bb7d61eef7ba78986c3f5b35cba39bea331844459060200160405180910390a150505050565b6131a3613347565b6001600160a01b0381166131cd57604051631e4fbdf760e01b81526000600482015260240161092c565b612d4c81613438565b6008546040516370a0823160e01b815233600482015282916001600160a01b0316906370a0823190602401602060405180830381865afa15801561321e573d6000803e3d6000fd5b505050506040513d601f19601f820116820180604052508101906132429190613a7b565b10156132605760405162461bcd60e51b815260040161092c90613a94565b6008546040516323b872dd60e01b81526000916001600160a01b0316906323b872dd9061329590339030908790600401613ae8565b6020604051808303816000875af11580156132b4573d6000803e3d6000fd5b505050506040513d601f19601f820116820180604052508101906132d891906139c9565b90506001811515146132fc5760405162461bcd60e51b815260040161092c90613b0c565b8160105461330a919061399f565b60105560405182815233907f685455f4b0eabaeb2c46de87f47dfc665a4f0f8bb345f444535c1bbfdf98498b906020015b60405180910390a25050565b6003546001600160a01b03163314611ca95760405163118cdaa760e01b815233600482015260240161092c565b80600f54613382919061399f565b600f5560085460405163a9059cbb60e01b81526001600160a01b038481166004830152602482018490529091169063a9059cbb906044016020604051808303816000875af11580156133d8573d6000803e3d6000fd5b505050506040513d601f19601f820116820180604052508101906133fc91906139c9565b50816001600160a01b03167f65ba0d013dd6bc1414e500ad30e4d210e42f0159a37abcbc8f78e8e10a6a87658260405161333b91815260200190565b600380546001600160a01b038381166001600160a01b0319831681179093556040519116919082907f8be0079c531659141344cd1fd0a4f28419497f9722a3daafe3b4186f6b6457e090600090a35050565b6000808360010154670de0b6b3a76400008486600001546134ab91906139b2565b6134b5919061397d565b915091509250929050565b60405180610140016040528060008152602001600015158152602001600060ff168152602001600081526020016000815260200160008152602001600081526020016000815260200160008152602001600081525090565b828054828255906000526020600020908101928215613553579160200282015b82811115613553578251825591602001919060010190613538565b5061355f929150613563565b5090565b5b8082111561355f5760008155600101613564565b80518252602081015161358f602084018215159052565b5060408101516135a4604084018260ff169052565b50606081015160608301526080810151608083015260a081015160a083015260c081015160c083015260e081015160e08301526101008082015181840152506101208082015181840152505050565b6020808252825182820181905260009190848201906040850190845b8181101561363657613622838551613578565b92840192610140929092019160010161360f565b50909695505050505050565b634e487b7160e01b600052604160045260246000fd5b604051610140810167ffffffffffffffff8111828210171561368a57634e487b7160e01b600052604160045260246000fd5b60405290565b8015158114612d4c57600080fd5b80356127b681613690565b803560ff811681146127b657600080fd5b600061014082840312156136cd57600080fd5b6136d5613658565b823581526136e56020840161369e565b60208201526136f6604084016136a9565b6040820152606083013560608201526080830135608082015260a083013560a082015260c083013560c082015260e083013560e08201526101008084013581830152506101208084013581830152508091505092915050565b60006020828403121561376157600080fd5b5035919050565b6001600160a01b0381168114612d4c57600080fd5b6000806040838503121561379057600080fd5b8235915060208301356137a281613768565b809150509250929050565b600080604083850312156137c057600080fd5b50508035926020909101359150565b6000602082840312156137e157600080fd5b8135610ded81613768565b6020808252825182820181905260009190848201906040850190845b8181101561363657835183529284019291840191600101613808565b6000806000806080858703121561383a57600080fd5b843561384581613768565b966020860135965060408601359560600135945092505050565b60006020828403121561387157600080fd5b610ded826136a9565b60008060006060848603121561388f57600080fd5b505081359360208301359350604090920135919050565b600080600080600060a086880312156138be57600080fd5b853561ffff811681146138d057600080fd5b97602087013597506040870135966060810135965060800135945092505050565b6101408101610a9e8284613578565b6000806040838503121561391357600080fd5b8235915060208301356137a281613690565b634e487b7160e01b600052601160045260246000fd5b81810381811115610a9e57610a9e613925565b634e487b7160e01b600052603260045260246000fd5b60006001820161397657613976613925565b5060010190565b60008261399a57634e487b7160e01b600052601260045260246000fd5b500490565b80820180821115610a9e57610a9e613925565b8082028115828204841417610a9e57610a9e613925565b6000602082840312156139db57600080fd5b8151610ded81613690565b6020808252601390820152727374616b65206973206e6f742065786973747360681b604082015260600190565b6020808252600c908201526b24b73b30b634b210383630b760a11b604082015260600190565b60208082526022908201527f444e4d20616d6f756e74206973206e6f7420696e20636f72726563742072616e604082015261676560f01b606082015260800190565b600060208284031215613a8d57600080fd5b5051919050565b60208082526019908201527f55564d2062616c616e6365206973206e6f7420656e6f75676800000000000000604082015260600190565b600060208284031215613add57600080fd5b8151610ded81613768565b6001600160a01b039384168152919092166020820152604081019190915260600190565b6020808252601e908201527f496e7465726e616c204572726f72204f6e2055766d205472616e736665720000604082015260600190565b60208082526021908201527f796f752063616e206f6e6c7920776974686472617720796f75722072657761726040820152601960fa1b60608201526080019056fea26469706673582212200017bdf65f0729911dd1cf74989406772ea93e7cb7f890c0c59f38ea6228495164736f6c63430008140033",
  "linkReferences": {},
  "deployedLinkReferences": {}
}