{
  "_format": "hh-sol-artifact-1",
  "contractName": "CallBack",
  "sourceName": "contracts/CallBack.sol",
  "abi": [
    {
      "inputs": [],
      "name": "DevTimeOver",
      "type": "error"
    },
    {
      "inputs": [],
      "name": "InvalidPayment",
      "type": "error"
    },
    {
      "inputs": [
        {
          "internalType": "address",
          "name": "owner",
          "type": "address"
        }
      ],
      "name": "OwnableInvalidOwner",
      "type": "error"
    },
    {
      "inputs": [
        {
          "internalType": "address",
          "name": "account",
          "type": "address"
        }
      ],
      "name": "OwnableUnauthorizedAccount",
      "type": "error"
    },
    {
      "inputs": [],
      "name": "PaymentError",
      "type": "error"
    },
    {
      "inputs": [],
      "name": "TransferError",
      "type": "error"
    },
    {
      "anonymous": false,
      "inputs": [
        {
          "indexed": true,
          "internalType": "address",
          "name": "previousOwner",
          "type": "address"
        },
        {
          "indexed": true,
          "internalType": "address",
          "name": "newOwner",
          "type": "address"
        }
      ],
      "name": "OwnershipTransferred",
      "type": "event"
    },
    {
      "inputs": [],
      "name": "Token1",
      "outputs": [
        {
          "internalType": "contract IERC20",
          "name": "",
          "type": "address"
        }
      ],
      "stateMutability": "view",
      "type": "function"
    },
    {
      "inputs": [],
      "name": "Token2",
      "outputs": [
        {
          "internalType": "contract IERC20",
          "name": "",
          "type": "address"
        }
      ],
      "stateMutability": "view",
      "type": "function"
    },
    {
      "inputs": [
        {
          "internalType": "address",
          "name": "wallet_address",
          "type": "address"
        }
      ],
      "name": "changeFeeWallet",
      "outputs": [],
      "stateMutability": "nonpayable",
      "type": "function"
    },
    {
      "inputs": [],
      "name": "feeWallet",
      "outputs": [
        {
          "internalType": "address",
          "name": "",
          "type": "address"
        }
      ],
      "stateMutability": "view",
      "type": "function"
    },
    {
      "inputs": [
        {
          "internalType": "address",
          "name": "user_addr",
          "type": "address"
        },
        {
          "internalType": "uint256",
          "name": "order_id",
          "type": "uint256"
        },
        {
          "components": [
            {
              "internalType": "uint256",
              "name": "bv_value",
              "type": "uint256"
            },
            {
              "internalType": "uint256",
              "name": "sv_value",
              "type": "uint256"
            },
            {
              "internalType": "uint256",
              "name": "seller_token",
              "type": "uint256"
            },
            {
              "internalType": "address",
              "name": "seller_address",
              "type": "address"
            },
            {
              "internalType": "bytes32",
              "name": "data",
              "type": "bytes32"
            }
          ],
          "internalType": "struct Payments.PaymentData",
          "name": "paymentData",
          "type": "tuple"
        }
      ],
      "name": "from_gateway",
      "outputs": [],
      "stateMutability": "nonpayable",
      "type": "function"
    },
    {
      "inputs": [],
      "name": "isDev",
      "outputs": [
        {
          "internalType": "bool",
          "name": "",
          "type": "bool"
        }
      ],
      "stateMutability": "view",
      "type": "function"
    },
    {
      "inputs": [],
      "name": "owner",
      "outputs": [
        {
          "internalType": "address",
          "name": "",
          "type": "address"
        }
      ],
      "stateMutability": "view",
      "type": "function"
    },
    {
      "inputs": [],
      "name": "renounceOwnership",
      "outputs": [],
      "stateMutability": "nonpayable",
      "type": "function"
    },
    {
      "inputs": [],
      "name": "switchToProduction",
      "outputs": [],
      "stateMutability": "nonpayable",
      "type": "function"
    },
    {
      "inputs": [
        {
          "internalType": "address",
          "name": "newOwner",
          "type": "address"
        }
      ],
      "name": "transferOwnership",
      "outputs": [],
      "stateMutability": "nonpayable",
      "type": "function"
    }
  ],
  "bytecode": "0x60806040526000805460ff60a01b1916600160a01b17905534801561002357600080fd5b50338061004a57604051631e4fbdf760e01b81526000600482015260240160405180910390fd5b6100538161006b565b50600380546001600160a01b031916331790556100bb565b600080546001600160a01b038381166001600160a01b0319831681178455604051919092169283917f8be0079c531659141344cd1fd0a4f28419497f9722a3daafe3b4186f6b6457e09190a35050565b610346806100ca6000396000f3fe608060405234801561001057600080fd5b506004361061009e5760003560e01c8063c2f29eb011610066578063c2f29eb014610110578063e3cc09ff14610118578063f079914f1461012b578063f25f4b561461014f578063f2fde38b1461016257600080fd5b80633e4d0310146100a3578063715018a6146100b85780638da5cb5b146100c057806396a8797e146100ea578063a4baecc9146100fd575b600080fd5b6100b66100b13660046102a6565b610175565b005b6100b661019f565b6000546001600160a01b03165b6040516001600160a01b0390911681526020015b60405180910390f35b6001546100cd906001600160a01b031681565b6002546100cd906001600160a01b031681565b6100b66101b3565b6100b66101263660046102c8565b505050565b60005461013f90600160a01b900460ff1681565b60405190151581526020016100e1565b6003546100cd906001600160a01b031681565b6100b66101703660046102a6565b6101ca565b61017d61020d565b600380546001600160a01b0319166001600160a01b0392909216919091179055565b6101a761020d565b6101b1600061023a565b565b6101bb61020d565b6000805460ff60a01b19169055565b6101d261020d565b6001600160a01b03811661020157604051631e4fbdf760e01b8152600060048201526024015b60405180910390fd5b61020a8161023a565b50565b6000546001600160a01b031633146101b15760405163118cdaa760e01b81523360048201526024016101f8565b600080546001600160a01b038381166001600160a01b0319831681178455604051919092169283917f8be0079c531659141344cd1fd0a4f28419497f9722a3daafe3b4186f6b6457e09190a35050565b80356001600160a01b03811681146102a157600080fd5b919050565b6000602082840312156102b857600080fd5b6102c18261028a565b9392505050565b600080600083850360e08112156102de57600080fd5b6102e78561028a565b93506020850135925060a0603f198201121561030257600080fd5b50604084019050925092509256fea26469706673582212203371b8302858f6a3dba4f4b40f27f3a676991f17ed41643de94f29d65ff7c3e164736f6c63430008140033",
  "linkReferences": {},
  "deployedLinkReferences": {}
}